{
  "_format": "hh-sol-artifact-1",
  "contractName": "VotesMock",
  "sourceName": "contracts/mocks/VotesMock.sol",
  "abi": [
    {
      "inputs": [
        {
          "internalType": "string",
          "name": "name",
          "type": "string"
        }
      ],
      "stateMutability": "nonpayable",
      "type": "constructor"
    },
    {
      "anonymous": false,
      "inputs": [
        {
          "indexed": true,
          "internalType": "address",
          "name": "delegator",
          "type": "address"
        },
        {
          "indexed": true,
          "internalType": "address",
          "name": "fromDelegate",
          "type": "address"
        },
        {
          "indexed": true,
          "internalType": "address",
          "name": "toDelegate",
          "type": "address"
        }
      ],
      "name": "DelegateChanged",
      "type": "event"
    },
    {
      "anonymous": false,
      "inputs": [
        {
          "indexed": true,
          "internalType": "address",
          "name": "delegate",
          "type": "address"
        },
        {
          "indexed": false,
          "internalType": "uint256",
          "name": "previousBalance",
          "type": "uint256"
        },
        {
          "indexed": false,
          "internalType": "uint256",
          "name": "newBalance",
          "type": "uint256"
        }
      ],
      "name": "DelegateVotesChanged",
      "type": "event"
    },
    {
      "inputs": [],
      "name": "DOMAIN_SEPARATOR",
      "outputs": [
        {
          "internalType": "bytes32",
          "name": "",
          "type": "bytes32"
        }
      ],
      "stateMutability": "view",
      "type": "function"
    },
    {
      "inputs": [
        {
          "internalType": "uint256",
          "name": "voteId",
          "type": "uint256"
        }
      ],
      "name": "burn",
      "outputs": [],
      "stateMutability": "nonpayable",
      "type": "function"
    },
    {
      "inputs": [
        {
          "internalType": "address",
          "name": "delegatee",
          "type": "address"
        }
      ],
      "name": "delegate",
      "outputs": [],
      "stateMutability": "nonpayable",
      "type": "function"
    },
    {
      "inputs": [
        {
          "internalType": "address",
          "name": "account",
          "type": "address"
        },
        {
          "internalType": "address",
          "name": "newDelegation",
          "type": "address"
        }
      ],
      "name": "delegate",
      "outputs": [],
      "stateMutability": "nonpayable",
      "type": "function"
    },
    {
      "inputs": [
        {
          "internalType": "address",
          "name": "delegatee",
          "type": "address"
        },
        {
          "internalType": "uint256",
          "name": "nonce",
          "type": "uint256"
        },
        {
          "internalType": "uint256",
          "name": "expiry",
          "type": "uint256"
        },
        {
          "internalType": "uint8",
          "name": "v",
          "type": "uint8"
        },
        {
          "internalType": "bytes32",
          "name": "r",
          "type": "bytes32"
        },
        {
          "internalType": "bytes32",
          "name": "s",
          "type": "bytes32"
        }
      ],
      "name": "delegateBySig",
      "outputs": [],
      "stateMutability": "nonpayable",
      "type": "function"
    },
    {
      "inputs": [
        {
          "internalType": "address",
          "name": "account",
          "type": "address"
        }
      ],
      "name": "delegates",
      "outputs": [
        {
          "internalType": "address",
          "name": "",
          "type": "address"
        }
      ],
      "stateMutability": "view",
      "type": "function"
    },
    {
      "inputs": [],
      "name": "getChainId",
      "outputs": [
        {
          "internalType": "uint256",
          "name": "",
          "type": "uint256"
        }
      ],
      "stateMutability": "view",
      "type": "function"
    },
    {
      "inputs": [
        {
          "internalType": "uint256",
          "name": "blockNumber",
          "type": "uint256"
        }
      ],
      "name": "getPastTotalSupply",
      "outputs": [
        {
          "internalType": "uint256",
          "name": "",
          "type": "uint256"
        }
      ],
      "stateMutability": "view",
      "type": "function"
    },
    {
      "inputs": [
        {
          "internalType": "address",
          "name": "account",
          "type": "address"
        },
        {
          "internalType": "uint256",
          "name": "blockNumber",
          "type": "uint256"
        }
      ],
      "name": "getPastVotes",
      "outputs": [
        {
          "internalType": "uint256",
          "name": "",
          "type": "uint256"
        }
      ],
      "stateMutability": "view",
      "type": "function"
    },
    {
      "inputs": [],
      "name": "getTotalSupply",
      "outputs": [
        {
          "internalType": "uint256",
          "name": "",
          "type": "uint256"
        }
      ],
      "stateMutability": "view",
      "type": "function"
    },
    {
      "inputs": [
        {
          "internalType": "address",
          "name": "account",
          "type": "address"
        }
      ],
      "name": "getVotes",
      "outputs": [
        {
          "internalType": "uint256",
          "name": "",
          "type": "uint256"
        }
      ],
      "stateMutability": "view",
      "type": "function"
    },
    {
      "inputs": [
        {
          "internalType": "address",
          "name": "account",
          "type": "address"
        },
        {
          "internalType": "uint256",
          "name": "voteId",
          "type": "uint256"
        }
      ],
      "name": "mint",
      "outputs": [],
      "stateMutability": "nonpayable",
      "type": "function"
    },
    {
      "inputs": [
        {
          "internalType": "address",
          "name": "owner",
          "type": "address"
        }
      ],
      "name": "nonces",
      "outputs": [
        {
          "internalType": "uint256",
          "name": "",
          "type": "uint256"
        }
      ],
      "stateMutability": "view",
      "type": "function"
    }
  ],
  "bytecode": "0x6101406040523480156200001257600080fd5b50604051620013403803806200134083398101604081905262000035916200010f565b60408051808201825260018152603160f81b60209182015282519281019290922060e08190527fc89efdaa54c0f20c7adf612882df0950f5a951637e0307cdcb4c672f298b8bc66101008190524660a081815284517f8b73c3c69bb8fe3d512ecc4cf759cc79239f7b179b0ffacaa9a75d522b39400f818801819052818701959095526060810193909352608080840192909252308382018190528551808503909201825260c09384019095528051950194909420909352915261012052620001eb565b634e487b7160e01b600052604160045260246000fd5b600060208083850312156200012357600080fd5b82516001600160401b03808211156200013b57600080fd5b818501915085601f8301126200015057600080fd5b815181811115620001655762000165620000f9565b604051601f8201601f19908116603f01168101908382118183101715620001905762000190620000f9565b816040528281528886848701011115620001a957600080fd5b600093505b82841015620001cd5784840186015181850187015292850192620001ae565b82841115620001df5760008684830101525b98975050505050505050565b60805160a05160c05160e05161010051610120516111056200023b6000396000610567015260006105b601526000610591015260006104ea015260006105140152600061053e01526111056000f3fe608060405234801561001057600080fd5b50600436106100cf5760003560e01c80635c19a95c1161008c5780638e539e8c116100665780638e539e8c146101a95780639ab24eb0146101bc578063c3cda520146101cf578063c4e41b22146101e257600080fd5b80635c19a95c146101705780637ecebe00146101835780638ab656861461019657600080fd5b80633408e470146100d45780633644e515146100e95780633a46b1a8146100f157806340c10f191461010457806342966c6814610119578063587cde1e1461012c575b600080fd5b465b6040519081526020015b60405180910390f35b6100d66101ea565b6100d66100ff366004610f4b565b6101f9565b610117610112366004610f4b565b610222565b005b610117610127366004610f75565b610287565b61015861013a366004610f8e565b6001600160a01b039081166000908152602081905260409020541690565b6040516001600160a01b0390911681526020016100e0565b61011761017e366004610f8e565b6102d1565b6100d6610191366004610f8e565b6102dc565b6101176101a4366004610fa9565b6102fc565b6100d66101b7366004610f75565b610306565b6100d66101ca366004610f8e565b610367565b6101176101dd366004610fdc565b610388565b6100d66104d3565b60006101f46104dd565b905090565b6001600160a01b038216600090815260016020526040812061021b9083610604565b9392505050565b6001600160a01b038216600090815260046020526040812080546001929061024b908490611052565b9091555050600081815260056020526040812080546001600160a01b0319166001600160a01b03851617905561028390836001610713565b5050565b6000818152600560209081526040808320546001600160a01b031680845260049092528220805491926001926102be90849061106a565b9091555061028390508160006001610713565b336102838183610788565b6001600160a01b0381166000908152600360205260408120545b92915050565b6102838282610788565b600043821061035c5760405162461bcd60e51b815260206004820152601a60248201527f566f7465733a20626c6f636b206e6f7420796574206d696e656400000000000060448201526064015b60405180910390fd5b6102f6600283610604565b6001600160a01b03811660009081526001602052604081206102f690610810565b834211156103d85760405162461bcd60e51b815260206004820152601860248201527f566f7465733a207369676e6174757265206578706972656400000000000000006044820152606401610353565b604080517fe48329057bfd03d55e49b547132e39cffd9c1820ad7b9d4c5307691425d15adf60208201526001600160a01b0388169181019190915260608101869052608081018590526000906104529061044a9060a0016040516020818303038152906040528051906020012061086c565b8585856108ba565b905061047b816001600160a01b0316600090815260036020526040902080546001810190915590565b86146104c05760405162461bcd60e51b8152602060048201526014602482015273566f7465733a20696e76616c6964206e6f6e636560601b6044820152606401610353565b6104ca8188610788565b50505050505050565b60006101f46108e2565b6000306001600160a01b037f00000000000000000000000000000000000000000000000000000000000000001614801561053657507f000000000000000000000000000000000000000000000000000000000000000046145b1561056057507f000000000000000000000000000000000000000000000000000000000000000090565b50604080517f00000000000000000000000000000000000000000000000000000000000000006020808301919091527f0000000000000000000000000000000000000000000000000000000000000000828401527f000000000000000000000000000000000000000000000000000000000000000060608301524660808301523060a0808401919091528351808403909101815260c0909201909252805191012090565b60004382106106555760405162461bcd60e51b815260206004820181905260248201527f436865636b706f696e74733a20626c6f636b206e6f7420796574206d696e65646044820152606401610353565b825460005b818110156106ba57600061066e82846108ee565b90508486600001828154811061068657610686611081565b60009182526020909120015463ffffffff1611156106a6578092506106b4565b6106b1816001611052565b91505b5061065a565b81156106fe57846106cc60018461106a565b815481106106dc576106dc611081565b60009182526020909120015464010000000090046001600160e01b0316610701565b60005b6001600160e01b031695945050505050565b6001600160a01b0383166107325761072f600261090983610915565b50505b6001600160a01b0382166107515761074e600261094383610915565b50505b6001600160a01b038381166000908152602081905260408082205485841683529120546107839291821691168361094f565b505050565b6001600160a01b0382811660008181526020819052604080822080548686166001600160a01b0319821681179092559151919094169392849290917f3134e8a2e6d97e929a7e54011ea5485d7d196dd5f0ba4d4ef95803e8e3fc257f9190a4610783818361080b866001600160a01b031660009081526004602052604090205490565b61094f565b80546000908015610859578261082760018361106a565b8154811061083757610837611081565b60009182526020909120015464010000000090046001600160e01b031661085c565b60005b6001600160e01b03169392505050565b60006102f66108796104dd565b8360405161190160f01b6020820152602281018390526042810182905260009060620160405160208183030381529060405280519060200120905092915050565b60008060006108cb87878787610a8c565b915091506108d881610b79565b5095945050505050565b60006101f46002610810565b60006108fd6002848418611097565b61021b90848416611052565b600061021b8284611052565b6000806109378561093261092888610810565b868863ffffffff16565b610d37565b91509150935093915050565b600061021b828461106a565b816001600160a01b0316836001600160a01b0316141580156109715750600081115b15610783576001600160a01b038316156109ff576001600160a01b038316600090815260016020526040812081906109ac9061094385610915565b91509150846001600160a01b03167fdec2bacdd2f05b59de34da9b523dff8be42e5e38e818c82fdb0bae774387a72483836040516109f4929190918252602082015260400190565b60405180910390a250505b6001600160a01b03821615610783576001600160a01b03821660009081526001602052604081208190610a359061090985610915565b91509150836001600160a01b03167fdec2bacdd2f05b59de34da9b523dff8be42e5e38e818c82fdb0bae774387a7248383604051610a7d929190918252602082015260400190565b60405180910390a25050505050565b6000807f7fffffffffffffffffffffffffffffff5d576e7357a4501ddfe92f46681b20a0831115610ac35750600090506003610b70565b8460ff16601b14158015610adb57508460ff16601c14155b15610aec5750600090506004610b70565b6040805160008082526020820180845289905260ff881692820192909252606081018690526080810185905260019060a0016020604051602081039080840390855afa158015610b40573d6000803e3d6000fd5b5050604051601f1901519150506001600160a01b038116610b6957600060019250925050610b70565b9150600090505b94509492505050565b6000816004811115610b8d57610b8d6110b9565b1415610b965750565b6001816004811115610baa57610baa6110b9565b1415610bf85760405162461bcd60e51b815260206004820152601860248201527f45434453413a20696e76616c6964207369676e617475726500000000000000006044820152606401610353565b6002816004811115610c0c57610c0c6110b9565b1415610c5a5760405162461bcd60e51b815260206004820152601f60248201527f45434453413a20696e76616c6964207369676e6174757265206c656e677468006044820152606401610353565b6003816004811115610c6e57610c6e6110b9565b1415610cc75760405162461bcd60e51b815260206004820152602260248201527f45434453413a20696e76616c6964207369676e6174757265202773272076616c604482015261756560f01b6064820152608401610353565b6004816004811115610cdb57610cdb6110b9565b1415610d345760405162461bcd60e51b815260206004820152602260248201527f45434453413a20696e76616c6964207369676e6174757265202776272076616c604482015261756560f01b6064820152608401610353565b50565b8154600090819081610d4886610810565b9050600082118015610d8657504386610d6260018561106a565b81548110610d7257610d72611081565b60009182526020909120015463ffffffff16145b15610de657610d9485610e5d565b86610da060018561106a565b81548110610db057610db0611081565b9060005260206000200160000160046101000a8154816001600160e01b0302191690836001600160e01b03160217905550610e54565b856000016040518060400160405280610dfe43610eca565b63ffffffff168152602001610e1288610e5d565b6001600160e01b0390811690915282546001810184556000938452602093849020835194909301519091166401000000000263ffffffff909316929092179101555b95939450505050565b60006001600160e01b03821115610ec65760405162461bcd60e51b815260206004820152602760248201527f53616665436173743a2076616c756520646f65736e27742066697420696e20326044820152663234206269747360c81b6064820152608401610353565b5090565b600063ffffffff821115610ec65760405162461bcd60e51b815260206004820152602660248201527f53616665436173743a2076616c756520646f65736e27742066697420696e203360448201526532206269747360d01b6064820152608401610353565b80356001600160a01b0381168114610f4657600080fd5b919050565b60008060408385031215610f5e57600080fd5b610f6783610f2f565b946020939093013593505050565b600060208284031215610f8757600080fd5b5035919050565b600060208284031215610fa057600080fd5b61021b82610f2f565b60008060408385031215610fbc57600080fd5b610fc583610f2f565b9150610fd360208401610f2f565b90509250929050565b60008060008060008060c08789031215610ff557600080fd5b610ffe87610f2f565b95506020870135945060408701359350606087013560ff8116811461102257600080fd5b9598949750929560808101359460a0909101359350915050565b634e487b7160e01b600052601160045260246000fd5b600082198211156110655761106561103c565b500190565b60008282101561107c5761107c61103c565b500390565b634e487b7160e01b600052603260045260246000fd5b6000826110b457634e487b7160e01b600052601260045260246000fd5b500490565b634e487b7160e01b600052602160045260246000fdfea264697066735822122052f6e2f0150ff8f68fcc1b4c4d6f00542e70c70a44b582d64eabceabe9f8ad8464736f6c63430008090033",
  "linkReferences": {},
  "deployedLinkReferences": {}
}