{
  "_format": "hh-sol-artifact-1",
  "contractName": "Bytes32DequeMock",
  "sourceName": "contracts/mocks/DoubleEndedQueueMock.sol",
  "abi": [
    {
      "inputs": [],
      "name": "Empty",
      "type": "error"
    },
    {
      "inputs": [],
      "name": "OutOfBounds",
      "type": "error"
    },
    {
      "anonymous": false,
      "inputs": [
        {
          "indexed": false,
          "internalType": "bytes32",
          "name": "value",
          "type": "bytes32"
        }
      ],
      "name": "OperationResult",
      "type": "event"
    },
    {
      "inputs": [
        {
          "internalType": "uint256",
          "name": "i",
          "type": "uint256"
        }
      ],
      "name": "at",
      "outputs": [
        {
          "internalType": "bytes32",
          "name": "",
          "type": "bytes32"
        }
      ],
      "stateMutability": "view",
      "type": "function"
    },
    {
      "inputs": [],
      "name": "back",
      "outputs": [
        {
          "internalType": "bytes32",
          "name": "",
          "type": "bytes32"
        }
      ],
      "stateMutability": "view",
      "type": "function"
    },
    {
      "inputs": [],
      "name": "clear",
      "outputs": [],
      "stateMutability": "nonpayable",
      "type": "function"
    },
    {
      "inputs": [],
      "name": "empty",
      "outputs": [
        {
          "internalType": "bool",
          "name": "",
          "type": "bool"
        }
      ],
      "stateMutability": "view",
      "type": "function"
    },
    {
      "inputs": [],
      "name": "front",
      "outputs": [
        {
          "internalType": "bytes32",
          "name": "",
          "type": "bytes32"
        }
      ],
      "stateMutability": "view",
      "type": "function"
    },
    {
      "inputs": [],
      "name": "length",
      "outputs": [
        {
          "internalType": "uint256",
          "name": "",
          "type": "uint256"
        }
      ],
      "stateMutability": "view",
      "type": "function"
    },
    {
      "inputs": [],
      "name": "popBack",
      "outputs": [
        {
          "internalType": "bytes32",
          "name": "",
          "type": "bytes32"
        }
      ],
      "stateMutability": "nonpayable",
      "type": "function"
    },
    {
      "inputs": [],
      "name": "popFront",
      "outputs": [
        {
          "internalType": "bytes32",
          "name": "",
          "type": "bytes32"
        }
      ],
      "stateMutability": "nonpayable",
      "type": "function"
    },
    {
      "inputs": [
        {
          "internalType": "bytes32",
          "name": "value",
          "type": "bytes32"
        }
      ],
      "name": "pushBack",
      "outputs": [],
      "stateMutability": "nonpayable",
      "type": "function"
    },
    {
      "inputs": [
        {
          "internalType": "bytes32",
          "name": "value",
          "type": "bytes32"
        }
      ],
      "name": "pushFront",
      "outputs": [],
      "stateMutability": "nonpayable",
      "type": "function"
    }
  ],
  "bytecode": "0x608060405234801561001057600080fd5b5061061e806100206000396000f3fe608060405234801561001057600080fd5b506004361061009e5760003560e01c80638dde0840116100665780638dde084014610134578063ba75bbd81461013c578063c39f130c14610144578063e0886f901461018d578063f2a75fe4146101a057600080fd5b80630df3aa97146100a3578063107dfb64146100f15780631f7b6d321461010c57806352efea6e1461012457806384d9fedd1461012c575b600080fd5b6100ef6100b1366004610578565b60008054600019600f91820b019081900b825260016020526040822083905581546001600160801b039091166001600160801b031990911617905550565b005b6100f96101c4565b6040519081526020015b60405180910390f35b600054600f81810b600160801b909204900b036100f9565b6100ef610216565b6100f9610221565b6100f961022e565b6100f961023a565b6100ef610152366004610578565b60008054600160801b90819004600f0b8083526001602081905260408420859055835491016001600160801b03908116909202911617905550565b6100f961019b366004610578565b610246565b600054600f81810b600160801b909204900b13156040519015158152602001610103565b6000806101d16000610258565b90507f103eed58ce9f94500a2c4079d50a53cb9a602378270d152a3004209a6a588e1d8160405161020491815260200190565b60405180910390a1919050565b905090565b61021f60008055565b565b6000806101d160006102d8565b6000610211600061034e565b600061021160006103b1565b60006102528183610405565b92915050565b60006102738254600f81810b600160801b909204900b131590565b1561029157604051631ed9509560e11b815260040160405180910390fd5b508054600160801b90819004600f90810b600019019081900b60009081526001840160205260408120805491905583546001600160801b0390811692169092021790915590565b60006102f38254600f81810b600160801b909204900b131590565b1561031157604051631ed9509560e11b815260040160405180910390fd5b508054600f0b6000818152600180840160205260408220805492905583546001600160801b03191692016001600160801b03169190911790915590565b60006103698254600f81810b600160801b909204900b131590565b1561038757604051631ed9509560e11b815260040160405180910390fd5b508054600160801b9004600f90810b60001901900b60009081526001909101602052604090205490565b60006103cc8254600f81810b600160801b909204900b131590565b156103ea57604051631ed9509560e11b815260040160405180910390fd5b508054600f0b60009081526001909101602052604090205490565b60008061042861041484610476565b85546104239190600f0b6105a7565b6104e9565b8454909150600160801b9004600f90810b9082900b1261045b57604051632d0483c560e21b815260040160405180910390fd5b600f0b60009081526001939093016020525050604090205490565b60006001600160ff1b038211156104e55760405162461bcd60e51b815260206004820152602860248201527f53616665436173743a2076616c756520646f65736e27742066697420696e2061604482015267371034b73a191a9b60c11b60648201526084015b60405180910390fd5b5090565b60006f7fffffffffffffffffffffffffffffff19821280159061051c57506f7fffffffffffffffffffffffffffffff8213155b6104e55760405162461bcd60e51b815260206004820152602760248201527f53616665436173743a2076616c756520646f65736e27742066697420696e20316044820152663238206269747360c81b60648201526084016104dc565b60006020828403121561058a57600080fd5b5035919050565b634e487b7160e01b600052601160045260246000fd5b600080821280156001600160ff1b03849003851316156105c9576105c9610591565b600160ff1b83900384128116156105e2576105e2610591565b5050019056fea2646970667358221220646e3d9404341d3b8b0d2c98cda765d9b87818ffefdd36ae8b2c92a9e0def4a364736f6c63430008090033",
  "linkReferences": {},
  "deployedLinkReferences": {}
}