{
  "contracts/mocks/BitmapMock.sol": {
    "BitMapMock": {
      "abi": [
        {
          "inputs": [
            {
              "internalType": "uint256",
              "name": "index",
              "type": "uint256"
            }
          ],
          "name": "get",
          "outputs": [
            {
              "internalType": "bool",
              "name": "",
              "type": "bool"
            }
          ],
          "stateMutability": "view",
          "type": "function"
        },
        {
          "inputs": [
            {
              "internalType": "uint256",
              "name": "index",
              "type": "uint256"
            }
          ],
          "name": "set",
          "outputs": [],
          "stateMutability": "nonpayable",
          "type": "function"
        },
        {
          "inputs": [
            {
              "internalType": "uint256",
              "name": "index",
              "type": "uint256"
            },
            {
              "internalType": "bool",
              "name": "value",
              "type": "bool"
            }
          ],
          "name": "setTo",
          "outputs": [],
          "stateMutability": "nonpayable",
          "type": "function"
        },
        {
          "inputs": [
            {
              "internalType": "uint256",
              "name": "index",
              "type": "uint256"
            }
          ],
          "name": "unset",
          "outputs": [],
          "stateMutability": "nonpayable",
          "type": "function"
        }
      ],
      "evm": {
        "bytecode": {
          "linkReferences": {},
          "object": "608060405234801561001057600080fd5b506101eb806100206000396000f3fe608060405234801561001057600080fd5b506004361061004c5760003560e01c8063088d22551461005157806360fe47b1146100845780639507d39a146100b4578063dcc9d43c146100fa575b600080fd5b61008261005f366004610167565b600881901c60009081526020819052604090208054600160ff84161b1916905550565b005b610082610092366004610167565b600881901c60009081526020819052604090208054600160ff84161b17905550565b6100e66100c2366004610167565b600881901c600090815260208190526040812054600160ff84161b16151592915050565b604051901515815260200160405180910390f35b610082610108366004610180565b61011460008383610118565b5050565b801561014257600882901c60009081526020849052604090208054600160ff85161b179055505050565b600882901c60009081526020849052604090208054600160ff85161b19169055505050565b60006020828403121561017957600080fd5b5035919050565b6000806040838503121561019357600080fd5b82359150602083013580151581146101aa57600080fd5b80915050925092905056fea26469706673582212205192ea645ad5d5256456ef8bfc13921f2b0e897000e1692556f4d4aeba9611fd64736f6c63430008090033",
          "opcodes": "PUSH1 0x80 PUSH1 0x40 MSTORE CALLVALUE DUP1 ISZERO PUSH2 0x10 JUMPI PUSH1 0x0 DUP1 REVERT JUMPDEST POP PUSH2 0x1EB DUP1 PUSH2 0x20 PUSH1 0x0 CODECOPY PUSH1 0x0 RETURN INVALID PUSH1 0x80 PUSH1 0x40 MSTORE CALLVALUE DUP1 ISZERO PUSH2 0x10 JUMPI PUSH1 0x0 DUP1 REVERT JUMPDEST POP PUSH1 0x4 CALLDATASIZE LT PUSH2 0x4C JUMPI PUSH1 0x0 CALLDATALOAD PUSH1 0xE0 SHR DUP1 PUSH4 0x88D2255 EQ PUSH2 0x51 JUMPI DUP1 PUSH4 0x60FE47B1 EQ PUSH2 0x84 JUMPI DUP1 PUSH4 0x9507D39A EQ PUSH2 0xB4 JUMPI DUP1 PUSH4 0xDCC9D43C EQ PUSH2 0xFA JUMPI JUMPDEST PUSH1 0x0 DUP1 REVERT JUMPDEST PUSH2 0x82 PUSH2 0x5F CALLDATASIZE PUSH1 0x4 PUSH2 0x167 JUMP JUMPDEST PUSH1 0x8 DUP2 SWAP1 SHR PUSH1 0x0 SWAP1 DUP2 MSTORE PUSH1 0x20 DUP2 SWAP1 MSTORE PUSH1 0x40 SWAP1 KECCAK256 DUP1 SLOAD PUSH1 0x1 PUSH1 0xFF DUP5 AND SHL NOT AND SWAP1 SSTORE POP JUMP JUMPDEST STOP JUMPDEST PUSH2 0x82 PUSH2 0x92 CALLDATASIZE PUSH1 0x4 PUSH2 0x167 JUMP JUMPDEST PUSH1 0x8 DUP2 SWAP1 SHR PUSH1 0x0 SWAP1 DUP2 MSTORE PUSH1 0x20 DUP2 SWAP1 MSTORE PUSH1 0x40 SWAP1 KECCAK256 DUP1 SLOAD PUSH1 0x1 PUSH1 0xFF DUP5 AND SHL OR SWAP1 SSTORE POP JUMP JUMPDEST PUSH2 0xE6 PUSH2 0xC2 CALLDATASIZE PUSH1 0x4 PUSH2 0x167 JUMP JUMPDEST PUSH1 0x8 DUP2 SWAP1 SHR PUSH1 0x0 SWAP1 DUP2 MSTORE PUSH1 0x20 DUP2 SWAP1 MSTORE PUSH1 0x40 DUP2 KECCAK256 SLOAD PUSH1 0x1 PUSH1 0xFF DUP5 AND SHL AND ISZERO ISZERO SWAP3 SWAP2 POP POP JUMP JUMPDEST PUSH1 0x40 MLOAD SWAP1 ISZERO ISZERO DUP2 MSTORE PUSH1 0x20 ADD PUSH1 0x40 MLOAD DUP1 SWAP2 SUB SWAP1 RETURN JUMPDEST PUSH2 0x82 PUSH2 0x108 CALLDATASIZE PUSH1 0x4 PUSH2 0x180 JUMP JUMPDEST PUSH2 0x114 PUSH1 0x0 DUP4 DUP4 PUSH2 0x118 JUMP JUMPDEST POP POP JUMP JUMPDEST DUP1 ISZERO PUSH2 0x142 JUMPI PUSH1 0x8 DUP3 SWAP1 SHR PUSH1 0x0 SWAP1 DUP2 MSTORE PUSH1 0x20 DUP5 SWAP1 MSTORE PUSH1 0x40 SWAP1 KECCAK256 DUP1 SLOAD PUSH1 0x1 PUSH1 0xFF DUP6 AND SHL OR SWAP1 SSTORE POP POP POP JUMP JUMPDEST PUSH1 0x8 DUP3 SWAP1 SHR PUSH1 0x0 SWAP1 DUP2 MSTORE PUSH1 0x20 DUP5 SWAP1 MSTORE PUSH1 0x40 SWAP1 KECCAK256 DUP1 SLOAD PUSH1 0x1 PUSH1 0xFF DUP6 AND SHL NOT AND SWAP1 SSTORE POP POP POP JUMP JUMPDEST PUSH1 0x0 PUSH1 0x20 DUP3 DUP5 SUB SLT ISZERO PUSH2 0x179 JUMPI PUSH1 0x0 DUP1 REVERT JUMPDEST POP CALLDATALOAD SWAP2 SWAP1 POP JUMP JUMPDEST PUSH1 0x0 DUP1 PUSH1 0x40 DUP4 DUP6 SUB SLT ISZERO PUSH2 0x193 JUMPI PUSH1 0x0 DUP1 REVERT JUMPDEST DUP3 CALLDATALOAD SWAP2 POP PUSH1 0x20 DUP4 ADD CALLDATALOAD DUP1 ISZERO ISZERO DUP2 EQ PUSH2 0x1AA JUMPI PUSH1 0x0 DUP1 REVERT JUMPDEST DUP1 SWAP2 POP POP SWAP3 POP SWAP3 SWAP1 POP JUMP INVALID LOG2 PUSH5 0x6970667358 0x22 SLT KECCAK256 MLOAD SWAP3 0xEA PUSH5 0x5AD5D52564 JUMP 0xEF DUP12 0xFC SGT SWAP3 0x1F 0x2B 0xE DUP10 PUSH17 0xE1692556F4D4AEBA9611FD64736F6C63 NUMBER STOP ADDMOD MULMOD STOP CALLER "
        },
        "methodIdentifiers": {
          "get(uint256)": "9507d39a",
          "set(uint256)": "60fe47b1",
          "setTo(uint256,bool)": "dcc9d43c",
          "unset(uint256)": "088d2255"
        }
      }
    }
  }
}