{
  "contracts/mocks/MerkleProofWrapper.sol": {
    "MerkleProofWrapper": {
      "abi": [
        {
          "inputs": [
            {
              "internalType": "bytes32[]",
              "name": "proof",
              "type": "bytes32[]"
            },
            {
              "internalType": "bytes32",
              "name": "leaf",
              "type": "bytes32"
            }
          ],
          "name": "processProof",
          "outputs": [
            {
              "internalType": "bytes32",
              "name": "",
              "type": "bytes32"
            }
          ],
          "stateMutability": "pure",
          "type": "function"
        },
        {
          "inputs": [
            {
              "internalType": "bytes32[]",
              "name": "proof",
              "type": "bytes32[]"
            },
            {
              "internalType": "bytes32",
              "name": "root",
              "type": "bytes32"
            },
            {
              "internalType": "bytes32",
              "name": "leaf",
              "type": "bytes32"
            }
          ],
          "name": "verify",
          "outputs": [
            {
              "internalType": "bool",
              "name": "",
              "type": "bool"
            }
          ],
          "stateMutability": "pure",
          "type": "function"
        }
      ],
      "evm": {
        "bytecode": {
          "linkReferences": {},
          "object": "608060405234801561001057600080fd5b506102ef806100206000396000f3fe608060405234801561001057600080fd5b50600436106100365760003560e01c80635a9a49c71461003b57806362702a6b14610063575b600080fd5b61004e6100493660046101e7565b610084565b60405190151581526020015b60405180910390f35b610076610071366004610235565b610099565b60405190815260200161005a565b60006100918484846100ac565b949350505050565b60006100a583836100c2565b9392505050565b6000826100b985846100c2565b14949350505050565b600081815b845181101561012e5760008582815181106100e4576100e461027a565b6020026020010151905080831161010a576000838152602082905260409020925061011b565b600081815260208490526040902092505b508061012681610290565b9150506100c7565b509392505050565b634e487b7160e01b600052604160045260246000fd5b600082601f83011261015d57600080fd5b8135602067ffffffffffffffff8083111561017a5761017a610136565b8260051b604051601f19603f8301168101818110848211171561019f5761019f610136565b6040529384528581018301938381019250878511156101bd57600080fd5b83870191505b848210156101dc578135835291830191908301906101c3565b979650505050505050565b6000806000606084860312156101fc57600080fd5b833567ffffffffffffffff81111561021357600080fd5b61021f8682870161014c565b9660208601359650604090950135949350505050565b6000806040838503121561024857600080fd5b823567ffffffffffffffff81111561025f57600080fd5b61026b8582860161014c565b95602094909401359450505050565b634e487b7160e01b600052603260045260246000fd5b60006000198214156102b257634e487b7160e01b600052601160045260246000fd5b506001019056fea2646970667358221220fcd6ed68872d1daad5fe7a7f3a7ec2ca2b9e210f7c44e7f449a6ad6a1e911fee64736f6c63430008090033",
          "opcodes": "PUSH1 0x80 PUSH1 0x40 MSTORE CALLVALUE DUP1 ISZERO PUSH2 0x10 JUMPI PUSH1 0x0 DUP1 REVERT JUMPDEST POP PUSH2 0x2EF DUP1 PUSH2 0x20 PUSH1 0x0 CODECOPY PUSH1 0x0 RETURN INVALID PUSH1 0x80 PUSH1 0x40 MSTORE CALLVALUE DUP1 ISZERO PUSH2 0x10 JUMPI PUSH1 0x0 DUP1 REVERT JUMPDEST POP PUSH1 0x4 CALLDATASIZE LT PUSH2 0x36 JUMPI PUSH1 0x0 CALLDATALOAD PUSH1 0xE0 SHR DUP1 PUSH4 0x5A9A49C7 EQ PUSH2 0x3B JUMPI DUP1 PUSH4 0x62702A6B EQ PUSH2 0x63 JUMPI JUMPDEST PUSH1 0x0 DUP1 REVERT JUMPDEST PUSH2 0x4E PUSH2 0x49 CALLDATASIZE PUSH1 0x4 PUSH2 0x1E7 JUMP JUMPDEST PUSH2 0x84 JUMP JUMPDEST PUSH1 0x40 MLOAD SWAP1 ISZERO ISZERO DUP2 MSTORE PUSH1 0x20 ADD JUMPDEST PUSH1 0x40 MLOAD DUP1 SWAP2 SUB SWAP1 RETURN JUMPDEST PUSH2 0x76 PUSH2 0x71 CALLDATASIZE PUSH1 0x4 PUSH2 0x235 JUMP JUMPDEST PUSH2 0x99 JUMP JUMPDEST PUSH1 0x40 MLOAD SWAP1 DUP2 MSTORE PUSH1 0x20 ADD PUSH2 0x5A JUMP JUMPDEST PUSH1 0x0 PUSH2 0x91 DUP5 DUP5 DUP5 PUSH2 0xAC JUMP JUMPDEST SWAP5 SWAP4 POP POP POP POP JUMP JUMPDEST PUSH1 0x0 PUSH2 0xA5 DUP4 DUP4 PUSH2 0xC2 JUMP JUMPDEST SWAP4 SWAP3 POP POP POP JUMP JUMPDEST PUSH1 0x0 DUP3 PUSH2 0xB9 DUP6 DUP5 PUSH2 0xC2 JUMP JUMPDEST EQ SWAP5 SWAP4 POP POP POP POP JUMP JUMPDEST PUSH1 0x0 DUP2 DUP2 JUMPDEST DUP5 MLOAD DUP2 LT ISZERO PUSH2 0x12E JUMPI PUSH1 0x0 DUP6 DUP3 DUP2 MLOAD DUP2 LT PUSH2 0xE4 JUMPI PUSH2 0xE4 PUSH2 0x27A JUMP JUMPDEST PUSH1 0x20 MUL PUSH1 0x20 ADD ADD MLOAD SWAP1 POP DUP1 DUP4 GT PUSH2 0x10A JUMPI PUSH1 0x0 DUP4 DUP2 MSTORE PUSH1 0x20 DUP3 SWAP1 MSTORE PUSH1 0x40 SWAP1 KECCAK256 SWAP3 POP PUSH2 0x11B JUMP JUMPDEST PUSH1 0x0 DUP2 DUP2 MSTORE PUSH1 0x20 DUP5 SWAP1 MSTORE PUSH1 0x40 SWAP1 KECCAK256 SWAP3 POP JUMPDEST POP DUP1 PUSH2 0x126 DUP2 PUSH2 0x290 JUMP JUMPDEST SWAP2 POP POP PUSH2 0xC7 JUMP JUMPDEST POP SWAP4 SWAP3 POP POP POP JUMP JUMPDEST PUSH4 0x4E487B71 PUSH1 0xE0 SHL PUSH1 0x0 MSTORE PUSH1 0x41 PUSH1 0x4 MSTORE PUSH1 0x24 PUSH1 0x0 REVERT JUMPDEST PUSH1 0x0 DUP3 PUSH1 0x1F DUP4 ADD SLT PUSH2 0x15D JUMPI PUSH1 0x0 DUP1 REVERT JUMPDEST DUP2 CALLDATALOAD PUSH1 0x20 PUSH8 0xFFFFFFFFFFFFFFFF DUP1 DUP4 GT ISZERO PUSH2 0x17A JUMPI PUSH2 0x17A PUSH2 0x136 JUMP JUMPDEST DUP3 PUSH1 0x5 SHL PUSH1 0x40 MLOAD PUSH1 0x1F NOT PUSH1 0x3F DUP4 ADD AND DUP2 ADD DUP2 DUP2 LT DUP5 DUP3 GT OR ISZERO PUSH2 0x19F JUMPI PUSH2 0x19F PUSH2 0x136 JUMP JUMPDEST PUSH1 0x40 MSTORE SWAP4 DUP5 MSTORE DUP6 DUP2 ADD DUP4 ADD SWAP4 DUP4 DUP2 ADD SWAP3 POP DUP8 DUP6 GT ISZERO PUSH2 0x1BD JUMPI PUSH1 0x0 DUP1 REVERT JUMPDEST DUP4 DUP8 ADD SWAP2 POP JUMPDEST DUP5 DUP3 LT ISZERO PUSH2 0x1DC JUMPI DUP2 CALLDATALOAD DUP4 MSTORE SWAP2 DUP4 ADD SWAP2 SWAP1 DUP4 ADD SWAP1 PUSH2 0x1C3 JUMP JUMPDEST SWAP8 SWAP7 POP POP POP POP POP POP POP JUMP JUMPDEST PUSH1 0x0 DUP1 PUSH1 0x0 PUSH1 0x60 DUP5 DUP7 SUB SLT ISZERO PUSH2 0x1FC JUMPI PUSH1 0x0 DUP1 REVERT JUMPDEST DUP4 CALLDATALOAD PUSH8 0xFFFFFFFFFFFFFFFF DUP2 GT ISZERO PUSH2 0x213 JUMPI PUSH1 0x0 DUP1 REVERT JUMPDEST PUSH2 0x21F DUP7 DUP3 DUP8 ADD PUSH2 0x14C JUMP JUMPDEST SWAP7 PUSH1 0x20 DUP7 ADD CALLDATALOAD SWAP7 POP PUSH1 0x40 SWAP1 SWAP6 ADD CALLDATALOAD SWAP5 SWAP4 POP POP POP POP JUMP JUMPDEST PUSH1 0x0 DUP1 PUSH1 0x40 DUP4 DUP6 SUB SLT ISZERO PUSH2 0x248 JUMPI PUSH1 0x0 DUP1 REVERT JUMPDEST DUP3 CALLDATALOAD PUSH8 0xFFFFFFFFFFFFFFFF DUP2 GT ISZERO PUSH2 0x25F JUMPI PUSH1 0x0 DUP1 REVERT JUMPDEST PUSH2 0x26B DUP6 DUP3 DUP7 ADD PUSH2 0x14C JUMP JUMPDEST SWAP6 PUSH1 0x20 SWAP5 SWAP1 SWAP5 ADD CALLDATALOAD SWAP5 POP POP POP POP JUMP JUMPDEST PUSH4 0x4E487B71 PUSH1 0xE0 SHL PUSH1 0x0 MSTORE PUSH1 0x32 PUSH1 0x4 MSTORE PUSH1 0x24 PUSH1 0x0 REVERT JUMPDEST PUSH1 0x0 PUSH1 0x0 NOT DUP3 EQ ISZERO PUSH2 0x2B2 JUMPI PUSH4 0x4E487B71 PUSH1 0xE0 SHL PUSH1 0x0 MSTORE PUSH1 0x11 PUSH1 0x4 MSTORE PUSH1 0x24 PUSH1 0x0 REVERT JUMPDEST POP PUSH1 0x1 ADD SWAP1 JUMP INVALID LOG2 PUSH5 0x6970667358 0x22 SLT KECCAK256 0xFC 0xD6 0xED PUSH9 0x872D1DAAD5FE7A7F3A PUSH31 0xC2CA2B9E210F7C44E7F449A6AD6A1E911FEE64736F6C634300080900330000 "
        },
        "methodIdentifiers": {
          "processProof(bytes32[],bytes32)": "62702a6b",
          "verify(bytes32[],bytes32,bytes32)": "5a9a49c7"
        }
      }
    }
  }
}