{
  "_format": "hh-sol-artifact-1",
  "contractName": "ERC721BurnableMock",
  "sourceName": "contracts/mocks/ERC721BurnableMock.sol",
  "abi": [
    {
      "inputs": [
        {
          "internalType": "string",
          "name": "name",
          "type": "string"
        },
        {
          "internalType": "string",
          "name": "symbol",
          "type": "string"
        }
      ],
      "stateMutability": "nonpayable",
      "type": "constructor"
    },
    {
      "anonymous": false,
      "inputs": [
        {
          "indexed": true,
          "internalType": "address",
          "name": "owner",
          "type": "address"
        },
        {
          "indexed": true,
          "internalType": "address",
          "name": "approved",
          "type": "address"
        },
        {
          "indexed": true,
          "internalType": "uint256",
          "name": "tokenId",
          "type": "uint256"
        }
      ],
      "name": "Approval",
      "type": "event"
    },
    {
      "anonymous": false,
      "inputs": [
        {
          "indexed": true,
          "internalType": "address",
          "name": "owner",
          "type": "address"
        },
        {
          "indexed": true,
          "internalType": "address",
          "name": "operator",
          "type": "address"
        },
        {
          "indexed": false,
          "internalType": "bool",
          "name": "approved",
          "type": "bool"
        }
      ],
      "name": "ApprovalForAll",
      "type": "event"
    },
    {
      "anonymous": false,
      "inputs": [
        {
          "indexed": true,
          "internalType": "address",
          "name": "from",
          "type": "address"
        },
        {
          "indexed": true,
          "internalType": "address",
          "name": "to",
          "type": "address"
        },
        {
          "indexed": true,
          "internalType": "uint256",
          "name": "tokenId",
          "type": "uint256"
        }
      ],
      "name": "Transfer",
      "type": "event"
    },
    {
      "inputs": [
        {
          "internalType": "address",
          "name": "to",
          "type": "address"
        },
        {
          "internalType": "uint256",
          "name": "tokenId",
          "type": "uint256"
        }
      ],
      "name": "approve",
      "outputs": [],
      "stateMutability": "nonpayable",
      "type": "function"
    },
    {
      "inputs": [
        {
          "internalType": "address",
          "name": "owner",
          "type": "address"
        }
      ],
      "name": "balanceOf",
      "outputs": [
        {
          "internalType": "uint256",
          "name": "",
          "type": "uint256"
        }
      ],
      "stateMutability": "view",
      "type": "function"
    },
    {
      "inputs": [
        {
          "internalType": "uint256",
          "name": "tokenId",
          "type": "uint256"
        }
      ],
      "name": "burn",
      "outputs": [],
      "stateMutability": "nonpayable",
      "type": "function"
    },
    {
      "inputs": [
        {
          "internalType": "uint256",
          "name": "tokenId",
          "type": "uint256"
        }
      ],
      "name": "exists",
      "outputs": [
        {
          "internalType": "bool",
          "name": "",
          "type": "bool"
        }
      ],
      "stateMutability": "view",
      "type": "function"
    },
    {
      "inputs": [
        {
          "internalType": "uint256",
          "name": "tokenId",
          "type": "uint256"
        }
      ],
      "name": "getApproved",
      "outputs": [
        {
          "internalType": "address",
          "name": "",
          "type": "address"
        }
      ],
      "stateMutability": "view",
      "type": "function"
    },
    {
      "inputs": [
        {
          "internalType": "address",
          "name": "owner",
          "type": "address"
        },
        {
          "internalType": "address",
          "name": "operator",
          "type": "address"
        }
      ],
      "name": "isApprovedForAll",
      "outputs": [
        {
          "internalType": "bool",
          "name": "",
          "type": "bool"
        }
      ],
      "stateMutability": "view",
      "type": "function"
    },
    {
      "inputs": [
        {
          "internalType": "address",
          "name": "to",
          "type": "address"
        },
        {
          "internalType": "uint256",
          "name": "tokenId",
          "type": "uint256"
        }
      ],
      "name": "mint",
      "outputs": [],
      "stateMutability": "nonpayable",
      "type": "function"
    },
    {
      "inputs": [],
      "name": "name",
      "outputs": [
        {
          "internalType": "string",
          "name": "",
          "type": "string"
        }
      ],
      "stateMutability": "view",
      "type": "function"
    },
    {
      "inputs": [
        {
          "internalType": "uint256",
          "name": "tokenId",
          "type": "uint256"
        }
      ],
      "name": "ownerOf",
      "outputs": [
        {
          "internalType": "address",
          "name": "",
          "type": "address"
        }
      ],
      "stateMutability": "view",
      "type": "function"
    },
    {
      "inputs": [
        {
          "internalType": "address",
          "name": "to",
          "type": "address"
        },
        {
          "internalType": "uint256",
          "name": "tokenId",
          "type": "uint256"
        },
        {
          "internalType": "bytes",
          "name": "_data",
          "type": "bytes"
        }
      ],
      "name": "safeMint",
      "outputs": [],
      "stateMutability": "nonpayable",
      "type": "function"
    },
    {
      "inputs": [
        {
          "internalType": "address",
          "name": "to",
          "type": "address"
        },
        {
          "internalType": "uint256",
          "name": "tokenId",
          "type": "uint256"
        }
      ],
      "name": "safeMint",
      "outputs": [],
      "stateMutability": "nonpayable",
      "type": "function"
    },
    {
      "inputs": [
        {
          "internalType": "address",
          "name": "from",
          "type": "address"
        },
        {
          "internalType": "address",
          "name": "to",
          "type": "address"
        },
        {
          "internalType": "uint256",
          "name": "tokenId",
          "type": "uint256"
        }
      ],
      "name": "safeTransferFrom",
      "outputs": [],
      "stateMutability": "nonpayable",
      "type": "function"
    },
    {
      "inputs": [
        {
          "internalType": "address",
          "name": "from",
          "type": "address"
        },
        {
          "internalType": "address",
          "name": "to",
          "type": "address"
        },
        {
          "internalType": "uint256",
          "name": "tokenId",
          "type": "uint256"
        },
        {
          "internalType": "bytes",
          "name": "_data",
          "type": "bytes"
        }
      ],
      "name": "safeTransferFrom",
      "outputs": [],
      "stateMutability": "nonpayable",
      "type": "function"
    },
    {
      "inputs": [
        {
          "internalType": "address",
          "name": "operator",
          "type": "address"
        },
        {
          "internalType": "bool",
          "name": "approved",
          "type": "bool"
        }
      ],
      "name": "setApprovalForAll",
      "outputs": [],
      "stateMutability": "nonpayable",
      "type": "function"
    },
    {
      "inputs": [
        {
          "internalType": "bytes4",
          "name": "interfaceId",
          "type": "bytes4"
        }
      ],
      "name": "supportsInterface",
      "outputs": [
        {
          "internalType": "bool",
          "name": "",
          "type": "bool"
        }
      ],
      "stateMutability": "view",
      "type": "function"
    },
    {
      "inputs": [],
      "name": "symbol",
      "outputs": [
        {
          "internalType": "string",
          "name": "",
          "type": "string"
        }
      ],
      "stateMutability": "view",
      "type": "function"
    },
    {
      "inputs": [
        {
          "internalType": "uint256",
          "name": "tokenId",
          "type": "uint256"
        }
      ],
      "name": "tokenURI",
      "outputs": [
        {
          "internalType": "string",
          "name": "",
          "type": "string"
        }
      ],
      "stateMutability": "view",
      "type": "function"
    },
    {
      "inputs": [
        {
          "internalType": "address",
          "name": "from",
          "type": "address"
        },
        {
          "internalType": "address",
          "name": "to",
          "type": "address"
        },
        {
          "internalType": "uint256",
          "name": "tokenId",
          "type": "uint256"
        }
      ],
      "name": "transferFrom",
      "outputs": [],
      "stateMutability": "nonpayable",
      "type": "function"
    }
  ],
  "bytecode": "0x60806040523480156200001157600080fd5b50604051620018e9380380620018e98339810160408190526200003491620001e1565b8151829082906200004d9060009060208501906200006e565b508051620000639060019060208401906200006e565b505050505062000288565b8280546200007c906200024b565b90600052602060002090601f016020900481019282620000a05760008555620000eb565b82601f10620000bb57805160ff1916838001178555620000eb565b82800160010185558215620000eb579182015b82811115620000eb578251825591602001919060010190620000ce565b50620000f9929150620000fd565b5090565b5b80821115620000f95760008155600101620000fe565b634e487b7160e01b600052604160045260246000fd5b600082601f8301126200013c57600080fd5b81516001600160401b038082111562000159576200015962000114565b604051601f8301601f19908116603f0116810190828211818310171562000184576200018462000114565b81604052838152602092508683858801011115620001a157600080fd5b600091505b83821015620001c55785820183015181830184015290820190620001a6565b83821115620001d75760008385830101525b9695505050505050565b60008060408385031215620001f557600080fd5b82516001600160401b03808211156200020d57600080fd5b6200021b868387016200012a565b935060208501519150808211156200023257600080fd5b5062000241858286016200012a565b9150509250929050565b600181811c908216806200026057607f821691505b602082108114156200028257634e487b7160e01b600052602260045260246000fd5b50919050565b61165180620002986000396000f3fe608060405234801561001057600080fd5b50600436106101165760003560e01c80636352211e116100a2578063a144819411610071578063a144819414610246578063a22cb46514610259578063b88d4fde1461026c578063c87b56dd1461027f578063e985e9c51461029257600080fd5b80636352211e146101f757806370a082311461020a5780638832e6e31461022b57806395d89b411461023e57600080fd5b806323b872dd116100e957806323b872dd1461019857806340c10f19146101ab57806342842e0e146101be57806342966c68146101d15780634f558e79146101e457600080fd5b806301ffc9a71461011b57806306fdde0314610143578063081812fc14610158578063095ea7b314610183575b600080fd5b61012e6101293660046110f1565b6102ce565b60405190151581526020015b60405180910390f35b61014b610320565b60405161013a9190611166565b61016b610166366004611179565b6103b2565b6040516001600160a01b03909116815260200161013a565b6101966101913660046111ae565b61044c565b005b6101966101a63660046111d8565b610562565b6101966101b93660046111ae565b610594565b6101966101cc3660046111d8565b6105a2565b6101966101df366004611179565b6105bd565b61012e6101f2366004611179565b610637565b61016b610205366004611179565b610656565b61021d610218366004611214565b6106cd565b60405190815260200161013a565b6101966102393660046112d2565b610754565b61014b61075f565b6101966102543660046111ae565b61076e565b610196610267366004611329565b610778565b61019661027a366004611365565b610783565b61014b61028d366004611179565b6107bb565b61012e6102a03660046113cd565b6001600160a01b03918216600090815260056020908152604080832093909416825291909152205460ff1690565b60006001600160e01b031982166380ac58cd60e01b14806102ff57506001600160e01b03198216635b5e139f60e01b145b8061031a57506301ffc9a760e01b6001600160e01b03198316145b92915050565b60606000805461032f90611400565b80601f016020809104026020016040519081016040528092919081815260200182805461035b90611400565b80156103a85780601f1061037d576101008083540402835291602001916103a8565b820191906000526020600020905b81548152906001019060200180831161038b57829003601f168201915b5050505050905090565b6000818152600260205260408120546001600160a01b03166104305760405162461bcd60e51b815260206004820152602c60248201527f4552433732313a20617070726f76656420717565727920666f72206e6f6e657860448201526b34b9ba32b73a103a37b5b2b760a11b60648201526084015b60405180910390fd5b506000908152600460205260409020546001600160a01b031690565b600061045782610656565b9050806001600160a01b0316836001600160a01b031614156104c55760405162461bcd60e51b815260206004820152602160248201527f4552433732313a20617070726f76616c20746f2063757272656e74206f776e656044820152603960f91b6064820152608401610427565b336001600160a01b03821614806104e157506104e181336102a0565b6105535760405162461bcd60e51b815260206004820152603860248201527f4552433732313a20617070726f76652063616c6c6572206973206e6f74206f7760448201527f6e6572206e6f7220617070726f76656420666f7220616c6c00000000000000006064820152608401610427565b61055d83836108a3565b505050565b61056d335b82610911565b6105895760405162461bcd60e51b81526004016104279061143b565b61055d838383610a08565b61059e8282610ba4565b5050565b61055d83838360405180602001604052806000815250610783565b6105c633610567565b61062b5760405162461bcd60e51b815260206004820152603060248201527f4552433732314275726e61626c653a2063616c6c6572206973206e6f74206f7760448201526f1b995c881b9bdc88185c1c1c9bdd995960821b6064820152608401610427565b61063481610ce6565b50565b6000818152600260205260408120546001600160a01b0316151561031a565b6000818152600260205260408120546001600160a01b03168061031a5760405162461bcd60e51b815260206004820152602960248201527f4552433732313a206f776e657220717565727920666f72206e6f6e657869737460448201526832b73a103a37b5b2b760b91b6064820152608401610427565b60006001600160a01b0382166107385760405162461bcd60e51b815260206004820152602a60248201527f4552433732313a2062616c616e636520717565727920666f7220746865207a65604482015269726f206164647265737360b01b6064820152608401610427565b506001600160a01b031660009081526003602052604090205490565b61055d838383610d81565b60606001805461032f90611400565b61059e8282610db4565b61059e338383610dce565b61078d3383610911565b6107a95760405162461bcd60e51b81526004016104279061143b565b6107b584848484610e9d565b50505050565b6000818152600260205260409020546060906001600160a01b031661083a5760405162461bcd60e51b815260206004820152602f60248201527f4552433732314d657461646174613a2055524920717565727920666f72206e6f60448201526e3732bc34b9ba32b73a103a37b5b2b760891b6064820152608401610427565b600061085160408051602081019091526000815290565b90506000815111610871576040518060200160405280600081525061089c565b8061087b84610ed0565b60405160200161088c92919061148c565b6040516020818303038152906040525b9392505050565b600081815260046020526040902080546001600160a01b0319166001600160a01b03841690811790915581906108d882610656565b6001600160a01b03167f8c5be1e5ebec7d5bd14f71427d1e84f3dd0314c0f7b2291e5b200ac8c7c3b92560405160405180910390a45050565b6000818152600260205260408120546001600160a01b031661098a5760405162461bcd60e51b815260206004820152602c60248201527f4552433732313a206f70657261746f7220717565727920666f72206e6f6e657860448201526b34b9ba32b73a103a37b5b2b760a11b6064820152608401610427565b600061099583610656565b9050806001600160a01b0316846001600160a01b031614806109d05750836001600160a01b03166109c5846103b2565b6001600160a01b0316145b80610a0057506001600160a01b0380821660009081526005602090815260408083209388168352929052205460ff165b949350505050565b826001600160a01b0316610a1b82610656565b6001600160a01b031614610a7f5760405162461bcd60e51b815260206004820152602560248201527f4552433732313a207472616e736665722066726f6d20696e636f72726563742060448201526437bbb732b960d91b6064820152608401610427565b6001600160a01b038216610ae15760405162461bcd60e51b8152602060048201526024808201527f4552433732313a207472616e7366657220746f20746865207a65726f206164646044820152637265737360e01b6064820152608401610427565b610aec6000826108a3565b6001600160a01b0383166000908152600360205260408120805460019290610b159084906114d1565b90915550506001600160a01b0382166000908152600360205260408120805460019290610b439084906114e8565b909155505060008181526002602052604080822080546001600160a01b0319166001600160a01b0386811691821790925591518493918716917fddf252ad1be2c89b69c2b068fc378daa952ba7f163c4a11628f55a4df523b3ef91a4505050565b6001600160a01b038216610bfa5760405162461bcd60e51b815260206004820181905260248201527f4552433732313a206d696e7420746f20746865207a65726f20616464726573736044820152606401610427565b6000818152600260205260409020546001600160a01b031615610c5f5760405162461bcd60e51b815260206004820152601c60248201527f4552433732313a20746f6b656e20616c7265616479206d696e746564000000006044820152606401610427565b6001600160a01b0382166000908152600360205260408120805460019290610c889084906114e8565b909155505060008181526002602052604080822080546001600160a01b0319166001600160a01b03861690811790915590518392907fddf252ad1be2c89b69c2b068fc378daa952ba7f163c4a11628f55a4df523b3ef908290a45050565b6000610cf182610656565b9050610cfe6000836108a3565b6001600160a01b0381166000908152600360205260408120805460019290610d279084906114d1565b909155505060008281526002602052604080822080546001600160a01b0319169055518391906001600160a01b038416907fddf252ad1be2c89b69c2b068fc378daa952ba7f163c4a11628f55a4df523b3ef908390a45050565b610d8b8383610ba4565b610d986000848484610fce565b61055d5760405162461bcd60e51b815260040161042790611500565b61059e828260405180602001604052806000815250610d81565b816001600160a01b0316836001600160a01b03161415610e305760405162461bcd60e51b815260206004820152601960248201527f4552433732313a20617070726f766520746f2063616c6c6572000000000000006044820152606401610427565b6001600160a01b03838116600081815260056020908152604080832094871680845294825291829020805460ff191686151590811790915591519182527f17307eab39ab6107e8899845ad3d59bd9653f200f220920489ca2b5937696c31910160405180910390a3505050565b610ea8848484610a08565b610eb484848484610fce565b6107b55760405162461bcd60e51b815260040161042790611500565b606081610ef45750506040805180820190915260018152600360fc1b602082015290565b8160005b8115610f1e5780610f0881611552565b9150610f179050600a83611583565b9150610ef8565b60008167ffffffffffffffff811115610f3957610f3961122f565b6040519080825280601f01601f191660200182016040528015610f63576020820181803683370190505b5090505b8415610a0057610f786001836114d1565b9150610f85600a86611597565b610f909060306114e8565b60f81b818381518110610fa557610fa56115ab565b60200101906001600160f81b031916908160001a905350610fc7600a86611583565b9450610f67565b60006001600160a01b0384163b156110d057604051630a85bd0160e11b81526001600160a01b0385169063150b7a02906110129033908990889088906004016115c1565b602060405180830381600087803b15801561102c57600080fd5b505af192505050801561105c575060408051601f3d908101601f19168201909252611059918101906115fe565b60015b6110b6573d80801561108a576040519150601f19603f3d011682016040523d82523d6000602084013e61108f565b606091505b5080516110ae5760405162461bcd60e51b815260040161042790611500565b805181602001fd5b6001600160e01b031916630a85bd0160e11b149050610a00565b506001949350505050565b6001600160e01b03198116811461063457600080fd5b60006020828403121561110357600080fd5b813561089c816110db565b60005b83811015611129578181015183820152602001611111565b838111156107b55750506000910152565b6000815180845261115281602086016020860161110e565b601f01601f19169290920160200192915050565b60208152600061089c602083018461113a565b60006020828403121561118b57600080fd5b5035919050565b80356001600160a01b03811681146111a957600080fd5b919050565b600080604083850312156111c157600080fd5b6111ca83611192565b946020939093013593505050565b6000806000606084860312156111ed57600080fd5b6111f684611192565b925061120460208501611192565b9150604084013590509250925092565b60006020828403121561122657600080fd5b61089c82611192565b634e487b7160e01b600052604160045260246000fd5b600082601f83011261125657600080fd5b813567ffffffffffffffff808211156112715761127161122f565b604051601f8301601f19908116603f011681019082821181831017156112995761129961122f565b816040528381528660208588010111156112b257600080fd5b836020870160208301376000602085830101528094505050505092915050565b6000806000606084860312156112e757600080fd5b6112f084611192565b925060208401359150604084013567ffffffffffffffff81111561131357600080fd5b61131f86828701611245565b9150509250925092565b6000806040838503121561133c57600080fd5b61134583611192565b91506020830135801515811461135a57600080fd5b809150509250929050565b6000806000806080858703121561137b57600080fd5b61138485611192565b935061139260208601611192565b925060408501359150606085013567ffffffffffffffff8111156113b557600080fd5b6113c187828801611245565b91505092959194509250565b600080604083850312156113e057600080fd5b6113e983611192565b91506113f760208401611192565b90509250929050565b600181811c9082168061141457607f821691505b6020821081141561143557634e487b7160e01b600052602260045260246000fd5b50919050565b60208082526031908201527f4552433732313a207472616e736665722063616c6c6572206973206e6f74206f6040820152701ddb995c881b9bdc88185c1c1c9bdd9959607a1b606082015260800190565b6000835161149e81846020880161110e565b8351908301906114b281836020880161110e565b01949350505050565b634e487b7160e01b600052601160045260246000fd5b6000828210156114e3576114e36114bb565b500390565b600082198211156114fb576114fb6114bb565b500190565b60208082526032908201527f4552433732313a207472616e7366657220746f206e6f6e20455243373231526560408201527131b2b4bb32b91034b6b83632b6b2b73a32b960711b606082015260800190565b6000600019821415611566576115666114bb565b5060010190565b634e487b7160e01b600052601260045260246000fd5b6000826115925761159261156d565b500490565b6000826115a6576115a661156d565b500690565b634e487b7160e01b600052603260045260246000fd5b6001600160a01b03858116825284166020820152604081018390526080606082018190526000906115f49083018461113a565b9695505050505050565b60006020828403121561161057600080fd5b815161089c816110db56fea26469706673582212207ab306e3a98f60666b6c501268770b6c792086285e2ff1ab98b92a6481800fe264736f6c63430008090033",
  "linkReferences": {},
  "deployedLinkReferences": {}
}