{
  "_format": "hh-sol-artifact-1",
  "contractName": "ECDSAMock",
  "sourceName": "contracts/mocks/ECDSAMock.sol",
  "abi": [
    {
      "inputs": [
        {
          "internalType": "bytes32",
          "name": "hash",
          "type": "bytes32"
        },
        {
          "internalType": "bytes",
          "name": "signature",
          "type": "bytes"
        }
      ],
      "name": "recover",
      "outputs": [
        {
          "internalType": "address",
          "name": "",
          "type": "address"
        }
      ],
      "stateMutability": "pure",
      "type": "function"
    },
    {
      "inputs": [
        {
          "internalType": "bytes32",
          "name": "hash",
          "type": "bytes32"
        },
        {
          "internalType": "bytes32",
          "name": "r",
          "type": "bytes32"
        },
        {
          "internalType": "bytes32",
          "name": "vs",
          "type": "bytes32"
        }
      ],
      "name": "recover_r_vs",
      "outputs": [
        {
          "internalType": "address",
          "name": "",
          "type": "address"
        }
      ],
      "stateMutability": "pure",
      "type": "function"
    },
    {
      "inputs": [
        {
          "internalType": "bytes32",
          "name": "hash",
          "type": "bytes32"
        },
        {
          "internalType": "uint8",
          "name": "v",
          "type": "uint8"
        },
        {
          "internalType": "bytes32",
          "name": "r",
          "type": "bytes32"
        },
        {
          "internalType": "bytes32",
          "name": "s",
          "type": "bytes32"
        }
      ],
      "name": "recover_v_r_s",
      "outputs": [
        {
          "internalType": "address",
          "name": "",
          "type": "address"
        }
      ],
      "stateMutability": "pure",
      "type": "function"
    },
    {
      "inputs": [
        {
          "internalType": "bytes32",
          "name": "hash",
          "type": "bytes32"
        }
      ],
      "name": "toEthSignedMessageHash",
      "outputs": [
        {
          "internalType": "bytes32",
          "name": "",
          "type": "bytes32"
        }
      ],
      "stateMutability": "pure",
      "type": "function"
    },
    {
      "inputs": [
        {
          "internalType": "bytes",
          "name": "s",
          "type": "bytes"
        }
      ],
      "name": "toEthSignedMessageHash",
      "outputs": [
        {
          "internalType": "bytes32",
          "name": "",
          "type": "bytes32"
        }
      ],
      "stateMutability": "pure",
      "type": "function"
    }
  ],
  "bytecode": "0x608060405234801561001057600080fd5b506109ae806100206000396000f3fe608060405234801561001057600080fd5b50600436106100575760003560e01c8063126442731461005c57806319045a251461008c578063918a15cf1461009f57806392bd87b5146100c0578063a005410b146100d3575b600080fd5b61006f61006a36600461067c565b6100e6565b6040516001600160a01b0390911681526020015b60405180910390f35b61006f61009a366004610762565b6100fd565b6100b26100ad3660046107a9565b610110565b604051908152602001610083565b6100b26100ce3660046107c2565b610121565b61006f6100e13660046107f7565b61012c565b60006100f485858585610141565b95945050505050565b60006101098383610169565b9392505050565b600061011b8261018d565b92915050565b600061011b826101e1565b60006101398484846101ff565b949350505050565b600080600061015287878787610225565b9150915061015f81610312565b5095945050505050565b600080600061017885856104d5565b9150915061018581610312565b509392505050565b6040517f19457468657265756d205369676e6564204d6573736167653a0a3332000000006020820152603c8101829052600090605c015b604051602081830303815290604052805190602001209050919050565b60006101ed8251610545565b826040516020016101c4929190610853565b600080600061020f868686610643565b9150915061021c81610312565b50949350505050565b6000807f7fffffffffffffffffffffffffffffff5d576e7357a4501ddfe92f46681b20a083111561025c5750600090506003610309565b8460ff16601b1415801561027457508460ff16601c14155b156102855750600090506004610309565b6040805160008082526020820180845289905260ff881692820192909252606081018690526080810185905260019060a0016020604051602081039080840390855afa1580156102d9573d6000803e3d6000fd5b5050604051601f1901519150506001600160a01b03811661030257600060019250925050610309565b9150600090505b94509492505050565b6000816004811115610326576103266108ae565b141561032f5750565b6001816004811115610343576103436108ae565b14156103965760405162461bcd60e51b815260206004820152601860248201527f45434453413a20696e76616c6964207369676e6174757265000000000000000060448201526064015b60405180910390fd5b60028160048111156103aa576103aa6108ae565b14156103f85760405162461bcd60e51b815260206004820152601f60248201527f45434453413a20696e76616c6964207369676e6174757265206c656e67746800604482015260640161038d565b600381600481111561040c5761040c6108ae565b14156104655760405162461bcd60e51b815260206004820152602260248201527f45434453413a20696e76616c6964207369676e6174757265202773272076616c604482015261756560f01b606482015260840161038d565b6004816004811115610479576104796108ae565b14156104d25760405162461bcd60e51b815260206004820152602260248201527f45434453413a20696e76616c6964207369676e6174757265202776272076616c604482015261756560f01b606482015260840161038d565b50565b60008082516041141561050c5760208301516040840151606085015160001a61050087828585610225565b9450945050505061053e565b825160401415610536576020830151604084015161052b868383610643565b93509350505061053e565b506000905060025b9250929050565b6060816105695750506040805180820190915260018152600360fc1b602082015290565b8160005b8115610593578061057d816108da565b915061058c9050600a8361090b565b915061056d565b60008167ffffffffffffffff8111156105ae576105ae6106bf565b6040519080825280601f01601f1916602001820160405280156105d8576020820181803683370190505b5090505b8415610139576105ed60018361091f565b91506105fa600a86610936565b61060590603061094a565b60f81b81838151811061061a5761061a610962565b60200101906001600160f81b031916908160001a90535061063c600a8661090b565b94506105dc565b6000806001600160ff1b0383168161066060ff86901c601b61094a565b905061066e87828885610225565b935093505050935093915050565b6000806000806080858703121561069257600080fd5b84359350602085013560ff811681146106aa57600080fd5b93969395505050506040820135916060013590565b634e487b7160e01b600052604160045260246000fd5b600082601f8301126106e657600080fd5b813567ffffffffffffffff80821115610701576107016106bf565b604051601f8301601f19908116603f01168101908282118183101715610729576107296106bf565b8160405283815286602085880101111561074257600080fd5b836020870160208301376000602085830101528094505050505092915050565b6000806040838503121561077557600080fd5b82359150602083013567ffffffffffffffff81111561079357600080fd5b61079f858286016106d5565b9150509250929050565b6000602082840312156107bb57600080fd5b5035919050565b6000602082840312156107d457600080fd5b813567ffffffffffffffff8111156107eb57600080fd5b610139848285016106d5565b60008060006060848603121561080c57600080fd5b505081359360208301359350604090920135919050565b60005b8381101561083e578181015183820152602001610826565b8381111561084d576000848401525b50505050565b7f19457468657265756d205369676e6564204d6573736167653a0a00000000000081526000835161088b81601a850160208801610823565b8351908301906108a281601a840160208801610823565b01601a01949350505050565b634e487b7160e01b600052602160045260246000fd5b634e487b7160e01b600052601160045260246000fd5b60006000198214156108ee576108ee6108c4565b5060010190565b634e487b7160e01b600052601260045260246000fd5b60008261091a5761091a6108f5565b500490565b600082821015610931576109316108c4565b500390565b600082610945576109456108f5565b500690565b6000821982111561095d5761095d6108c4565b500190565b634e487b7160e01b600052603260045260246000fdfea26469706673582212207203357d5221bb6f0cdf01f29a3ec72d68c065be50efc2c852d52e81ff2c34a264736f6c63430008090033",
  "linkReferences": {},
  "deployedLinkReferences": {}
}