{
  "_format": "hh-sol-artifact-1",
  "contractName": "ERC20PermitMock",
  "sourceName": "contracts/mocks/ERC20PermitMock.sol",
  "abi": [
    {
      "inputs": [
        {
          "internalType": "string",
          "name": "name",
          "type": "string"
        },
        {
          "internalType": "string",
          "name": "symbol",
          "type": "string"
        },
        {
          "internalType": "address",
          "name": "initialAccount",
          "type": "address"
        },
        {
          "internalType": "uint256",
          "name": "initialBalance",
          "type": "uint256"
        }
      ],
      "stateMutability": "payable",
      "type": "constructor"
    },
    {
      "anonymous": false,
      "inputs": [
        {
          "indexed": true,
          "internalType": "address",
          "name": "owner",
          "type": "address"
        },
        {
          "indexed": true,
          "internalType": "address",
          "name": "spender",
          "type": "address"
        },
        {
          "indexed": false,
          "internalType": "uint256",
          "name": "value",
          "type": "uint256"
        }
      ],
      "name": "Approval",
      "type": "event"
    },
    {
      "anonymous": false,
      "inputs": [
        {
          "indexed": true,
          "internalType": "address",
          "name": "from",
          "type": "address"
        },
        {
          "indexed": true,
          "internalType": "address",
          "name": "to",
          "type": "address"
        },
        {
          "indexed": false,
          "internalType": "uint256",
          "name": "value",
          "type": "uint256"
        }
      ],
      "name": "Transfer",
      "type": "event"
    },
    {
      "inputs": [],
      "name": "DOMAIN_SEPARATOR",
      "outputs": [
        {
          "internalType": "bytes32",
          "name": "",
          "type": "bytes32"
        }
      ],
      "stateMutability": "view",
      "type": "function"
    },
    {
      "inputs": [
        {
          "internalType": "address",
          "name": "owner",
          "type": "address"
        },
        {
          "internalType": "address",
          "name": "spender",
          "type": "address"
        }
      ],
      "name": "allowance",
      "outputs": [
        {
          "internalType": "uint256",
          "name": "",
          "type": "uint256"
        }
      ],
      "stateMutability": "view",
      "type": "function"
    },
    {
      "inputs": [
        {
          "internalType": "address",
          "name": "spender",
          "type": "address"
        },
        {
          "internalType": "uint256",
          "name": "amount",
          "type": "uint256"
        }
      ],
      "name": "approve",
      "outputs": [
        {
          "internalType": "bool",
          "name": "",
          "type": "bool"
        }
      ],
      "stateMutability": "nonpayable",
      "type": "function"
    },
    {
      "inputs": [
        {
          "internalType": "address",
          "name": "account",
          "type": "address"
        }
      ],
      "name": "balanceOf",
      "outputs": [
        {
          "internalType": "uint256",
          "name": "",
          "type": "uint256"
        }
      ],
      "stateMutability": "view",
      "type": "function"
    },
    {
      "inputs": [],
      "name": "decimals",
      "outputs": [
        {
          "internalType": "uint8",
          "name": "",
          "type": "uint8"
        }
      ],
      "stateMutability": "view",
      "type": "function"
    },
    {
      "inputs": [
        {
          "internalType": "address",
          "name": "spender",
          "type": "address"
        },
        {
          "internalType": "uint256",
          "name": "subtractedValue",
          "type": "uint256"
        }
      ],
      "name": "decreaseAllowance",
      "outputs": [
        {
          "internalType": "bool",
          "name": "",
          "type": "bool"
        }
      ],
      "stateMutability": "nonpayable",
      "type": "function"
    },
    {
      "inputs": [],
      "name": "getChainId",
      "outputs": [
        {
          "internalType": "uint256",
          "name": "",
          "type": "uint256"
        }
      ],
      "stateMutability": "view",
      "type": "function"
    },
    {
      "inputs": [
        {
          "internalType": "address",
          "name": "spender",
          "type": "address"
        },
        {
          "internalType": "uint256",
          "name": "addedValue",
          "type": "uint256"
        }
      ],
      "name": "increaseAllowance",
      "outputs": [
        {
          "internalType": "bool",
          "name": "",
          "type": "bool"
        }
      ],
      "stateMutability": "nonpayable",
      "type": "function"
    },
    {
      "inputs": [],
      "name": "name",
      "outputs": [
        {
          "internalType": "string",
          "name": "",
          "type": "string"
        }
      ],
      "stateMutability": "view",
      "type": "function"
    },
    {
      "inputs": [
        {
          "internalType": "address",
          "name": "owner",
          "type": "address"
        }
      ],
      "name": "nonces",
      "outputs": [
        {
          "internalType": "uint256",
          "name": "",
          "type": "uint256"
        }
      ],
      "stateMutability": "view",
      "type": "function"
    },
    {
      "inputs": [
        {
          "internalType": "address",
          "name": "owner",
          "type": "address"
        },
        {
          "internalType": "address",
          "name": "spender",
          "type": "address"
        },
        {
          "internalType": "uint256",
          "name": "value",
          "type": "uint256"
        },
        {
          "internalType": "uint256",
          "name": "deadline",
          "type": "uint256"
        },
        {
          "internalType": "uint8",
          "name": "v",
          "type": "uint8"
        },
        {
          "internalType": "bytes32",
          "name": "r",
          "type": "bytes32"
        },
        {
          "internalType": "bytes32",
          "name": "s",
          "type": "bytes32"
        }
      ],
      "name": "permit",
      "outputs": [],
      "stateMutability": "nonpayable",
      "type": "function"
    },
    {
      "inputs": [],
      "name": "symbol",
      "outputs": [
        {
          "internalType": "string",
          "name": "",
          "type": "string"
        }
      ],
      "stateMutability": "view",
      "type": "function"
    },
    {
      "inputs": [],
      "name": "totalSupply",
      "outputs": [
        {
          "internalType": "uint256",
          "name": "",
          "type": "uint256"
        }
      ],
      "stateMutability": "view",
      "type": "function"
    },
    {
      "inputs": [
        {
          "internalType": "address",
          "name": "to",
          "type": "address"
        },
        {
          "internalType": "uint256",
          "name": "amount",
          "type": "uint256"
        }
      ],
      "name": "transfer",
      "outputs": [
        {
          "internalType": "bool",
          "name": "",
          "type": "bool"
        }
      ],
      "stateMutability": "nonpayable",
      "type": "function"
    },
    {
      "inputs": [
        {
          "internalType": "address",
          "name": "from",
          "type": "address"
        },
        {
          "internalType": "address",
          "name": "to",
          "type": "address"
        },
        {
          "internalType": "uint256",
          "name": "amount",
          "type": "uint256"
        }
      ],
      "name": "transferFrom",
      "outputs": [
        {
          "internalType": "bool",
          "name": "",
          "type": "bool"
        }
      ],
      "stateMutability": "nonpayable",
      "type": "function"
    }
  ],
  "bytecode": "0x6101606040527f6e71edae12b1b97f4d1f60370fef10105fa2faae0126114a169c64845d6126c961014090815250604051620014c8380380620014c88339810160408190526200004f91620003a0565b8380604051806040016040528060018152602001603160f81b81525086868160039080519060200190620000859291906200022d565b5080516200009b9060049060208401906200022d565b5050825160209384012082519284019290922060e08390526101008190524660a0818152604080517f8b73c3c69bb8fe3d512ecc4cf759cc79239f7b179b0ffacaa9a75d522b39400f818901819052818301979097526060810194909452608080850193909352308483018190528151808603909301835260c09485019091528151919096012090529290925261012052506200013b9050828262000145565b5050505062000497565b6001600160a01b038216620001a05760405162461bcd60e51b815260206004820152601f60248201527f45524332303a206d696e7420746f20746865207a65726f206164647265737300604482015260640160405180910390fd5b8060026000828254620001b4919062000433565b90915550506001600160a01b03821660009081526020819052604081208054839290620001e390849062000433565b90915550506040518181526001600160a01b038316906000907fddf252ad1be2c89b69c2b068fc378daa952ba7f163c4a11628f55a4df523b3ef9060200160405180910390a35050565b8280546200023b906200045a565b90600052602060002090601f0160209004810192826200025f5760008555620002aa565b82601f106200027a57805160ff1916838001178555620002aa565b82800160010185558215620002aa579182015b82811115620002aa5782518255916020019190600101906200028d565b50620002b8929150620002bc565b5090565b5b80821115620002b85760008155600101620002bd565b634e487b7160e01b600052604160045260246000fd5b600082601f830112620002fb57600080fd5b81516001600160401b0380821115620003185762000318620002d3565b604051601f8301601f19908116603f01168101908282118183101715620003435762000343620002d3565b816040528381526020925086838588010111156200036057600080fd5b600091505b8382101562000384578582018301518183018401529082019062000365565b83821115620003965760008385830101525b9695505050505050565b60008060008060808587031215620003b757600080fd5b84516001600160401b0380821115620003cf57600080fd5b620003dd88838901620002e9565b95506020870151915080821115620003f457600080fd5b506200040387828801620002e9565b604087015190945090506001600160a01b03811681146200042357600080fd5b6060959095015193969295505050565b600082198211156200045557634e487b7160e01b600052601160045260246000fd5b500190565b600181811c908216806200046f57607f821691505b602082108114156200049157634e487b7160e01b600052602260045260246000fd5b50919050565b60805160a05160c05160e051610100516101205161014051610fd6620004f2600039600061048c015260006109aa015260006109f9015260006109d40152600061092d01526000610957015260006109810152610fd66000f3fe608060405234801561001057600080fd5b50600436106100f55760003560e01c80633950935111610097578063a457c2d711610066578063a457c2d7146101d4578063a9059cbb146101e7578063d505accf146101fa578063dd62ed3e1461020f57600080fd5b8063395093511461017d57806370a08231146101905780637ecebe00146101b957806395d89b41146101cc57600080fd5b806323b872dd116100d357806323b872dd1461014d578063313ce567146101605780633408e4701461016f5780633644e5151461017557600080fd5b806306fdde03146100fa578063095ea7b31461011857806318160ddd1461013b575b600080fd5b610102610248565b60405161010f9190610d90565b60405180910390f35b61012b610126366004610e01565b6102da565b604051901515815260200161010f565b6002545b60405190815260200161010f565b61012b61015b366004610e2b565b6102f2565b6040516012815260200161010f565b4661013f565b61013f610316565b61012b61018b366004610e01565b610325565b61013f61019e366004610e67565b6001600160a01b031660009081526020819052604090205490565b61013f6101c7366004610e67565b610364565b610102610384565b61012b6101e2366004610e01565b610393565b61012b6101f5366004610e01565b61042a565b61020d610208366004610e89565b610438565b005b61013f61021d366004610efc565b6001600160a01b03918216600090815260016020908152604080832093909416825291909152205490565b60606003805461025790610f2f565b80601f016020809104026020016040519081016040528092919081815260200182805461028390610f2f565b80156102d05780601f106102a5576101008083540402835291602001916102d0565b820191906000526020600020905b8154815290600101906020018083116102b357829003601f168201915b5050505050905090565b6000336102e881858561059c565b5060019392505050565b6000336103008582856106c0565b61030b858585610752565b506001949350505050565b6000610320610920565b905090565b3360008181526001602090815260408083206001600160a01b03871684529091528120549091906102e8908290869061035f908790610f64565b61059c565b6001600160a01b0381166000908152600560205260408120545b92915050565b60606004805461025790610f2f565b3360008181526001602090815260408083206001600160a01b03871684529091528120549091908381101561041d5760405162461bcd60e51b815260206004820152602560248201527f45524332303a2064656372656173656420616c6c6f77616e63652062656c6f77604482015264207a65726f60d81b60648201526084015b60405180910390fd5b61030b828686840361059c565b6000336102e8818585610752565b834211156104885760405162461bcd60e51b815260206004820152601d60248201527f45524332305065726d69743a206578706972656420646561646c696e650000006044820152606401610414565b60007f00000000000000000000000000000000000000000000000000000000000000008888886104b78c610a47565b6040805160208101969096526001600160a01b0394851690860152929091166060840152608083015260a082015260c0810186905260e001604051602081830303815290604052805190602001209050600061051282610a6f565b9050600061052282878787610abd565b9050896001600160a01b0316816001600160a01b0316146105855760405162461bcd60e51b815260206004820152601e60248201527f45524332305065726d69743a20696e76616c6964207369676e617475726500006044820152606401610414565b6105908a8a8a61059c565b50505050505050505050565b6001600160a01b0383166105fe5760405162461bcd60e51b8152602060048201526024808201527f45524332303a20617070726f76652066726f6d20746865207a65726f206164646044820152637265737360e01b6064820152608401610414565b6001600160a01b03821661065f5760405162461bcd60e51b815260206004820152602260248201527f45524332303a20617070726f766520746f20746865207a65726f206164647265604482015261737360f01b6064820152608401610414565b6001600160a01b0383811660008181526001602090815260408083209487168084529482529182902085905590518481527f8c5be1e5ebec7d5bd14f71427d1e84f3dd0314c0f7b2291e5b200ac8c7c3b925910160405180910390a3505050565b6001600160a01b03838116600090815260016020908152604080832093861683529290522054600019811461074c578181101561073f5760405162461bcd60e51b815260206004820152601d60248201527f45524332303a20696e73756666696369656e7420616c6c6f77616e63650000006044820152606401610414565b61074c848484840361059c565b50505050565b6001600160a01b0383166107b65760405162461bcd60e51b815260206004820152602560248201527f45524332303a207472616e736665722066726f6d20746865207a65726f206164604482015264647265737360d81b6064820152608401610414565b6001600160a01b0382166108185760405162461bcd60e51b815260206004820152602360248201527f45524332303a207472616e7366657220746f20746865207a65726f206164647260448201526265737360e81b6064820152608401610414565b6001600160a01b038316600090815260208190526040902054818110156108905760405162461bcd60e51b815260206004820152602660248201527f45524332303a207472616e7366657220616d6f756e7420657863656564732062604482015265616c616e636560d01b6064820152608401610414565b6001600160a01b038085166000908152602081905260408082208585039055918516815290812080548492906108c7908490610f64565b92505081905550826001600160a01b0316846001600160a01b03167fddf252ad1be2c89b69c2b068fc378daa952ba7f163c4a11628f55a4df523b3ef8460405161091391815260200190565b60405180910390a361074c565b6000306001600160a01b037f00000000000000000000000000000000000000000000000000000000000000001614801561097957507f000000000000000000000000000000000000000000000000000000000000000046145b156109a357507f000000000000000000000000000000000000000000000000000000000000000090565b50604080517f00000000000000000000000000000000000000000000000000000000000000006020808301919091527f0000000000000000000000000000000000000000000000000000000000000000828401527f000000000000000000000000000000000000000000000000000000000000000060608301524660808301523060a0808401919091528351808403909101815260c0909201909252805191012090565b6001600160a01b03811660009081526005602052604090208054600181018255905b50919050565b600061037e610a7c610920565b8360405161190160f01b6020820152602281018390526042810182905260009060620160405160208183030381529060405280519060200120905092915050565b6000806000610ace87878787610ae5565b91509150610adb81610bd2565b5095945050505050565b6000807f7fffffffffffffffffffffffffffffff5d576e7357a4501ddfe92f46681b20a0831115610b1c5750600090506003610bc9565b8460ff16601b14158015610b3457508460ff16601c14155b15610b455750600090506004610bc9565b6040805160008082526020820180845289905260ff881692820192909252606081018690526080810185905260019060a0016020604051602081039080840390855afa158015610b99573d6000803e3d6000fd5b5050604051601f1901519150506001600160a01b038116610bc257600060019250925050610bc9565b9150600090505b94509492505050565b6000816004811115610be657610be6610f8a565b1415610bef5750565b6001816004811115610c0357610c03610f8a565b1415610c515760405162461bcd60e51b815260206004820152601860248201527f45434453413a20696e76616c6964207369676e617475726500000000000000006044820152606401610414565b6002816004811115610c6557610c65610f8a565b1415610cb35760405162461bcd60e51b815260206004820152601f60248201527f45434453413a20696e76616c6964207369676e6174757265206c656e677468006044820152606401610414565b6003816004811115610cc757610cc7610f8a565b1415610d205760405162461bcd60e51b815260206004820152602260248201527f45434453413a20696e76616c6964207369676e6174757265202773272076616c604482015261756560f01b6064820152608401610414565b6004816004811115610d3457610d34610f8a565b1415610d8d5760405162461bcd60e51b815260206004820152602260248201527f45434453413a20696e76616c6964207369676e6174757265202776272076616c604482015261756560f01b6064820152608401610414565b50565b600060208083528351808285015260005b81811015610dbd57858101830151858201604001528201610da1565b81811115610dcf576000604083870101525b50601f01601f1916929092016040019392505050565b80356001600160a01b0381168114610dfc57600080fd5b919050565b60008060408385031215610e1457600080fd5b610e1d83610de5565b946020939093013593505050565b600080600060608486031215610e4057600080fd5b610e4984610de5565b9250610e5760208501610de5565b9150604084013590509250925092565b600060208284031215610e7957600080fd5b610e8282610de5565b9392505050565b600080600080600080600060e0888a031215610ea457600080fd5b610ead88610de5565b9650610ebb60208901610de5565b95506040880135945060608801359350608088013560ff81168114610edf57600080fd5b9699959850939692959460a0840135945060c09093013592915050565b60008060408385031215610f0f57600080fd5b610f1883610de5565b9150610f2660208401610de5565b90509250929050565b600181811c90821680610f4357607f821691505b60208210811415610a6957634e487b7160e01b600052602260045260246000fd5b60008219821115610f8557634e487b7160e01b600052601160045260246000fd5b500190565b634e487b7160e01b600052602160045260246000fdfea264697066735822122045e8ea50793b54bb626b81d4ceee69f249a8c0df5d3ed9e8c06df9d22c51c97a64736f6c63430008090033",
  "linkReferences": {},
  "deployedLinkReferences": {}
}