{
  "_format": "hh-sol-artifact-1",
  "contractName": "ERC1155SupplyMock",
  "sourceName": "contracts/mocks/ERC1155SupplyMock.sol",
  "abi": [
    {
      "inputs": [
        {
          "internalType": "string",
          "name": "uri",
          "type": "string"
        }
      ],
      "stateMutability": "nonpayable",
      "type": "constructor"
    },
    {
      "anonymous": false,
      "inputs": [
        {
          "indexed": true,
          "internalType": "address",
          "name": "account",
          "type": "address"
        },
        {
          "indexed": true,
          "internalType": "address",
          "name": "operator",
          "type": "address"
        },
        {
          "indexed": false,
          "internalType": "bool",
          "name": "approved",
          "type": "bool"
        }
      ],
      "name": "ApprovalForAll",
      "type": "event"
    },
    {
      "anonymous": false,
      "inputs": [
        {
          "indexed": true,
          "internalType": "address",
          "name": "operator",
          "type": "address"
        },
        {
          "indexed": true,
          "internalType": "address",
          "name": "from",
          "type": "address"
        },
        {
          "indexed": true,
          "internalType": "address",
          "name": "to",
          "type": "address"
        },
        {
          "indexed": false,
          "internalType": "uint256[]",
          "name": "ids",
          "type": "uint256[]"
        },
        {
          "indexed": false,
          "internalType": "uint256[]",
          "name": "values",
          "type": "uint256[]"
        }
      ],
      "name": "TransferBatch",
      "type": "event"
    },
    {
      "anonymous": false,
      "inputs": [
        {
          "indexed": true,
          "internalType": "address",
          "name": "operator",
          "type": "address"
        },
        {
          "indexed": true,
          "internalType": "address",
          "name": "from",
          "type": "address"
        },
        {
          "indexed": true,
          "internalType": "address",
          "name": "to",
          "type": "address"
        },
        {
          "indexed": false,
          "internalType": "uint256",
          "name": "id",
          "type": "uint256"
        },
        {
          "indexed": false,
          "internalType": "uint256",
          "name": "value",
          "type": "uint256"
        }
      ],
      "name": "TransferSingle",
      "type": "event"
    },
    {
      "anonymous": false,
      "inputs": [
        {
          "indexed": false,
          "internalType": "string",
          "name": "value",
          "type": "string"
        },
        {
          "indexed": true,
          "internalType": "uint256",
          "name": "id",
          "type": "uint256"
        }
      ],
      "name": "URI",
      "type": "event"
    },
    {
      "inputs": [
        {
          "internalType": "address",
          "name": "account",
          "type": "address"
        },
        {
          "internalType": "uint256",
          "name": "id",
          "type": "uint256"
        }
      ],
      "name": "balanceOf",
      "outputs": [
        {
          "internalType": "uint256",
          "name": "",
          "type": "uint256"
        }
      ],
      "stateMutability": "view",
      "type": "function"
    },
    {
      "inputs": [
        {
          "internalType": "address[]",
          "name": "accounts",
          "type": "address[]"
        },
        {
          "internalType": "uint256[]",
          "name": "ids",
          "type": "uint256[]"
        }
      ],
      "name": "balanceOfBatch",
      "outputs": [
        {
          "internalType": "uint256[]",
          "name": "",
          "type": "uint256[]"
        }
      ],
      "stateMutability": "view",
      "type": "function"
    },
    {
      "inputs": [
        {
          "internalType": "address",
          "name": "owner",
          "type": "address"
        },
        {
          "internalType": "uint256",
          "name": "id",
          "type": "uint256"
        },
        {
          "internalType": "uint256",
          "name": "value",
          "type": "uint256"
        }
      ],
      "name": "burn",
      "outputs": [],
      "stateMutability": "nonpayable",
      "type": "function"
    },
    {
      "inputs": [
        {
          "internalType": "address",
          "name": "owner",
          "type": "address"
        },
        {
          "internalType": "uint256[]",
          "name": "ids",
          "type": "uint256[]"
        },
        {
          "internalType": "uint256[]",
          "name": "values",
          "type": "uint256[]"
        }
      ],
      "name": "burnBatch",
      "outputs": [],
      "stateMutability": "nonpayable",
      "type": "function"
    },
    {
      "inputs": [
        {
          "internalType": "uint256",
          "name": "id",
          "type": "uint256"
        }
      ],
      "name": "exists",
      "outputs": [
        {
          "internalType": "bool",
          "name": "",
          "type": "bool"
        }
      ],
      "stateMutability": "view",
      "type": "function"
    },
    {
      "inputs": [
        {
          "internalType": "address",
          "name": "account",
          "type": "address"
        },
        {
          "internalType": "address",
          "name": "operator",
          "type": "address"
        }
      ],
      "name": "isApprovedForAll",
      "outputs": [
        {
          "internalType": "bool",
          "name": "",
          "type": "bool"
        }
      ],
      "stateMutability": "view",
      "type": "function"
    },
    {
      "inputs": [
        {
          "internalType": "address",
          "name": "to",
          "type": "address"
        },
        {
          "internalType": "uint256",
          "name": "id",
          "type": "uint256"
        },
        {
          "internalType": "uint256",
          "name": "value",
          "type": "uint256"
        },
        {
          "internalType": "bytes",
          "name": "data",
          "type": "bytes"
        }
      ],
      "name": "mint",
      "outputs": [],
      "stateMutability": "nonpayable",
      "type": "function"
    },
    {
      "inputs": [
        {
          "internalType": "address",
          "name": "to",
          "type": "address"
        },
        {
          "internalType": "uint256[]",
          "name": "ids",
          "type": "uint256[]"
        },
        {
          "internalType": "uint256[]",
          "name": "values",
          "type": "uint256[]"
        },
        {
          "internalType": "bytes",
          "name": "data",
          "type": "bytes"
        }
      ],
      "name": "mintBatch",
      "outputs": [],
      "stateMutability": "nonpayable",
      "type": "function"
    },
    {
      "inputs": [
        {
          "internalType": "address",
          "name": "from",
          "type": "address"
        },
        {
          "internalType": "address",
          "name": "to",
          "type": "address"
        },
        {
          "internalType": "uint256[]",
          "name": "ids",
          "type": "uint256[]"
        },
        {
          "internalType": "uint256[]",
          "name": "amounts",
          "type": "uint256[]"
        },
        {
          "internalType": "bytes",
          "name": "data",
          "type": "bytes"
        }
      ],
      "name": "safeBatchTransferFrom",
      "outputs": [],
      "stateMutability": "nonpayable",
      "type": "function"
    },
    {
      "inputs": [
        {
          "internalType": "address",
          "name": "from",
          "type": "address"
        },
        {
          "internalType": "address",
          "name": "to",
          "type": "address"
        },
        {
          "internalType": "uint256",
          "name": "id",
          "type": "uint256"
        },
        {
          "internalType": "uint256",
          "name": "amount",
          "type": "uint256"
        },
        {
          "internalType": "bytes",
          "name": "data",
          "type": "bytes"
        }
      ],
      "name": "safeTransferFrom",
      "outputs": [],
      "stateMutability": "nonpayable",
      "type": "function"
    },
    {
      "inputs": [
        {
          "internalType": "address",
          "name": "operator",
          "type": "address"
        },
        {
          "internalType": "bool",
          "name": "approved",
          "type": "bool"
        }
      ],
      "name": "setApprovalForAll",
      "outputs": [],
      "stateMutability": "nonpayable",
      "type": "function"
    },
    {
      "inputs": [
        {
          "internalType": "string",
          "name": "newuri",
          "type": "string"
        }
      ],
      "name": "setURI",
      "outputs": [],
      "stateMutability": "nonpayable",
      "type": "function"
    },
    {
      "inputs": [
        {
          "internalType": "bytes4",
          "name": "interfaceId",
          "type": "bytes4"
        }
      ],
      "name": "supportsInterface",
      "outputs": [
        {
          "internalType": "bool",
          "name": "",
          "type": "bool"
        }
      ],
      "stateMutability": "view",
      "type": "function"
    },
    {
      "inputs": [
        {
          "internalType": "uint256",
          "name": "id",
          "type": "uint256"
        }
      ],
      "name": "totalSupply",
      "outputs": [
        {
          "internalType": "uint256",
          "name": "",
          "type": "uint256"
        }
      ],
      "stateMutability": "view",
      "type": "function"
    },
    {
      "inputs": [
        {
          "internalType": "uint256",
          "name": "",
          "type": "uint256"
        }
      ],
      "name": "uri",
      "outputs": [
        {
          "internalType": "string",
          "name": "",
          "type": "string"
        }
      ],
      "stateMutability": "view",
      "type": "function"
    }
  ],
  "bytecode": "0x60806040523480156200001157600080fd5b50604051620021843803806200218483398101604081905262000034916200011f565b808062000041816200004a565b50505062000238565b80516200005f90600290602084019062000063565b5050565b8280546200007190620001fb565b90600052602060002090601f016020900481019282620000955760008555620000e0565b82601f10620000b057805160ff1916838001178555620000e0565b82800160010185558215620000e0579182015b82811115620000e0578251825591602001919060010190620000c3565b50620000ee929150620000f2565b5090565b5b80821115620000ee5760008155600101620000f3565b634e487b7160e01b600052604160045260246000fd5b600060208083850312156200013357600080fd5b82516001600160401b03808211156200014b57600080fd5b818501915085601f8301126200016057600080fd5b81518181111562000175576200017562000109565b604051601f8201601f19908116603f01168101908382118183101715620001a057620001a062000109565b816040528281528886848701011115620001b957600080fd5b600093505b82841015620001dd5784840186015181850187015292850192620001be565b82841115620001ef5760008684830101525b98975050505050505050565b600181811c908216806200021057607f821691505b602082108114156200023257634e487b7160e01b600052602260045260246000fd5b50919050565b611f3c80620002486000396000f3fe608060405234801561001057600080fd5b50600436106100f45760003560e01c80634f558e7911610097578063bd85b03911610066578063bd85b03914610218578063e985e9c514610238578063f242432a14610274578063f5298aca1461028757600080fd5b80634f558e79146101bd5780636b20c454146101df578063731133e9146101f2578063a22cb4651461020557600080fd5b80630e89341c116100d35780630e89341c146101575780631f7fdffa146101775780632eb2c2d61461018a5780634e1273f41461019d57600080fd5b8062fdd58e146100f957806301ffc9a71461011f57806302fe530514610142575b600080fd5b61010c610107366004611441565b61029a565b6040519081526020015b60405180910390f35b61013261012d366004611481565b610331565b6040519015158152602001610116565b610155610150366004611546565b610383565b005b61016a610165366004611597565b61038f565b60405161011691906115fd565b6101556101853660046116c5565b610423565b61015561019836600461175e565b610435565b6101b06101ab366004611808565b6104cc565b604051610116919061190e565b6101326101cb366004611597565b600090815260036020526040902054151590565b6101556101ed366004611921565b6105f6565b610155610200366004611995565b610606565b6101556102133660046119ea565b610612565b61010c610226366004611597565b60009081526003602052604090205490565b610132610246366004611a26565b6001600160a01b03918216600090815260016020908152604080832093909416825291909152205460ff1690565b610155610282366004611a59565b610621565b610155610295366004611abe565b6106a8565b60006001600160a01b03831661030b5760405162461bcd60e51b815260206004820152602b60248201527f455243313135353a2062616c616e636520717565727920666f7220746865207a60448201526a65726f206164647265737360a81b60648201526084015b60405180910390fd5b506000908152602081815260408083206001600160a01b03949094168352929052205490565b60006001600160e01b03198216636cdb3d1360e11b148061036257506001600160e01b031982166303a24d0760e21b145b8061037d57506301ffc9a760e01b6001600160e01b03198316145b92915050565b61038c816106b3565b50565b60606002805461039e90611af1565b80601f01602080910402602001604051908101604052809291908181526020018280546103ca90611af1565b80156104175780601f106103ec57610100808354040283529160200191610417565b820191906000526020600020905b8154815290600101906020018083116103fa57829003601f168201915b50505050509050919050565b61042f848484846106c6565b50505050565b6001600160a01b03851633148061045157506104518533610246565b6104b85760405162461bcd60e51b815260206004820152603260248201527f455243313135353a207472616e736665722063616c6c6572206973206e6f74206044820152711bdddb995c881b9bdc88185c1c1c9bdd995960721b6064820152608401610302565b6104c58585858585610825565b5050505050565b606081518351146105315760405162461bcd60e51b815260206004820152602960248201527f455243313135353a206163636f756e747320616e6420696473206c656e677468604482015268040dad2e6dac2e8c6d60bb1b6064820152608401610302565b6000835167ffffffffffffffff81111561054d5761054d6114a5565b604051908082528060200260200182016040528015610576578160200160208202803683370190505b50905060005b84518110156105ee576105c185828151811061059a5761059a611b2c565b60200260200101518583815181106105b4576105b4611b2c565b602002602001015161029a565b8282815181106105d3576105d3611b2c565b60209081029190910101526105e781611b58565b905061057c565b509392505050565b6106018383836109cf565b505050565b61042f84848484610b6b565b61061d338383610c54565b5050565b6001600160a01b03851633148061063d575061063d8533610246565b61069b5760405162461bcd60e51b815260206004820152602960248201527f455243313135353a2063616c6c6572206973206e6f74206f776e6572206e6f7260448201526808185c1c1c9bdd995960ba1b6064820152608401610302565b6104c58585858585610d35565b610601838383610e6d565b805161061d90600290602084019061138c565b6001600160a01b0384166106ec5760405162461bcd60e51b815260040161030290611b73565b815183511461070d5760405162461bcd60e51b815260040161030290611bb4565b3361071d81600087878787610f85565b60005b84518110156107b85783818151811061073b5761073b611b2c565b602002602001015160008087848151811061075857610758611b2c565b602002602001015181526020019081526020016000206000886001600160a01b03166001600160a01b0316815260200190815260200160002060008282546107a09190611bfc565b909155508190506107b081611b58565b915050610720565b50846001600160a01b031660006001600160a01b0316826001600160a01b03167f4a39dc06d4c0dbc64b70af90fd698a233a518aa5d07e595d983b8c0526c8f7fb8787604051610809929190611c14565b60405180910390a461082081600087878787610f93565b6104c5565b81518351146108465760405162461bcd60e51b815260040161030290611bb4565b6001600160a01b03841661086c5760405162461bcd60e51b815260040161030290611c42565b3361087b818787878787610f85565b60005b845181101561096157600085828151811061089b5761089b611b2c565b6020026020010151905060008583815181106108b9576108b9611b2c565b602090810291909101810151600084815280835260408082206001600160a01b038e1683529093529190912054909150818110156109095760405162461bcd60e51b815260040161030290611c87565b6000838152602081815260408083206001600160a01b038e8116855292528083208585039055908b16825281208054849290610946908490611bfc565b925050819055505050508061095a90611b58565b905061087e565b50846001600160a01b0316866001600160a01b0316826001600160a01b03167f4a39dc06d4c0dbc64b70af90fd698a233a518aa5d07e595d983b8c0526c8f7fb87876040516109b1929190611c14565b60405180910390a46109c7818787878787610f93565b505050505050565b6001600160a01b0383166109f55760405162461bcd60e51b815260040161030290611cd1565b8051825114610a165760405162461bcd60e51b815260040161030290611bb4565b6000339050610a3981856000868660405180602001604052806000815250610f85565b60005b8351811015610afe576000848281518110610a5957610a59611b2c565b602002602001015190506000848381518110610a7757610a77611b2c565b602090810291909101810151600084815280835260408082206001600160a01b038c168352909352919091205490915081811015610ac75760405162461bcd60e51b815260040161030290611d14565b6000928352602083815260408085206001600160a01b038b1686529091529092209103905580610af681611b58565b915050610a3c565b5060006001600160a01b0316846001600160a01b0316826001600160a01b03167f4a39dc06d4c0dbc64b70af90fd698a233a518aa5d07e595d983b8c0526c8f7fb8686604051610b4f929190611c14565b60405180910390a460408051602081019091526000905261042f565b6001600160a01b038416610b915760405162461bcd60e51b815260040161030290611b73565b336000610b9d856110fe565b90506000610baa856110fe565b9050610bbb83600089858589610f85565b6000868152602081815260408083206001600160a01b038b16845290915281208054879290610beb908490611bfc565b909155505060408051878152602081018790526001600160a01b03808a1692600092918716917fc3d58168c5ae7397731d063d5bbf3d657854427343f4c083240f7aacaa2d0f62910160405180910390a4610c4b83600089898989611149565b50505050505050565b816001600160a01b0316836001600160a01b03161415610cc85760405162461bcd60e51b815260206004820152602960248201527f455243313135353a2073657474696e6720617070726f76616c20737461747573604482015268103337b91039b2b63360b91b6064820152608401610302565b6001600160a01b03838116600081815260016020908152604080832094871680845294825291829020805460ff191686151590811790915591519182527f17307eab39ab6107e8899845ad3d59bd9653f200f220920489ca2b5937696c31910160405180910390a3505050565b6001600160a01b038416610d5b5760405162461bcd60e51b815260040161030290611c42565b336000610d67856110fe565b90506000610d74856110fe565b9050610d84838989858589610f85565b6000868152602081815260408083206001600160a01b038c16845290915290205485811015610dc55760405162461bcd60e51b815260040161030290611c87565b6000878152602081815260408083206001600160a01b038d8116855292528083208985039055908a16825281208054889290610e02908490611bfc565b909155505060408051888152602081018890526001600160a01b03808b16928c821692918816917fc3d58168c5ae7397731d063d5bbf3d657854427343f4c083240f7aacaa2d0f62910160405180910390a4610e62848a8a8a8a8a611149565b505050505050505050565b6001600160a01b038316610e935760405162461bcd60e51b815260040161030290611cd1565b336000610e9f846110fe565b90506000610eac846110fe565b9050610ecc83876000858560405180602001604052806000815250610f85565b6000858152602081815260408083206001600160a01b038a16845290915290205484811015610f0d5760405162461bcd60e51b815260040161030290611d14565b6000868152602081815260408083206001600160a01b038b81168086529184528285208a8703905582518b81529384018a90529092908816917fc3d58168c5ae7397731d063d5bbf3d657854427343f4c083240f7aacaa2d0f62910160405180910390a4604080516020810190915260009052610c4b565b6109c7868686868686611213565b6001600160a01b0384163b156109c75760405163bc197c8160e01b81526001600160a01b0385169063bc197c8190610fd79089908990889088908890600401611d58565b602060405180830381600087803b158015610ff157600080fd5b505af1925050508015611021575060408051601f3d908101601f1916820190925261101e91810190611db6565b60015b6110ce5761102d611dd3565b806308c379a014156110675750611042611def565b8061104d5750611069565b8060405162461bcd60e51b815260040161030291906115fd565b505b60405162461bcd60e51b815260206004820152603460248201527f455243313135353a207472616e7366657220746f206e6f6e20455243313135356044820152732932b1b2b4bb32b91034b6b83632b6b2b73a32b960611b6064820152608401610302565b6001600160e01b0319811663bc197c8160e01b14610c4b5760405162461bcd60e51b815260040161030290611e79565b6040805160018082528183019092526060916000919060208083019080368337019050509050828160008151811061113857611138611b2c565b602090810291909101015292915050565b6001600160a01b0384163b156109c75760405163f23a6e6160e01b81526001600160a01b0385169063f23a6e619061118d9089908990889088908890600401611ec1565b602060405180830381600087803b1580156111a757600080fd5b505af19250505080156111d7575060408051601f3d908101601f191682019092526111d491810190611db6565b60015b6111e35761102d611dd3565b6001600160e01b0319811663f23a6e6160e01b14610c4b5760405162461bcd60e51b815260040161030290611e79565b6001600160a01b03851661129a5760005b83518110156112985782818151811061123f5761123f611b2c565b60200260200101516003600086848151811061125d5761125d611b2c565b6020026020010151815260200190815260200160002060008282546112829190611bfc565b90915550611291905081611b58565b9050611224565b505b6001600160a01b0384166109c75760005b8351811015610c4b5760008482815181106112c8576112c8611b2c565b6020026020010151905060008483815181106112e6576112e6611b2c565b60200260200101519050600060036000848152602001908152602001600020549050818110156113695760405162461bcd60e51b815260206004820152602860248201527f455243313135353a206275726e20616d6f756e74206578636565647320746f74604482015267616c537570706c7960c01b6064820152608401610302565b6000928352600360205260409092209103905561138581611b58565b90506112ab565b82805461139890611af1565b90600052602060002090601f0160209004810192826113ba5760008555611400565b82601f106113d357805160ff1916838001178555611400565b82800160010185558215611400579182015b828111156114005782518255916020019190600101906113e5565b5061140c929150611410565b5090565b5b8082111561140c5760008155600101611411565b80356001600160a01b038116811461143c57600080fd5b919050565b6000806040838503121561145457600080fd5b61145d83611425565b946020939093013593505050565b6001600160e01b03198116811461038c57600080fd5b60006020828403121561149357600080fd5b813561149e8161146b565b9392505050565b634e487b7160e01b600052604160045260246000fd5b601f8201601f1916810167ffffffffffffffff811182821017156114e1576114e16114a5565b6040525050565b600067ffffffffffffffff831115611502576115026114a5565b604051611519601f8501601f1916602001826114bb565b80915083815284848401111561152e57600080fd5b83836020830137600060208583010152509392505050565b60006020828403121561155857600080fd5b813567ffffffffffffffff81111561156f57600080fd5b8201601f8101841361158057600080fd5b61158f848235602084016114e8565b949350505050565b6000602082840312156115a957600080fd5b5035919050565b6000815180845260005b818110156115d6576020818501810151868301820152016115ba565b818111156115e8576000602083870101525b50601f01601f19169290920160200192915050565b60208152600061149e60208301846115b0565b600067ffffffffffffffff82111561162a5761162a6114a5565b5060051b60200190565b600082601f83011261164557600080fd5b8135602061165282611610565b60405161165f82826114bb565b83815260059390931b850182019282810191508684111561167f57600080fd5b8286015b8481101561169a5780358352918301918301611683565b509695505050505050565b600082601f8301126116b657600080fd5b61149e838335602085016114e8565b600080600080608085870312156116db57600080fd5b6116e485611425565b9350602085013567ffffffffffffffff8082111561170157600080fd5b61170d88838901611634565b9450604087013591508082111561172357600080fd5b61172f88838901611634565b9350606087013591508082111561174557600080fd5b50611752878288016116a5565b91505092959194509250565b600080600080600060a0868803121561177657600080fd5b61177f86611425565b945061178d60208701611425565b9350604086013567ffffffffffffffff808211156117aa57600080fd5b6117b689838a01611634565b945060608801359150808211156117cc57600080fd5b6117d889838a01611634565b935060808801359150808211156117ee57600080fd5b506117fb888289016116a5565b9150509295509295909350565b6000806040838503121561181b57600080fd5b823567ffffffffffffffff8082111561183357600080fd5b818501915085601f83011261184757600080fd5b8135602061185482611610565b60405161186182826114bb565b83815260059390931b850182019282810191508984111561188157600080fd5b948201945b838610156118a65761189786611425565b82529482019490820190611886565b965050860135925050808211156118bc57600080fd5b506118c985828601611634565b9150509250929050565b600081518084526020808501945080840160005b83811015611903578151875295820195908201906001016118e7565b509495945050505050565b60208152600061149e60208301846118d3565b60008060006060848603121561193657600080fd5b61193f84611425565b9250602084013567ffffffffffffffff8082111561195c57600080fd5b61196887838801611634565b9350604086013591508082111561197e57600080fd5b5061198b86828701611634565b9150509250925092565b600080600080608085870312156119ab57600080fd5b6119b485611425565b93506020850135925060408501359150606085013567ffffffffffffffff8111156119de57600080fd5b611752878288016116a5565b600080604083850312156119fd57600080fd5b611a0683611425565b915060208301358015158114611a1b57600080fd5b809150509250929050565b60008060408385031215611a3957600080fd5b611a4283611425565b9150611a5060208401611425565b90509250929050565b600080600080600060a08688031215611a7157600080fd5b611a7a86611425565b9450611a8860208701611425565b93506040860135925060608601359150608086013567ffffffffffffffff811115611ab257600080fd5b6117fb888289016116a5565b600080600060608486031215611ad357600080fd5b611adc84611425565b95602085013595506040909401359392505050565b600181811c90821680611b0557607f821691505b60208210811415611b2657634e487b7160e01b600052602260045260246000fd5b50919050565b634e487b7160e01b600052603260045260246000fd5b634e487b7160e01b600052601160045260246000fd5b6000600019821415611b6c57611b6c611b42565b5060010190565b60208082526021908201527f455243313135353a206d696e7420746f20746865207a65726f206164647265736040820152607360f81b606082015260800190565b60208082526028908201527f455243313135353a2069647320616e6420616d6f756e7473206c656e677468206040820152670dad2e6dac2e8c6d60c31b606082015260800190565b60008219821115611c0f57611c0f611b42565b500190565b604081526000611c2760408301856118d3565b8281036020840152611c3981856118d3565b95945050505050565b60208082526025908201527f455243313135353a207472616e7366657220746f20746865207a65726f206164604082015264647265737360d81b606082015260800190565b6020808252602a908201527f455243313135353a20696e73756666696369656e742062616c616e636520666f60408201526939103a3930b739b332b960b11b606082015260800190565b60208082526023908201527f455243313135353a206275726e2066726f6d20746865207a65726f206164647260408201526265737360e81b606082015260800190565b60208082526024908201527f455243313135353a206275726e20616d6f756e7420657863656564732062616c604082015263616e636560e01b606082015260800190565b6001600160a01b0386811682528516602082015260a060408201819052600090611d84908301866118d3565b8281036060840152611d9681866118d3565b90508281036080840152611daa81856115b0565b98975050505050505050565b600060208284031215611dc857600080fd5b815161149e8161146b565b600060033d1115611dec5760046000803e5060005160e01c5b90565b600060443d1015611dfd5790565b6040516003193d81016004833e81513d67ffffffffffffffff8160248401118184111715611e2d57505050505090565b8285019150815181811115611e455750505050505090565b843d8701016020828501011115611e5f5750505050505090565b611e6e602082860101876114bb565b509095945050505050565b60208082526028908201527f455243313135353a204552433131353552656365697665722072656a656374656040820152676420746f6b656e7360c01b606082015260800190565b6001600160a01b03868116825285166020820152604081018490526060810183905260a060808201819052600090611efb908301846115b0565b97965050505050505056fea2646970667358221220c40ad33644c4e2adff36259b1248683677f60adb0802b2501ab1509910d610a664736f6c63430008090033",
  "linkReferences": {},
  "deployedLinkReferences": {}
}