{
  "_format": "hh-sol-artifact-1",
  "contractName": "AddressImpl",
  "sourceName": "contracts/mocks/AddressImpl.sol",
  "abi": [
    {
      "anonymous": false,
      "inputs": [
        {
          "indexed": false,
          "internalType": "string",
          "name": "data",
          "type": "string"
        }
      ],
      "name": "CallReturnValue",
      "type": "event"
    },
    {
      "inputs": [
        {
          "internalType": "address",
          "name": "target",
          "type": "address"
        },
        {
          "internalType": "bytes",
          "name": "data",
          "type": "bytes"
        }
      ],
      "name": "functionCall",
      "outputs": [],
      "stateMutability": "nonpayable",
      "type": "function"
    },
    {
      "inputs": [
        {
          "internalType": "address",
          "name": "target",
          "type": "address"
        },
        {
          "internalType": "bytes",
          "name": "data",
          "type": "bytes"
        },
        {
          "internalType": "uint256",
          "name": "value",
          "type": "uint256"
        }
      ],
      "name": "functionCallWithValue",
      "outputs": [],
      "stateMutability": "payable",
      "type": "function"
    },
    {
      "inputs": [
        {
          "internalType": "address",
          "name": "target",
          "type": "address"
        },
        {
          "internalType": "bytes",
          "name": "data",
          "type": "bytes"
        }
      ],
      "name": "functionDelegateCall",
      "outputs": [],
      "stateMutability": "nonpayable",
      "type": "function"
    },
    {
      "inputs": [
        {
          "internalType": "address",
          "name": "target",
          "type": "address"
        },
        {
          "internalType": "bytes",
          "name": "data",
          "type": "bytes"
        }
      ],
      "name": "functionStaticCall",
      "outputs": [],
      "stateMutability": "nonpayable",
      "type": "function"
    },
    {
      "inputs": [
        {
          "internalType": "address",
          "name": "account",
          "type": "address"
        }
      ],
      "name": "isContract",
      "outputs": [
        {
          "internalType": "bool",
          "name": "",
          "type": "bool"
        }
      ],
      "stateMutability": "view",
      "type": "function"
    },
    {
      "inputs": [
        {
          "internalType": "address payable",
          "name": "receiver",
          "type": "address"
        },
        {
          "internalType": "uint256",
          "name": "amount",
          "type": "uint256"
        }
      ],
      "name": "sendValue",
      "outputs": [],
      "stateMutability": "nonpayable",
      "type": "function"
    },
    {
      "inputs": [],
      "name": "sharedAnswer",
      "outputs": [
        {
          "internalType": "string",
          "name": "",
          "type": "string"
        }
      ],
      "stateMutability": "view",
      "type": "function"
    },
    {
      "stateMutability": "payable",
      "type": "receive"
    }
  ],
  "bytecode": "0x608060405234801561001057600080fd5b50610c29806100206000396000f3fe6080604052600436106100745760003560e01c8063a0b5ffb01161004e578063a0b5ffb0146100f4578063c21d36f314610114578063ee33b7e214610134578063fc40cf731461015457600080fd5b8063162790551461008057806324a084df146100bf5780632a011594146100e157600080fd5b3661007b57005b600080fd5b34801561008c57600080fd5b506100aa61009b3660046108c9565b6001600160a01b03163b151590565b60405190151581526020015b60405180910390f35b3480156100cb57600080fd5b506100df6100da3660046108e6565b610176565b005b6100df6100ef36600461095b565b610184565b34801561010057600080fd5b506100df61010f3660046109b7565b61021b565b34801561012057600080fd5b506100df61012f3660046109b7565b6102af565b34801561014057600080fd5b506100df61014f3660046109b7565b6102f1565b34801561016057600080fd5b50610169610333565b6040516100b69190610a3c565b61018082826103c1565b5050565b60006101c88585858080601f0160208091040260200160405190810160405280939291908181526020018383808284376000920191909152508792506104e4915050565b90507fe518073da644d0626295bee74d5d5c51447a33857c62913bb30f35e2fba3db7c818060200190518101906101ff9190610a85565b60405161020c9190610a3c565b60405180910390a15050505050565b600061025d8484848080601f01602080910402602001604051908101604052809392919081815260200183838082843760009201919091525061051492505050565b90507fe518073da644d0626295bee74d5d5c51447a33857c62913bb30f35e2fba3db7c818060200190518101906102949190610a85565b6040516102a19190610a3c565b60405180910390a150505050565b600061025d8484848080601f01602080910402602001604051908101604052809392919081815260200183838082843760009201919091525061055692505050565b600061025d8484848080601f01602080910402602001604051908101604052809392919081815260200183838082843760009201919091525061057b92505050565b6000805461034090610b27565b80601f016020809104026020016040519081016040528092919081815260200182805461036c90610b27565b80156103b95780601f1061038e576101008083540402835291602001916103b9565b820191906000526020600020905b81548152906001019060200180831161039c57829003601f168201915b505050505081565b804710156104165760405162461bcd60e51b815260206004820152601d60248201527f416464726573733a20696e73756666696369656e742062616c616e636500000060448201526064015b60405180910390fd5b6000826001600160a01b03168260405160006040518083038185875af1925050503d8060008114610463576040519150601f19603f3d011682016040523d82523d6000602084013e610468565b606091505b50509050806104df5760405162461bcd60e51b815260206004820152603a60248201527f416464726573733a20756e61626c6520746f2073656e642076616c75652c207260448201527f6563697069656e74206d61792068617665207265766572746564000000000000606482015260840161040d565b505050565b606061050a848484604051806060016040528060298152602001610b7f602991396105a0565b90505b9392505050565b606061050d83836040518060400160405280601e81526020017f416464726573733a206c6f772d6c6576656c2063616c6c206661696c656400008152506106d1565b606061050d8383604051806060016040528060258152602001610ba8602591396106e0565b606061050d8383604051806060016040528060278152602001610bcd602791396107ba565b6060824710156106015760405162461bcd60e51b815260206004820152602660248201527f416464726573733a20696e73756666696369656e742062616c616e636520666f6044820152651c8818d85b1b60d21b606482015260840161040d565b6001600160a01b0385163b6106585760405162461bcd60e51b815260206004820152601d60248201527f416464726573733a2063616c6c20746f206e6f6e2d636f6e7472616374000000604482015260640161040d565b600080866001600160a01b031685876040516106749190610b62565b60006040518083038185875af1925050503d80600081146106b1576040519150601f19603f3d011682016040523d82523d6000602084013e6106b6565b606091505b50915091506106c6828286610878565b979650505050505050565b606061050a84846000856105a0565b60606001600160a01b0384163b6107455760405162461bcd60e51b8152602060048201526024808201527f416464726573733a207374617469632063616c6c20746f206e6f6e2d636f6e746044820152631c9858dd60e21b606482015260840161040d565b600080856001600160a01b0316856040516107609190610b62565b600060405180830381855afa9150503d806000811461079b576040519150601f19603f3d011682016040523d82523d6000602084013e6107a0565b606091505b50915091506107b0828286610878565b9695505050505050565b60606001600160a01b0384163b6108225760405162461bcd60e51b815260206004820152602660248201527f416464726573733a2064656c65676174652063616c6c20746f206e6f6e2d636f6044820152651b9d1c9858dd60d21b606482015260840161040d565b600080856001600160a01b03168560405161083d9190610b62565b600060405180830381855af49150503d806000811461079b576040519150601f19603f3d011682016040523d82523d6000602084013e6107a0565b6060831561088757508161050d565b8251156108975782518084602001fd5b8160405162461bcd60e51b815260040161040d9190610a3c565b6001600160a01b03811681146108c657600080fd5b50565b6000602082840312156108db57600080fd5b813561050d816108b1565b600080604083850312156108f957600080fd5b8235610904816108b1565b946020939093013593505050565b60008083601f84011261092457600080fd5b50813567ffffffffffffffff81111561093c57600080fd5b60208301915083602082850101111561095457600080fd5b9250929050565b6000806000806060858703121561097157600080fd5b843561097c816108b1565b9350602085013567ffffffffffffffff81111561099857600080fd5b6109a487828801610912565b9598909750949560400135949350505050565b6000806000604084860312156109cc57600080fd5b83356109d7816108b1565b9250602084013567ffffffffffffffff8111156109f357600080fd5b6109ff86828701610912565b9497909650939450505050565b60005b83811015610a27578181015183820152602001610a0f565b83811115610a36576000848401525b50505050565b6020815260008251806020840152610a5b816040850160208701610a0c565b601f01601f19169190910160400192915050565b634e487b7160e01b600052604160045260246000fd5b600060208284031215610a9757600080fd5b815167ffffffffffffffff80821115610aaf57600080fd5b818401915084601f830112610ac357600080fd5b815181811115610ad557610ad5610a6f565b604051601f8201601f19908116603f01168101908382118183101715610afd57610afd610a6f565b81604052828152876020848701011115610b1657600080fd5b6106c6836020830160208801610a0c565b600181811c90821680610b3b57607f821691505b60208210811415610b5c57634e487b7160e01b600052602260045260246000fd5b50919050565b60008251610b74818460208701610a0c565b919091019291505056fe416464726573733a206c6f772d6c6576656c2063616c6c20776974682076616c7565206661696c6564416464726573733a206c6f772d6c6576656c207374617469632063616c6c206661696c6564416464726573733a206c6f772d6c6576656c2064656c65676174652063616c6c206661696c6564a26469706673582212206e47f62821703a9f22d7f5f0469072b2d1904ebdd5b210d2184c210b5896815f64736f6c63430008090033",
  "linkReferences": {},
  "deployedLinkReferences": {}
}