{
  "_format": "hh-sol-artifact-1",
  "contractName": "MyGovernor",
  "sourceName": "contracts/mocks/wizard/MyGovernor3.sol",
  "abi": [
    {
      "inputs": [
        {
          "internalType": "contract IVotes",
          "name": "_token",
          "type": "address"
        },
        {
          "internalType": "contract TimelockController",
          "name": "_timelock",
          "type": "address"
        }
      ],
      "stateMutability": "nonpayable",
      "type": "constructor"
    },
    {
      "inputs": [],
      "name": "Empty",
      "type": "error"
    },
    {
      "anonymous": false,
      "inputs": [
        {
          "indexed": false,
          "internalType": "uint256",
          "name": "proposalId",
          "type": "uint256"
        }
      ],
      "name": "ProposalCanceled",
      "type": "event"
    },
    {
      "anonymous": false,
      "inputs": [
        {
          "indexed": false,
          "internalType": "uint256",
          "name": "proposalId",
          "type": "uint256"
        },
        {
          "indexed": false,
          "internalType": "address",
          "name": "proposer",
          "type": "address"
        },
        {
          "indexed": false,
          "internalType": "address[]",
          "name": "targets",
          "type": "address[]"
        },
        {
          "indexed": false,
          "internalType": "uint256[]",
          "name": "values",
          "type": "uint256[]"
        },
        {
          "indexed": false,
          "internalType": "string[]",
          "name": "signatures",
          "type": "string[]"
        },
        {
          "indexed": false,
          "internalType": "bytes[]",
          "name": "calldatas",
          "type": "bytes[]"
        },
        {
          "indexed": false,
          "internalType": "uint256",
          "name": "startBlock",
          "type": "uint256"
        },
        {
          "indexed": false,
          "internalType": "uint256",
          "name": "endBlock",
          "type": "uint256"
        },
        {
          "indexed": false,
          "internalType": "string",
          "name": "description",
          "type": "string"
        }
      ],
      "name": "ProposalCreated",
      "type": "event"
    },
    {
      "anonymous": false,
      "inputs": [
        {
          "indexed": false,
          "internalType": "uint256",
          "name": "proposalId",
          "type": "uint256"
        }
      ],
      "name": "ProposalExecuted",
      "type": "event"
    },
    {
      "anonymous": false,
      "inputs": [
        {
          "indexed": false,
          "internalType": "uint256",
          "name": "proposalId",
          "type": "uint256"
        },
        {
          "indexed": false,
          "internalType": "uint256",
          "name": "eta",
          "type": "uint256"
        }
      ],
      "name": "ProposalQueued",
      "type": "event"
    },
    {
      "anonymous": false,
      "inputs": [
        {
          "indexed": false,
          "internalType": "uint256",
          "name": "oldQuorumNumerator",
          "type": "uint256"
        },
        {
          "indexed": false,
          "internalType": "uint256",
          "name": "newQuorumNumerator",
          "type": "uint256"
        }
      ],
      "name": "QuorumNumeratorUpdated",
      "type": "event"
    },
    {
      "anonymous": false,
      "inputs": [
        {
          "indexed": false,
          "internalType": "address",
          "name": "oldTimelock",
          "type": "address"
        },
        {
          "indexed": false,
          "internalType": "address",
          "name": "newTimelock",
          "type": "address"
        }
      ],
      "name": "TimelockChange",
      "type": "event"
    },
    {
      "anonymous": false,
      "inputs": [
        {
          "indexed": true,
          "internalType": "address",
          "name": "voter",
          "type": "address"
        },
        {
          "indexed": false,
          "internalType": "uint256",
          "name": "proposalId",
          "type": "uint256"
        },
        {
          "indexed": false,
          "internalType": "uint8",
          "name": "support",
          "type": "uint8"
        },
        {
          "indexed": false,
          "internalType": "uint256",
          "name": "weight",
          "type": "uint256"
        },
        {
          "indexed": false,
          "internalType": "string",
          "name": "reason",
          "type": "string"
        }
      ],
      "name": "VoteCast",
      "type": "event"
    },
    {
      "inputs": [],
      "name": "BALLOT_TYPEHASH",
      "outputs": [
        {
          "internalType": "bytes32",
          "name": "",
          "type": "bytes32"
        }
      ],
      "stateMutability": "view",
      "type": "function"
    },
    {
      "inputs": [],
      "name": "COUNTING_MODE",
      "outputs": [
        {
          "internalType": "string",
          "name": "",
          "type": "string"
        }
      ],
      "stateMutability": "pure",
      "type": "function"
    },
    {
      "inputs": [
        {
          "internalType": "uint256",
          "name": "proposalId",
          "type": "uint256"
        }
      ],
      "name": "cancel",
      "outputs": [],
      "stateMutability": "nonpayable",
      "type": "function"
    },
    {
      "inputs": [
        {
          "internalType": "uint256",
          "name": "proposalId",
          "type": "uint256"
        },
        {
          "internalType": "uint8",
          "name": "support",
          "type": "uint8"
        }
      ],
      "name": "castVote",
      "outputs": [
        {
          "internalType": "uint256",
          "name": "",
          "type": "uint256"
        }
      ],
      "stateMutability": "nonpayable",
      "type": "function"
    },
    {
      "inputs": [
        {
          "internalType": "uint256",
          "name": "proposalId",
          "type": "uint256"
        },
        {
          "internalType": "uint8",
          "name": "support",
          "type": "uint8"
        },
        {
          "internalType": "uint8",
          "name": "v",
          "type": "uint8"
        },
        {
          "internalType": "bytes32",
          "name": "r",
          "type": "bytes32"
        },
        {
          "internalType": "bytes32",
          "name": "s",
          "type": "bytes32"
        }
      ],
      "name": "castVoteBySig",
      "outputs": [
        {
          "internalType": "uint256",
          "name": "",
          "type": "uint256"
        }
      ],
      "stateMutability": "nonpayable",
      "type": "function"
    },
    {
      "inputs": [
        {
          "internalType": "uint256",
          "name": "proposalId",
          "type": "uint256"
        },
        {
          "internalType": "uint8",
          "name": "support",
          "type": "uint8"
        },
        {
          "internalType": "string",
          "name": "reason",
          "type": "string"
        }
      ],
      "name": "castVoteWithReason",
      "outputs": [
        {
          "internalType": "uint256",
          "name": "",
          "type": "uint256"
        }
      ],
      "stateMutability": "nonpayable",
      "type": "function"
    },
    {
      "inputs": [
        {
          "internalType": "address[]",
          "name": "targets",
          "type": "address[]"
        },
        {
          "internalType": "uint256[]",
          "name": "values",
          "type": "uint256[]"
        },
        {
          "internalType": "bytes[]",
          "name": "calldatas",
          "type": "bytes[]"
        },
        {
          "internalType": "bytes32",
          "name": "descriptionHash",
          "type": "bytes32"
        }
      ],
      "name": "execute",
      "outputs": [
        {
          "internalType": "uint256",
          "name": "",
          "type": "uint256"
        }
      ],
      "stateMutability": "payable",
      "type": "function"
    },
    {
      "inputs": [
        {
          "internalType": "uint256",
          "name": "proposalId",
          "type": "uint256"
        }
      ],
      "name": "execute",
      "outputs": [],
      "stateMutability": "payable",
      "type": "function"
    },
    {
      "inputs": [
        {
          "internalType": "uint256",
          "name": "proposalId",
          "type": "uint256"
        }
      ],
      "name": "getActions",
      "outputs": [
        {
          "internalType": "address[]",
          "name": "targets",
          "type": "address[]"
        },
        {
          "internalType": "uint256[]",
          "name": "values",
          "type": "uint256[]"
        },
        {
          "internalType": "string[]",
          "name": "signatures",
          "type": "string[]"
        },
        {
          "internalType": "bytes[]",
          "name": "calldatas",
          "type": "bytes[]"
        }
      ],
      "stateMutability": "view",
      "type": "function"
    },
    {
      "inputs": [
        {
          "internalType": "uint256",
          "name": "proposalId",
          "type": "uint256"
        },
        {
          "internalType": "address",
          "name": "voter",
          "type": "address"
        }
      ],
      "name": "getReceipt",
      "outputs": [
        {
          "components": [
            {
              "internalType": "bool",
              "name": "hasVoted",
              "type": "bool"
            },
            {
              "internalType": "uint8",
              "name": "support",
              "type": "uint8"
            },
            {
              "internalType": "uint96",
              "name": "votes",
              "type": "uint96"
            }
          ],
          "internalType": "struct IGovernorCompatibilityBravo.Receipt",
          "name": "",
          "type": "tuple"
        }
      ],
      "stateMutability": "view",
      "type": "function"
    },
    {
      "inputs": [
        {
          "internalType": "address",
          "name": "account",
          "type": "address"
        },
        {
          "internalType": "uint256",
          "name": "blockNumber",
          "type": "uint256"
        }
      ],
      "name": "getVotes",
      "outputs": [
        {
          "internalType": "uint256",
          "name": "",
          "type": "uint256"
        }
      ],
      "stateMutability": "view",
      "type": "function"
    },
    {
      "inputs": [
        {
          "internalType": "uint256",
          "name": "proposalId",
          "type": "uint256"
        },
        {
          "internalType": "address",
          "name": "account",
          "type": "address"
        }
      ],
      "name": "hasVoted",
      "outputs": [
        {
          "internalType": "bool",
          "name": "",
          "type": "bool"
        }
      ],
      "stateMutability": "view",
      "type": "function"
    },
    {
      "inputs": [
        {
          "internalType": "address[]",
          "name": "targets",
          "type": "address[]"
        },
        {
          "internalType": "uint256[]",
          "name": "values",
          "type": "uint256[]"
        },
        {
          "internalType": "bytes[]",
          "name": "calldatas",
          "type": "bytes[]"
        },
        {
          "internalType": "bytes32",
          "name": "descriptionHash",
          "type": "bytes32"
        }
      ],
      "name": "hashProposal",
      "outputs": [
        {
          "internalType": "uint256",
          "name": "",
          "type": "uint256"
        }
      ],
      "stateMutability": "pure",
      "type": "function"
    },
    {
      "inputs": [],
      "name": "name",
      "outputs": [
        {
          "internalType": "string",
          "name": "",
          "type": "string"
        }
      ],
      "stateMutability": "view",
      "type": "function"
    },
    {
      "inputs": [
        {
          "internalType": "uint256",
          "name": "proposalId",
          "type": "uint256"
        }
      ],
      "name": "proposalDeadline",
      "outputs": [
        {
          "internalType": "uint256",
          "name": "",
          "type": "uint256"
        }
      ],
      "stateMutability": "view",
      "type": "function"
    },
    {
      "inputs": [
        {
          "internalType": "uint256",
          "name": "proposalId",
          "type": "uint256"
        }
      ],
      "name": "proposalEta",
      "outputs": [
        {
          "internalType": "uint256",
          "name": "",
          "type": "uint256"
        }
      ],
      "stateMutability": "view",
      "type": "function"
    },
    {
      "inputs": [
        {
          "internalType": "uint256",
          "name": "proposalId",
          "type": "uint256"
        }
      ],
      "name": "proposalSnapshot",
      "outputs": [
        {
          "internalType": "uint256",
          "name": "",
          "type": "uint256"
        }
      ],
      "stateMutability": "view",
      "type": "function"
    },
    {
      "inputs": [],
      "name": "proposalThreshold",
      "outputs": [
        {
          "internalType": "uint256",
          "name": "",
          "type": "uint256"
        }
      ],
      "stateMutability": "pure",
      "type": "function"
    },
    {
      "inputs": [
        {
          "internalType": "uint256",
          "name": "proposalId",
          "type": "uint256"
        }
      ],
      "name": "proposals",
      "outputs": [
        {
          "internalType": "uint256",
          "name": "id",
          "type": "uint256"
        },
        {
          "internalType": "address",
          "name": "proposer",
          "type": "address"
        },
        {
          "internalType": "uint256",
          "name": "eta",
          "type": "uint256"
        },
        {
          "internalType": "uint256",
          "name": "startBlock",
          "type": "uint256"
        },
        {
          "internalType": "uint256",
          "name": "endBlock",
          "type": "uint256"
        },
        {
          "internalType": "uint256",
          "name": "forVotes",
          "type": "uint256"
        },
        {
          "internalType": "uint256",
          "name": "againstVotes",
          "type": "uint256"
        },
        {
          "internalType": "uint256",
          "name": "abstainVotes",
          "type": "uint256"
        },
        {
          "internalType": "bool",
          "name": "canceled",
          "type": "bool"
        },
        {
          "internalType": "bool",
          "name": "executed",
          "type": "bool"
        }
      ],
      "stateMutability": "view",
      "type": "function"
    },
    {
      "inputs": [
        {
          "internalType": "address[]",
          "name": "targets",
          "type": "address[]"
        },
        {
          "internalType": "uint256[]",
          "name": "values",
          "type": "uint256[]"
        },
        {
          "internalType": "bytes[]",
          "name": "calldatas",
          "type": "bytes[]"
        },
        {
          "internalType": "string",
          "name": "description",
          "type": "string"
        }
      ],
      "name": "propose",
      "outputs": [
        {
          "internalType": "uint256",
          "name": "",
          "type": "uint256"
        }
      ],
      "stateMutability": "nonpayable",
      "type": "function"
    },
    {
      "inputs": [
        {
          "internalType": "address[]",
          "name": "targets",
          "type": "address[]"
        },
        {
          "internalType": "uint256[]",
          "name": "values",
          "type": "uint256[]"
        },
        {
          "internalType": "string[]",
          "name": "signatures",
          "type": "string[]"
        },
        {
          "internalType": "bytes[]",
          "name": "calldatas",
          "type": "bytes[]"
        },
        {
          "internalType": "string",
          "name": "description",
          "type": "string"
        }
      ],
      "name": "propose",
      "outputs": [
        {
          "internalType": "uint256",
          "name": "",
          "type": "uint256"
        }
      ],
      "stateMutability": "nonpayable",
      "type": "function"
    },
    {
      "inputs": [
        {
          "internalType": "address[]",
          "name": "targets",
          "type": "address[]"
        },
        {
          "internalType": "uint256[]",
          "name": "values",
          "type": "uint256[]"
        },
        {
          "internalType": "bytes[]",
          "name": "calldatas",
          "type": "bytes[]"
        },
        {
          "internalType": "bytes32",
          "name": "descriptionHash",
          "type": "bytes32"
        }
      ],
      "name": "queue",
      "outputs": [
        {
          "internalType": "uint256",
          "name": "",
          "type": "uint256"
        }
      ],
      "stateMutability": "nonpayable",
      "type": "function"
    },
    {
      "inputs": [
        {
          "internalType": "uint256",
          "name": "proposalId",
          "type": "uint256"
        }
      ],
      "name": "queue",
      "outputs": [],
      "stateMutability": "nonpayable",
      "type": "function"
    },
    {
      "inputs": [
        {
          "internalType": "uint256",
          "name": "blockNumber",
          "type": "uint256"
        }
      ],
      "name": "quorum",
      "outputs": [
        {
          "internalType": "uint256",
          "name": "",
          "type": "uint256"
        }
      ],
      "stateMutability": "view",
      "type": "function"
    },
    {
      "inputs": [],
      "name": "quorumDenominator",
      "outputs": [
        {
          "internalType": "uint256",
          "name": "",
          "type": "uint256"
        }
      ],
      "stateMutability": "view",
      "type": "function"
    },
    {
      "inputs": [],
      "name": "quorumNumerator",
      "outputs": [
        {
          "internalType": "uint256",
          "name": "",
          "type": "uint256"
        }
      ],
      "stateMutability": "view",
      "type": "function"
    },
    {
      "inputs": [],
      "name": "quorumVotes",
      "outputs": [
        {
          "internalType": "uint256",
          "name": "",
          "type": "uint256"
        }
      ],
      "stateMutability": "view",
      "type": "function"
    },
    {
      "inputs": [
        {
          "internalType": "address",
          "name": "target",
          "type": "address"
        },
        {
          "internalType": "uint256",
          "name": "value",
          "type": "uint256"
        },
        {
          "internalType": "bytes",
          "name": "data",
          "type": "bytes"
        }
      ],
      "name": "relay",
      "outputs": [],
      "stateMutability": "nonpayable",
      "type": "function"
    },
    {
      "inputs": [
        {
          "internalType": "uint256",
          "name": "proposalId",
          "type": "uint256"
        }
      ],
      "name": "state",
      "outputs": [
        {
          "internalType": "enum IGovernor.ProposalState",
          "name": "",
          "type": "uint8"
        }
      ],
      "stateMutability": "view",
      "type": "function"
    },
    {
      "inputs": [
        {
          "internalType": "bytes4",
          "name": "interfaceId",
          "type": "bytes4"
        }
      ],
      "name": "supportsInterface",
      "outputs": [
        {
          "internalType": "bool",
          "name": "",
          "type": "bool"
        }
      ],
      "stateMutability": "view",
      "type": "function"
    },
    {
      "inputs": [],
      "name": "timelock",
      "outputs": [
        {
          "internalType": "address",
          "name": "",
          "type": "address"
        }
      ],
      "stateMutability": "view",
      "type": "function"
    },
    {
      "inputs": [],
      "name": "token",
      "outputs": [
        {
          "internalType": "contract IVotes",
          "name": "",
          "type": "address"
        }
      ],
      "stateMutability": "view",
      "type": "function"
    },
    {
      "inputs": [
        {
          "internalType": "uint256",
          "name": "newQuorumNumerator",
          "type": "uint256"
        }
      ],
      "name": "updateQuorumNumerator",
      "outputs": [],
      "stateMutability": "nonpayable",
      "type": "function"
    },
    {
      "inputs": [
        {
          "internalType": "contract TimelockController",
          "name": "newTimelock",
          "type": "address"
        }
      ],
      "name": "updateTimelock",
      "outputs": [],
      "stateMutability": "nonpayable",
      "type": "function"
    },
    {
      "inputs": [],
      "name": "version",
      "outputs": [
        {
          "internalType": "string",
          "name": "",
          "type": "string"
        }
      ],
      "stateMutability": "view",
      "type": "function"
    },
    {
      "inputs": [],
      "name": "votingDelay",
      "outputs": [
        {
          "internalType": "uint256",
          "name": "",
          "type": "uint256"
        }
      ],
      "stateMutability": "pure",
      "type": "function"
    },
    {
      "inputs": [],
      "name": "votingPeriod",
      "outputs": [
        {
          "internalType": "uint256",
          "name": "",
          "type": "uint256"
        }
      ],
      "stateMutability": "pure",
      "type": "function"
    },
    {
      "stateMutability": "payable",
      "type": "receive"
    }
  ],
  "bytecode": "0x6101606040523480156200001257600080fd5b50604051620047b8380380620047b8833981016040819052620000359162000353565b600482826040518060400160405280600a81526020016926bca3b7bb32b93737b960b11b815250806200006d6200014360201b60201c565b815160208084019190912082518383012060e08290526101008190524660a0818152604080517f8b73c3c69bb8fe3d512ecc4cf759cc79239f7b179b0ffacaa9a75d522b39400f81880181905281830187905260608201869052608082019490945230818401528151808203909301835260c00190528051940193909320919290916080523060c052610120525050825162000113925060009150602084019062000294565b50620001219050816200015e565b506001600160a01b0316610140526200013a81620001c7565b505050620003cf565b6040805180820190915260018152603160f81b602082015290565b600454604080516001600160a01b03928316815291831660208301527f08f74ea46ef7894f65eabfb5e6e695de773a000b47c529ab559178069b226401910160405180910390a1600480546001600160a01b0319166001600160a01b0392909216919091179055565b60648111156200024f5760405162461bcd60e51b815260206004820152604360248201527f476f7665726e6f72566f74657351756f72756d4672616374696f6e3a2071756f60448201527f72756d4e756d657261746f72206f7665722071756f72756d44656e6f6d696e616064820152623a37b960e91b608482015260a40160405180910390fd5b600780549082905560408051828152602081018490527f0553476bf02ef2726e8ce5ced78d63e26e602e4a2257b1f559418e24b4633997910160405180910390a15050565b828054620002a29062000392565b90600052602060002090601f016020900481019282620002c6576000855562000311565b82601f10620002e157805160ff191683800117855562000311565b8280016001018555821562000311579182015b8281111562000311578251825591602001919060010190620002f4565b506200031f92915062000323565b5090565b5b808211156200031f576000815560010162000324565b6001600160a01b03811681146200035057600080fd5b50565b600080604083850312156200036757600080fd5b825162000374816200033a565b602084015190925062000387816200033a565b809150509250929050565b600181811c90821680620003a757607f821691505b60208210811415620003c957634e487b7160e01b600052602260045260246000fd5b50919050565b60805160a05160c05160e051610100516101205161014051614380620004386000396000818161082c0152818161246101526124fa015260006126fe0152600061274d0152600061272801526000612681015260006126ab015260006126d501526143806000f3fe60806040526004361061021e5760003560e01c80637d5e81e211610123578063d33219b4116100ab578063e23a9a521161006f578063e23a9a5214610710578063eb9019d4146107da578063f8ce560a146107fa578063fc0c546a1461081a578063fe0d94c11461084e57600080fd5b8063d33219b414610624578063da95691a14610656578063dd4e2ba514610676578063ddf0b009146106bc578063deaaa7cc146106dc57600080fd5b8063ab58fb8e116100f2578063ab58fb8e14610588578063b58131b0146105a8578063c01f9e37146105c4578063c28bc2fa146105e4578063c59057e41461060457600080fd5b80637d5e81e21461051f57806397c3d3341461053f578063a7713a7014610553578063a890c9101461056857600080fd5b8063328dd982116101a657806340e58ee51161017557806340e58ee51461044b578063438596321461046b57806354fd4d50146104b557806356781388146104df5780637b3c71d3146104ff57600080fd5b8063328dd982146103ba5780633932abb1146103ea5780633bccf4fd146103fe5780633e4f49e61461041e57600080fd5b806306fdde03116101ed57806306fdde0314610330578063160cbed71461035257806324bc1a64146103725780632656227d146103875780632d63f6931461039a57600080fd5b8063013cf08b1461024657806301ffc9a7146102c157806302a251a3146102f157806306f3f9e61461031057600080fd5b36610241573061022c610861565b6001600160a01b03161461023f57600080fd5b005b600080fd5b34801561025257600080fd5b50610266610261366004613621565b61087a565b604080519a8b526001600160a01b0390991660208b0152978901969096526060880194909452608087019290925260a086015260c085015260e084015215156101008301521515610120820152610140015b60405180910390f35b3480156102cd57600080fd5b506102e16102dc36600461363a565b610924565b60405190151581526020016102b8565b3480156102fd57600080fd5b5061b2fa5b6040519081526020016102b8565b34801561031c57600080fd5b5061023f61032b366004613621565b610935565b34801561033c57600080fd5b506103456109cd565b6040516102b891906136c0565b34801561035e57600080fd5b5061030261036d36600461390b565b610a5f565b34801561037e57600080fd5b50610302610c88565b61030261039536600461390b565b610c98565b3480156103a657600080fd5b506103026103b5366004613621565b610d85565b3480156103c657600080fd5b506103da6103d5366004613621565b610dbc565b6040516102b89493929190613a63565b3480156103f657600080fd5b506001610302565b34801561040a57600080fd5b50610302610419366004613ac6565b61104d565b34801561042a57600080fd5b5061043e610439366004613621565b6110e1565b6040516102b89190613b2a565b34801561045757600080fd5b5061023f610466366004613621565b6110ec565b34801561047757600080fd5b506102e1610486366004613b52565b60008281526006602090815260408083206001600160a01b038516845260080190915290205460ff1692915050565b3480156104c157600080fd5b506040805180820190915260018152603160f81b6020820152610345565b3480156104eb57600080fd5b506103026104fa366004613b82565b611406565b34801561050b57600080fd5b5061030261051a366004613bf6565b61142f565b34801561052b57600080fd5b5061030261053a366004613c6f565b611481565b34801561054b57600080fd5b506064610302565b34801561055f57600080fd5b50600754610302565b34801561057457600080fd5b5061023f610583366004613d1b565b611498565b34801561059457600080fd5b506103026105a3366004613621565b611524565b3480156105b457600080fd5b50683635c9adc5dea00000610302565b3480156105d057600080fd5b506103026105df366004613621565b6115c8565b3480156105f057600080fd5b5061023f6105ff366004613d38565b6115f7565b34801561061057600080fd5b5061030261061f36600461390b565b6116c3565b34801561063057600080fd5b506004546001600160a01b03165b6040516001600160a01b0390911681526020016102b8565b34801561066257600080fd5b50610302610671366004613dfa565b6116fd565b34801561068257600080fd5b5060408051808201909152601a81527f737570706f72743d627261766f2671756f72756d3d627261766f0000000000006020820152610345565b3480156106c857600080fd5b5061023f6106d7366004613621565b611722565b3480156106e857600080fd5b506103027f150214d74d59b7d1e90c73fc22ef3d991dd0a76b046543d4d80ab92d2a50328f81565b34801561071c57600080fd5b506107aa61072b366004613b52565b60408051606081018252600080825260208201819052918101919091525060009182526006602090815260408084206001600160a01b0393909316845260089092018152918190208151606081018352905460ff8082161515835261010082041693820193909352620100009092046001600160601b03169082015290565b6040805182511515815260208084015160ff1690820152918101516001600160601b0316908201526060016102b8565b3480156107e657600080fd5b506103026107f5366004613ecb565b611990565b34801561080657600080fd5b50610302610815366004613621565b61199c565b34801561082657600080fd5b5061063e7f000000000000000000000000000000000000000000000000000000000000000081565b61023f61085c366004613621565b6119a7565b60006108756004546001600160a01b031690565b905090565b806000808080808080808061088e8a611524565b97506108998b610d85565b96506108a48b6115c8565b60008c81526006602081905260408220805460058201549282015460078301546001600160a01b039092169e50949a5091985092965094506108e58d6110e1565b905060028160078111156108fb576108fb613b14565b149350600781600781111561091257610912613b14565b14925050509193959799509193959799565b600061092f82611c15565b92915050565b61093d610861565b6001600160a01b0316336001600160a01b0316146109765760405162461bcd60e51b815260040161096d90613ef7565b60405180910390fd5b3061097f610861565b6001600160a01b0316146109c1576000803660405161099f929190613f2e565b604051809103902090505b806109b56002611c3a565b146109bf576109aa565b505b6109ca81611cb9565b50565b6060600080546109dc90613f3e565b80601f0160208091040260200160405190810160405280929190818152602001828054610a0890613f3e565b8015610a555780601f10610a2a57610100808354040283529160200191610a55565b820191906000526020600020905b815481529060010190602001808311610a3857829003601f168201915b5050505050905090565b600080610a6e868686866116c3565b90506004610a7b826110e1565b6007811115610a8c57610a8c613b14565b14610aa95760405162461bcd60e51b815260040161096d90613f79565b6000600460009054906101000a90046001600160a01b03166001600160a01b031663f27a0c926040518163ffffffff1660e01b815260040160206040518083038186803b158015610af957600080fd5b505afa158015610b0d573d6000803e3d6000fd5b505050506040513d601f19601f82011682018060405250810190610b319190613fba565b6004805460405163b1c5f42760e01b81529293506001600160a01b03169163b1c5f42791610b6a918b918b918b916000918c9101613fd3565b60206040518083038186803b158015610b8257600080fd5b505afa158015610b96573d6000803e3d6000fd5b505050506040513d601f19601f82011682018060405250810190610bba9190613fba565b600083815260056020526040808220929092556004805492516308f2a0bb60e41b81526001600160a01b0390931692638f2a0bb092610c05928c928c928c9290918c918a9101614021565b600060405180830381600087803b158015610c1f57600080fd5b505af1158015610c33573d6000803e3d6000fd5b505050507f9a2e42fd6722813d69113e7d0079d3d940171428df7373df9c7f7617cfda2892828242610c65919061408f565b604080519283526020830191909152015b60405180910390a15095945050505050565b60006108756108156001436140a7565b600080610ca7868686866116c3565b90506000610cb4826110e1565b90506004816007811115610cca57610cca613b14565b1480610ce757506005816007811115610ce557610ce5613b14565b145b610d035760405162461bcd60e51b815260040161096d90613f79565b600082815260016020818152604092839020600201805460ff191690921790915590518381527f712ae1383f79ac853f8d882153778e0260ef8f03b504e2866e0593e04d2b291f910160405180910390a1610d618288888888611d81565b610d6e8288888888611e23565b610d7b8288888888611e30565b5095945050505050565b60008181526001602090815260408083208151928301909152546001600160401b0316908190525b6001600160401b031692915050565b60608060608060006006600087815260200190815260200160002090508060010181600201826003018360040183805480602002602001604051908101604052809291908181526020018280548015610e3e57602002820191906000526020600020905b81546001600160a01b03168152600190910190602001808311610e20575b5050505050935082805480602002602001604051908101604052809291908181526020018280548015610e9057602002820191906000526020600020905b815481526020019060010190808311610e7c575b5050505050925081805480602002602001604051908101604052809291908181526020016000905b82821015610f64578382906000526020600020018054610ed790613f3e565b80601f0160208091040260200160405190810160405280929190818152602001828054610f0390613f3e565b8015610f505780601f10610f2557610100808354040283529160200191610f50565b820191906000526020600020905b815481529060010190602001808311610f3357829003601f168201915b505050505081526020019060010190610eb8565b50505050915080805480602002602001604051908101604052809291908181526020016000905b82821015611037578382906000526020600020018054610faa90613f3e565b80601f0160208091040260200160405190810160405280929190818152602001828054610fd690613f3e565b80156110235780601f10610ff857610100808354040283529160200191611023565b820191906000526020600020905b81548152906001019060200180831161100657829003601f168201915b505050505081526020019060010190610f8b565b5050505090509450945094509450509193509193565b604080517f150214d74d59b7d1e90c73fc22ef3d991dd0a76b046543d4d80ab92d2a50328f602082015290810186905260ff8516606082015260009081906110b9906110b19060800160405160208183030381529060405280519060200120611e69565b868686611eb7565b90506110d687828860405180602001604052806000815250611ed5565b979650505050505050565b600061092f82611fe0565b600081815260066020526040902080546001600160a01b0316336001600160a01b0316148061113c5750683635c9adc5dea00000815461113a906001600160a01b03166107f56001436140a7565b105b6111985760405162461bcd60e51b815260206004820152602760248201527f476f7665726e6f72427261766f3a2070726f706f7365722061626f76652074686044820152661c995cda1bdb1960ca1b606482015260840161096d565b611401816001018054806020026020016040519081016040528092919081815260200182805480156111f357602002820191906000526020600020905b81546001600160a01b031681526001909101906020018083116111d5575b50505050508260020180548060200260200160405190810160405280929190818152602001828054801561124657602002820191906000526020600020905b815481526020019060010190808311611232575b50505050506113f784600301805480602002602001604051908101604052809291908181526020016000905b8282101561131e57838290600052602060002001805461129190613f3e565b80601f01602080910402602001604051908101604052809291908181526020018280546112bd90613f3e565b801561130a5780601f106112df5761010080835404028352916020019161130a565b820191906000526020600020905b8154815290600101906020018083116112ed57829003601f168201915b505050505081526020019060010190611272565b50505060048701805460408051602080840282018101909252828152935060009084015b828210156113ee57838290600052602060002001805461136190613f3e565b80601f016020809104026020016040519081016040528092919081815260200182805461138d90613f3e565b80156113da5780601f106113af576101008083540402835291602001916113da565b820191906000526020600020905b8154815290600101906020018083116113bd57829003601f168201915b505050505081526020019060010190611342565b50505050612144565b8460090154612276565b505050565b60008033905061142784828560405180602001604052806000815250611ed5565b949350505050565b60008033905061147786828787878080601f016020809104026020016040519081016040528093929190818152602001838380828437600092019190915250611ed592505050565b9695505050505050565b600061148f85858585612284565b95945050505050565b6114a0610861565b6001600160a01b0316336001600160a01b0316146114d05760405162461bcd60e51b815260040161096d90613ef7565b306114d9610861565b6001600160a01b03161461151b57600080366040516114f9929190613f2e565b604051809103902090505b8061150f6002611c3a565b1461151957611504565b505b6109ca816122ec565b6004805460008381526005602052604080822054905163d45c443560e01b8152938401529182916001600160a01b03169063d45c44359060240160206040518083038186803b15801561157657600080fd5b505afa15801561158a573d6000803e3d6000fd5b505050506040513d601f19601f820116820180604052508101906115ae9190613fba565b9050806001146115be57806115c1565b60005b9392505050565b60008181526001602081815260408084208151928301909152909101546001600160401b031690819052610dad565b6115ff610861565b6001600160a01b0316336001600160a01b03161461162f5760405162461bcd60e51b815260040161096d90613ef7565b30611638610861565b6001600160a01b03161461167a5760008036604051611658929190613f2e565b604051809103902090505b8061166e6002611c3a565b1461167857611663565b505b6116bc8483838080601f016020809104026020016040519081016040528093929190818152602001838380828437600092019190915250889250612355915050565b5050505050565b6000848484846040516020016116dc94939291906140be565b60408051601f19818403018152919052805160209091012095945050505050565b600061170d33878787878761237b565b611477868661171c8787612144565b85611481565b60008181526006602090815260409182902060018101805484518185028101850190955280855291936114019390929083018282801561178b57602002820191906000526020600020905b81546001600160a01b0316815260019091019060200180831161176d575b5050505050826002018054806020026020016040519081016040528092919081815260200182805480156117de57602002820191906000526020600020905b8154815260200190600101908083116117ca575b505050505061198684600301805480602002602001604051908101604052809291908181526020016000905b828210156118b657838290600052602060002001805461182990613f3e565b80601f016020809104026020016040519081016040528092919081815260200182805461185590613f3e565b80156118a25780601f10611877576101008083540402835291602001916118a2565b820191906000526020600020905b81548152906001019060200180831161188557829003601f168201915b50505050508152602001906001019061180a565b50505060048701805460408051602080840282018101909252828152935060009084015b828210156113ee5783829060005260206000200180546118f990613f3e565b80601f016020809104026020016040519081016040528092919081815260200182805461192590613f3e565b80156119725780601f1061194757610100808354040283529160200191611972565b820191906000526020600020905b81548152906001019060200180831161195557829003601f168201915b5050505050815260200190600101906118da565b8460090154610a5f565b60006115c18383612438565b600061092f826124dd565b600081815260066020908152604091829020600181018054845181850281018501909552808552919361140193909290830182828015611a1057602002820191906000526020600020905b81546001600160a01b031681526001909101906020018083116119f2575b505050505082600201805480602002602001604051908101604052809291908181526020018280548015611a6357602002820191906000526020600020905b815481526020019060010190808311611a4f575b5050505050611c0b84600301805480602002602001604051908101604052809291908181526020016000905b82821015611b3b578382906000526020600020018054611aae90613f3e565b80601f0160208091040260200160405190810160405280929190818152602001828054611ada90613f3e565b8015611b275780601f10611afc57610100808354040283529160200191611b27565b820191906000526020600020905b815481529060010190602001808311611b0a57829003601f168201915b505050505081526020019060010190611a8f565b50505060048701805460408051602080840282018101909252828152935060009084015b828210156113ee578382906000526020600020018054611b7e90613f3e565b80601f0160208091040260200160405190810160405280929190818152602001828054611baa90613f3e565b8015611bf75780601f10611bcc57610100808354040283529160200191611bf7565b820191906000526020600020905b815481529060010190602001808311611bda57829003601f168201915b505050505081526020019060010190611b5f565b8460090154610c98565b60006001600160e01b03198216636e665ced60e01b148061092f575061092f82612590565b6000611c558254600f81810b600160801b909204900b131590565b15611c7357604051631ed9509560e11b815260040160405180910390fd5b508054600f0b6000818152600180840160205260408220805492905583546fffffffffffffffffffffffffffffffff191692016001600160801b03169190911790915590565b6064811115611d3c5760405162461bcd60e51b815260206004820152604360248201527f476f7665726e6f72566f74657351756f72756d4672616374696f6e3a2071756f60448201527f72756d4e756d657261746f72206f7665722071756f72756d44656e6f6d696e616064820152623a37b960e91b608482015260a40161096d565b600780549082905560408051828152602081018490527f0553476bf02ef2726e8ce5ced78d63e26e602e4a2257b1f559418e24b4633997910160405180910390a15050565b30611d8a610861565b6001600160a01b0316146116bc5760005b8451811015611e1b57306001600160a01b0316858281518110611dc057611dc0614109565b60200260200101516001600160a01b03161415611e0b57611e0b838281518110611dec57611dec614109565b60200260200101518051906020012060026125c590919063ffffffff16565b611e148161411f565b9050611d9b565b505050505050565b6116bc8585858585612601565b30611e39610861565b6001600160a01b0316146116bc57600254600f81810b600160801b909204900b13156116bc5760006002556116bc565b600061092f611e76612674565b8360405161190160f01b6020820152602281018390526042810182905260009060620160405160208183030381529060405280519060200120905092915050565b6000806000611ec88787878761279b565b91509150610d7b81612888565b6000848152600160208190526040822090611eef876110e1565b6007811115611f0057611f00613b14565b14611f595760405162461bcd60e51b815260206004820152602360248201527f476f7665726e6f723a20766f7465206e6f742063757272656e746c792061637460448201526269766560e81b606482015260840161096d565b604080516020810190915281546001600160401b031690819052600090611f81908790611990565b9050611f8f87878784612a43565b856001600160a01b03167fb8e138887d0aa13bab447e82de9d5c1777041ecd21ca36ba824ff1e6c07ddda488878488604051611fce949392919061413a565b60405180910390a29695505050505050565b600080611fec83612be0565b9050600481600781111561200257612002613b14565b1461200d5792915050565b60008381526005602052604090205480612028575092915050565b60048054604051632ab0f52960e01b81529182018390526001600160a01b031690632ab0f5299060240160206040518083038186803b15801561206a57600080fd5b505afa15801561207e573d6000803e3d6000fd5b505050506040513d601f19601f820116820180604052508101906120a29190614162565b156120b1575060079392505050565b60048054604051632c258a9f60e11b81529182018390526001600160a01b03169063584b153e9060240160206040518083038186803b1580156120f357600080fd5b505afa158015612107573d6000803e3d6000fd5b505050506040513d601f19601f8201168201806040525081019061212b9190614162565b1561213a575060059392505050565b5060029392505050565b6060600082516001600160401b03811115612161576121616136d3565b60405190808252806020026020018201604052801561219457816020015b606081526020019060019003908161217f5790505b50905060005b845181101561226e578481815181106121b5576121b5614109565b602002602001015151600014612225578481815181106121d7576121d7614109565b6020026020010151805190602001208482815181106121f8576121f8614109565b6020026020010151604051602001612211929190614184565b604051602081830303815290604052612240565b83818151811061223757612237614109565b60200260200101515b82828151811061225257612252614109565b6020026020010181905250806122679061411f565b905061219a565b509392505050565b600061148f85858585612cf1565b60006122e033868686516001600160401b038111156122a5576122a56136d3565b6040519080825280602002602001820160405280156122d857816020015b60608152602001906001900390816122c35790505b50878761237b565b61148f85858585612d99565b600454604080516001600160a01b03928316815291831660208301527f08f74ea46ef7894f65eabfb5e6e695de773a000b47c529ab559178069b226401910160405180910390a1600480546001600160a01b0319166001600160a01b0392909216919091179055565b606061142784848460405180606001604052806029815260200161432260299139613070565b80516020820120600061239987876123938888612144565b856116c3565b600081815260066020526040902060098101549192509061242d5780546001600160a01b0319166001600160a01b038a1617815587516123e290600183019060208b01906133d7565b5086516123f890600283019060208a0190613438565b50855161240e9060038301906020890190613473565b50845161242490600483019060208801906134cc565b50600981018390555b505050505050505050565b604051630748d63560e31b81526001600160a01b038381166004830152602482018390526000917f000000000000000000000000000000000000000000000000000000000000000090911690633a46b1a89060440160206040518083038186803b1580156124a557600080fd5b505afa1580156124b9573d6000803e3d6000fd5b505050506040513d601f19601f820116820180604052508101906115c19190613fba565b60006064600754604051632394e7a360e21b8152600481018590527f00000000000000000000000000000000000000000000000000000000000000006001600160a01b031690638e539e8c9060240160206040518083038186803b15801561254457600080fd5b505afa158015612558573d6000803e3d6000fd5b505050506040513d601f19601f8201168201806040525081019061257c9190613fba565b61258691906141b5565b61092f91906141d4565b60006001600160e01b0319821663bf26d89760e01b148061092f57506301ffc9a760e01b6001600160e01b031983161461092f565b8154600160801b90819004600f0b6000818152600180860160205260409091209390935583546001600160801b03908116939091011602179055565b6004805460405163e38335e560e01b81526001600160a01b039091169163e38335e591349161263b918991899189916000918a9101613fd3565b6000604051808303818588803b15801561265457600080fd5b505af1158015612668573d6000803e3d6000fd5b50505050505050505050565b6000306001600160a01b037f0000000000000000000000000000000000000000000000000000000000000000161480156126cd57507f000000000000000000000000000000000000000000000000000000000000000046145b156126f757507f000000000000000000000000000000000000000000000000000000000000000090565b50604080517f00000000000000000000000000000000000000000000000000000000000000006020808301919091527f0000000000000000000000000000000000000000000000000000000000000000828401527f000000000000000000000000000000000000000000000000000000000000000060608301524660808301523060a0808401919091528351808403909101815260c0909201909252805191012090565b6000807f7fffffffffffffffffffffffffffffff5d576e7357a4501ddfe92f46681b20a08311156127d2575060009050600361287f565b8460ff16601b141580156127ea57508460ff16601c14155b156127fb575060009050600461287f565b6040805160008082526020820180845289905260ff881692820192909252606081018690526080810185905260019060a0016020604051602081039080840390855afa15801561284f573d6000803e3d6000fd5b5050604051601f1901519150506001600160a01b0381166128785760006001925092505061287f565b9150600090505b94509492505050565b600081600481111561289c5761289c613b14565b14156128a55750565b60018160048111156128b9576128b9613b14565b14156129075760405162461bcd60e51b815260206004820152601860248201527f45434453413a20696e76616c6964207369676e61747572650000000000000000604482015260640161096d565b600281600481111561291b5761291b613b14565b14156129695760405162461bcd60e51b815260206004820152601f60248201527f45434453413a20696e76616c6964207369676e6174757265206c656e67746800604482015260640161096d565b600381600481111561297d5761297d613b14565b14156129d65760405162461bcd60e51b815260206004820152602260248201527f45434453413a20696e76616c6964207369676e6174757265202773272076616c604482015261756560f01b606482015260840161096d565b60048160048111156129ea576129ea613b14565b14156109ca5760405162461bcd60e51b815260206004820152602260248201527f45434453413a20696e76616c6964207369676e6174757265202776272076616c604482015261756560f01b606482015260840161096d565b60008481526006602090815260408083206001600160a01b038716845260088101909252909120805460ff1615612ad25760405162461bcd60e51b815260206004820152602d60248201527f476f7665726e6f72436f6d7061746962696c697479427261766f3a20766f746560448201526c08185b1c9958591e4818d85cdd609a1b606482015260840161096d565b805460ff85166101000261ffff19909116176001178155612af283613196565b81546001600160601b039190911662010000026dffffffffffffffffffffffff00001990911617815560ff8416612b425782826006016000828254612b37919061408f565b90915550611e1b9050565b60ff841660011415612b625782826005016000828254612b37919061408f565b60ff841660021415612b825782826007016000828254612b37919061408f565b60405162461bcd60e51b815260206004820152602d60248201527f476f7665726e6f72436f6d7061746962696c697479427261766f3a20696e766160448201526c6c696420766f7465207479706560981b606482015260840161096d565b6000818152600160205260408120600281015460ff1615612c045750600792915050565b6002810154610100900460ff1615612c1f5750600292915050565b6000612c2a84610d85565b905080612c795760405162461bcd60e51b815260206004820152601d60248201527f476f7665726e6f723a20756e6b6e6f776e2070726f706f73616c206964000000604482015260640161096d565b438110612c8a575060009392505050565b6000612c95856115c8565b9050438110612ca957506001949350505050565b612cb285613202565b8015612cd65750600085815260066020819052604090912090810154600590910154115b15612ce657506004949350505050565b506003949350505050565b600080612d008686868661322a565b6000818152600560205260409020549091501561148f57600480546000838152600560205260409081902054905163c4d252f560e01b8152928301526001600160a01b03169063c4d252f590602401600060405180830381600087803b158015612d6957600080fd5b505af1158015612d7d573d6000803e3d6000fd5b5050506000828152600560205260408120555095945050505050565b6000683635c9adc5dea00000612db4336107f56001436140a7565b1015612e345760405162461bcd60e51b815260206004820152604360248201527f476f7665726e6f72436f6d7061746962696c697479427261766f3a2070726f7060448201527f6f73657220766f7465732062656c6f772070726f706f73616c207468726573686064820152621bdb1960ea1b608482015260a40161096d565b6000612e4986868686805190602001206116c3565b90508451865114612e6c5760405162461bcd60e51b815260040161096d906141f6565b8351865114612e8d5760405162461bcd60e51b815260040161096d906141f6565b6000865111612ede5760405162461bcd60e51b815260206004820152601860248201527f476f7665726e6f723a20656d7074792070726f706f73616c0000000000000000604482015260640161096d565b600081815260016020908152604091829020825191820190925281546001600160401b03169081905215612f5e5760405162461bcd60e51b815260206004820152602160248201527f476f7665726e6f723a2070726f706f73616c20616c72656164792065786973746044820152607360f81b606482015260840161096d565b6000612f6a6001613336565b612f7343613336565b612f7d9190614237565b90506000612f8c61b2fa613336565b612f969083614237565b835467ffffffffffffffff19166001600160401b038416178455905060018301805467ffffffffffffffff19166001600160401b0383161790557f7d84a6263ae0d98d3329bd7b46bb4e8d6f98cd35a7adb45c274c8b7fd5ebd5e084338b8b8d516001600160401b0381111561300e5761300e6136d3565b60405190808252806020026020018201604052801561304157816020015b606081526020019060019003908161302c5790505b508c88888e60405161305b99989796959493929190614262565b60405180910390a15091979650505050505050565b6060824710156130d15760405162461bcd60e51b815260206004820152602660248201527f416464726573733a20696e73756666696369656e742062616c616e636520666f6044820152651c8818d85b1b60d21b606482015260840161096d565b6001600160a01b0385163b6131285760405162461bcd60e51b815260206004820152601d60248201527f416464726573733a2063616c6c20746f206e6f6e2d636f6e7472616374000000604482015260640161096d565b600080866001600160a01b031685876040516131449190614305565b60006040518083038185875af1925050503d8060008114613181576040519150601f19603f3d011682016040523d82523d6000602084013e613186565b606091505b50915091506110d682828661339e565b60006001600160601b038211156131fe5760405162461bcd60e51b815260206004820152602660248201527f53616665436173743a2076616c756520646f65736e27742066697420696e203960448201526536206269747360d01b606482015260840161096d565b5090565b6000818152600660205260408120600581015461322161081585610d85565b11159392505050565b600080613239868686866116c3565b90506000613246826110e1565b9050600281600781111561325c5761325c613b14565b1415801561327c5750600681600781111561327957613279613b14565b14155b801561329a5750600781600781111561329757613297613b14565b14155b6132e65760405162461bcd60e51b815260206004820152601d60248201527f476f7665726e6f723a2070726f706f73616c206e6f7420616374697665000000604482015260640161096d565b60008281526001602052604090819020600201805461ff001916610100179055517f789cf55be980739dad1d0699b93b58e806b51c9d96619bfa8fe0a28abaa7b30c90610c769084815260200190565b60006001600160401b038211156131fe5760405162461bcd60e51b815260206004820152602660248201527f53616665436173743a2076616c756520646f65736e27742066697420696e203660448201526534206269747360d01b606482015260840161096d565b606083156133ad5750816115c1565b8251156133bd5782518084602001fd5b8160405162461bcd60e51b815260040161096d91906136c0565b82805482825590600052602060002090810192821561342c579160200282015b8281111561342c57825182546001600160a01b0319166001600160a01b039091161782556020909201916001909101906133f7565b506131fe929150613525565b82805482825590600052602060002090810192821561342c579160200282015b8281111561342c578251825591602001919060010190613458565b8280548282559060005260206000209081019282156134c0579160200282015b828111156134c057825180516134b091849160209091019061353a565b5091602001919060010190613493565b506131fe9291506135ad565b828054828255906000526020600020908101928215613519579160200282015b82811115613519578251805161350991849160209091019061353a565b50916020019190600101906134ec565b506131fe9291506135ca565b5b808211156131fe5760008155600101613526565b82805461354690613f3e565b90600052602060002090601f016020900481019282613568576000855561342c565b82601f1061358157805160ff191683800117855561342c565b8280016001018555821561342c579182018281111561342c578251825591602001919060010190613458565b808211156131fe5760006135c182826135e7565b506001016135ad565b808211156131fe5760006135de82826135e7565b506001016135ca565b5080546135f390613f3e565b6000825580601f10613603575050565b601f0160209004906000526020600020908101906109ca9190613525565b60006020828403121561363357600080fd5b5035919050565b60006020828403121561364c57600080fd5b81356001600160e01b0319811681146115c157600080fd5b60005b8381101561367f578181015183820152602001613667565b8381111561368e576000848401525b50505050565b600081518084526136ac816020860160208601613664565b601f01601f19169290920160200192915050565b6020815260006115c16020830184613694565b634e487b7160e01b600052604160045260246000fd5b604051601f8201601f191681016001600160401b0381118282101715613711576137116136d3565b604052919050565b60006001600160401b03821115613732576137326136d3565b5060051b60200190565b6001600160a01b03811681146109ca57600080fd5b600082601f83011261376257600080fd5b8135602061377761377283613719565b6136e9565b82815260059290921b8401810191818101908684111561379657600080fd5b8286015b848110156137ba5780356137ad8161373c565b835291830191830161379a565b509695505050505050565b600082601f8301126137d657600080fd5b813560206137e661377283613719565b82815260059290921b8401810191818101908684111561380557600080fd5b8286015b848110156137ba5780358352918301918301613809565b60006001600160401b03831115613839576138396136d3565b61384c601f8401601f19166020016136e9565b905082815283838301111561386057600080fd5b828260208301376000602084830101529392505050565b600082601f83011261388857600080fd5b8135602061389861377283613719565b82815260059290921b840181019181810190868411156138b757600080fd5b8286015b848110156137ba5780356001600160401b038111156138da5760008081fd5b8701603f810189136138ec5760008081fd5b6138fd898683013560408401613820565b8452509183019183016138bb565b6000806000806080858703121561392157600080fd5b84356001600160401b038082111561393857600080fd5b61394488838901613751565b9550602087013591508082111561395a57600080fd5b613966888389016137c5565b9450604087013591508082111561397c57600080fd5b5061398987828801613877565b949793965093946060013593505050565b600081518084526020808501945080840160005b838110156139d35781516001600160a01b0316875295820195908201906001016139ae565b509495945050505050565b600081518084526020808501945080840160005b838110156139d3578151875295820195908201906001016139f2565b600081518084526020808501808196508360051b8101915082860160005b85811015613a56578284038952613a44848351613694565b98850198935090840190600101613a2c565b5091979650505050505050565b608081526000613a76608083018761399a565b8281036020840152613a8881876139de565b90508281036040840152613a9c8186613a0e565b905082810360608401526110d68185613a0e565b803560ff81168114613ac157600080fd5b919050565b600080600080600060a08688031215613ade57600080fd5b85359450613aee60208701613ab0565b9350613afc60408701613ab0565b94979396509394606081013594506080013592915050565b634e487b7160e01b600052602160045260246000fd5b6020810160088310613b4c57634e487b7160e01b600052602160045260246000fd5b91905290565b60008060408385031215613b6557600080fd5b823591506020830135613b778161373c565b809150509250929050565b60008060408385031215613b9557600080fd5b82359150613ba560208401613ab0565b90509250929050565b60008083601f840112613bc057600080fd5b5081356001600160401b03811115613bd757600080fd5b602083019150836020828501011115613bef57600080fd5b9250929050565b60008060008060608587031215613c0c57600080fd5b84359350613c1c60208601613ab0565b925060408501356001600160401b03811115613c3757600080fd5b613c4387828801613bae565b95989497509550505050565b600082601f830112613c6057600080fd5b6115c183833560208501613820565b60008060008060808587031215613c8557600080fd5b84356001600160401b0380821115613c9c57600080fd5b613ca888838901613751565b95506020870135915080821115613cbe57600080fd5b613cca888389016137c5565b94506040870135915080821115613ce057600080fd5b613cec88838901613877565b93506060870135915080821115613d0257600080fd5b50613d0f87828801613c4f565b91505092959194509250565b600060208284031215613d2d57600080fd5b81356115c18161373c565b60008060008060608587031215613d4e57600080fd5b8435613d598161373c565b93506020850135925060408501356001600160401b03811115613c3757600080fd5b600082601f830112613d8c57600080fd5b81356020613d9c61377283613719565b82815260059290921b84018101918181019086841115613dbb57600080fd5b8286015b848110156137ba5780356001600160401b03811115613dde5760008081fd5b613dec8986838b0101613c4f565b845250918301918301613dbf565b600080600080600060a08688031215613e1257600080fd5b85356001600160401b0380821115613e2957600080fd5b613e3589838a01613751565b96506020880135915080821115613e4b57600080fd5b613e5789838a016137c5565b95506040880135915080821115613e6d57600080fd5b613e7989838a01613d7b565b94506060880135915080821115613e8f57600080fd5b613e9b89838a01613877565b93506080880135915080821115613eb157600080fd5b50613ebe88828901613c4f565b9150509295509295909350565b60008060408385031215613ede57600080fd5b8235613ee98161373c565b946020939093013593505050565b60208082526018908201527f476f7665726e6f723a206f6e6c79476f7665726e616e63650000000000000000604082015260600190565b8183823760009101908152919050565b600181811c90821680613f5257607f821691505b60208210811415613f7357634e487b7160e01b600052602260045260246000fd5b50919050565b60208082526021908201527f476f7665726e6f723a2070726f706f73616c206e6f74207375636365737366756040820152601b60fa1b606082015260800190565b600060208284031215613fcc57600080fd5b5051919050565b60a081526000613fe660a083018861399a565b8281036020840152613ff881886139de565b9050828103604084015261400c8187613a0e565b60608401959095525050608001529392505050565b60c08152600061403460c083018961399a565b828103602084015261404681896139de565b9050828103604084015261405a8188613a0e565b60608401969096525050608081019290925260a0909101529392505050565b634e487b7160e01b600052601160045260246000fd5b600082198211156140a2576140a2614079565b500190565b6000828210156140b9576140b9614079565b500390565b6080815260006140d1608083018761399a565b82810360208401526140e381876139de565b905082810360408401526140f78186613a0e565b91505082606083015295945050505050565b634e487b7160e01b600052603260045260246000fd5b600060001982141561413357614133614079565b5060010190565b84815260ff841660208201528260408201526080606082015260006114776080830184613694565b60006020828403121561417457600080fd5b815180151581146115c157600080fd5b6001600160e01b03198316815281516000906141a7816004850160208701613664565b919091016004019392505050565b60008160001904831182151516156141cf576141cf614079565b500290565b6000826141f157634e487b7160e01b600052601260045260246000fd5b500490565b60208082526021908201527f476f7665726e6f723a20696e76616c69642070726f706f73616c206c656e67746040820152600d60fb1b606082015260800190565b60006001600160401b0380831681851680830382111561425957614259614079565b01949350505050565b8981526001600160a01b03891660208201526101206040820181905260009061428d8382018b61399a565b905082810360608401526142a1818a6139de565b905082810360808401526142b58189613a0e565b905082810360a08401526142c98188613a0e565b6001600160401b0387811660c0860152861660e085015283810361010085015290506142f58185613694565b9c9b505050505050505050505050565b60008251614317818460208701613664565b919091019291505056fe416464726573733a206c6f772d6c6576656c2063616c6c20776974682076616c7565206661696c6564a26469706673582212206a0c47ab76077dad9d2405acd42d67d4f4228ab148b7fec38566d825a1d7597b64736f6c63430008090033",
  "linkReferences": {},
  "deployedLinkReferences": {}
}