{
  "_format": "hh-sol-artifact-1",
  "contractName": "UUPSUpgradeableMock",
  "sourceName": "contracts/mocks/UUPS/UUPSUpgradeableMock.sol",
  "abi": [
    {
      "anonymous": false,
      "inputs": [
        {
          "indexed": false,
          "internalType": "address",
          "name": "previousAdmin",
          "type": "address"
        },
        {
          "indexed": false,
          "internalType": "address",
          "name": "newAdmin",
          "type": "address"
        }
      ],
      "name": "AdminChanged",
      "type": "event"
    },
    {
      "anonymous": false,
      "inputs": [
        {
          "indexed": true,
          "internalType": "address",
          "name": "beacon",
          "type": "address"
        }
      ],
      "name": "BeaconUpgraded",
      "type": "event"
    },
    {
      "anonymous": false,
      "inputs": [
        {
          "indexed": true,
          "internalType": "address",
          "name": "implementation",
          "type": "address"
        }
      ],
      "name": "Upgraded",
      "type": "event"
    },
    {
      "inputs": [],
      "name": "current",
      "outputs": [
        {
          "internalType": "uint256",
          "name": "",
          "type": "uint256"
        }
      ],
      "stateMutability": "view",
      "type": "function"
    },
    {
      "inputs": [],
      "name": "decrement",
      "outputs": [],
      "stateMutability": "nonpayable",
      "type": "function"
    },
    {
      "inputs": [],
      "name": "increment",
      "outputs": [],
      "stateMutability": "nonpayable",
      "type": "function"
    },
    {
      "inputs": [],
      "name": "proxiableUUID",
      "outputs": [
        {
          "internalType": "bytes32",
          "name": "",
          "type": "bytes32"
        }
      ],
      "stateMutability": "view",
      "type": "function"
    },
    {
      "inputs": [],
      "name": "reset",
      "outputs": [],
      "stateMutability": "nonpayable",
      "type": "function"
    },
    {
      "inputs": [
        {
          "internalType": "address",
          "name": "newImplementation",
          "type": "address"
        }
      ],
      "name": "upgradeTo",
      "outputs": [],
      "stateMutability": "nonpayable",
      "type": "function"
    },
    {
      "inputs": [
        {
          "internalType": "address",
          "name": "newImplementation",
          "type": "address"
        },
        {
          "internalType": "bytes",
          "name": "data",
          "type": "bytes"
        }
      ],
      "name": "upgradeToAndCall",
      "outputs": [],
      "stateMutability": "payable",
      "type": "function"
    }
  ],
  "bytecode": "0x60a06040523060805234801561001457600080fd5b50608051610a7a61004c6000396000818161013c015281816101850152818161021c0152818161025c01526102e60152610a7a6000f3fe6080604052600436106100705760003560e01c806352d1902d1161004e57806352d1902d146100bf5780639fa6a6e3146100e6578063d09de08a146100fb578063d826f88f1461011057600080fd5b80632baeceb7146100755780633659cfe61461008c5780634f1ef286146100ac575b600080fd5b34801561008157600080fd5b5061008a610125565b005b34801561009857600080fd5b5061008a6100a73660046107de565b610131565b61008a6100ba36600461080f565b610211565b3480156100cb57600080fd5b506100d46102d9565b60405190815260200160405180910390f35b3480156100f257600080fd5b506000546100d4565b34801561010757600080fd5b5061008a61038c565b34801561011c57600080fd5b5061008a61039a565b61012f60006103a3565b565b306001600160a01b037f00000000000000000000000000000000000000000000000000000000000000001614156101835760405162461bcd60e51b815260040161017a906108d1565b60405180910390fd5b7f00000000000000000000000000000000000000000000000000000000000000006001600160a01b03166101cc6000805160206109fe833981519152546001600160a01b031690565b6001600160a01b0316146101f25760405162461bcd60e51b815260040161017a9061091d565b6040805160008082526020820190925261020e918391906103fa565b50565b306001600160a01b037f000000000000000000000000000000000000000000000000000000000000000016141561025a5760405162461bcd60e51b815260040161017a906108d1565b7f00000000000000000000000000000000000000000000000000000000000000006001600160a01b03166102a36000805160206109fe833981519152546001600160a01b031690565b6001600160a01b0316146102c95760405162461bcd60e51b815260040161017a9061091d565b6102d5828260016103fa565b5050565b6000306001600160a01b037f000000000000000000000000000000000000000000000000000000000000000016146103795760405162461bcd60e51b815260206004820152603860248201527f555550535570677261646561626c653a206d757374206e6f742062652063616c60448201527f6c6564207468726f7567682064656c656761746563616c6c0000000000000000606482015260840161017a565b506000805160206109fe83398151915290565b61012f600080546001019055565b61012f60008055565b8054806103f25760405162461bcd60e51b815260206004820152601b60248201527f436f756e7465723a2064656372656d656e74206f766572666c6f770000000000604482015260640161017a565b600019019055565b7f4910fdfa16fed3260ed0e7147f7cc6da11a60208b5b9406d12a635614ffd91435460ff16156104325761042d83610579565b505050565b826001600160a01b03166352d1902d6040518163ffffffff1660e01b815260040160206040518083038186803b15801561046b57600080fd5b505afa92505050801561049b575060408051601f3d908101601f1916820190925261049891810190610969565b60015b6104fe5760405162461bcd60e51b815260206004820152602e60248201527f45524331393637557067726164653a206e657720696d706c656d656e7461746960448201526d6f6e206973206e6f74205555505360901b606482015260840161017a565b6000805160206109fe833981519152811461056d5760405162461bcd60e51b815260206004820152602960248201527f45524331393637557067726164653a20756e737570706f727465642070726f786044820152681a58589b195555525160ba1b606482015260840161017a565b5061042d838383610615565b6001600160a01b0381163b6105e65760405162461bcd60e51b815260206004820152602d60248201527f455243313936373a206e657720696d706c656d656e746174696f6e206973206e60448201526c1bdd08184818dbdb9d1c9858dd609a1b606482015260840161017a565b6000805160206109fe83398151915280546001600160a01b0319166001600160a01b0392909216919091179055565b61061e83610640565b60008251118061062b5750805b1561042d5761063a8383610680565b50505050565b61064981610579565b6040516001600160a01b038216907fbc7cd75a20ee27fd9adebab32041f755214dbc6bffa90cc0225b39da2e5c2d3b90600090a250565b60606106a58383604051806060016040528060278152602001610a1e602791396106ac565b9392505050565b60606001600160a01b0384163b6107145760405162461bcd60e51b815260206004820152602660248201527f416464726573733a2064656c65676174652063616c6c20746f206e6f6e2d636f6044820152651b9d1c9858dd60d21b606482015260840161017a565b600080856001600160a01b03168560405161072f91906109ae565b600060405180830381855af49150503d806000811461076a576040519150601f19603f3d011682016040523d82523d6000602084013e61076f565b606091505b509150915061077f828286610789565b9695505050505050565b606083156107985750816106a5565b8251156107a85782518084602001fd5b8160405162461bcd60e51b815260040161017a91906109ca565b80356001600160a01b03811681146107d957600080fd5b919050565b6000602082840312156107f057600080fd5b6106a5826107c2565b634e487b7160e01b600052604160045260246000fd5b6000806040838503121561082257600080fd5b61082b836107c2565b9150602083013567ffffffffffffffff8082111561084857600080fd5b818501915085601f83011261085c57600080fd5b81358181111561086e5761086e6107f9565b604051601f8201601f19908116603f01168101908382118183101715610896576108966107f9565b816040528281528860208487010111156108af57600080fd5b8260208601602083013760006020848301015280955050505050509250929050565b6020808252602c908201527f46756e6374696f6e206d7573742062652063616c6c6564207468726f7567682060408201526b19195b1959d85d1958d85b1b60a21b606082015260800190565b6020808252602c908201527f46756e6374696f6e206d7573742062652063616c6c6564207468726f7567682060408201526b6163746976652070726f787960a01b606082015260800190565b60006020828403121561097b57600080fd5b5051919050565b60005b8381101561099d578181015183820152602001610985565b8381111561063a5750506000910152565b600082516109c0818460208701610982565b9190910192915050565b60208152600082518060208401526109e9816040850160208701610982565b601f01601f1916919091016040019291505056fe360894a13ba1a3210667c828492db98dca3e2076cc3735a920a3ca505d382bbc416464726573733a206c6f772d6c6576656c2064656c65676174652063616c6c206661696c6564a26469706673582212209cce6f3160671f071185d199cd43bdd9cd62c6cc12ede332d7513d1253bea0d964736f6c63430008090033",
  "linkReferences": {},
  "deployedLinkReferences": {}
}