{
  "_format": "hh-sol-artifact-1",
  "contractName": "UUPSUpgradeableUnsafeMock",
  "sourceName": "contracts/mocks/UUPS/UUPSUpgradeableMock.sol",
  "abi": [
    {
      "anonymous": false,
      "inputs": [
        {
          "indexed": false,
          "internalType": "address",
          "name": "previousAdmin",
          "type": "address"
        },
        {
          "indexed": false,
          "internalType": "address",
          "name": "newAdmin",
          "type": "address"
        }
      ],
      "name": "AdminChanged",
      "type": "event"
    },
    {
      "anonymous": false,
      "inputs": [
        {
          "indexed": true,
          "internalType": "address",
          "name": "beacon",
          "type": "address"
        }
      ],
      "name": "BeaconUpgraded",
      "type": "event"
    },
    {
      "anonymous": false,
      "inputs": [
        {
          "indexed": true,
          "internalType": "address",
          "name": "implementation",
          "type": "address"
        }
      ],
      "name": "Upgraded",
      "type": "event"
    },
    {
      "inputs": [],
      "name": "current",
      "outputs": [
        {
          "internalType": "uint256",
          "name": "",
          "type": "uint256"
        }
      ],
      "stateMutability": "view",
      "type": "function"
    },
    {
      "inputs": [],
      "name": "decrement",
      "outputs": [],
      "stateMutability": "nonpayable",
      "type": "function"
    },
    {
      "inputs": [],
      "name": "increment",
      "outputs": [],
      "stateMutability": "nonpayable",
      "type": "function"
    },
    {
      "inputs": [],
      "name": "proxiableUUID",
      "outputs": [
        {
          "internalType": "bytes32",
          "name": "",
          "type": "bytes32"
        }
      ],
      "stateMutability": "view",
      "type": "function"
    },
    {
      "inputs": [],
      "name": "reset",
      "outputs": [],
      "stateMutability": "nonpayable",
      "type": "function"
    },
    {
      "inputs": [
        {
          "internalType": "address",
          "name": "newImplementation",
          "type": "address"
        }
      ],
      "name": "upgradeTo",
      "outputs": [],
      "stateMutability": "nonpayable",
      "type": "function"
    },
    {
      "inputs": [
        {
          "internalType": "address",
          "name": "newImplementation",
          "type": "address"
        },
        {
          "internalType": "bytes",
          "name": "data",
          "type": "bytes"
        }
      ],
      "name": "upgradeToAndCall",
      "outputs": [],
      "stateMutability": "payable",
      "type": "function"
    }
  ],
  "bytecode": "0x60a06040523060805234801561001457600080fd5b506080516106da610030600039600061016c01526106da6000f3fe6080604052600436106100705760003560e01c806352d1902d1161004e57806352d1902d146100bf5780639fa6a6e3146100e6578063d09de08a146100fb578063d826f88f1461011057600080fd5b80632baeceb7146100755780633659cfe61461008c5780634f1ef286146100ac575b600080fd5b34801561008157600080fd5b5061008a610125565b005b34801561009857600080fd5b5061008a6100a736600461050f565b610131565b61008a6100ba366004610540565b61014f565b3480156100cb57600080fd5b506100d461015f565b60405190815260200160405180910390f35b3480156100f257600080fd5b506000546100d4565b34801561010757600080fd5b5061008a610229565b34801561011c57600080fd5b5061008a610237565b61012f6000610240565b565b61014c81604051806020016040528060008152506000610297565b50565b61015b82826000610297565b5050565b6000306001600160a01b037f000000000000000000000000000000000000000000000000000000000000000016146102045760405162461bcd60e51b815260206004820152603860248201527f555550535570677261646561626c653a206d757374206e6f742062652063616c60448201527f6c6564207468726f7567682064656c656761746563616c6c000000000000000060648201526084015b60405180910390fd5b507f360894a13ba1a3210667c828492db98dca3e2076cc3735a920a3ca505d382bbc90565b61012f600080546001019055565b61012f60008055565b80548061028f5760405162461bcd60e51b815260206004820152601b60248201527f436f756e7465723a2064656372656d656e74206f766572666c6f77000000000060448201526064016101fb565b600019019055565b6102a0836102c3565b6000825111806102ad5750805b156102be576102bc8383610303565b505b505050565b6102cc8161032f565b6040516001600160a01b038216907fbc7cd75a20ee27fd9adebab32041f755214dbc6bffa90cc0225b39da2e5c2d3b90600090a250565b6060610328838360405180606001604052806027815260200161067e602791396103dd565b9392505050565b6001600160a01b0381163b61039c5760405162461bcd60e51b815260206004820152602d60248201527f455243313936373a206e657720696d706c656d656e746174696f6e206973206e60448201526c1bdd08184818dbdb9d1c9858dd609a1b60648201526084016101fb565b7f360894a13ba1a3210667c828492db98dca3e2076cc3735a920a3ca505d382bbc80546001600160a01b0319166001600160a01b0392909216919091179055565b60606001600160a01b0384163b6104455760405162461bcd60e51b815260206004820152602660248201527f416464726573733a2064656c65676174652063616c6c20746f206e6f6e2d636f6044820152651b9d1c9858dd60d21b60648201526084016101fb565b600080856001600160a01b031685604051610460919061062e565b600060405180830381855af49150503d806000811461049b576040519150601f19603f3d011682016040523d82523d6000602084013e6104a0565b606091505b50915091506104b08282866104ba565b9695505050505050565b606083156104c9575081610328565b8251156104d95782518084602001fd5b8160405162461bcd60e51b81526004016101fb919061064a565b80356001600160a01b038116811461050a57600080fd5b919050565b60006020828403121561052157600080fd5b610328826104f3565b634e487b7160e01b600052604160045260246000fd5b6000806040838503121561055357600080fd5b61055c836104f3565b9150602083013567ffffffffffffffff8082111561057957600080fd5b818501915085601f83011261058d57600080fd5b81358181111561059f5761059f61052a565b604051601f8201601f19908116603f011681019083821181831017156105c7576105c761052a565b816040528281528860208487010111156105e057600080fd5b8260208601602083013760006020848301015280955050505050509250929050565b60005b8381101561061d578181015183820152602001610605565b838111156102bc5750506000910152565b60008251610640818460208701610602565b9190910192915050565b6020815260008251806020840152610669816040850160208701610602565b601f01601f1916919091016040019291505056fe416464726573733a206c6f772d6c6576656c2064656c65676174652063616c6c206661696c6564a26469706673582212205d43fc17218083659622c853f740a65ab4e1e566b6e85a52a33e7ccb8aef119764736f6c63430008090033",
  "linkReferences": {},
  "deployedLinkReferences": {}
}