{
  "_format": "hh-sol-artifact-1",
  "contractName": "MathMock",
  "sourceName": "contracts/mocks/MathMock.sol",
  "abi": [
    {
      "inputs": [
        {
          "internalType": "uint256",
          "name": "a",
          "type": "uint256"
        },
        {
          "internalType": "uint256",
          "name": "b",
          "type": "uint256"
        }
      ],
      "name": "average",
      "outputs": [
        {
          "internalType": "uint256",
          "name": "",
          "type": "uint256"
        }
      ],
      "stateMutability": "pure",
      "type": "function"
    },
    {
      "inputs": [
        {
          "internalType": "uint256",
          "name": "a",
          "type": "uint256"
        },
        {
          "internalType": "uint256",
          "name": "b",
          "type": "uint256"
        }
      ],
      "name": "ceilDiv",
      "outputs": [
        {
          "internalType": "uint256",
          "name": "",
          "type": "uint256"
        }
      ],
      "stateMutability": "pure",
      "type": "function"
    },
    {
      "inputs": [
        {
          "internalType": "uint256",
          "name": "a",
          "type": "uint256"
        },
        {
          "internalType": "uint256",
          "name": "b",
          "type": "uint256"
        }
      ],
      "name": "max",
      "outputs": [
        {
          "internalType": "uint256",
          "name": "",
          "type": "uint256"
        }
      ],
      "stateMutability": "pure",
      "type": "function"
    },
    {
      "inputs": [
        {
          "internalType": "uint256",
          "name": "a",
          "type": "uint256"
        },
        {
          "internalType": "uint256",
          "name": "b",
          "type": "uint256"
        }
      ],
      "name": "min",
      "outputs": [
        {
          "internalType": "uint256",
          "name": "",
          "type": "uint256"
        }
      ],
      "stateMutability": "pure",
      "type": "function"
    }
  ],
  "bytecode": "0x608060405234801561001057600080fd5b50610215806100206000396000f3fe608060405234801561001057600080fd5b506004361061004c5760003560e01c80632b7423ab146100515780636d5433e6146100765780637ae2b5c7146100895780639cb353271461009c575b600080fd5b61006461005f366004610159565b6100af565b60405190815260200160405180910390f35b610064610084366004610159565b6100c2565b610064610097366004610159565b6100ce565b6100646100aa366004610159565b6100da565b60006100bb83836100e6565b9392505050565b60006100bb8383610101565b60006100bb8383610118565b60006100bb8383610127565b60006100f56002848418610191565b6100bb908484166101a5565b60008183101561011157816100bb565b5090919050565b600081831061011157816100bb565b600061013382846101cb565b1561013f576001610142565b60005b60ff1661014f8385610191565b6100bb91906101a5565b6000806040838503121561016c57600080fd5b50508035926020909101359150565b634e487b7160e01b600052601260045260246000fd5b6000826101a0576101a061017b565b500490565b600082198211156101c657634e487b7160e01b600052601160045260246000fd5b500190565b6000826101da576101da61017b565b50069056fea2646970667358221220521a4a5689e9f200dc8c09bca13344ccfe18d3d1d84b2dbbb5e349fefcc3bace64736f6c63430008090033",
  "linkReferences": {},
  "deployedLinkReferences": {}
}