{
  "_format": "hh-sol-artifact-1",
  "contractName": "AddressToUintMapMock",
  "sourceName": "contracts/mocks/EnumerableMapMock.sol",
  "abi": [
    {
      "anonymous": false,
      "inputs": [
        {
          "indexed": false,
          "internalType": "bool",
          "name": "result",
          "type": "bool"
        }
      ],
      "name": "OperationResult",
      "type": "event"
    },
    {
      "inputs": [
        {
          "internalType": "uint256",
          "name": "index",
          "type": "uint256"
        }
      ],
      "name": "at",
      "outputs": [
        {
          "internalType": "address",
          "name": "key",
          "type": "address"
        },
        {
          "internalType": "uint256",
          "name": "value",
          "type": "uint256"
        }
      ],
      "stateMutability": "view",
      "type": "function"
    },
    {
      "inputs": [
        {
          "internalType": "address",
          "name": "key",
          "type": "address"
        }
      ],
      "name": "contains",
      "outputs": [
        {
          "internalType": "bool",
          "name": "",
          "type": "bool"
        }
      ],
      "stateMutability": "view",
      "type": "function"
    },
    {
      "inputs": [
        {
          "internalType": "address",
          "name": "key",
          "type": "address"
        }
      ],
      "name": "get",
      "outputs": [
        {
          "internalType": "uint256",
          "name": "",
          "type": "uint256"
        }
      ],
      "stateMutability": "view",
      "type": "function"
    },
    {
      "inputs": [],
      "name": "length",
      "outputs": [
        {
          "internalType": "uint256",
          "name": "",
          "type": "uint256"
        }
      ],
      "stateMutability": "view",
      "type": "function"
    },
    {
      "inputs": [
        {
          "internalType": "address",
          "name": "key",
          "type": "address"
        }
      ],
      "name": "remove",
      "outputs": [],
      "stateMutability": "nonpayable",
      "type": "function"
    },
    {
      "inputs": [
        {
          "internalType": "address",
          "name": "key",
          "type": "address"
        },
        {
          "internalType": "uint256",
          "name": "value",
          "type": "uint256"
        }
      ],
      "name": "set",
      "outputs": [],
      "stateMutability": "nonpayable",
      "type": "function"
    },
    {
      "inputs": [
        {
          "internalType": "address",
          "name": "key",
          "type": "address"
        }
      ],
      "name": "tryGet",
      "outputs": [
        {
          "internalType": "bool",
          "name": "",
          "type": "bool"
        },
        {
          "internalType": "uint256",
          "name": "",
          "type": "uint256"
        }
      ],
      "stateMutability": "view",
      "type": "function"
    }
  ],
  "bytecode": "0x608060405234801561001057600080fd5b506106c7806100206000396000f3fe608060405234801561001057600080fd5b506004361061007d5760003560e01c80635dbe47e81161005b5780635dbe47e8146100c5578063864083af146100e8578063c2bc2efc14610112578063e0886f901461012557600080fd5b80631f7b6d321461008257806329092d0e1461009d5780633825d828146100b2575b600080fd5b61008a610157565b6040519081526020015b60405180910390f35b6100b06100ab3660046105e2565b610168565b005b6100b06100c03660046105fd565b6101b5565b6100d86100d33660046105e2565b610204565b6040519015158152602001610094565b6100fb6100f63660046105e2565b610216565b604080519215158352602083019190915201610094565b61008a6101203660046105e2565b61022c565b610138610133366004610627565b610238565b604080516001600160a01b039093168352602083019190915201610094565b60006101636000610245565b905090565b60006101748183610250565b90507fed9840e0775590557ad736875d96c95cf1458b766335f74339951a32c82a9e33816040516101a9911515815260200190565b60405180910390a15050565b60006101c281848461026c565b90507fed9840e0775590557ad736875d96c95cf1458b766335f74339951a32c82a9e33816040516101f7911515815260200190565b60405180910390a1505050565b6000610210818361028a565b92915050565b600080610223818461029f565b91509150915091565b600061021081836102c6565b60008061022381846102db565b6000610210826102ea565b6000610265836001600160a01b0384166102f5565b9392505050565b6000610282846001600160a01b03851684610312565b949350505050565b6000610265836001600160a01b03841661032f565b60008080806102b7866001600160a01b03871661033b565b909450925050505b9250929050565b6000610265836001600160a01b038416610375565b60008080806102b786866103e9565b600061021082610414565b60008181526002830160205260408120819055610265838361041e565b60008281526002840160205260408120829055610282848461042a565b60006102658383610436565b600081815260028301602052604081205481908061036a5761035d858561032f565b9250600091506102bf9050565b6001925090506102bf565b6000818152600283016020526040812054801515806103995750610399848461032f565b6102655760405162461bcd60e51b815260206004820152601e60248201527f456e756d657261626c654d61703a206e6f6e6578697374656e74206b65790000604482015260640160405180910390fd5b600080806103f7858561044e565b600081815260029690960160205260409095205494959350505050565b6000610210825490565b6000610265838361045a565b6000610265838361054d565b60008181526001830160205260408120541515610265565b6000610265838361059c565b6000818152600183016020526040812054801561054357600061047e600183610640565b855490915060009061049290600190610640565b90508181146104f75760008660000182815481106104b2576104b2610665565b90600052602060002001549050808760000184815481106104d5576104d5610665565b6000918252602080832090910192909255918252600188019052604090208390555b85548690806105085761050861067b565b600190038181906000526020600020016000905590558560010160008681526020019081526020016000206000905560019350505050610210565b6000915050610210565b600081815260018301602052604081205461059457508154600181810184556000848152602080822090930184905584548482528286019093526040902091909155610210565b506000610210565b60008260000182815481106105b3576105b3610665565b9060005260206000200154905092915050565b80356001600160a01b03811681146105dd57600080fd5b919050565b6000602082840312156105f457600080fd5b610265826105c6565b6000806040838503121561061057600080fd5b610619836105c6565b946020939093013593505050565b60006020828403121561063957600080fd5b5035919050565b60008282101561066057634e487b7160e01b600052601160045260246000fd5b500390565b634e487b7160e01b600052603260045260246000fd5b634e487b7160e01b600052603160045260246000fdfea264697066735822122011e31c69fdf231ff71ac361c181f7abafc8372096dd935f13dc6f796e07d5d9a64736f6c63430008090033",
  "linkReferences": {},
  "deployedLinkReferences": {}
}