{
  "_format": "hh-sol-artifact-1",
  "contractName": "GovernorCompMock",
  "sourceName": "contracts/mocks/GovernorCompMock.sol",
  "abi": [
    {
      "inputs": [
        {
          "internalType": "string",
          "name": "name_",
          "type": "string"
        },
        {
          "internalType": "contract ERC20VotesComp",
          "name": "token_",
          "type": "address"
        }
      ],
      "stateMutability": "nonpayable",
      "type": "constructor"
    },
    {
      "inputs": [],
      "name": "Empty",
      "type": "error"
    },
    {
      "anonymous": false,
      "inputs": [
        {
          "indexed": false,
          "internalType": "uint256",
          "name": "proposalId",
          "type": "uint256"
        }
      ],
      "name": "ProposalCanceled",
      "type": "event"
    },
    {
      "anonymous": false,
      "inputs": [
        {
          "indexed": false,
          "internalType": "uint256",
          "name": "proposalId",
          "type": "uint256"
        },
        {
          "indexed": false,
          "internalType": "address",
          "name": "proposer",
          "type": "address"
        },
        {
          "indexed": false,
          "internalType": "address[]",
          "name": "targets",
          "type": "address[]"
        },
        {
          "indexed": false,
          "internalType": "uint256[]",
          "name": "values",
          "type": "uint256[]"
        },
        {
          "indexed": false,
          "internalType": "string[]",
          "name": "signatures",
          "type": "string[]"
        },
        {
          "indexed": false,
          "internalType": "bytes[]",
          "name": "calldatas",
          "type": "bytes[]"
        },
        {
          "indexed": false,
          "internalType": "uint256",
          "name": "startBlock",
          "type": "uint256"
        },
        {
          "indexed": false,
          "internalType": "uint256",
          "name": "endBlock",
          "type": "uint256"
        },
        {
          "indexed": false,
          "internalType": "string",
          "name": "description",
          "type": "string"
        }
      ],
      "name": "ProposalCreated",
      "type": "event"
    },
    {
      "anonymous": false,
      "inputs": [
        {
          "indexed": false,
          "internalType": "uint256",
          "name": "proposalId",
          "type": "uint256"
        }
      ],
      "name": "ProposalExecuted",
      "type": "event"
    },
    {
      "anonymous": false,
      "inputs": [
        {
          "indexed": true,
          "internalType": "address",
          "name": "voter",
          "type": "address"
        },
        {
          "indexed": false,
          "internalType": "uint256",
          "name": "proposalId",
          "type": "uint256"
        },
        {
          "indexed": false,
          "internalType": "uint8",
          "name": "support",
          "type": "uint8"
        },
        {
          "indexed": false,
          "internalType": "uint256",
          "name": "weight",
          "type": "uint256"
        },
        {
          "indexed": false,
          "internalType": "string",
          "name": "reason",
          "type": "string"
        }
      ],
      "name": "VoteCast",
      "type": "event"
    },
    {
      "inputs": [],
      "name": "BALLOT_TYPEHASH",
      "outputs": [
        {
          "internalType": "bytes32",
          "name": "",
          "type": "bytes32"
        }
      ],
      "stateMutability": "view",
      "type": "function"
    },
    {
      "inputs": [],
      "name": "COUNTING_MODE",
      "outputs": [
        {
          "internalType": "string",
          "name": "",
          "type": "string"
        }
      ],
      "stateMutability": "pure",
      "type": "function"
    },
    {
      "inputs": [
        {
          "internalType": "address[]",
          "name": "targets",
          "type": "address[]"
        },
        {
          "internalType": "uint256[]",
          "name": "values",
          "type": "uint256[]"
        },
        {
          "internalType": "bytes[]",
          "name": "calldatas",
          "type": "bytes[]"
        },
        {
          "internalType": "bytes32",
          "name": "salt",
          "type": "bytes32"
        }
      ],
      "name": "cancel",
      "outputs": [
        {
          "internalType": "uint256",
          "name": "proposalId",
          "type": "uint256"
        }
      ],
      "stateMutability": "nonpayable",
      "type": "function"
    },
    {
      "inputs": [
        {
          "internalType": "uint256",
          "name": "proposalId",
          "type": "uint256"
        },
        {
          "internalType": "uint8",
          "name": "support",
          "type": "uint8"
        }
      ],
      "name": "castVote",
      "outputs": [
        {
          "internalType": "uint256",
          "name": "",
          "type": "uint256"
        }
      ],
      "stateMutability": "nonpayable",
      "type": "function"
    },
    {
      "inputs": [
        {
          "internalType": "uint256",
          "name": "proposalId",
          "type": "uint256"
        },
        {
          "internalType": "uint8",
          "name": "support",
          "type": "uint8"
        },
        {
          "internalType": "uint8",
          "name": "v",
          "type": "uint8"
        },
        {
          "internalType": "bytes32",
          "name": "r",
          "type": "bytes32"
        },
        {
          "internalType": "bytes32",
          "name": "s",
          "type": "bytes32"
        }
      ],
      "name": "castVoteBySig",
      "outputs": [
        {
          "internalType": "uint256",
          "name": "",
          "type": "uint256"
        }
      ],
      "stateMutability": "nonpayable",
      "type": "function"
    },
    {
      "inputs": [
        {
          "internalType": "uint256",
          "name": "proposalId",
          "type": "uint256"
        },
        {
          "internalType": "uint8",
          "name": "support",
          "type": "uint8"
        },
        {
          "internalType": "string",
          "name": "reason",
          "type": "string"
        }
      ],
      "name": "castVoteWithReason",
      "outputs": [
        {
          "internalType": "uint256",
          "name": "",
          "type": "uint256"
        }
      ],
      "stateMutability": "nonpayable",
      "type": "function"
    },
    {
      "inputs": [
        {
          "internalType": "address[]",
          "name": "targets",
          "type": "address[]"
        },
        {
          "internalType": "uint256[]",
          "name": "values",
          "type": "uint256[]"
        },
        {
          "internalType": "bytes[]",
          "name": "calldatas",
          "type": "bytes[]"
        },
        {
          "internalType": "bytes32",
          "name": "descriptionHash",
          "type": "bytes32"
        }
      ],
      "name": "execute",
      "outputs": [
        {
          "internalType": "uint256",
          "name": "",
          "type": "uint256"
        }
      ],
      "stateMutability": "payable",
      "type": "function"
    },
    {
      "inputs": [
        {
          "internalType": "address",
          "name": "account",
          "type": "address"
        },
        {
          "internalType": "uint256",
          "name": "blockNumber",
          "type": "uint256"
        }
      ],
      "name": "getVotes",
      "outputs": [
        {
          "internalType": "uint256",
          "name": "",
          "type": "uint256"
        }
      ],
      "stateMutability": "view",
      "type": "function"
    },
    {
      "inputs": [
        {
          "internalType": "uint256",
          "name": "proposalId",
          "type": "uint256"
        },
        {
          "internalType": "address",
          "name": "account",
          "type": "address"
        }
      ],
      "name": "hasVoted",
      "outputs": [
        {
          "internalType": "bool",
          "name": "",
          "type": "bool"
        }
      ],
      "stateMutability": "view",
      "type": "function"
    },
    {
      "inputs": [
        {
          "internalType": "address[]",
          "name": "targets",
          "type": "address[]"
        },
        {
          "internalType": "uint256[]",
          "name": "values",
          "type": "uint256[]"
        },
        {
          "internalType": "bytes[]",
          "name": "calldatas",
          "type": "bytes[]"
        },
        {
          "internalType": "bytes32",
          "name": "descriptionHash",
          "type": "bytes32"
        }
      ],
      "name": "hashProposal",
      "outputs": [
        {
          "internalType": "uint256",
          "name": "",
          "type": "uint256"
        }
      ],
      "stateMutability": "pure",
      "type": "function"
    },
    {
      "inputs": [],
      "name": "name",
      "outputs": [
        {
          "internalType": "string",
          "name": "",
          "type": "string"
        }
      ],
      "stateMutability": "view",
      "type": "function"
    },
    {
      "inputs": [
        {
          "internalType": "uint256",
          "name": "proposalId",
          "type": "uint256"
        }
      ],
      "name": "proposalDeadline",
      "outputs": [
        {
          "internalType": "uint256",
          "name": "",
          "type": "uint256"
        }
      ],
      "stateMutability": "view",
      "type": "function"
    },
    {
      "inputs": [
        {
          "internalType": "uint256",
          "name": "proposalId",
          "type": "uint256"
        }
      ],
      "name": "proposalSnapshot",
      "outputs": [
        {
          "internalType": "uint256",
          "name": "",
          "type": "uint256"
        }
      ],
      "stateMutability": "view",
      "type": "function"
    },
    {
      "inputs": [],
      "name": "proposalThreshold",
      "outputs": [
        {
          "internalType": "uint256",
          "name": "",
          "type": "uint256"
        }
      ],
      "stateMutability": "view",
      "type": "function"
    },
    {
      "inputs": [
        {
          "internalType": "uint256",
          "name": "proposalId",
          "type": "uint256"
        }
      ],
      "name": "proposalVotes",
      "outputs": [
        {
          "internalType": "uint256",
          "name": "againstVotes",
          "type": "uint256"
        },
        {
          "internalType": "uint256",
          "name": "forVotes",
          "type": "uint256"
        },
        {
          "internalType": "uint256",
          "name": "abstainVotes",
          "type": "uint256"
        }
      ],
      "stateMutability": "view",
      "type": "function"
    },
    {
      "inputs": [
        {
          "internalType": "address[]",
          "name": "targets",
          "type": "address[]"
        },
        {
          "internalType": "uint256[]",
          "name": "values",
          "type": "uint256[]"
        },
        {
          "internalType": "bytes[]",
          "name": "calldatas",
          "type": "bytes[]"
        },
        {
          "internalType": "string",
          "name": "description",
          "type": "string"
        }
      ],
      "name": "propose",
      "outputs": [
        {
          "internalType": "uint256",
          "name": "",
          "type": "uint256"
        }
      ],
      "stateMutability": "nonpayable",
      "type": "function"
    },
    {
      "inputs": [
        {
          "internalType": "uint256",
          "name": "",
          "type": "uint256"
        }
      ],
      "name": "quorum",
      "outputs": [
        {
          "internalType": "uint256",
          "name": "",
          "type": "uint256"
        }
      ],
      "stateMutability": "pure",
      "type": "function"
    },
    {
      "inputs": [
        {
          "internalType": "address",
          "name": "target",
          "type": "address"
        },
        {
          "internalType": "uint256",
          "name": "value",
          "type": "uint256"
        },
        {
          "internalType": "bytes",
          "name": "data",
          "type": "bytes"
        }
      ],
      "name": "relay",
      "outputs": [],
      "stateMutability": "nonpayable",
      "type": "function"
    },
    {
      "inputs": [
        {
          "internalType": "uint256",
          "name": "proposalId",
          "type": "uint256"
        }
      ],
      "name": "state",
      "outputs": [
        {
          "internalType": "enum IGovernor.ProposalState",
          "name": "",
          "type": "uint8"
        }
      ],
      "stateMutability": "view",
      "type": "function"
    },
    {
      "inputs": [
        {
          "internalType": "bytes4",
          "name": "interfaceId",
          "type": "bytes4"
        }
      ],
      "name": "supportsInterface",
      "outputs": [
        {
          "internalType": "bool",
          "name": "",
          "type": "bool"
        }
      ],
      "stateMutability": "view",
      "type": "function"
    },
    {
      "inputs": [],
      "name": "token",
      "outputs": [
        {
          "internalType": "contract ERC20VotesComp",
          "name": "",
          "type": "address"
        }
      ],
      "stateMutability": "view",
      "type": "function"
    },
    {
      "inputs": [],
      "name": "version",
      "outputs": [
        {
          "internalType": "string",
          "name": "",
          "type": "string"
        }
      ],
      "stateMutability": "view",
      "type": "function"
    },
    {
      "inputs": [],
      "name": "votingDelay",
      "outputs": [
        {
          "internalType": "uint256",
          "name": "",
          "type": "uint256"
        }
      ],
      "stateMutability": "pure",
      "type": "function"
    },
    {
      "inputs": [],
      "name": "votingPeriod",
      "outputs": [
        {
          "internalType": "uint256",
          "name": "",
          "type": "uint256"
        }
      ],
      "stateMutability": "pure",
      "type": "function"
    },
    {
      "stateMutability": "payable",
      "type": "receive"
    }
  ],
  "bytecode": "0x6101606040523480156200001257600080fd5b506040516200285d3803806200285d8339810160408190526200003591620001ee565b808280620000576040805180820190915260018152603160f81b602082015290565b815160208084019190912082518383012060e08290526101008190524660a0818152604080517f8b73c3c69bb8fe3d512ecc4cf759cc79239f7b179b0ffacaa9a75d522b39400f81880181905281830187905260608201869052608082019490945230818401528151808203909301835260c00190528051940193909320919290916080523060c0526101205250508251620000fd925060009150602084019062000115565b50506001600160a01b031661014052506200031c9050565b8280546200012390620002df565b90600052602060002090601f01602090048101928262000147576000855562000192565b82601f106200016257805160ff191683800117855562000192565b8280016001018555821562000192579182015b828111156200019257825182559160200191906001019062000175565b50620001a0929150620001a4565b5090565b5b80821115620001a05760008155600101620001a5565b634e487b7160e01b600052604160045260246000fd5b80516001600160a01b0381168114620001e957600080fd5b919050565b600080604083850312156200020257600080fd5b82516001600160401b03808211156200021a57600080fd5b818501915085601f8301126200022f57600080fd5b815181811115620002445762000244620001bb565b604051601f8201601f19908116603f011681019083821181831017156200026f576200026f620001bb565b816040528281526020935088848487010111156200028c57600080fd5b600091505b82821015620002b0578482018401518183018501529083019062000291565b82821115620002c25760008484830101525b9550620002d4915050858201620001d1565b925050509250929050565b600181811c90821680620002f457607f821691505b602082108114156200031657634e487b7160e01b600052602260045260246000fd5b50919050565b60805160a05160c05160e0516101005161012051610140516124df6200037e600039600081816104f00152611317015260006114a7015260006114f6015260006114d10152600061142a015260006114540152600061147e01526124df6000f3fe60806040526004361061014f5760003560e01c806356781388116100b6578063c59057e41161006f578063c59057e414610403578063dd4e2ba514610423578063deaaa7cc14610469578063eb9019d41461049d578063f8ce560a146104bd578063fc0c546a146104de57600080fd5b8063567813881461034f5780637b3c71d31461036f5780637d5e81e21461038f578063b58131b0146103af578063c01f9e37146103c3578063c28bc2fa146103e357600080fd5b80633bccf4fd116101085780633bccf4fd146102195780633e4f49e6146102395780634385963214610266578063452115d6146102b0578063544ffc9c146102d057806354fd4d501461032557600080fd5b806301ffc9a71461015d57806302a251a31461019257806306fdde03146101b05780632656227d146101d25780632d63f693146101e55780633932abb11461020557600080fd5b3661015857005b005b600080fd5b34801561016957600080fd5b5061017d610178366004611a94565b61052a565b60405190151581526020015b60405180910390f35b34801561019e57600080fd5b5060105b604051908152602001610189565b3480156101bc57600080fd5b506101c5610561565b6040516101899190611b1a565b6101a26101e0366004611d6a565b6105f3565b3480156101f157600080fd5b506101a2610200366004611df9565b61071f565b34801561021157600080fd5b5060046101a2565b34801561022557600080fd5b506101a2610234366004611e23565b610756565b34801561024557600080fd5b50610259610254366004611df9565b6107ea565b6040516101899190611e87565b34801561027257600080fd5b5061017d610281366004611eaf565b60008281526004602090815260408083206001600160a01b038516845260030190915290205460ff1692915050565b3480156102bc57600080fd5b506101a26102cb366004611d6a565b6108f6565b3480156102dc57600080fd5b5061030a6102eb366004611df9565b6000908152600460205260409020805460018201546002909201549092565b60408051938452602084019290925290820152606001610189565b34801561033157600080fd5b506040805180820190915260018152603160f81b60208201526101c5565b34801561035b57600080fd5b506101a261036a366004611edb565b61090d565b34801561037b57600080fd5b506101a261038a366004611f46565b610936565b34801561039b57600080fd5b506101a26103aa366004611f9f565b610988565b3480156103bb57600080fd5b5060006101a2565b3480156103cf57600080fd5b506101a26103de366004611df9565b610c55565b3480156103ef57600080fd5b506101566103fe36600461205f565b610c84565b34801561040f57600080fd5b506101a261041e366004611d6a565b610d38565b34801561042f57600080fd5b506040805180820190915260208082527f737570706f72743d627261766f2671756f72756d3d666f722c6162737461696e908201526101c5565b34801561047557600080fd5b506101a27f150214d74d59b7d1e90c73fc22ef3d991dd0a76b046543d4d80ab92d2a50328f81565b3480156104a957600080fd5b506101a26104b83660046120a0565b610d72565b3480156104c957600080fd5b506101a26104d8366004611df9565b50600090565b3480156104ea57600080fd5b506105127f000000000000000000000000000000000000000000000000000000000000000081565b6040516001600160a01b039091168152602001610189565b60006001600160e01b0319821663bf26d89760e01b148061055b57506301ffc9a760e01b6001600160e01b03198316145b92915050565b606060008054610570906120ca565b80601f016020809104026020016040519081016040528092919081815260200182805461059c906120ca565b80156105e95780601f106105be576101008083540402835291602001916105e9565b820191906000526020600020905b8154815290600101906020018083116105cc57829003601f168201915b5050505050905090565b60008061060286868686610d38565b9050600061060f826107ea565b9050600481600781111561062557610625611e71565b14806106425750600581600781111561064057610640611e71565b145b61069d5760405162461bcd60e51b815260206004820152602160248201527f476f7665726e6f723a2070726f706f73616c206e6f74207375636365737366756044820152601b60fa1b60648201526084015b60405180910390fd5b600082815260016020818152604092839020600201805460ff191690921790915590518381527f712ae1383f79ac853f8d882153778e0260ef8f03b504e2866e0593e04d2b291f910160405180910390a16106fb8288888888610d85565b6107088288888888610e12565b6107158288888888610d85565b5095945050505050565b60008181526001602090815260408083208151928301909152546001600160401b0316908190525b6001600160401b031692915050565b604080517f150214d74d59b7d1e90c73fc22ef3d991dd0a76b046543d4d80ab92d2a50328f602082015290810186905260ff8516606082015260009081906107c2906107ba9060800160405160208183030381529060405280519060200120610f11565b868686610f5f565b90506107df87828860405180602001604052806000815250610f7d565b979650505050505050565b6000818152600160205260408120600281015460ff161561080e5750600792915050565b6002810154610100900460ff16156108295750600292915050565b60006108348461071f565b9050806108835760405162461bcd60e51b815260206004820152601d60248201527f476f7665726e6f723a20756e6b6e6f776e2070726f706f73616c2069640000006044820152606401610694565b438110610894575060009392505050565b600061089f85610c55565b90504381106108b357506001949350505050565b6108bc85611088565b80156108db575060008581526004602052604090208054600190910154115b156108eb57506004949350505050565b506003949350505050565b6000610904858585856110bf565b95945050505050565b60008033905061092e84828560405180602001604052806000815250610f7d565b949350505050565b60008033905061097e86828787878080601f016020809104026020016040519081016040528093929190818152602001838380828437600092019190915250610f7d92505050565b9695505050505050565b60008061099a336104b860014361211b565b1015610a1a5760405162461bcd60e51b815260206004820152604360248201527f476f7665726e6f72436f6d7061746962696c697479427261766f3a2070726f7060448201527f6f73657220766f7465732062656c6f772070726f706f73616c207468726573686064820152621bdb1960ea1b608482015260a401610694565b6000610a2f8686868680519060200120610d38565b90508451865114610a525760405162461bcd60e51b815260040161069490612132565b8351865114610a735760405162461bcd60e51b815260040161069490612132565b6000865111610ac45760405162461bcd60e51b815260206004820152601860248201527f476f7665726e6f723a20656d7074792070726f706f73616c00000000000000006044820152606401610694565b600081815260016020908152604091829020825191820190925281546001600160401b03169081905215610b445760405162461bcd60e51b815260206004820152602160248201527f476f7665726e6f723a2070726f706f73616c20616c72656164792065786973746044820152607360f81b6064820152608401610694565b6000610b5060046111dd565b610b59436111dd565b610b639190612173565b90506000610b7160106111dd565b610b7b9083612173565b835467ffffffffffffffff19166001600160401b038416178455905060018301805467ffffffffffffffff19166001600160401b0383161790557f7d84a6263ae0d98d3329bd7b46bb4e8d6f98cd35a7adb45c274c8b7fd5ebd5e084338b8b8d516001600160401b03811115610bf357610bf3611b2d565b604051908082528060200260200182016040528015610c2657816020015b6060815260200190600190039081610c115790505b508c88888e604051610c4099989796959493929190612264565b60405180910390a15091979650505050505050565b60008181526001602081815260408084208151928301909152909101546001600160401b031690819052610747565b333014610cd35760405162461bcd60e51b815260206004820152601860248201527f476f7665726e6f723a206f6e6c79476f7665726e616e636500000000000000006044820152606401610694565b610cef565b80610ce36002611249565b14610ced57610cd8565b505b610d318483838080601f0160208091040260200160405190810160405280939291908181526020018383808284376000920191909152508892506112c8915050565b5050505050565b600084848484604051602001610d519493929190612353565b60408051601f19818403018152919052805160209091012095945050505050565b6000610d7e83836112ee565b9392505050565b610d31565b8451811015610e0a57306001600160a01b0316858281518110610daf57610daf61239e565b60200260200101516001600160a01b03161415610dfa57610dfa838281518110610ddb57610ddb61239e565b60200260200101518051906020012060026113a890919063ffffffff16565b610e03816123b4565b9050610d8a565b505050505050565b600060405180606001604052806027815260200161245a60279139905060005b8551811015610f0857600080878381518110610e5057610e5061239e565b60200260200101516001600160a01b0316878481518110610e7357610e7361239e565b6020026020010151878581518110610e8d57610e8d61239e565b6020026020010151604051610ea291906123cf565b60006040518083038185875af1925050503d8060008114610edf576040519150601f19603f3d011682016040523d82523d6000602084013e610ee4565b606091505b5091509150610ef48282866113e4565b50505080610f01906123b4565b9050610e32565b50505050505050565b600061055b610f1e61141d565b8360405161190160f01b6020820152602281018390526042810182905260009060620160405160208183030381529060405280519060200120905092915050565b6000806000610f7087878787611544565b9150915061071581611631565b6000848152600160208190526040822090610f97876107ea565b6007811115610fa857610fa8611e71565b146110015760405162461bcd60e51b815260206004820152602360248201527f476f7665726e6f723a20766f7465206e6f742063757272656e746c792061637460448201526269766560e81b6064820152608401610694565b604080516020810190915281546001600160401b031690819052600090611029908790610d72565b9050611037878787846117ef565b856001600160a01b03167fb8e138887d0aa13bab447e82de9d5c1777041ecd21ca36ba824ff1e6c07ddda48887848860405161107694939291906123eb565b60405180910390a29695505050505050565b6000818152600460205260408120600281015460018201546110aa9190612413565b6110b66104d88561071f565b11159392505050565b6000806110ce86868686610d38565b905060006110db826107ea565b905060028160078111156110f1576110f1611e71565b141580156111115750600681600781111561110e5761110e611e71565b14155b801561112f5750600781600781111561112c5761112c611e71565b14155b61117b5760405162461bcd60e51b815260206004820152601d60248201527f476f7665726e6f723a2070726f706f73616c206e6f74206163746976650000006044820152606401610694565b60008281526001602052604090819020600201805461ff001916610100179055517f789cf55be980739dad1d0699b93b58e806b51c9d96619bfa8fe0a28abaa7b30c906111cb9084815260200190565b60405180910390a15095945050505050565b60006001600160401b038211156112455760405162461bcd60e51b815260206004820152602660248201527f53616665436173743a2076616c756520646f65736e27742066697420696e203660448201526534206269747360d01b6064820152608401610694565b5090565b60006112648254600f81810b600160801b909204900b131590565b1561128257604051631ed9509560e11b815260040160405180910390fd5b508054600f0b6000818152600180840160205260408220805492905583546fffffffffffffffffffffffffffffffff191692016001600160801b03169190911790915590565b606061092e8484846040518060600160405280602981526020016124816029913961196e565b60405163782d6fe160e01b81526001600160a01b038381166004830152602482018390526000917f00000000000000000000000000000000000000000000000000000000000000009091169063782d6fe19060440160206040518083038186803b15801561135b57600080fd5b505afa15801561136f573d6000803e3d6000fd5b505050506040513d601f19601f82011682018060405250810190611393919061242b565b6bffffffffffffffffffffffff169392505050565b8154600160801b90819004600f0b6000818152600180860160205260409091209390935583546001600160801b03908116939091011602179055565b606083156113f3575081610d7e565b8251156114035782518084602001fd5b8160405162461bcd60e51b81526004016106949190611b1a565b6000306001600160a01b037f00000000000000000000000000000000000000000000000000000000000000001614801561147657507f000000000000000000000000000000000000000000000000000000000000000046145b156114a057507f000000000000000000000000000000000000000000000000000000000000000090565b50604080517f00000000000000000000000000000000000000000000000000000000000000006020808301919091527f0000000000000000000000000000000000000000000000000000000000000000828401527f000000000000000000000000000000000000000000000000000000000000000060608301524660808301523060a0808401919091528351808403909101815260c0909201909252805191012090565b6000807f7fffffffffffffffffffffffffffffff5d576e7357a4501ddfe92f46681b20a083111561157b5750600090506003611628565b8460ff16601b1415801561159357508460ff16601c14155b156115a45750600090506004611628565b6040805160008082526020820180845289905260ff881692820192909252606081018690526080810185905260019060a0016020604051602081039080840390855afa1580156115f8573d6000803e3d6000fd5b5050604051601f1901519150506001600160a01b03811661162157600060019250925050611628565b9150600090505b94509492505050565b600081600481111561164557611645611e71565b141561164e5750565b600181600481111561166257611662611e71565b14156116b05760405162461bcd60e51b815260206004820152601860248201527f45434453413a20696e76616c6964207369676e617475726500000000000000006044820152606401610694565b60028160048111156116c4576116c4611e71565b14156117125760405162461bcd60e51b815260206004820152601f60248201527f45434453413a20696e76616c6964207369676e6174757265206c656e677468006044820152606401610694565b600381600481111561172657611726611e71565b141561177f5760405162461bcd60e51b815260206004820152602260248201527f45434453413a20696e76616c6964207369676e6174757265202773272076616c604482015261756560f01b6064820152608401610694565b600481600481111561179357611793611e71565b14156117ec5760405162461bcd60e51b815260206004820152602260248201527f45434453413a20696e76616c6964207369676e6174757265202776272076616c604482015261756560f01b6064820152608401610694565b50565b60008481526004602090815260408083206001600160a01b0387168452600381019092529091205460ff16156118775760405162461bcd60e51b815260206004820152602760248201527f476f7665726e6f72566f74696e6753696d706c653a20766f746520616c726561604482015266191e4818d85cdd60ca1b6064820152608401610694565b6001600160a01b03841660009081526003820160205260408120805460ff1916600117905560ff168360ff1614156118c857818160000160008282546118bd9190612413565b90915550610d319050565b60ff8316600114156118e857818160010160008282546118bd9190612413565b60ff83166002141561190857818160020160008282546118bd9190612413565b60405162461bcd60e51b815260206004820152603560248201527f476f7665726e6f72566f74696e6753696d706c653a20696e76616c69642076616044820152746c756520666f7220656e756d20566f74655479706560581b6064820152608401610694565b6060824710156119cf5760405162461bcd60e51b815260206004820152602660248201527f416464726573733a20696e73756666696369656e742062616c616e636520666f6044820152651c8818d85b1b60d21b6064820152608401610694565b6001600160a01b0385163b611a265760405162461bcd60e51b815260206004820152601d60248201527f416464726573733a2063616c6c20746f206e6f6e2d636f6e74726163740000006044820152606401610694565b600080866001600160a01b03168587604051611a4291906123cf565b60006040518083038185875af1925050503d8060008114611a7f576040519150601f19603f3d011682016040523d82523d6000602084013e611a84565b606091505b50915091506107df8282866113e4565b600060208284031215611aa657600080fd5b81356001600160e01b031981168114610d7e57600080fd5b60005b83811015611ad9578181015183820152602001611ac1565b83811115611ae8576000848401525b50505050565b60008151808452611b06816020860160208601611abe565b601f01601f19169290920160200192915050565b602081526000610d7e6020830184611aee565b634e487b7160e01b600052604160045260246000fd5b604051601f8201601f191681016001600160401b0381118282101715611b6b57611b6b611b2d565b604052919050565b60006001600160401b03821115611b8c57611b8c611b2d565b5060051b60200190565b80356001600160a01b0381168114611bad57600080fd5b919050565b600082601f830112611bc357600080fd5b81356020611bd8611bd383611b73565b611b43565b82815260059290921b84018101918181019086841115611bf757600080fd5b8286015b84811015611c1957611c0c81611b96565b8352918301918301611bfb565b509695505050505050565b600082601f830112611c3557600080fd5b81356020611c45611bd383611b73565b82815260059290921b84018101918181019086841115611c6457600080fd5b8286015b84811015611c195780358352918301918301611c68565b60006001600160401b03831115611c9857611c98611b2d565b611cab601f8401601f1916602001611b43565b9050828152838383011115611cbf57600080fd5b828260208301376000602084830101529392505050565b600082601f830112611ce757600080fd5b81356020611cf7611bd383611b73565b82815260059290921b84018101918181019086841115611d1657600080fd5b8286015b84811015611c195780356001600160401b03811115611d395760008081fd5b8701603f81018913611d4b5760008081fd5b611d5c898683013560408401611c7f565b845250918301918301611d1a565b60008060008060808587031215611d8057600080fd5b84356001600160401b0380821115611d9757600080fd5b611da388838901611bb2565b95506020870135915080821115611db957600080fd5b611dc588838901611c24565b94506040870135915080821115611ddb57600080fd5b50611de887828801611cd6565b949793965093946060013593505050565b600060208284031215611e0b57600080fd5b5035919050565b803560ff81168114611bad57600080fd5b600080600080600060a08688031215611e3b57600080fd5b85359450611e4b60208701611e12565b9350611e5960408701611e12565b94979396509394606081013594506080013592915050565b634e487b7160e01b600052602160045260246000fd5b6020810160088310611ea957634e487b7160e01b600052602160045260246000fd5b91905290565b60008060408385031215611ec257600080fd5b82359150611ed260208401611b96565b90509250929050565b60008060408385031215611eee57600080fd5b82359150611ed260208401611e12565b60008083601f840112611f1057600080fd5b5081356001600160401b03811115611f2757600080fd5b602083019150836020828501011115611f3f57600080fd5b9250929050565b60008060008060608587031215611f5c57600080fd5b84359350611f6c60208601611e12565b925060408501356001600160401b03811115611f8757600080fd5b611f9387828801611efe565b95989497509550505050565b60008060008060808587031215611fb557600080fd5b84356001600160401b0380821115611fcc57600080fd5b611fd888838901611bb2565b95506020870135915080821115611fee57600080fd5b611ffa88838901611c24565b9450604087013591508082111561201057600080fd5b61201c88838901611cd6565b9350606087013591508082111561203257600080fd5b508501601f8101871361204457600080fd5b61205387823560208401611c7f565b91505092959194509250565b6000806000806060858703121561207557600080fd5b61207e85611b96565b93506020850135925060408501356001600160401b03811115611f8757600080fd5b600080604083850312156120b357600080fd5b6120bc83611b96565b946020939093013593505050565b600181811c908216806120de57607f821691505b602082108114156120ff57634e487b7160e01b600052602260045260246000fd5b50919050565b634e487b7160e01b600052601160045260246000fd5b60008282101561212d5761212d612105565b500390565b60208082526021908201527f476f7665726e6f723a20696e76616c69642070726f706f73616c206c656e67746040820152600d60fb1b606082015260800190565b60006001600160401b0380831681851680830382111561219557612195612105565b01949350505050565b600081518084526020808501945080840160005b838110156121d75781516001600160a01b0316875295820195908201906001016121b2565b509495945050505050565b600081518084526020808501945080840160005b838110156121d7578151875295820195908201906001016121f6565b6000815180845260208085019450848260051b860182860160005b85811015612257578383038952612245838351611aee565b9885019892509084019060010161222d565b5090979650505050505050565b60006101208b8352602060018060a01b038c168185015281604085015261228d8285018c61219e565b915083820360608501526122a1828b6121e2565b915083820360808501528189518084528284019150828160051b850101838c0160005b838110156122f257601f198784030185526122e0838351611aee565b948601949250908501906001016122c4565b505086810360a0880152612306818c612212565b94505050505061232160c08401876001600160401b03169052565b6001600160401b03851660e08401528281036101008401526123438185611aee565b9c9b505050505050505050505050565b608081526000612366608083018761219e565b828103602084015261237881876121e2565b9050828103604084015261238c8186612212565b91505082606083015295945050505050565b634e487b7160e01b600052603260045260246000fd5b60006000198214156123c8576123c8612105565b5060010190565b600082516123e1818460208701611abe565b9190910192915050565b84815260ff8416602082015282604082015260806060820152600061097e6080830184611aee565b6000821982111561242657612426612105565b500190565b60006020828403121561243d57600080fd5b81516bffffffffffffffffffffffff81168114610d7e57600080fdfe476f7665726e6f723a2063616c6c20726576657274656420776974686f7574206d657373616765416464726573733a206c6f772d6c6576656c2063616c6c20776974682076616c7565206661696c6564a2646970667358221220b9380f1c7d61539238bb2e29189b0b62224d66b45e86ff3b83e255a279101d6064736f6c63430008090033",
  "linkReferences": {},
  "deployedLinkReferences": {}
}