{
  "_format": "hh-sol-artifact-1",
  "contractName": "ERC721EnumerableMock",
  "sourceName": "contracts/mocks/ERC721EnumerableMock.sol",
  "abi": [
    {
      "inputs": [
        {
          "internalType": "string",
          "name": "name",
          "type": "string"
        },
        {
          "internalType": "string",
          "name": "symbol",
          "type": "string"
        }
      ],
      "stateMutability": "nonpayable",
      "type": "constructor"
    },
    {
      "anonymous": false,
      "inputs": [
        {
          "indexed": true,
          "internalType": "address",
          "name": "owner",
          "type": "address"
        },
        {
          "indexed": true,
          "internalType": "address",
          "name": "approved",
          "type": "address"
        },
        {
          "indexed": true,
          "internalType": "uint256",
          "name": "tokenId",
          "type": "uint256"
        }
      ],
      "name": "Approval",
      "type": "event"
    },
    {
      "anonymous": false,
      "inputs": [
        {
          "indexed": true,
          "internalType": "address",
          "name": "owner",
          "type": "address"
        },
        {
          "indexed": true,
          "internalType": "address",
          "name": "operator",
          "type": "address"
        },
        {
          "indexed": false,
          "internalType": "bool",
          "name": "approved",
          "type": "bool"
        }
      ],
      "name": "ApprovalForAll",
      "type": "event"
    },
    {
      "anonymous": false,
      "inputs": [
        {
          "indexed": true,
          "internalType": "address",
          "name": "from",
          "type": "address"
        },
        {
          "indexed": true,
          "internalType": "address",
          "name": "to",
          "type": "address"
        },
        {
          "indexed": true,
          "internalType": "uint256",
          "name": "tokenId",
          "type": "uint256"
        }
      ],
      "name": "Transfer",
      "type": "event"
    },
    {
      "inputs": [
        {
          "internalType": "address",
          "name": "to",
          "type": "address"
        },
        {
          "internalType": "uint256",
          "name": "tokenId",
          "type": "uint256"
        }
      ],
      "name": "approve",
      "outputs": [],
      "stateMutability": "nonpayable",
      "type": "function"
    },
    {
      "inputs": [
        {
          "internalType": "address",
          "name": "owner",
          "type": "address"
        }
      ],
      "name": "balanceOf",
      "outputs": [
        {
          "internalType": "uint256",
          "name": "",
          "type": "uint256"
        }
      ],
      "stateMutability": "view",
      "type": "function"
    },
    {
      "inputs": [],
      "name": "baseURI",
      "outputs": [
        {
          "internalType": "string",
          "name": "",
          "type": "string"
        }
      ],
      "stateMutability": "view",
      "type": "function"
    },
    {
      "inputs": [
        {
          "internalType": "uint256",
          "name": "tokenId",
          "type": "uint256"
        }
      ],
      "name": "burn",
      "outputs": [],
      "stateMutability": "nonpayable",
      "type": "function"
    },
    {
      "inputs": [
        {
          "internalType": "uint256",
          "name": "tokenId",
          "type": "uint256"
        }
      ],
      "name": "exists",
      "outputs": [
        {
          "internalType": "bool",
          "name": "",
          "type": "bool"
        }
      ],
      "stateMutability": "view",
      "type": "function"
    },
    {
      "inputs": [
        {
          "internalType": "uint256",
          "name": "tokenId",
          "type": "uint256"
        }
      ],
      "name": "getApproved",
      "outputs": [
        {
          "internalType": "address",
          "name": "",
          "type": "address"
        }
      ],
      "stateMutability": "view",
      "type": "function"
    },
    {
      "inputs": [
        {
          "internalType": "address",
          "name": "owner",
          "type": "address"
        },
        {
          "internalType": "address",
          "name": "operator",
          "type": "address"
        }
      ],
      "name": "isApprovedForAll",
      "outputs": [
        {
          "internalType": "bool",
          "name": "",
          "type": "bool"
        }
      ],
      "stateMutability": "view",
      "type": "function"
    },
    {
      "inputs": [
        {
          "internalType": "address",
          "name": "to",
          "type": "address"
        },
        {
          "internalType": "uint256",
          "name": "tokenId",
          "type": "uint256"
        }
      ],
      "name": "mint",
      "outputs": [],
      "stateMutability": "nonpayable",
      "type": "function"
    },
    {
      "inputs": [],
      "name": "name",
      "outputs": [
        {
          "internalType": "string",
          "name": "",
          "type": "string"
        }
      ],
      "stateMutability": "view",
      "type": "function"
    },
    {
      "inputs": [
        {
          "internalType": "uint256",
          "name": "tokenId",
          "type": "uint256"
        }
      ],
      "name": "ownerOf",
      "outputs": [
        {
          "internalType": "address",
          "name": "",
          "type": "address"
        }
      ],
      "stateMutability": "view",
      "type": "function"
    },
    {
      "inputs": [
        {
          "internalType": "address",
          "name": "to",
          "type": "address"
        },
        {
          "internalType": "uint256",
          "name": "tokenId",
          "type": "uint256"
        },
        {
          "internalType": "bytes",
          "name": "_data",
          "type": "bytes"
        }
      ],
      "name": "safeMint",
      "outputs": [],
      "stateMutability": "nonpayable",
      "type": "function"
    },
    {
      "inputs": [
        {
          "internalType": "address",
          "name": "to",
          "type": "address"
        },
        {
          "internalType": "uint256",
          "name": "tokenId",
          "type": "uint256"
        }
      ],
      "name": "safeMint",
      "outputs": [],
      "stateMutability": "nonpayable",
      "type": "function"
    },
    {
      "inputs": [
        {
          "internalType": "address",
          "name": "from",
          "type": "address"
        },
        {
          "internalType": "address",
          "name": "to",
          "type": "address"
        },
        {
          "internalType": "uint256",
          "name": "tokenId",
          "type": "uint256"
        }
      ],
      "name": "safeTransferFrom",
      "outputs": [],
      "stateMutability": "nonpayable",
      "type": "function"
    },
    {
      "inputs": [
        {
          "internalType": "address",
          "name": "from",
          "type": "address"
        },
        {
          "internalType": "address",
          "name": "to",
          "type": "address"
        },
        {
          "internalType": "uint256",
          "name": "tokenId",
          "type": "uint256"
        },
        {
          "internalType": "bytes",
          "name": "_data",
          "type": "bytes"
        }
      ],
      "name": "safeTransferFrom",
      "outputs": [],
      "stateMutability": "nonpayable",
      "type": "function"
    },
    {
      "inputs": [
        {
          "internalType": "address",
          "name": "operator",
          "type": "address"
        },
        {
          "internalType": "bool",
          "name": "approved",
          "type": "bool"
        }
      ],
      "name": "setApprovalForAll",
      "outputs": [],
      "stateMutability": "nonpayable",
      "type": "function"
    },
    {
      "inputs": [
        {
          "internalType": "string",
          "name": "newBaseTokenURI",
          "type": "string"
        }
      ],
      "name": "setBaseURI",
      "outputs": [],
      "stateMutability": "nonpayable",
      "type": "function"
    },
    {
      "inputs": [
        {
          "internalType": "bytes4",
          "name": "interfaceId",
          "type": "bytes4"
        }
      ],
      "name": "supportsInterface",
      "outputs": [
        {
          "internalType": "bool",
          "name": "",
          "type": "bool"
        }
      ],
      "stateMutability": "view",
      "type": "function"
    },
    {
      "inputs": [],
      "name": "symbol",
      "outputs": [
        {
          "internalType": "string",
          "name": "",
          "type": "string"
        }
      ],
      "stateMutability": "view",
      "type": "function"
    },
    {
      "inputs": [
        {
          "internalType": "uint256",
          "name": "index",
          "type": "uint256"
        }
      ],
      "name": "tokenByIndex",
      "outputs": [
        {
          "internalType": "uint256",
          "name": "",
          "type": "uint256"
        }
      ],
      "stateMutability": "view",
      "type": "function"
    },
    {
      "inputs": [
        {
          "internalType": "address",
          "name": "owner",
          "type": "address"
        },
        {
          "internalType": "uint256",
          "name": "index",
          "type": "uint256"
        }
      ],
      "name": "tokenOfOwnerByIndex",
      "outputs": [
        {
          "internalType": "uint256",
          "name": "",
          "type": "uint256"
        }
      ],
      "stateMutability": "view",
      "type": "function"
    },
    {
      "inputs": [
        {
          "internalType": "uint256",
          "name": "tokenId",
          "type": "uint256"
        }
      ],
      "name": "tokenURI",
      "outputs": [
        {
          "internalType": "string",
          "name": "",
          "type": "string"
        }
      ],
      "stateMutability": "view",
      "type": "function"
    },
    {
      "inputs": [],
      "name": "totalSupply",
      "outputs": [
        {
          "internalType": "uint256",
          "name": "",
          "type": "uint256"
        }
      ],
      "stateMutability": "view",
      "type": "function"
    },
    {
      "inputs": [
        {
          "internalType": "address",
          "name": "from",
          "type": "address"
        },
        {
          "internalType": "address",
          "name": "to",
          "type": "address"
        },
        {
          "internalType": "uint256",
          "name": "tokenId",
          "type": "uint256"
        }
      ],
      "name": "transferFrom",
      "outputs": [],
      "stateMutability": "nonpayable",
      "type": "function"
    }
  ],
  "bytecode": "0x60806040523480156200001157600080fd5b5060405162001df138038062001df18339810160408190526200003491620001e1565b8151829082906200004d9060009060208501906200006e565b508051620000639060019060208401906200006e565b505050505062000288565b8280546200007c906200024b565b90600052602060002090601f016020900481019282620000a05760008555620000eb565b82601f10620000bb57805160ff1916838001178555620000eb565b82800160010185558215620000eb579182015b82811115620000eb578251825591602001919060010190620000ce565b50620000f9929150620000fd565b5090565b5b80821115620000f95760008155600101620000fe565b634e487b7160e01b600052604160045260246000fd5b600082601f8301126200013c57600080fd5b81516001600160401b038082111562000159576200015962000114565b604051601f8301601f19908116603f0116810190828211818310171562000184576200018462000114565b81604052838152602092508683858801011115620001a157600080fd5b600091505b83821015620001c55785820183015181830184015290820190620001a6565b83821115620001d75760008385830101525b9695505050505050565b60008060408385031215620001f557600080fd5b82516001600160401b03808211156200020d57600080fd5b6200021b868387016200012a565b935060208501519150808211156200023257600080fd5b5062000241858286016200012a565b9150509250929050565b600181811c908216806200026057607f821691505b602082108114156200028257634e487b7160e01b600052602260045260246000fd5b50919050565b611b5980620002986000396000f3fe608060405234801561001057600080fd5b506004361061014d5760003560e01c80634f6ccce7116100c357806395d89b411161007c57806395d89b41146102ba578063a1448194146102c2578063a22cb465146102d5578063b88d4fde146102e8578063c87b56dd146102fb578063e985e9c51461030e57600080fd5b80634f6ccce71461025357806355f804b3146102665780636352211e146102795780636c0360eb1461028c57806370a08231146102945780638832e6e3146102a757600080fd5b806323b872dd1161011557806323b872dd146101e15780632f745c59146101f457806340c10f191461020757806342842e0e1461021a57806342966c681461022d5780634f558e791461024057600080fd5b806301ffc9a71461015257806306fdde031461017a578063081812fc1461018f578063095ea7b3146101ba57806318160ddd146101cf575b600080fd5b610165610160366004611571565b61034a565b60405190151581526020015b60405180910390f35b610182610375565b60405161017191906115e6565b6101a261019d3660046115f9565b610407565b6040516001600160a01b039091168152602001610171565b6101cd6101c836600461162e565b6104a1565b005b6008545b604051908152602001610171565b6101cd6101ef366004611658565b6105b7565b6101d361020236600461162e565b6105e8565b6101cd61021536600461162e565b61067e565b6101cd610228366004611658565b61068c565b6101cd61023b3660046115f9565b6106a7565b61016561024e3660046115f9565b6106b3565b6101d36102613660046115f9565b6106d2565b6101cd610274366004611694565b610765565b6101a26102873660046115f9565b610771565b6101826107e8565b6101d36102a2366004611706565b6107f7565b6101cd6102b53660046117c4565b61087e565b610182610889565b6101cd6102d036600461162e565b610898565b6101cd6102e336600461181b565b6108a2565b6101cd6102f6366004611857565b6108ad565b6101826103093660046115f9565b6108e5565b61016561031c3660046118bf565b6001600160a01b03918216600090815260056020908152604080832093909416825291909152205460ff1690565b60006001600160e01b0319821663780e9d6360e01b148061036f575061036f826109c0565b92915050565b606060008054610384906118f2565b80601f01602080910402602001604051908101604052809291908181526020018280546103b0906118f2565b80156103fd5780601f106103d2576101008083540402835291602001916103fd565b820191906000526020600020905b8154815290600101906020018083116103e057829003601f168201915b5050505050905090565b6000818152600260205260408120546001600160a01b03166104855760405162461bcd60e51b815260206004820152602c60248201527f4552433732313a20617070726f76656420717565727920666f72206e6f6e657860448201526b34b9ba32b73a103a37b5b2b760a11b60648201526084015b60405180910390fd5b506000908152600460205260409020546001600160a01b031690565b60006104ac82610771565b9050806001600160a01b0316836001600160a01b0316141561051a5760405162461bcd60e51b815260206004820152602160248201527f4552433732313a20617070726f76616c20746f2063757272656e74206f776e656044820152603960f91b606482015260840161047c565b336001600160a01b03821614806105365750610536813361031c565b6105a85760405162461bcd60e51b815260206004820152603860248201527f4552433732313a20617070726f76652063616c6c6572206973206e6f74206f7760448201527f6e6572206e6f7220617070726f76656420666f7220616c6c0000000000000000606482015260840161047c565b6105b28383610a10565b505050565b6105c13382610a7e565b6105dd5760405162461bcd60e51b815260040161047c9061192d565b6105b2838383610b75565b60006105f3836107f7565b82106106555760405162461bcd60e51b815260206004820152602b60248201527f455243373231456e756d657261626c653a206f776e657220696e646578206f7560448201526a74206f6620626f756e647360a81b606482015260840161047c565b506001600160a01b03919091166000908152600660209081526040808320938352929052205490565b6106888282610d1c565b5050565b6105b2838383604051806020016040528060008152506108ad565b6106b081610e6a565b50565b6000818152600260205260408120546001600160a01b0316151561036f565b60006106dd60085490565b82106107405760405162461bcd60e51b815260206004820152602c60248201527f455243373231456e756d657261626c653a20676c6f62616c20696e646578206f60448201526b7574206f6620626f756e647360a01b606482015260840161047c565b600882815481106107535761075361197e565b90600052602060002001549050919050565b6105b2600a83836114c2565b6000818152600260205260408120546001600160a01b03168061036f5760405162461bcd60e51b815260206004820152602960248201527f4552433732313a206f776e657220717565727920666f72206e6f6e657869737460448201526832b73a103a37b5b2b760b91b606482015260840161047c565b60606107f2610f11565b905090565b60006001600160a01b0382166108625760405162461bcd60e51b815260206004820152602a60248201527f4552433732313a2062616c616e636520717565727920666f7220746865207a65604482015269726f206164647265737360b01b606482015260840161047c565b506001600160a01b031660009081526003602052604090205490565b6105b2838383610f20565b606060018054610384906118f2565b6106888282610f53565b610688338383610f6d565b6108b73383610a7e565b6108d35760405162461bcd60e51b815260040161047c9061192d565b6108df8484848461103c565b50505050565b6000818152600260205260409020546060906001600160a01b03166109645760405162461bcd60e51b815260206004820152602f60248201527f4552433732314d657461646174613a2055524920717565727920666f72206e6f60448201526e3732bc34b9ba32b73a103a37b5b2b760891b606482015260840161047c565b600061096e610f11565b9050600081511161098e57604051806020016040528060008152506109b9565b806109988461106f565b6040516020016109a9929190611994565b6040516020818303038152906040525b9392505050565b60006001600160e01b031982166380ac58cd60e01b14806109f157506001600160e01b03198216635b5e139f60e01b145b8061036f57506301ffc9a760e01b6001600160e01b031983161461036f565b600081815260046020526040902080546001600160a01b0319166001600160a01b0384169081179091558190610a4582610771565b6001600160a01b03167f8c5be1e5ebec7d5bd14f71427d1e84f3dd0314c0f7b2291e5b200ac8c7c3b92560405160405180910390a45050565b6000818152600260205260408120546001600160a01b0316610af75760405162461bcd60e51b815260206004820152602c60248201527f4552433732313a206f70657261746f7220717565727920666f72206e6f6e657860448201526b34b9ba32b73a103a37b5b2b760a11b606482015260840161047c565b6000610b0283610771565b9050806001600160a01b0316846001600160a01b03161480610b3d5750836001600160a01b0316610b3284610407565b6001600160a01b0316145b80610b6d57506001600160a01b0380821660009081526005602090815260408083209388168352929052205460ff165b949350505050565b826001600160a01b0316610b8882610771565b6001600160a01b031614610bec5760405162461bcd60e51b815260206004820152602560248201527f4552433732313a207472616e736665722066726f6d20696e636f72726563742060448201526437bbb732b960d91b606482015260840161047c565b6001600160a01b038216610c4e5760405162461bcd60e51b8152602060048201526024808201527f4552433732313a207472616e7366657220746f20746865207a65726f206164646044820152637265737360e01b606482015260840161047c565b610c5983838361116d565b610c64600082610a10565b6001600160a01b0383166000908152600360205260408120805460019290610c8d9084906119d9565b90915550506001600160a01b0382166000908152600360205260408120805460019290610cbb9084906119f0565b909155505060008181526002602052604080822080546001600160a01b0319166001600160a01b0386811691821790925591518493918716917fddf252ad1be2c89b69c2b068fc378daa952ba7f163c4a11628f55a4df523b3ef91a4505050565b6001600160a01b038216610d725760405162461bcd60e51b815260206004820181905260248201527f4552433732313a206d696e7420746f20746865207a65726f2061646472657373604482015260640161047c565b6000818152600260205260409020546001600160a01b031615610dd75760405162461bcd60e51b815260206004820152601c60248201527f4552433732313a20746f6b656e20616c7265616479206d696e74656400000000604482015260640161047c565b610de36000838361116d565b6001600160a01b0382166000908152600360205260408120805460019290610e0c9084906119f0565b909155505060008181526002602052604080822080546001600160a01b0319166001600160a01b03861690811790915590518392907fddf252ad1be2c89b69c2b068fc378daa952ba7f163c4a11628f55a4df523b3ef908290a45050565b6000610e7582610771565b9050610e838160008461116d565b610e8e600083610a10565b6001600160a01b0381166000908152600360205260408120805460019290610eb79084906119d9565b909155505060008281526002602052604080822080546001600160a01b0319169055518391906001600160a01b038416907fddf252ad1be2c89b69c2b068fc378daa952ba7f163c4a11628f55a4df523b3ef908390a45050565b6060600a8054610384906118f2565b610f2a8383610d1c565b610f376000848484611225565b6105b25760405162461bcd60e51b815260040161047c90611a08565b610688828260405180602001604052806000815250610f20565b816001600160a01b0316836001600160a01b03161415610fcf5760405162461bcd60e51b815260206004820152601960248201527f4552433732313a20617070726f766520746f2063616c6c657200000000000000604482015260640161047c565b6001600160a01b03838116600081815260056020908152604080832094871680845294825291829020805460ff191686151590811790915591519182527f17307eab39ab6107e8899845ad3d59bd9653f200f220920489ca2b5937696c31910160405180910390a3505050565b611047848484610b75565b61105384848484611225565b6108df5760405162461bcd60e51b815260040161047c90611a08565b6060816110935750506040805180820190915260018152600360fc1b602082015290565b8160005b81156110bd57806110a781611a5a565b91506110b69050600a83611a8b565b9150611097565b60008167ffffffffffffffff8111156110d8576110d8611721565b6040519080825280601f01601f191660200182016040528015611102576020820181803683370190505b5090505b8415610b6d576111176001836119d9565b9150611124600a86611a9f565b61112f9060306119f0565b60f81b8183815181106111445761114461197e565b60200101906001600160f81b031916908160001a905350611166600a86611a8b565b9450611106565b6001600160a01b0383166111c8576111c381600880546000838152600960205260408120829055600182018355919091527ff3f7a9fe364faab93b216da50a3214154f22a0a2b415b23a84c8169e8b636ee30155565b6111eb565b816001600160a01b0316836001600160a01b0316146111eb576111eb8382611332565b6001600160a01b038216611202576105b2816113cf565b826001600160a01b0316826001600160a01b0316146105b2576105b2828261147e565b60006001600160a01b0384163b1561132757604051630a85bd0160e11b81526001600160a01b0385169063150b7a0290611269903390899088908890600401611ab3565b602060405180830381600087803b15801561128357600080fd5b505af19250505080156112b3575060408051601f3d908101601f191682019092526112b091810190611af0565b60015b61130d573d8080156112e1576040519150601f19603f3d011682016040523d82523d6000602084013e6112e6565b606091505b5080516113055760405162461bcd60e51b815260040161047c90611a08565b805181602001fd5b6001600160e01b031916630a85bd0160e11b149050610b6d565b506001949350505050565b6000600161133f846107f7565b61134991906119d9565b60008381526007602052604090205490915080821461139c576001600160a01b03841660009081526006602090815260408083208584528252808320548484528184208190558352600790915290208190555b5060009182526007602090815260408084208490556001600160a01b039094168352600681528383209183525290812055565b6008546000906113e1906001906119d9565b600083815260096020526040812054600880549394509092849081106114095761140961197e565b90600052602060002001549050806008838154811061142a5761142a61197e565b600091825260208083209091019290925582815260099091526040808220849055858252812055600880548061146257611462611b0d565b6001900381819060005260206000200160009055905550505050565b6000611489836107f7565b6001600160a01b039093166000908152600660209081526040808320868452825280832085905593825260079052919091209190915550565b8280546114ce906118f2565b90600052602060002090601f0160209004810192826114f05760008555611536565b82601f106115095782800160ff19823516178555611536565b82800160010185558215611536579182015b8281111561153657823582559160200191906001019061151b565b50611542929150611546565b5090565b5b808211156115425760008155600101611547565b6001600160e01b0319811681146106b057600080fd5b60006020828403121561158357600080fd5b81356109b98161155b565b60005b838110156115a9578181015183820152602001611591565b838111156108df5750506000910152565b600081518084526115d281602086016020860161158e565b601f01601f19169290920160200192915050565b6020815260006109b960208301846115ba565b60006020828403121561160b57600080fd5b5035919050565b80356001600160a01b038116811461162957600080fd5b919050565b6000806040838503121561164157600080fd5b61164a83611612565b946020939093013593505050565b60008060006060848603121561166d57600080fd5b61167684611612565b925061168460208501611612565b9150604084013590509250925092565b600080602083850312156116a757600080fd5b823567ffffffffffffffff808211156116bf57600080fd5b818501915085601f8301126116d357600080fd5b8135818111156116e257600080fd5b8660208285010111156116f457600080fd5b60209290920196919550909350505050565b60006020828403121561171857600080fd5b6109b982611612565b634e487b7160e01b600052604160045260246000fd5b600082601f83011261174857600080fd5b813567ffffffffffffffff8082111561176357611763611721565b604051601f8301601f19908116603f0116810190828211818310171561178b5761178b611721565b816040528381528660208588010111156117a457600080fd5b836020870160208301376000602085830101528094505050505092915050565b6000806000606084860312156117d957600080fd5b6117e284611612565b925060208401359150604084013567ffffffffffffffff81111561180557600080fd5b61181186828701611737565b9150509250925092565b6000806040838503121561182e57600080fd5b61183783611612565b91506020830135801515811461184c57600080fd5b809150509250929050565b6000806000806080858703121561186d57600080fd5b61187685611612565b935061188460208601611612565b925060408501359150606085013567ffffffffffffffff8111156118a757600080fd5b6118b387828801611737565b91505092959194509250565b600080604083850312156118d257600080fd5b6118db83611612565b91506118e960208401611612565b90509250929050565b600181811c9082168061190657607f821691505b6020821081141561192757634e487b7160e01b600052602260045260246000fd5b50919050565b60208082526031908201527f4552433732313a207472616e736665722063616c6c6572206973206e6f74206f6040820152701ddb995c881b9bdc88185c1c1c9bdd9959607a1b606082015260800190565b634e487b7160e01b600052603260045260246000fd5b600083516119a681846020880161158e565b8351908301906119ba81836020880161158e565b01949350505050565b634e487b7160e01b600052601160045260246000fd5b6000828210156119eb576119eb6119c3565b500390565b60008219821115611a0357611a036119c3565b500190565b60208082526032908201527f4552433732313a207472616e7366657220746f206e6f6e20455243373231526560408201527131b2b4bb32b91034b6b83632b6b2b73a32b960711b606082015260800190565b6000600019821415611a6e57611a6e6119c3565b5060010190565b634e487b7160e01b600052601260045260246000fd5b600082611a9a57611a9a611a75565b500490565b600082611aae57611aae611a75565b500690565b6001600160a01b0385811682528416602082015260408101839052608060608201819052600090611ae6908301846115ba565b9695505050505050565b600060208284031215611b0257600080fd5b81516109b98161155b565b634e487b7160e01b600052603160045260246000fdfea2646970667358221220604d2e9c0975c12c441cfd1305d1bd21e7bc764d0855c350ac4356fee2722c5364736f6c63430008090033",
  "linkReferences": {},
  "deployedLinkReferences": {}
}