{
  "_format": "hh-sol-artifact-1",
  "contractName": "ERC2771ContextMock",
  "sourceName": "contracts/mocks/ERC2771ContextMock.sol",
  "abi": [
    {
      "inputs": [
        {
          "internalType": "address",
          "name": "trustedForwarder",
          "type": "address"
        }
      ],
      "stateMutability": "nonpayable",
      "type": "constructor"
    },
    {
      "anonymous": false,
      "inputs": [
        {
          "indexed": false,
          "internalType": "bytes",
          "name": "data",
          "type": "bytes"
        },
        {
          "indexed": false,
          "internalType": "uint256",
          "name": "integerValue",
          "type": "uint256"
        },
        {
          "indexed": false,
          "internalType": "string",
          "name": "stringValue",
          "type": "string"
        }
      ],
      "name": "Data",
      "type": "event"
    },
    {
      "anonymous": false,
      "inputs": [
        {
          "indexed": false,
          "internalType": "address",
          "name": "sender",
          "type": "address"
        }
      ],
      "name": "Sender",
      "type": "event"
    },
    {
      "inputs": [
        {
          "internalType": "address",
          "name": "forwarder",
          "type": "address"
        }
      ],
      "name": "isTrustedForwarder",
      "outputs": [
        {
          "internalType": "bool",
          "name": "",
          "type": "bool"
        }
      ],
      "stateMutability": "view",
      "type": "function"
    },
    {
      "inputs": [
        {
          "internalType": "uint256",
          "name": "integerValue",
          "type": "uint256"
        },
        {
          "internalType": "string",
          "name": "stringValue",
          "type": "string"
        }
      ],
      "name": "msgData",
      "outputs": [],
      "stateMutability": "nonpayable",
      "type": "function"
    },
    {
      "inputs": [],
      "name": "msgSender",
      "outputs": [],
      "stateMutability": "nonpayable",
      "type": "function"
    }
  ],
  "bytecode": "0x60a060405234801561001057600080fd5b506040516104f63803806104f683398101604081905261002f916100d8565b6001600160a01b0381166080527fd6558c3ed910d959271054471fd1c326679d9fece99c5091b00ed89627cf2bfc610065610086565b6040516001600160a01b03909116815260200160405180910390a150610108565b600061009a61009f60201b6101491760201c565b905090565b6080516000906001600160a01b03163314156100c2575060131936013560601c90565b61009a6100d460201b6101701760201c565b3390565b6000602082840312156100ea57600080fd5b81516001600160a01b038116811461010157600080fd5b9392505050565b6080516103d4610122600039600060d301526103d46000f3fe608060405234801561001057600080fd5b50600436106100415760003560e01c8063376bf26214610046578063572b6c051461005b578063d737d0c714610082575b600080fd5b6100596100543660046101dc565b61008a565b005b61006e610069366004610297565b6100d1565b604051901515815260200160405180910390f35b610059610103565b7faf235354a0a47c91ee171961326335cb2d1a8e55b8a89859b0e61eb049e50ea06100b3610174565b84846040516100c594939291906102c7565b60405180910390a15050565b7f00000000000000000000000000000000000000000000000000000000000000006001600160a01b0390811691161490565b7fd6558c3ed910d959271054471fd1c326679d9fece99c5091b00ed89627cf2bfc61012c610187565b6040516001600160a01b03909116815260200160405180910390a1565b6000610154336100d1565b15610166575060131936013560601c90565b503390565b905090565b3390565b36600061017f610191565b915091509091565b600061016b610149565b36600061019d336100d1565b156101be57600080366101b160148261034f565b9261017f93929190610374565b60003661017f565b634e487b7160e01b600052604160045260246000fd5b600080604083850312156101ef57600080fd5b82359150602083013567ffffffffffffffff8082111561020e57600080fd5b818501915085601f83011261022257600080fd5b813581811115610234576102346101c6565b604051601f8201601f19908116603f0116810190838211818310171561025c5761025c6101c6565b8160405282815288602084870101111561027557600080fd5b8260208601602083013760006020848301015280955050505050509250929050565b6000602082840312156102a957600080fd5b81356001600160a01b03811681146102c057600080fd5b9392505050565b60608152836060820152838560808301376000608085830101526000601f1980601f8701168301602086818601526080858303016040860152855180608084015260005b818110156103275787810183015184820160a00152820161030b565b8181111561033957600060a083860101525b50601f019092160160a001979650505050505050565b60008282101561036f57634e487b7160e01b600052601160045260246000fd5b500390565b6000808585111561038457600080fd5b8386111561039157600080fd5b505082019391909203915056fea264697066735822122068495b64046d440a079734521f45551e8b2d6925dcb07c5ea9e833b60d90ad0764736f6c63430008090033",
  "linkReferences": {},
  "deployedLinkReferences": {}
}