{
  "_format": "hh-sol-artifact-1",
  "contractName": "ConstructorInitializableMock",
  "sourceName": "contracts/mocks/InitializableMock.sol",
  "abi": [
    {
      "inputs": [],
      "stateMutability": "nonpayable",
      "type": "constructor"
    },
    {
      "inputs": [],
      "name": "initialize",
      "outputs": [],
      "stateMutability": "nonpayable",
      "type": "function"
    },
    {
      "inputs": [],
      "name": "initializeOnlyInitializing",
      "outputs": [],
      "stateMutability": "nonpayable",
      "type": "function"
    },
    {
      "inputs": [],
      "name": "initializerRan",
      "outputs": [
        {
          "internalType": "bool",
          "name": "",
          "type": "bool"
        }
      ],
      "stateMutability": "view",
      "type": "function"
    },
    {
      "inputs": [],
      "name": "onlyInitializingRan",
      "outputs": [
        {
          "internalType": "bool",
          "name": "",
          "type": "bool"
        }
      ],
      "stateMutability": "view",
      "type": "function"
    }
  ],
  "bytecode": "0x608060405234801561001057600080fd5b50600054610100900460ff1661002c5760005460ff1615610034565b6100346100d4565b61008a5760405162461bcd60e51b815260206004820152602e602482015260008051602061047b83398151915260448201526d191e481a5b9a5d1a585b1a5e995960921b60648201526084015b60405180910390fd5b600054610100900460ff161580156100ac576000805461ffff19166101011790555b6100b46100ef565b6100bc6101ab565b80156100ce576000805461ff00191690555b5061023a565b60006100e93061022b60201b6101ed1760201c565b15905090565b600054610100900460ff1661010a5760005460ff1615610112565b6101126100d4565b6101635760405162461bcd60e51b815260206004820152602e602482015260008051602061047b83398151915260448201526d191e481a5b9a5d1a585b1a5e995960921b6064820152608401610081565b600054610100900460ff16158015610185576000805461ffff19166101011790555b6000805462ff000019166201000017905580156101a8576000805461ff00191690555b50565b600054610100900460ff166102165760405162461bcd60e51b815260206004820152602b60248201527f496e697469616c697a61626c653a20636f6e7472616374206973206e6f74206960448201526a6e697469616c697a696e6760a81b6064820152608401610081565b6000805463ff00000019166301000000179055565b6001600160a01b03163b151590565b610232806102496000396000f3fe608060405234801561001057600080fd5b506004361061004c5760003560e01c806310065ed2146100515780637cffe97a1461005b5780638129fc1c14610083578063c3b8ef2a1461008b575b600080fd5b61005961009e565b005b60005461006f906301000000900460ff1681565b604051901515815260200160405180910390f35b610059610123565b60005461006f9062010000900460ff1681565b600054610100900460ff1661010e5760405162461bcd60e51b815260206004820152602b60248201527f496e697469616c697a61626c653a20636f6e7472616374206973206e6f74206960448201526a6e697469616c697a696e6760a81b60648201526084015b60405180910390fd5b6000805463ff00000019166301000000179055565b600054610100900460ff1661013e5760005460ff1615610142565b303b155b6101a55760405162461bcd60e51b815260206004820152602e60248201527f496e697469616c697a61626c653a20636f6e747261637420697320616c72656160448201526d191e481a5b9a5d1a585b1a5e995960921b6064820152608401610105565b600054610100900460ff161580156101c7576000805461ffff19166101011790555b6000805462ff000019166201000017905580156101ea576000805461ff00191690555b50565b6001600160a01b03163b15159056fea26469706673582212201896f18f38e82d157f0f50231f3d5c0a3ced6d42a64049beb1029b4349387a6364736f6c63430008090033496e697469616c697a61626c653a20636f6e747261637420697320616c726561",
  "linkReferences": {},
  "deployedLinkReferences": {}
}