{
  "_format": "hh-sol-artifact-1",
  "contractName": "InitializableMock",
  "sourceName": "contracts/mocks/InitializableMock.sol",
  "abi": [
    {
      "inputs": [],
      "name": "fail",
      "outputs": [],
      "stateMutability": "pure",
      "type": "function"
    },
    {
      "inputs": [],
      "name": "initialize",
      "outputs": [],
      "stateMutability": "nonpayable",
      "type": "function"
    },
    {
      "inputs": [],
      "name": "initializeOnlyInitializing",
      "outputs": [],
      "stateMutability": "nonpayable",
      "type": "function"
    },
    {
      "inputs": [
        {
          "internalType": "uint256",
          "name": "_x",
          "type": "uint256"
        }
      ],
      "name": "initializeWithX",
      "outputs": [],
      "stateMutability": "payable",
      "type": "function"
    },
    {
      "inputs": [],
      "name": "initializerNested",
      "outputs": [],
      "stateMutability": "nonpayable",
      "type": "function"
    },
    {
      "inputs": [],
      "name": "initializerRan",
      "outputs": [
        {
          "internalType": "bool",
          "name": "",
          "type": "bool"
        }
      ],
      "stateMutability": "view",
      "type": "function"
    },
    {
      "inputs": [
        {
          "internalType": "uint256",
          "name": "_x",
          "type": "uint256"
        }
      ],
      "name": "nonInitializable",
      "outputs": [],
      "stateMutability": "payable",
      "type": "function"
    },
    {
      "inputs": [],
      "name": "onlyInitializingNested",
      "outputs": [],
      "stateMutability": "nonpayable",
      "type": "function"
    },
    {
      "inputs": [],
      "name": "onlyInitializingRan",
      "outputs": [
        {
          "internalType": "bool",
          "name": "",
          "type": "bool"
        }
      ],
      "stateMutability": "view",
      "type": "function"
    },
    {
      "inputs": [],
      "name": "x",
      "outputs": [
        {
          "internalType": "uint256",
          "name": "",
          "type": "uint256"
        }
      ],
      "stateMutability": "view",
      "type": "function"
    }
  ],
  "bytecode": "0x608060405234801561001057600080fd5b506104e3806100206000396000f3fe6080604052600436106100905760003560e01c80637cffe97a116100595780637cffe97a146101125780638129fc1c14610143578063a9cc471814610158578063c3b8ef2a1461016d578063e955c9ec1461018d57600080fd5b806218eaa8146100955780630c55699c146100aa57806310065ed2146100d357806368449d1b146100e857806376268ae8146100fd575b600080fd5b6100a86100a3366004610446565b6101a0565b005b3480156100b657600080fd5b506100c060015481565b6040519081526020015b60405180910390f35b3480156100df57600080fd5b506100a8610221565b3480156100f457600080fd5b506100a86102a1565b34801561010957600080fd5b506100a861031b565b34801561011e57600080fd5b50600054610133906301000000900460ff1681565b60405190151581526020016100ca565b34801561014f57600080fd5b506100a861037c565b34801561016457600080fd5b506100a86103fe565b34801561017957600080fd5b506000546101339062010000900460ff1681565b6100a861019b366004610446565b600155565b600054610100900460ff166101bb5760005460ff16156101bf565b303b155b6101e45760405162461bcd60e51b81526004016101db9061045f565b60405180910390fd5b600054610100900460ff16158015610206576000805461ffff19166101011790555b6001829055801561021d576000805461ff00191690555b5050565b600054610100900460ff1661028c5760405162461bcd60e51b815260206004820152602b60248201527f496e697469616c697a61626c653a20636f6e7472616374206973206e6f74206960448201526a6e697469616c697a696e6760a81b60648201526084016101db565b6000805463ff00000019166301000000179055565b600054610100900460ff166102bc5760005460ff16156102c0565b303b155b6102dc5760405162461bcd60e51b81526004016101db9061045f565b600054610100900460ff161580156102fe576000805461ffff19166101011790555b610306610221565b8015610318576000805461ff00191690555b50565b600054610100900460ff166103365760005460ff161561033a565b303b155b6103565760405162461bcd60e51b81526004016101db9061045f565b600054610100900460ff16158015610378576000805461ffff19166101011790555b6103065b600054610100900460ff166103975760005460ff161561039b565b303b155b6103b75760405162461bcd60e51b81526004016101db9061045f565b600054610100900460ff161580156103d9576000805461ffff19166101011790555b6000805462ff00001916620100001790558015610318576000805461ff001916905550565b60405162461bcd60e51b815260206004820181905260248201527f496e697469616c697a61626c654d6f636b20666f72636564206661696c75726560448201526064016101db565b60006020828403121561045857600080fd5b5035919050565b6020808252602e908201527f496e697469616c697a61626c653a20636f6e747261637420697320616c72656160408201526d191e481a5b9a5d1a585b1a5e995960921b60608201526080019056fea2646970667358221220258843cd3172e3d44f57c164b76c3dd3fad787d9e325777c00c4b0c37ee3216364736f6c63430008090033",
  "linkReferences": {},
  "deployedLinkReferences": {}
}