{
  "_format": "hh-sol-artifact-1",
  "contractName": "MyGovernor1",
  "sourceName": "contracts/mocks/wizard/MyGovernor1.sol",
  "abi": [
    {
      "inputs": [
        {
          "internalType": "contract IVotes",
          "name": "_token",
          "type": "address"
        },
        {
          "internalType": "contract TimelockController",
          "name": "_timelock",
          "type": "address"
        }
      ],
      "stateMutability": "nonpayable",
      "type": "constructor"
    },
    {
      "inputs": [],
      "name": "Empty",
      "type": "error"
    },
    {
      "anonymous": false,
      "inputs": [
        {
          "indexed": false,
          "internalType": "uint256",
          "name": "proposalId",
          "type": "uint256"
        }
      ],
      "name": "ProposalCanceled",
      "type": "event"
    },
    {
      "anonymous": false,
      "inputs": [
        {
          "indexed": false,
          "internalType": "uint256",
          "name": "proposalId",
          "type": "uint256"
        },
        {
          "indexed": false,
          "internalType": "address",
          "name": "proposer",
          "type": "address"
        },
        {
          "indexed": false,
          "internalType": "address[]",
          "name": "targets",
          "type": "address[]"
        },
        {
          "indexed": false,
          "internalType": "uint256[]",
          "name": "values",
          "type": "uint256[]"
        },
        {
          "indexed": false,
          "internalType": "string[]",
          "name": "signatures",
          "type": "string[]"
        },
        {
          "indexed": false,
          "internalType": "bytes[]",
          "name": "calldatas",
          "type": "bytes[]"
        },
        {
          "indexed": false,
          "internalType": "uint256",
          "name": "startBlock",
          "type": "uint256"
        },
        {
          "indexed": false,
          "internalType": "uint256",
          "name": "endBlock",
          "type": "uint256"
        },
        {
          "indexed": false,
          "internalType": "string",
          "name": "description",
          "type": "string"
        }
      ],
      "name": "ProposalCreated",
      "type": "event"
    },
    {
      "anonymous": false,
      "inputs": [
        {
          "indexed": false,
          "internalType": "uint256",
          "name": "proposalId",
          "type": "uint256"
        }
      ],
      "name": "ProposalExecuted",
      "type": "event"
    },
    {
      "anonymous": false,
      "inputs": [
        {
          "indexed": false,
          "internalType": "uint256",
          "name": "proposalId",
          "type": "uint256"
        },
        {
          "indexed": false,
          "internalType": "uint256",
          "name": "eta",
          "type": "uint256"
        }
      ],
      "name": "ProposalQueued",
      "type": "event"
    },
    {
      "anonymous": false,
      "inputs": [
        {
          "indexed": false,
          "internalType": "uint256",
          "name": "oldQuorumNumerator",
          "type": "uint256"
        },
        {
          "indexed": false,
          "internalType": "uint256",
          "name": "newQuorumNumerator",
          "type": "uint256"
        }
      ],
      "name": "QuorumNumeratorUpdated",
      "type": "event"
    },
    {
      "anonymous": false,
      "inputs": [
        {
          "indexed": false,
          "internalType": "address",
          "name": "oldTimelock",
          "type": "address"
        },
        {
          "indexed": false,
          "internalType": "address",
          "name": "newTimelock",
          "type": "address"
        }
      ],
      "name": "TimelockChange",
      "type": "event"
    },
    {
      "anonymous": false,
      "inputs": [
        {
          "indexed": true,
          "internalType": "address",
          "name": "voter",
          "type": "address"
        },
        {
          "indexed": false,
          "internalType": "uint256",
          "name": "proposalId",
          "type": "uint256"
        },
        {
          "indexed": false,
          "internalType": "uint8",
          "name": "support",
          "type": "uint8"
        },
        {
          "indexed": false,
          "internalType": "uint256",
          "name": "weight",
          "type": "uint256"
        },
        {
          "indexed": false,
          "internalType": "string",
          "name": "reason",
          "type": "string"
        }
      ],
      "name": "VoteCast",
      "type": "event"
    },
    {
      "inputs": [],
      "name": "BALLOT_TYPEHASH",
      "outputs": [
        {
          "internalType": "bytes32",
          "name": "",
          "type": "bytes32"
        }
      ],
      "stateMutability": "view",
      "type": "function"
    },
    {
      "inputs": [],
      "name": "COUNTING_MODE",
      "outputs": [
        {
          "internalType": "string",
          "name": "",
          "type": "string"
        }
      ],
      "stateMutability": "pure",
      "type": "function"
    },
    {
      "inputs": [
        {
          "internalType": "uint256",
          "name": "proposalId",
          "type": "uint256"
        },
        {
          "internalType": "uint8",
          "name": "support",
          "type": "uint8"
        }
      ],
      "name": "castVote",
      "outputs": [
        {
          "internalType": "uint256",
          "name": "",
          "type": "uint256"
        }
      ],
      "stateMutability": "nonpayable",
      "type": "function"
    },
    {
      "inputs": [
        {
          "internalType": "uint256",
          "name": "proposalId",
          "type": "uint256"
        },
        {
          "internalType": "uint8",
          "name": "support",
          "type": "uint8"
        },
        {
          "internalType": "uint8",
          "name": "v",
          "type": "uint8"
        },
        {
          "internalType": "bytes32",
          "name": "r",
          "type": "bytes32"
        },
        {
          "internalType": "bytes32",
          "name": "s",
          "type": "bytes32"
        }
      ],
      "name": "castVoteBySig",
      "outputs": [
        {
          "internalType": "uint256",
          "name": "",
          "type": "uint256"
        }
      ],
      "stateMutability": "nonpayable",
      "type": "function"
    },
    {
      "inputs": [
        {
          "internalType": "uint256",
          "name": "proposalId",
          "type": "uint256"
        },
        {
          "internalType": "uint8",
          "name": "support",
          "type": "uint8"
        },
        {
          "internalType": "string",
          "name": "reason",
          "type": "string"
        }
      ],
      "name": "castVoteWithReason",
      "outputs": [
        {
          "internalType": "uint256",
          "name": "",
          "type": "uint256"
        }
      ],
      "stateMutability": "nonpayable",
      "type": "function"
    },
    {
      "inputs": [
        {
          "internalType": "address[]",
          "name": "targets",
          "type": "address[]"
        },
        {
          "internalType": "uint256[]",
          "name": "values",
          "type": "uint256[]"
        },
        {
          "internalType": "bytes[]",
          "name": "calldatas",
          "type": "bytes[]"
        },
        {
          "internalType": "bytes32",
          "name": "descriptionHash",
          "type": "bytes32"
        }
      ],
      "name": "execute",
      "outputs": [
        {
          "internalType": "uint256",
          "name": "",
          "type": "uint256"
        }
      ],
      "stateMutability": "payable",
      "type": "function"
    },
    {
      "inputs": [
        {
          "internalType": "address",
          "name": "account",
          "type": "address"
        },
        {
          "internalType": "uint256",
          "name": "blockNumber",
          "type": "uint256"
        }
      ],
      "name": "getVotes",
      "outputs": [
        {
          "internalType": "uint256",
          "name": "",
          "type": "uint256"
        }
      ],
      "stateMutability": "view",
      "type": "function"
    },
    {
      "inputs": [
        {
          "internalType": "uint256",
          "name": "proposalId",
          "type": "uint256"
        },
        {
          "internalType": "address",
          "name": "account",
          "type": "address"
        }
      ],
      "name": "hasVoted",
      "outputs": [
        {
          "internalType": "bool",
          "name": "",
          "type": "bool"
        }
      ],
      "stateMutability": "view",
      "type": "function"
    },
    {
      "inputs": [
        {
          "internalType": "address[]",
          "name": "targets",
          "type": "address[]"
        },
        {
          "internalType": "uint256[]",
          "name": "values",
          "type": "uint256[]"
        },
        {
          "internalType": "bytes[]",
          "name": "calldatas",
          "type": "bytes[]"
        },
        {
          "internalType": "bytes32",
          "name": "descriptionHash",
          "type": "bytes32"
        }
      ],
      "name": "hashProposal",
      "outputs": [
        {
          "internalType": "uint256",
          "name": "",
          "type": "uint256"
        }
      ],
      "stateMutability": "pure",
      "type": "function"
    },
    {
      "inputs": [],
      "name": "name",
      "outputs": [
        {
          "internalType": "string",
          "name": "",
          "type": "string"
        }
      ],
      "stateMutability": "view",
      "type": "function"
    },
    {
      "inputs": [
        {
          "internalType": "uint256",
          "name": "proposalId",
          "type": "uint256"
        }
      ],
      "name": "proposalDeadline",
      "outputs": [
        {
          "internalType": "uint256",
          "name": "",
          "type": "uint256"
        }
      ],
      "stateMutability": "view",
      "type": "function"
    },
    {
      "inputs": [
        {
          "internalType": "uint256",
          "name": "proposalId",
          "type": "uint256"
        }
      ],
      "name": "proposalEta",
      "outputs": [
        {
          "internalType": "uint256",
          "name": "",
          "type": "uint256"
        }
      ],
      "stateMutability": "view",
      "type": "function"
    },
    {
      "inputs": [
        {
          "internalType": "uint256",
          "name": "proposalId",
          "type": "uint256"
        }
      ],
      "name": "proposalSnapshot",
      "outputs": [
        {
          "internalType": "uint256",
          "name": "",
          "type": "uint256"
        }
      ],
      "stateMutability": "view",
      "type": "function"
    },
    {
      "inputs": [],
      "name": "proposalThreshold",
      "outputs": [
        {
          "internalType": "uint256",
          "name": "",
          "type": "uint256"
        }
      ],
      "stateMutability": "view",
      "type": "function"
    },
    {
      "inputs": [
        {
          "internalType": "uint256",
          "name": "proposalId",
          "type": "uint256"
        }
      ],
      "name": "proposalVotes",
      "outputs": [
        {
          "internalType": "uint256",
          "name": "againstVotes",
          "type": "uint256"
        },
        {
          "internalType": "uint256",
          "name": "forVotes",
          "type": "uint256"
        },
        {
          "internalType": "uint256",
          "name": "abstainVotes",
          "type": "uint256"
        }
      ],
      "stateMutability": "view",
      "type": "function"
    },
    {
      "inputs": [
        {
          "internalType": "address[]",
          "name": "targets",
          "type": "address[]"
        },
        {
          "internalType": "uint256[]",
          "name": "values",
          "type": "uint256[]"
        },
        {
          "internalType": "bytes[]",
          "name": "calldatas",
          "type": "bytes[]"
        },
        {
          "internalType": "string",
          "name": "description",
          "type": "string"
        }
      ],
      "name": "propose",
      "outputs": [
        {
          "internalType": "uint256",
          "name": "",
          "type": "uint256"
        }
      ],
      "stateMutability": "nonpayable",
      "type": "function"
    },
    {
      "inputs": [
        {
          "internalType": "address[]",
          "name": "targets",
          "type": "address[]"
        },
        {
          "internalType": "uint256[]",
          "name": "values",
          "type": "uint256[]"
        },
        {
          "internalType": "bytes[]",
          "name": "calldatas",
          "type": "bytes[]"
        },
        {
          "internalType": "bytes32",
          "name": "descriptionHash",
          "type": "bytes32"
        }
      ],
      "name": "queue",
      "outputs": [
        {
          "internalType": "uint256",
          "name": "",
          "type": "uint256"
        }
      ],
      "stateMutability": "nonpayable",
      "type": "function"
    },
    {
      "inputs": [
        {
          "internalType": "uint256",
          "name": "blockNumber",
          "type": "uint256"
        }
      ],
      "name": "quorum",
      "outputs": [
        {
          "internalType": "uint256",
          "name": "",
          "type": "uint256"
        }
      ],
      "stateMutability": "view",
      "type": "function"
    },
    {
      "inputs": [],
      "name": "quorumDenominator",
      "outputs": [
        {
          "internalType": "uint256",
          "name": "",
          "type": "uint256"
        }
      ],
      "stateMutability": "view",
      "type": "function"
    },
    {
      "inputs": [],
      "name": "quorumNumerator",
      "outputs": [
        {
          "internalType": "uint256",
          "name": "",
          "type": "uint256"
        }
      ],
      "stateMutability": "view",
      "type": "function"
    },
    {
      "inputs": [
        {
          "internalType": "address",
          "name": "target",
          "type": "address"
        },
        {
          "internalType": "uint256",
          "name": "value",
          "type": "uint256"
        },
        {
          "internalType": "bytes",
          "name": "data",
          "type": "bytes"
        }
      ],
      "name": "relay",
      "outputs": [],
      "stateMutability": "nonpayable",
      "type": "function"
    },
    {
      "inputs": [
        {
          "internalType": "uint256",
          "name": "proposalId",
          "type": "uint256"
        }
      ],
      "name": "state",
      "outputs": [
        {
          "internalType": "enum IGovernor.ProposalState",
          "name": "",
          "type": "uint8"
        }
      ],
      "stateMutability": "view",
      "type": "function"
    },
    {
      "inputs": [
        {
          "internalType": "bytes4",
          "name": "interfaceId",
          "type": "bytes4"
        }
      ],
      "name": "supportsInterface",
      "outputs": [
        {
          "internalType": "bool",
          "name": "",
          "type": "bool"
        }
      ],
      "stateMutability": "view",
      "type": "function"
    },
    {
      "inputs": [],
      "name": "timelock",
      "outputs": [
        {
          "internalType": "address",
          "name": "",
          "type": "address"
        }
      ],
      "stateMutability": "view",
      "type": "function"
    },
    {
      "inputs": [],
      "name": "token",
      "outputs": [
        {
          "internalType": "contract IVotes",
          "name": "",
          "type": "address"
        }
      ],
      "stateMutability": "view",
      "type": "function"
    },
    {
      "inputs": [
        {
          "internalType": "uint256",
          "name": "newQuorumNumerator",
          "type": "uint256"
        }
      ],
      "name": "updateQuorumNumerator",
      "outputs": [],
      "stateMutability": "nonpayable",
      "type": "function"
    },
    {
      "inputs": [
        {
          "internalType": "contract TimelockController",
          "name": "newTimelock",
          "type": "address"
        }
      ],
      "name": "updateTimelock",
      "outputs": [],
      "stateMutability": "nonpayable",
      "type": "function"
    },
    {
      "inputs": [],
      "name": "version",
      "outputs": [
        {
          "internalType": "string",
          "name": "",
          "type": "string"
        }
      ],
      "stateMutability": "view",
      "type": "function"
    },
    {
      "inputs": [],
      "name": "votingDelay",
      "outputs": [
        {
          "internalType": "uint256",
          "name": "",
          "type": "uint256"
        }
      ],
      "stateMutability": "pure",
      "type": "function"
    },
    {
      "inputs": [],
      "name": "votingPeriod",
      "outputs": [
        {
          "internalType": "uint256",
          "name": "",
          "type": "uint256"
        }
      ],
      "stateMutability": "pure",
      "type": "function"
    },
    {
      "stateMutability": "payable",
      "type": "receive"
    }
  ],
  "bytecode": "0x6101606040523480156200001257600080fd5b50604051620031e3380380620031e3833981016040819052620000359162000353565b600482826040518060400160405280600a81526020016926bca3b7bb32b93737b960b11b815250806200006d6200014360201b60201c565b815160208084019190912082518383012060e08290526101008190524660a0818152604080517f8b73c3c69bb8fe3d512ecc4cf759cc79239f7b179b0ffacaa9a75d522b39400f81880181905281830187905260608201869052608082019490945230818401528151808203909301835260c00190528051940193909320919290916080523060c052610120525050825162000113925060009150602084019062000294565b50620001219050816200015e565b506001600160a01b0316610140526200013a81620001c7565b505050620003cf565b6040805180820190915260018152603160f81b602082015290565b600454604080516001600160a01b03928316815291831660208301527f08f74ea46ef7894f65eabfb5e6e695de773a000b47c529ab559178069b226401910160405180910390a1600480546001600160a01b0319166001600160a01b0392909216919091179055565b60648111156200024f5760405162461bcd60e51b815260206004820152604360248201527f476f7665726e6f72566f74657351756f72756d4672616374696f6e3a2071756f60448201527f72756d4e756d657261746f72206f7665722071756f72756d44656e6f6d696e616064820152623a37b960e91b608482015260a40160405180910390fd5b600680549082905560408051828152602081018490527f0553476bf02ef2726e8ce5ced78d63e26e602e4a2257b1f559418e24b4633997910160405180910390a15050565b828054620002a29062000392565b90600052602060002090601f016020900481019282620002c6576000855562000311565b82601f10620002e157805160ff191683800117855562000311565b8280016001018555821562000311579182015b8281111562000311578251825591602001919060010190620002f4565b506200031f92915062000323565b5090565b5b808211156200031f576000815560010162000324565b6001600160a01b03811681146200035057600080fd5b50565b600080604083850312156200036757600080fd5b825162000374816200033a565b602084015190925062000387816200033a565b809150509250929050565b600181811c90821680620003a757607f821691505b60208210811415620003c957634e487b7160e01b600052602260045260246000fd5b50919050565b60805160a05160c05160e051610100516101205161014051612dab62000438600039600081816106470152818161176b015261180401526000611a0801526000611a5701526000611a320152600061198b015260006119b5015260006119df0152612dab6000f3fe6080604052600436106101d15760003560e01c80637d5e81e2116100f7578063c28bc2fa11610095578063deaaa7cc11610064578063deaaa7cc146105c1578063eb9019d4146105f5578063f8ce560a14610615578063fc0c546a1461063557600080fd5b8063c28bc2fa14610509578063c59057e414610529578063d33219b414610549578063dd4e2ba51461057b57600080fd5b8063a890c910116100d1578063a890c91014610495578063ab58fb8e146104b5578063b58131b0146104d5578063c01f9e37146104e957600080fd5b80637d5e81e21461044c57806397c3d3341461046c578063a7713a701461048057600080fd5b80633932abb11161016f578063544ffc9c1161013e578063544ffc9c1461038d57806354fd4d50146103e2578063567813881461040c5780637b3c71d31461042c57600080fd5b80633932abb1146102e25780633bccf4fd146102f65780633e4f49e614610316578063438596321461034357600080fd5b806306fdde03116101ab57806306fdde031461026d578063160cbed71461028f5780632656227d146102af5780632d63f693146102c257600080fd5b806301ffc9a7146101f957806302a251a31461022e57806306f3f9e61461024d57600080fd5b366101f457306101df610669565b6001600160a01b0316146101f257600080fd5b005b600080fd5b34801561020557600080fd5b506102196102143660046121da565b610682565b60405190151581526020015b60405180910390f35b34801561023a57600080fd5b5061b2fa5b604051908152602001610225565b34801561025957600080fd5b506101f2610268366004612204565b610693565b34801561027957600080fd5b5061028261072b565b6040516102259190612279565b34801561029b57600080fd5b5061023f6102aa3660046124c4565b6107bd565b61023f6102bd3660046124c4565b6109e5565b3480156102ce57600080fd5b5061023f6102dd366004612204565b610ad2565b3480156102ee57600080fd5b50600161023f565b34801561030257600080fd5b5061023f610311366004612569565b610b09565b34801561032257600080fd5b50610336610331366004612204565b610b9d565b60405161022591906125cd565b34801561034f57600080fd5b5061021961035e3660046125f5565b60008281526007602090815260408083206001600160a01b038516845260030190915290205460ff1692915050565b34801561039957600080fd5b506103c76103a8366004612204565b6000908152600760205260409020805460018201546002909201549092565b60408051938452602084019290925290820152606001610225565b3480156103ee57600080fd5b506040805180820190915260018152603160f81b6020820152610282565b34801561041857600080fd5b5061023f610427366004612625565b610ba8565b34801561043857600080fd5b5061023f610447366004612699565b610bd1565b34801561045857600080fd5b5061023f6104673660046126f2565b610c23565b34801561047857600080fd5b50606461023f565b34801561048c57600080fd5b5060065461023f565b3480156104a157600080fd5b506101f26104b03660046127b2565b610c3a565b3480156104c157600080fd5b5061023f6104d0366004612204565b610cc6565b3480156104e157600080fd5b50600061023f565b3480156104f557600080fd5b5061023f610504366004612204565b610d6a565b34801561051557600080fd5b506101f26105243660046127cf565b610d99565b34801561053557600080fd5b5061023f6105443660046124c4565b610e65565b34801561055557600080fd5b506004546001600160a01b03165b6040516001600160a01b039091168152602001610225565b34801561058757600080fd5b506040805180820190915260208082527f737570706f72743d627261766f2671756f72756d3d666f722c6162737461696e90820152610282565b3480156105cd57600080fd5b5061023f7f150214d74d59b7d1e90c73fc22ef3d991dd0a76b046543d4d80ab92d2a50328f81565b34801561060157600080fd5b5061023f610610366004612812565b610e9f565b34801561062157600080fd5b5061023f610630366004612204565b610eab565b34801561064157600080fd5b506105637f000000000000000000000000000000000000000000000000000000000000000081565b600061067d6004546001600160a01b031690565b905090565b600061068d82610eb6565b92915050565b61069b610669565b6001600160a01b0316336001600160a01b0316146106d45760405162461bcd60e51b81526004016106cb9061283e565b60405180910390fd5b306106dd610669565b6001600160a01b03161461071f57600080366040516106fd929190612875565b604051809103902090505b806107136002610edb565b1461071d57610708565b505b61072881610f5a565b50565b60606000805461073a90612885565b80601f016020809104026020016040519081016040528092919081815260200182805461076690612885565b80156107b35780601f10610788576101008083540402835291602001916107b3565b820191906000526020600020905b81548152906001019060200180831161079657829003601f168201915b5050505050905090565b6000806107cc86868686610e65565b905060046107d982610b9d565b60078111156107ea576107ea6125b7565b146108075760405162461bcd60e51b81526004016106cb906128c0565b6000600460009054906101000a90046001600160a01b03166001600160a01b031663f27a0c926040518163ffffffff1660e01b815260040160206040518083038186803b15801561085757600080fd5b505afa15801561086b573d6000803e3d6000fd5b505050506040513d601f19601f8201168201806040525081019061088f9190612901565b6004805460405163b1c5f42760e01b81529293506001600160a01b03169163b1c5f427916108c8918b918b918b916000918c91016129e3565b60206040518083038186803b1580156108e057600080fd5b505afa1580156108f4573d6000803e3d6000fd5b505050506040513d601f19601f820116820180604052508101906109189190612901565b600083815260056020526040808220929092556004805492516308f2a0bb60e41b81526001600160a01b0390931692638f2a0bb092610963928c928c928c9290918c918a9101612a31565b600060405180830381600087803b15801561097d57600080fd5b505af1158015610991573d6000803e3d6000fd5b505050507f9a2e42fd6722813d69113e7d0079d3d940171428df7373df9c7f7617cfda28928282426109c39190612a9f565b6040805192835260208301919091520160405180910390a15095945050505050565b6000806109f486868686610e65565b90506000610a0182610b9d565b90506004816007811115610a1757610a176125b7565b1480610a3457506005816007811115610a3257610a326125b7565b145b610a505760405162461bcd60e51b81526004016106cb906128c0565b600082815260016020818152604092839020600201805460ff191690921790915590518381527f712ae1383f79ac853f8d882153778e0260ef8f03b504e2866e0593e04d2b291f910160405180910390a1610aae8288888888611022565b610abb82888888886110c4565b610ac882888888886110d1565b5095945050505050565b60008181526001602090815260408083208151928301909152546001600160401b0316908190525b6001600160401b031692915050565b604080517f150214d74d59b7d1e90c73fc22ef3d991dd0a76b046543d4d80ab92d2a50328f602082015290810186905260ff851660608201526000908190610b7590610b6d906080016040516020818303038152906040528051906020012061110a565b868686611158565b9050610b9287828860405180602001604052806000815250611176565b979650505050505050565b600061068d82611281565b600080339050610bc984828560405180602001604052806000815250611176565b949350505050565b600080339050610c1986828787878080601f01602080910402602001604051908101604052809392919081815260200183838082843760009201919091525061117692505050565b9695505050505050565b6000610c31858585856113e5565b95945050505050565b610c42610669565b6001600160a01b0316336001600160a01b031614610c725760405162461bcd60e51b81526004016106cb9061283e565b30610c7b610669565b6001600160a01b031614610cbd5760008036604051610c9b929190612875565b604051809103902090505b80610cb16002610edb565b14610cbb57610ca6565b505b610728816116b3565b6004805460008381526005602052604080822054905163d45c443560e01b8152938401529182916001600160a01b03169063d45c44359060240160206040518083038186803b158015610d1857600080fd5b505afa158015610d2c573d6000803e3d6000fd5b505050506040513d601f19601f82011682018060405250810190610d509190612901565b905080600114610d605780610d63565b60005b9392505050565b60008181526001602081815260408084208151928301909152909101546001600160401b031690819052610afa565b610da1610669565b6001600160a01b0316336001600160a01b031614610dd15760405162461bcd60e51b81526004016106cb9061283e565b30610dda610669565b6001600160a01b031614610e1c5760008036604051610dfa929190612875565b604051809103902090505b80610e106002610edb565b14610e1a57610e05565b505b610e5e8483838080601f01602080910402602001604051908101604052809392919081815260200183838082843760009201919091525088925061171c915050565b5050505050565b600084848484604051602001610e7e9493929190612ab7565b60408051601f19818403018152919052805160209091012095945050505050565b6000610d638383611742565b600061068d826117e7565b60006001600160e01b03198216636e665ced60e01b148061068d575061068d8261189a565b6000610ef68254600f81810b600160801b909204900b131590565b15610f1457604051631ed9509560e11b815260040160405180910390fd5b508054600f0b6000818152600180840160205260408220805492905583546fffffffffffffffffffffffffffffffff191692016001600160801b03169190911790915590565b6064811115610fdd5760405162461bcd60e51b815260206004820152604360248201527f476f7665726e6f72566f74657351756f72756d4672616374696f6e3a2071756f60448201527f72756d4e756d657261746f72206f7665722071756f72756d44656e6f6d696e616064820152623a37b960e91b608482015260a4016106cb565b600680549082905560408051828152602081018490527f0553476bf02ef2726e8ce5ced78d63e26e602e4a2257b1f559418e24b4633997910160405180910390a15050565b3061102b610669565b6001600160a01b031614610e5e5760005b84518110156110bc57306001600160a01b031685828151811061106157611061612b02565b60200260200101516001600160a01b031614156110ac576110ac83828151811061108d5761108d612b02565b60200260200101518051906020012060026118cf90919063ffffffff16565b6110b581612b18565b905061103c565b505050505050565b610e5e858585858561190b565b306110da610669565b6001600160a01b031614610e5e57600254600f81810b600160801b909204900b1315610e5e576000600255610e5e565b600061068d61111761197e565b8360405161190160f01b6020820152602281018390526042810182905260009060620160405160208183030381529060405280519060200120905092915050565b600080600061116987878787611aa5565b91509150610ac881611b92565b600084815260016020819052604082209061119087610b9d565b60078111156111a1576111a16125b7565b146111fa5760405162461bcd60e51b815260206004820152602360248201527f476f7665726e6f723a20766f7465206e6f742063757272656e746c792061637460448201526269766560e81b60648201526084016106cb565b604080516020810190915281546001600160401b031690819052600090611222908790610e9f565b905061123087878784611d4d565b856001600160a01b03167fb8e138887d0aa13bab447e82de9d5c1777041ecd21ca36ba824ff1e6c07ddda48887848860405161126f9493929190612b33565b60405180910390a29695505050505050565b60008061128d83611ecc565b905060048160078111156112a3576112a36125b7565b146112ae5792915050565b600083815260056020526040902054806112c9575092915050565b60048054604051632ab0f52960e01b81529182018390526001600160a01b031690632ab0f5299060240160206040518083038186803b15801561130b57600080fd5b505afa15801561131f573d6000803e3d6000fd5b505050506040513d601f19601f820116820180604052508101906113439190612b5b565b15611352575060079392505050565b60048054604051632c258a9f60e11b81529182018390526001600160a01b03169063584b153e9060240160206040518083038186803b15801561139457600080fd5b505afa1580156113a8573d6000803e3d6000fd5b505050506040513d601f19601f820116820180604052508101906113cc9190612b5b565b156113db575060059392505050565b5060029392505050565b6000806113f733610610600143612b7d565b10156114775760405162461bcd60e51b815260206004820152604360248201527f476f7665726e6f72436f6d7061746962696c697479427261766f3a2070726f7060448201527f6f73657220766f7465732062656c6f772070726f706f73616c207468726573686064820152621bdb1960ea1b608482015260a4016106cb565b600061148c8686868680519060200120610e65565b905084518651146114af5760405162461bcd60e51b81526004016106cb90612b94565b83518651146114d05760405162461bcd60e51b81526004016106cb90612b94565b60008651116115215760405162461bcd60e51b815260206004820152601860248201527f476f7665726e6f723a20656d7074792070726f706f73616c000000000000000060448201526064016106cb565b600081815260016020908152604091829020825191820190925281546001600160401b031690819052156115a15760405162461bcd60e51b815260206004820152602160248201527f476f7665726e6f723a2070726f706f73616c20616c72656164792065786973746044820152607360f81b60648201526084016106cb565b60006115ad6001611fd8565b6115b643611fd8565b6115c09190612bd5565b905060006115cf61b2fa611fd8565b6115d99083612bd5565b835467ffffffffffffffff19166001600160401b038416178455905060018301805467ffffffffffffffff19166001600160401b0383161790557f7d84a6263ae0d98d3329bd7b46bb4e8d6f98cd35a7adb45c274c8b7fd5ebd5e084338b8b8d516001600160401b038111156116515761165161228c565b60405190808252806020026020018201604052801561168457816020015b606081526020019060019003908161166f5790505b508c88888e60405161169e99989796959493929190612c00565b60405180910390a15091979650505050505050565b600454604080516001600160a01b03928316815291831660208301527f08f74ea46ef7894f65eabfb5e6e695de773a000b47c529ab559178069b226401910160405180910390a1600480546001600160a01b0319166001600160a01b0392909216919091179055565b6060610bc9848484604051806060016040528060298152602001612d4d60299139612044565b604051630748d63560e31b81526001600160a01b038381166004830152602482018390526000917f000000000000000000000000000000000000000000000000000000000000000090911690633a46b1a89060440160206040518083038186803b1580156117af57600080fd5b505afa1580156117c3573d6000803e3d6000fd5b505050506040513d601f19601f82011682018060405250810190610d639190612901565b60006064600654604051632394e7a360e21b8152600481018590527f00000000000000000000000000000000000000000000000000000000000000006001600160a01b031690638e539e8c9060240160206040518083038186803b15801561184e57600080fd5b505afa158015611862573d6000803e3d6000fd5b505050506040513d601f19601f820116820180604052508101906118869190612901565b6118909190612cef565b61068d9190612d0e565b60006001600160e01b0319821663bf26d89760e01b148061068d57506301ffc9a760e01b6001600160e01b031983161461068d565b8154600160801b90819004600f0b6000818152600180860160205260409091209390935583546001600160801b03908116939091011602179055565b6004805460405163e38335e560e01b81526001600160a01b039091169163e38335e5913491611945918991899189916000918a91016129e3565b6000604051808303818588803b15801561195e57600080fd5b505af1158015611972573d6000803e3d6000fd5b50505050505050505050565b6000306001600160a01b037f0000000000000000000000000000000000000000000000000000000000000000161480156119d757507f000000000000000000000000000000000000000000000000000000000000000046145b15611a0157507f000000000000000000000000000000000000000000000000000000000000000090565b50604080517f00000000000000000000000000000000000000000000000000000000000000006020808301919091527f0000000000000000000000000000000000000000000000000000000000000000828401527f000000000000000000000000000000000000000000000000000000000000000060608301524660808301523060a0808401919091528351808403909101815260c0909201909252805191012090565b6000807f7fffffffffffffffffffffffffffffff5d576e7357a4501ddfe92f46681b20a0831115611adc5750600090506003611b89565b8460ff16601b14158015611af457508460ff16601c14155b15611b055750600090506004611b89565b6040805160008082526020820180845289905260ff881692820192909252606081018690526080810185905260019060a0016020604051602081039080840390855afa158015611b59573d6000803e3d6000fd5b5050604051601f1901519150506001600160a01b038116611b8257600060019250925050611b89565b9150600090505b94509492505050565b6000816004811115611ba657611ba66125b7565b1415611baf5750565b6001816004811115611bc357611bc36125b7565b1415611c115760405162461bcd60e51b815260206004820152601860248201527f45434453413a20696e76616c6964207369676e6174757265000000000000000060448201526064016106cb565b6002816004811115611c2557611c256125b7565b1415611c735760405162461bcd60e51b815260206004820152601f60248201527f45434453413a20696e76616c6964207369676e6174757265206c656e6774680060448201526064016106cb565b6003816004811115611c8757611c876125b7565b1415611ce05760405162461bcd60e51b815260206004820152602260248201527f45434453413a20696e76616c6964207369676e6174757265202773272076616c604482015261756560f01b60648201526084016106cb565b6004816004811115611cf457611cf46125b7565b14156107285760405162461bcd60e51b815260206004820152602260248201527f45434453413a20696e76616c6964207369676e6174757265202776272076616c604482015261756560f01b60648201526084016106cb565b60008481526007602090815260408083206001600160a01b0387168452600381019092529091205460ff1615611dd55760405162461bcd60e51b815260206004820152602760248201527f476f7665726e6f72566f74696e6753696d706c653a20766f746520616c726561604482015266191e4818d85cdd60ca1b60648201526084016106cb565b6001600160a01b03841660009081526003820160205260408120805460ff1916600117905560ff168360ff161415611e265781816000016000828254611e1b9190612a9f565b90915550610e5e9050565b60ff831660011415611e465781816001016000828254611e1b9190612a9f565b60ff831660021415611e665781816002016000828254611e1b9190612a9f565b60405162461bcd60e51b815260206004820152603560248201527f476f7665726e6f72566f74696e6753696d706c653a20696e76616c69642076616044820152746c756520666f7220656e756d20566f74655479706560581b60648201526084016106cb565b6000818152600160205260408120600281015460ff1615611ef05750600792915050565b6002810154610100900460ff1615611f0b5750600292915050565b6000611f1684610ad2565b905080611f655760405162461bcd60e51b815260206004820152601d60248201527f476f7665726e6f723a20756e6b6e6f776e2070726f706f73616c20696400000060448201526064016106cb565b438110611f76575060009392505050565b6000611f8185610d6a565b9050438110611f9557506001949350505050565b611f9e8561216a565b8015611fbd575060008581526007602052604090208054600190910154115b15611fcd57506004949350505050565b506003949350505050565b60006001600160401b038211156120405760405162461bcd60e51b815260206004820152602660248201527f53616665436173743a2076616c756520646f65736e27742066697420696e203660448201526534206269747360d01b60648201526084016106cb565b5090565b6060824710156120a55760405162461bcd60e51b815260206004820152602660248201527f416464726573733a20696e73756666696369656e742062616c616e636520666f6044820152651c8818d85b1b60d21b60648201526084016106cb565b6001600160a01b0385163b6120fc5760405162461bcd60e51b815260206004820152601d60248201527f416464726573733a2063616c6c20746f206e6f6e2d636f6e747261637400000060448201526064016106cb565b600080866001600160a01b031685876040516121189190612d30565b60006040518083038185875af1925050503d8060008114612155576040519150601f19603f3d011682016040523d82523d6000602084013e61215a565b606091505b5091509150610b928282866121a1565b60008181526007602052604081206002810154600182015461218c9190612a9f565b61219861063085610ad2565b11159392505050565b606083156121b0575081610d63565b8251156121c05782518084602001fd5b8160405162461bcd60e51b81526004016106cb9190612279565b6000602082840312156121ec57600080fd5b81356001600160e01b031981168114610d6357600080fd5b60006020828403121561221657600080fd5b5035919050565b60005b83811015612238578181015183820152602001612220565b83811115612247576000848401525b50505050565b6000815180845261226581602086016020860161221d565b601f01601f19169290920160200192915050565b602081526000610d63602083018461224d565b634e487b7160e01b600052604160045260246000fd5b604051601f8201601f191681016001600160401b03811182821017156122ca576122ca61228c565b604052919050565b60006001600160401b038211156122eb576122eb61228c565b5060051b60200190565b6001600160a01b038116811461072857600080fd5b600082601f83011261231b57600080fd5b8135602061233061232b836122d2565b6122a2565b82815260059290921b8401810191818101908684111561234f57600080fd5b8286015b84811015612373578035612366816122f5565b8352918301918301612353565b509695505050505050565b600082601f83011261238f57600080fd5b8135602061239f61232b836122d2565b82815260059290921b840181019181810190868411156123be57600080fd5b8286015b8481101561237357803583529183019183016123c2565b60006001600160401b038311156123f2576123f261228c565b612405601f8401601f19166020016122a2565b905082815283838301111561241957600080fd5b828260208301376000602084830101529392505050565b600082601f83011261244157600080fd5b8135602061245161232b836122d2565b82815260059290921b8401810191818101908684111561247057600080fd5b8286015b848110156123735780356001600160401b038111156124935760008081fd5b8701603f810189136124a55760008081fd5b6124b68986830135604084016123d9565b845250918301918301612474565b600080600080608085870312156124da57600080fd5b84356001600160401b03808211156124f157600080fd5b6124fd8883890161230a565b9550602087013591508082111561251357600080fd5b61251f8883890161237e565b9450604087013591508082111561253557600080fd5b5061254287828801612430565b949793965093946060013593505050565b803560ff8116811461256457600080fd5b919050565b600080600080600060a0868803121561258157600080fd5b8535945061259160208701612553565b935061259f60408701612553565b94979396509394606081013594506080013592915050565b634e487b7160e01b600052602160045260246000fd5b60208101600883106125ef57634e487b7160e01b600052602160045260246000fd5b91905290565b6000806040838503121561260857600080fd5b82359150602083013561261a816122f5565b809150509250929050565b6000806040838503121561263857600080fd5b8235915061264860208401612553565b90509250929050565b60008083601f84011261266357600080fd5b5081356001600160401b0381111561267a57600080fd5b60208301915083602082850101111561269257600080fd5b9250929050565b600080600080606085870312156126af57600080fd5b843593506126bf60208601612553565b925060408501356001600160401b038111156126da57600080fd5b6126e687828801612651565b95989497509550505050565b6000806000806080858703121561270857600080fd5b84356001600160401b038082111561271f57600080fd5b61272b8883890161230a565b9550602087013591508082111561274157600080fd5b61274d8883890161237e565b9450604087013591508082111561276357600080fd5b61276f88838901612430565b9350606087013591508082111561278557600080fd5b508501601f8101871361279757600080fd5b6127a6878235602084016123d9565b91505092959194509250565b6000602082840312156127c457600080fd5b8135610d63816122f5565b600080600080606085870312156127e557600080fd5b84356127f0816122f5565b93506020850135925060408501356001600160401b038111156126da57600080fd5b6000806040838503121561282557600080fd5b8235612830816122f5565b946020939093013593505050565b60208082526018908201527f476f7665726e6f723a206f6e6c79476f7665726e616e63650000000000000000604082015260600190565b8183823760009101908152919050565b600181811c9082168061289957607f821691505b602082108114156128ba57634e487b7160e01b600052602260045260246000fd5b50919050565b60208082526021908201527f476f7665726e6f723a2070726f706f73616c206e6f74207375636365737366756040820152601b60fa1b606082015260800190565b60006020828403121561291357600080fd5b5051919050565b600081518084526020808501945080840160005b838110156129535781516001600160a01b03168752958201959082019060010161292e565b509495945050505050565b600081518084526020808501945080840160005b8381101561295357815187529582019590820190600101612972565b600081518084526020808501808196508360051b8101915082860160005b858110156129d65782840389526129c484835161224d565b988501989350908401906001016129ac565b5091979650505050505050565b60a0815260006129f660a083018861291a565b8281036020840152612a08818861295e565b90508281036040840152612a1c818761298e565b60608401959095525050608001529392505050565b60c081526000612a4460c083018961291a565b8281036020840152612a56818961295e565b90508281036040840152612a6a818861298e565b60608401969096525050608081019290925260a0909101529392505050565b634e487b7160e01b600052601160045260246000fd5b60008219821115612ab257612ab2612a89565b500190565b608081526000612aca608083018761291a565b8281036020840152612adc818761295e565b90508281036040840152612af0818661298e565b91505082606083015295945050505050565b634e487b7160e01b600052603260045260246000fd5b6000600019821415612b2c57612b2c612a89565b5060010190565b84815260ff84166020820152826040820152608060608201526000610c19608083018461224d565b600060208284031215612b6d57600080fd5b81518015158114610d6357600080fd5b600082821015612b8f57612b8f612a89565b500390565b60208082526021908201527f476f7665726e6f723a20696e76616c69642070726f706f73616c206c656e67746040820152600d60fb1b606082015260800190565b60006001600160401b03808316818516808303821115612bf757612bf7612a89565b01949350505050565b60006101208b8352602060018060a01b038c1681850152816040850152612c298285018c61291a565b91508382036060850152612c3d828b61295e565b915083820360808501528189518084528284019150828160051b850101838c0160005b83811015612c8e57601f19878403018552612c7c83835161224d565b94860194925090850190600101612c60565b505086810360a0880152612ca2818c61298e565b945050505050612cbd60c08401876001600160401b03169052565b6001600160401b03851660e0840152828103610100840152612cdf818561224d565b9c9b505050505050505050505050565b6000816000190483118215151615612d0957612d09612a89565b500290565b600082612d2b57634e487b7160e01b600052601260045260246000fd5b500490565b60008251612d4281846020870161221d565b919091019291505056fe416464726573733a206c6f772d6c6576656c2063616c6c20776974682076616c7565206661696c6564a2646970667358221220d95cf7ed845229552ba6bb5b439574362953f7bad5a53ba198e85fa04fe866c564736f6c63430008090033",
  "linkReferences": {},
  "deployedLinkReferences": {}
}