{
  "_format": "hh-sol-artifact-1",
  "contractName": "ERC721VotesMock",
  "sourceName": "contracts/mocks/ERC721VotesMock.sol",
  "abi": [
    {
      "inputs": [
        {
          "internalType": "string",
          "name": "name",
          "type": "string"
        },
        {
          "internalType": "string",
          "name": "symbol",
          "type": "string"
        }
      ],
      "stateMutability": "nonpayable",
      "type": "constructor"
    },
    {
      "anonymous": false,
      "inputs": [
        {
          "indexed": true,
          "internalType": "address",
          "name": "owner",
          "type": "address"
        },
        {
          "indexed": true,
          "internalType": "address",
          "name": "approved",
          "type": "address"
        },
        {
          "indexed": true,
          "internalType": "uint256",
          "name": "tokenId",
          "type": "uint256"
        }
      ],
      "name": "Approval",
      "type": "event"
    },
    {
      "anonymous": false,
      "inputs": [
        {
          "indexed": true,
          "internalType": "address",
          "name": "owner",
          "type": "address"
        },
        {
          "indexed": true,
          "internalType": "address",
          "name": "operator",
          "type": "address"
        },
        {
          "indexed": false,
          "internalType": "bool",
          "name": "approved",
          "type": "bool"
        }
      ],
      "name": "ApprovalForAll",
      "type": "event"
    },
    {
      "anonymous": false,
      "inputs": [
        {
          "indexed": true,
          "internalType": "address",
          "name": "delegator",
          "type": "address"
        },
        {
          "indexed": true,
          "internalType": "address",
          "name": "fromDelegate",
          "type": "address"
        },
        {
          "indexed": true,
          "internalType": "address",
          "name": "toDelegate",
          "type": "address"
        }
      ],
      "name": "DelegateChanged",
      "type": "event"
    },
    {
      "anonymous": false,
      "inputs": [
        {
          "indexed": true,
          "internalType": "address",
          "name": "delegate",
          "type": "address"
        },
        {
          "indexed": false,
          "internalType": "uint256",
          "name": "previousBalance",
          "type": "uint256"
        },
        {
          "indexed": false,
          "internalType": "uint256",
          "name": "newBalance",
          "type": "uint256"
        }
      ],
      "name": "DelegateVotesChanged",
      "type": "event"
    },
    {
      "anonymous": false,
      "inputs": [
        {
          "indexed": true,
          "internalType": "address",
          "name": "from",
          "type": "address"
        },
        {
          "indexed": true,
          "internalType": "address",
          "name": "to",
          "type": "address"
        },
        {
          "indexed": true,
          "internalType": "uint256",
          "name": "tokenId",
          "type": "uint256"
        }
      ],
      "name": "Transfer",
      "type": "event"
    },
    {
      "inputs": [],
      "name": "DOMAIN_SEPARATOR",
      "outputs": [
        {
          "internalType": "bytes32",
          "name": "",
          "type": "bytes32"
        }
      ],
      "stateMutability": "view",
      "type": "function"
    },
    {
      "inputs": [
        {
          "internalType": "address",
          "name": "to",
          "type": "address"
        },
        {
          "internalType": "uint256",
          "name": "tokenId",
          "type": "uint256"
        }
      ],
      "name": "approve",
      "outputs": [],
      "stateMutability": "nonpayable",
      "type": "function"
    },
    {
      "inputs": [
        {
          "internalType": "address",
          "name": "owner",
          "type": "address"
        }
      ],
      "name": "balanceOf",
      "outputs": [
        {
          "internalType": "uint256",
          "name": "",
          "type": "uint256"
        }
      ],
      "stateMutability": "view",
      "type": "function"
    },
    {
      "inputs": [
        {
          "internalType": "uint256",
          "name": "tokenId",
          "type": "uint256"
        }
      ],
      "name": "burn",
      "outputs": [],
      "stateMutability": "nonpayable",
      "type": "function"
    },
    {
      "inputs": [
        {
          "internalType": "address",
          "name": "delegatee",
          "type": "address"
        }
      ],
      "name": "delegate",
      "outputs": [],
      "stateMutability": "nonpayable",
      "type": "function"
    },
    {
      "inputs": [
        {
          "internalType": "address",
          "name": "delegatee",
          "type": "address"
        },
        {
          "internalType": "uint256",
          "name": "nonce",
          "type": "uint256"
        },
        {
          "internalType": "uint256",
          "name": "expiry",
          "type": "uint256"
        },
        {
          "internalType": "uint8",
          "name": "v",
          "type": "uint8"
        },
        {
          "internalType": "bytes32",
          "name": "r",
          "type": "bytes32"
        },
        {
          "internalType": "bytes32",
          "name": "s",
          "type": "bytes32"
        }
      ],
      "name": "delegateBySig",
      "outputs": [],
      "stateMutability": "nonpayable",
      "type": "function"
    },
    {
      "inputs": [
        {
          "internalType": "address",
          "name": "account",
          "type": "address"
        }
      ],
      "name": "delegates",
      "outputs": [
        {
          "internalType": "address",
          "name": "",
          "type": "address"
        }
      ],
      "stateMutability": "view",
      "type": "function"
    },
    {
      "inputs": [
        {
          "internalType": "uint256",
          "name": "tokenId",
          "type": "uint256"
        }
      ],
      "name": "getApproved",
      "outputs": [
        {
          "internalType": "address",
          "name": "",
          "type": "address"
        }
      ],
      "stateMutability": "view",
      "type": "function"
    },
    {
      "inputs": [],
      "name": "getChainId",
      "outputs": [
        {
          "internalType": "uint256",
          "name": "",
          "type": "uint256"
        }
      ],
      "stateMutability": "view",
      "type": "function"
    },
    {
      "inputs": [
        {
          "internalType": "uint256",
          "name": "blockNumber",
          "type": "uint256"
        }
      ],
      "name": "getPastTotalSupply",
      "outputs": [
        {
          "internalType": "uint256",
          "name": "",
          "type": "uint256"
        }
      ],
      "stateMutability": "view",
      "type": "function"
    },
    {
      "inputs": [
        {
          "internalType": "address",
          "name": "account",
          "type": "address"
        },
        {
          "internalType": "uint256",
          "name": "blockNumber",
          "type": "uint256"
        }
      ],
      "name": "getPastVotes",
      "outputs": [
        {
          "internalType": "uint256",
          "name": "",
          "type": "uint256"
        }
      ],
      "stateMutability": "view",
      "type": "function"
    },
    {
      "inputs": [],
      "name": "getTotalSupply",
      "outputs": [
        {
          "internalType": "uint256",
          "name": "",
          "type": "uint256"
        }
      ],
      "stateMutability": "view",
      "type": "function"
    },
    {
      "inputs": [
        {
          "internalType": "address",
          "name": "account",
          "type": "address"
        }
      ],
      "name": "getVotes",
      "outputs": [
        {
          "internalType": "uint256",
          "name": "",
          "type": "uint256"
        }
      ],
      "stateMutability": "view",
      "type": "function"
    },
    {
      "inputs": [
        {
          "internalType": "address",
          "name": "owner",
          "type": "address"
        },
        {
          "internalType": "address",
          "name": "operator",
          "type": "address"
        }
      ],
      "name": "isApprovedForAll",
      "outputs": [
        {
          "internalType": "bool",
          "name": "",
          "type": "bool"
        }
      ],
      "stateMutability": "view",
      "type": "function"
    },
    {
      "inputs": [
        {
          "internalType": "address",
          "name": "account",
          "type": "address"
        },
        {
          "internalType": "uint256",
          "name": "tokenId",
          "type": "uint256"
        }
      ],
      "name": "mint",
      "outputs": [],
      "stateMutability": "nonpayable",
      "type": "function"
    },
    {
      "inputs": [],
      "name": "name",
      "outputs": [
        {
          "internalType": "string",
          "name": "",
          "type": "string"
        }
      ],
      "stateMutability": "view",
      "type": "function"
    },
    {
      "inputs": [
        {
          "internalType": "address",
          "name": "owner",
          "type": "address"
        }
      ],
      "name": "nonces",
      "outputs": [
        {
          "internalType": "uint256",
          "name": "",
          "type": "uint256"
        }
      ],
      "stateMutability": "view",
      "type": "function"
    },
    {
      "inputs": [
        {
          "internalType": "uint256",
          "name": "tokenId",
          "type": "uint256"
        }
      ],
      "name": "ownerOf",
      "outputs": [
        {
          "internalType": "address",
          "name": "",
          "type": "address"
        }
      ],
      "stateMutability": "view",
      "type": "function"
    },
    {
      "inputs": [
        {
          "internalType": "address",
          "name": "from",
          "type": "address"
        },
        {
          "internalType": "address",
          "name": "to",
          "type": "address"
        },
        {
          "internalType": "uint256",
          "name": "tokenId",
          "type": "uint256"
        }
      ],
      "name": "safeTransferFrom",
      "outputs": [],
      "stateMutability": "nonpayable",
      "type": "function"
    },
    {
      "inputs": [
        {
          "internalType": "address",
          "name": "from",
          "type": "address"
        },
        {
          "internalType": "address",
          "name": "to",
          "type": "address"
        },
        {
          "internalType": "uint256",
          "name": "tokenId",
          "type": "uint256"
        },
        {
          "internalType": "bytes",
          "name": "_data",
          "type": "bytes"
        }
      ],
      "name": "safeTransferFrom",
      "outputs": [],
      "stateMutability": "nonpayable",
      "type": "function"
    },
    {
      "inputs": [
        {
          "internalType": "address",
          "name": "operator",
          "type": "address"
        },
        {
          "internalType": "bool",
          "name": "approved",
          "type": "bool"
        }
      ],
      "name": "setApprovalForAll",
      "outputs": [],
      "stateMutability": "nonpayable",
      "type": "function"
    },
    {
      "inputs": [
        {
          "internalType": "bytes4",
          "name": "interfaceId",
          "type": "bytes4"
        }
      ],
      "name": "supportsInterface",
      "outputs": [
        {
          "internalType": "bool",
          "name": "",
          "type": "bool"
        }
      ],
      "stateMutability": "view",
      "type": "function"
    },
    {
      "inputs": [],
      "name": "symbol",
      "outputs": [
        {
          "internalType": "string",
          "name": "",
          "type": "string"
        }
      ],
      "stateMutability": "view",
      "type": "function"
    },
    {
      "inputs": [
        {
          "internalType": "uint256",
          "name": "tokenId",
          "type": "uint256"
        }
      ],
      "name": "tokenURI",
      "outputs": [
        {
          "internalType": "string",
          "name": "",
          "type": "string"
        }
      ],
      "stateMutability": "view",
      "type": "function"
    },
    {
      "inputs": [
        {
          "internalType": "address",
          "name": "from",
          "type": "address"
        },
        {
          "internalType": "address",
          "name": "to",
          "type": "address"
        },
        {
          "internalType": "uint256",
          "name": "tokenId",
          "type": "uint256"
        }
      ],
      "name": "transferFrom",
      "outputs": [],
      "stateMutability": "nonpayable",
      "type": "function"
    }
  ],
  "bytecode": "0x6101406040523480156200001257600080fd5b506040516200265638038062002656833981016040819052620000359162000290565b81604051806040016040528060018152602001603160f81b815250838381600090805190602001906200006a9291906200011d565b508051620000809060019060208401906200011d565b5050825160208085019190912083518483012060e08290526101008190524660a0818152604080517f8b73c3c69bb8fe3d512ecc4cf759cc79239f7b179b0ffacaa9a75d522b39400f81880181905281830187905260608201869052608082019490945230818401528151808203909301835260c0019052805194019390932091935091906080523060c052610120525062000337945050505050565b8280546200012b90620002fa565b90600052602060002090601f0160209004810192826200014f57600085556200019a565b82601f106200016a57805160ff19168380011785556200019a565b828001600101855582156200019a579182015b828111156200019a5782518255916020019190600101906200017d565b50620001a8929150620001ac565b5090565b5b80821115620001a85760008155600101620001ad565b634e487b7160e01b600052604160045260246000fd5b600082601f830112620001eb57600080fd5b81516001600160401b0380821115620002085762000208620001c3565b604051601f8301601f19908116603f01168101908282118183101715620002335762000233620001c3565b816040528381526020925086838588010111156200025057600080fd5b600091505b8382101562000274578582018301518183018401529082019062000255565b83821115620002865760008385830101525b9695505050505050565b60008060408385031215620002a457600080fd5b82516001600160401b0380821115620002bc57600080fd5b620002ca86838701620001d9565b93506020850151915080821115620002e157600080fd5b50620002f085828601620001d9565b9150509250929050565b600181811c908216806200030f57607f821691505b602082108114156200033157634e487b7160e01b600052602260045260246000fd5b50919050565b60805160a05160c05160e05161010051610120516122cf620003876000396000610e7901526000610ec801526000610ea301526000610dfc01526000610e2601526000610e5001526122cf6000f3fe608060405234801561001057600080fd5b50600436106101735760003560e01c80635c19a95c116100de5780639ab24eb011610097578063c3cda52011610071578063c3cda52014610338578063c4e41b221461034b578063c87b56dd14610353578063e985e9c51461036657600080fd5b80639ab24eb0146102ff578063a22cb46514610312578063b88d4fde1461032557600080fd5b80635c19a95c146102985780636352211e146102ab57806370a08231146102be5780637ecebe00146102d15780638e539e8c146102e457806395d89b41146102f757600080fd5b80633644e515116101305780633644e515146102185780633a46b1a81461022057806340c10f191461023357806342842e0e1461024657806342966c6814610259578063587cde1e1461026c57600080fd5b806301ffc9a71461017857806306fdde03146101a0578063081812fc146101b5578063095ea7b3146101e057806323b872dd146101f55780633408e47014610208575b600080fd5b61018b610186366004611d6f565b6103a2565b60405190151581526020015b60405180910390f35b6101a86103f4565b6040516101979190611de4565b6101c86101c3366004611df7565b610486565b6040516001600160a01b039091168152602001610197565b6101f36101ee366004611e2c565b610520565b005b6101f3610203366004611e56565b610636565b465b604051908152602001610197565b61020a610667565b61020a61022e366004611e2c565b610676565b6101f3610241366004611e2c565b61069f565b6101f3610254366004611e56565b6106ad565b6101f3610267366004611df7565b6106c8565b6101c861027a366004611e92565b6001600160a01b039081166000908152600660205260409020541690565b6101f36102a6366004611e92565b6106d4565b6101c86102b9366004611df7565b6106df565b61020a6102cc366004611e92565b610756565b61020a6102df366004611e92565b6107dd565b61020a6102f2366004611df7565b6107fb565b6101a8610857565b61020a61030d366004611e92565b610866565b6101f3610320366004611ead565b610887565b6101f3610333366004611eff565b610892565b6101f3610346366004611fdb565b6108ca565b61020a6109f7565b6101a8610361366004611df7565b610a01565b61018b61037436600461203b565b6001600160a01b03918216600090815260056020908152604080832093909416825291909152205460ff1690565b60006001600160e01b031982166380ac58cd60e01b14806103d357506001600160e01b03198216635b5e139f60e01b145b806103ee57506301ffc9a760e01b6001600160e01b03198316145b92915050565b6060600080546104039061206e565b80601f016020809104026020016040519081016040528092919081815260200182805461042f9061206e565b801561047c5780601f106104515761010080835404028352916020019161047c565b820191906000526020600020905b81548152906001019060200180831161045f57829003601f168201915b5050505050905090565b6000818152600260205260408120546001600160a01b03166105045760405162461bcd60e51b815260206004820152602c60248201527f4552433732313a20617070726f76656420717565727920666f72206e6f6e657860448201526b34b9ba32b73a103a37b5b2b760a11b60648201526084015b60405180910390fd5b506000908152600460205260409020546001600160a01b031690565b600061052b826106df565b9050806001600160a01b0316836001600160a01b031614156105995760405162461bcd60e51b815260206004820152602160248201527f4552433732313a20617070726f76616c20746f2063757272656e74206f776e656044820152603960f91b60648201526084016104fb565b336001600160a01b03821614806105b557506105b58133610374565b6106275760405162461bcd60e51b815260206004820152603860248201527f4552433732313a20617070726f76652063616c6c6572206973206e6f74206f7760448201527f6e6572206e6f7220617070726f76656420666f7220616c6c000000000000000060648201526084016104fb565b6106318383610ae8565b505050565b6106403382610b56565b61065c5760405162461bcd60e51b81526004016104fb906120a3565b610631838383610c4d565b6000610671610def565b905090565b6001600160a01b03821660009081526007602052604081206106989083610f16565b9392505050565b6106a98282611025565b5050565b61063183838360405180602001604052806000815250610892565b6106d18161116f565b50565b336106a98183611212565b6000818152600260205260408120546001600160a01b0316806103ee5760405162461bcd60e51b815260206004820152602960248201527f4552433732313a206f776e657220717565727920666f72206e6f6e657869737460448201526832b73a103a37b5b2b760b91b60648201526084016104fb565b60006001600160a01b0382166107c15760405162461bcd60e51b815260206004820152602a60248201527f4552433732313a2062616c616e636520717565727920666f7220746865207a65604482015269726f206164647265737360b01b60648201526084016104fb565b506001600160a01b031660009081526003602052604090205490565b6001600160a01b0381166000908152600960205260408120546103ee565b600043821061084c5760405162461bcd60e51b815260206004820152601a60248201527f566f7465733a20626c6f636b206e6f7420796574206d696e656400000000000060448201526064016104fb565b6103ee600883610f16565b6060600180546104039061206e565b6001600160a01b03811660009081526007602052604081206103ee90611284565b6106a93383836112e0565b61089c3383610b56565b6108b85760405162461bcd60e51b81526004016104fb906120a3565b6108c4848484846113af565b50505050565b8342111561091a5760405162461bcd60e51b815260206004820152601860248201527f566f7465733a207369676e61747572652065787069726564000000000000000060448201526064016104fb565b604080517fe48329057bfd03d55e49b547132e39cffd9c1820ad7b9d4c5307691425d15adf60208201526001600160a01b0388169181019190915260608101869052608081018590526000906109949061098c9060a001604051602081830303815290604052805190602001206113e2565b858585611430565b905061099f81611458565b86146109e45760405162461bcd60e51b8152602060048201526014602482015273566f7465733a20696e76616c6964206e6f6e636560601b60448201526064016104fb565b6109ee8188611212565b50505050505050565b6000610671611480565b6000818152600260205260409020546060906001600160a01b0316610a805760405162461bcd60e51b815260206004820152602f60248201527f4552433732314d657461646174613a2055524920717565727920666f72206e6f60448201526e3732bc34b9ba32b73a103a37b5b2b760891b60648201526084016104fb565b6000610a9760408051602081019091526000815290565b90506000815111610ab75760405180602001604052806000815250610698565b80610ac18461148c565b604051602001610ad29291906120f4565b6040516020818303038152906040529392505050565b600081815260046020526040902080546001600160a01b0319166001600160a01b0384169081179091558190610b1d826106df565b6001600160a01b03167f8c5be1e5ebec7d5bd14f71427d1e84f3dd0314c0f7b2291e5b200ac8c7c3b92560405160405180910390a45050565b6000818152600260205260408120546001600160a01b0316610bcf5760405162461bcd60e51b815260206004820152602c60248201527f4552433732313a206f70657261746f7220717565727920666f72206e6f6e657860448201526b34b9ba32b73a103a37b5b2b760a11b60648201526084016104fb565b6000610bda836106df565b9050806001600160a01b0316846001600160a01b03161480610c155750836001600160a01b0316610c0a84610486565b6001600160a01b0316145b80610c4557506001600160a01b0380821660009081526005602090815260408083209388168352929052205460ff165b949350505050565b826001600160a01b0316610c60826106df565b6001600160a01b031614610cc45760405162461bcd60e51b815260206004820152602560248201527f4552433732313a207472616e736665722066726f6d20696e636f72726563742060448201526437bbb732b960d91b60648201526084016104fb565b6001600160a01b038216610d265760405162461bcd60e51b8152602060048201526024808201527f4552433732313a207472616e7366657220746f20746865207a65726f206164646044820152637265737360e01b60648201526084016104fb565b610d31600082610ae8565b6001600160a01b0383166000908152600360205260408120805460019290610d5a908490612139565b90915550506001600160a01b0382166000908152600360205260408120805460019290610d88908490612150565b909155505060008181526002602052604080822080546001600160a01b0319166001600160a01b0386811691821790925591518493918716917fddf252ad1be2c89b69c2b068fc378daa952ba7f163c4a11628f55a4df523b3ef91a461063183838361158a565b6000306001600160a01b037f000000000000000000000000000000000000000000000000000000000000000016148015610e4857507f000000000000000000000000000000000000000000000000000000000000000046145b15610e7257507f000000000000000000000000000000000000000000000000000000000000000090565b50604080517f00000000000000000000000000000000000000000000000000000000000000006020808301919091527f0000000000000000000000000000000000000000000000000000000000000000828401527f000000000000000000000000000000000000000000000000000000000000000060608301524660808301523060a0808401919091528351808403909101815260c0909201909252805191012090565b6000438210610f675760405162461bcd60e51b815260206004820181905260248201527f436865636b706f696e74733a20626c6f636b206e6f7420796574206d696e656460448201526064016104fb565b825460005b81811015610fcc576000610f808284611596565b905084866000018281548110610f9857610f98612168565b60009182526020909120015463ffffffff161115610fb857809250610fc6565b610fc3816001612150565b91505b50610f6c565b81156110105784610fde600184612139565b81548110610fee57610fee612168565b60009182526020909120015464010000000090046001600160e01b0316611013565b60005b6001600160e01b031695945050505050565b6001600160a01b03821661107b5760405162461bcd60e51b815260206004820181905260248201527f4552433732313a206d696e7420746f20746865207a65726f206164647265737360448201526064016104fb565b6000818152600260205260409020546001600160a01b0316156110e05760405162461bcd60e51b815260206004820152601c60248201527f4552433732313a20746f6b656e20616c7265616479206d696e7465640000000060448201526064016104fb565b6001600160a01b0382166000908152600360205260408120805460019290611109908490612150565b909155505060008181526002602052604080822080546001600160a01b0319166001600160a01b03861690811790915590518392907fddf252ad1be2c89b69c2b068fc378daa952ba7f163c4a11628f55a4df523b3ef908290a46106a96000838361158a565b600061117a826106df565b9050611187600083610ae8565b6001600160a01b03811660009081526003602052604081208054600192906111b0908490612139565b909155505060008281526002602052604080822080546001600160a01b0319169055518391906001600160a01b038416907fddf252ad1be2c89b69c2b068fc378daa952ba7f163c4a11628f55a4df523b3ef908390a46106a98160008461158a565b6001600160a01b0382811660008181526006602052604080822080548686166001600160a01b0319821681179092559151919094169392849290917f3134e8a2e6d97e929a7e54011ea5485d7d196dd5f0ba4d4ef95803e8e3fc257f9190a4610631818361127f866115b1565b6115bc565b805460009080156112cd578261129b600183612139565b815481106112ab576112ab612168565b60009182526020909120015464010000000090046001600160e01b03166112d0565b60005b6001600160e01b03169392505050565b816001600160a01b0316836001600160a01b031614156113425760405162461bcd60e51b815260206004820152601960248201527f4552433732313a20617070726f766520746f2063616c6c65720000000000000060448201526064016104fb565b6001600160a01b03838116600081815260056020908152604080832094871680845294825291829020805460ff191686151590811790915591519182527f17307eab39ab6107e8899845ad3d59bd9653f200f220920489ca2b5937696c31910160405180910390a3505050565b6113ba848484610c4d565b6113c6848484846116f9565b6108c45760405162461bcd60e51b81526004016104fb9061217e565b60006103ee6113ef610def565b8360405161190160f01b6020820152602281018390526042810182905260009060620160405160208183030381529060405280519060200120905092915050565b600080600061144187878787611803565b9150915061144e816118f0565b5095945050505050565b6001600160a01b03811660009081526009602052604090208054600181018255905b50919050565b60006106716008611284565b6060816114b05750506040805180820190915260018152600360fc1b602082015290565b8160005b81156114da57806114c4816121d0565b91506114d39050600a83612201565b91506114b4565b60008167ffffffffffffffff8111156114f5576114f5611ee9565b6040519080825280601f01601f19166020018201604052801561151f576020820181803683370190505b5090505b8415610c4557611534600183612139565b9150611541600a86612215565b61154c906030612150565b60f81b81838151811061156157611561612168565b60200101906001600160f81b031916908160001a905350611583600a86612201565b9450611523565b61063183836001611aab565b60006115a56002848418612201565b61069890848416612150565b60006103ee82610756565b816001600160a01b0316836001600160a01b0316141580156115de5750600081115b15610631576001600160a01b0383161561166c576001600160a01b0383166000908152600760205260408120819061161990611b1b85611b27565b91509150846001600160a01b03167fdec2bacdd2f05b59de34da9b523dff8be42e5e38e818c82fdb0bae774387a7248383604051611661929190918252602082015260400190565b60405180910390a250505b6001600160a01b03821615610631576001600160a01b038216600090815260076020526040812081906116a290611b5585611b27565b91509150836001600160a01b03167fdec2bacdd2f05b59de34da9b523dff8be42e5e38e818c82fdb0bae774387a72483836040516116ea929190918252602082015260400190565b60405180910390a25050505050565b60006001600160a01b0384163b156117fb57604051630a85bd0160e11b81526001600160a01b0385169063150b7a029061173d903390899088908890600401612229565b602060405180830381600087803b15801561175757600080fd5b505af1925050508015611787575060408051601f3d908101601f1916820190925261178491810190612266565b60015b6117e1573d8080156117b5576040519150601f19603f3d011682016040523d82523d6000602084013e6117ba565b606091505b5080516117d95760405162461bcd60e51b81526004016104fb9061217e565b805181602001fd5b6001600160e01b031916630a85bd0160e11b149050610c45565b506001610c45565b6000807f7fffffffffffffffffffffffffffffff5d576e7357a4501ddfe92f46681b20a083111561183a57506000905060036118e7565b8460ff16601b1415801561185257508460ff16601c14155b1561186357506000905060046118e7565b6040805160008082526020820180845289905260ff881692820192909252606081018690526080810185905260019060a0016020604051602081039080840390855afa1580156118b7573d6000803e3d6000fd5b5050604051601f1901519150506001600160a01b0381166118e0576000600192509250506118e7565b9150600090505b94509492505050565b600081600481111561190457611904612283565b141561190d5750565b600181600481111561192157611921612283565b141561196f5760405162461bcd60e51b815260206004820152601860248201527f45434453413a20696e76616c6964207369676e6174757265000000000000000060448201526064016104fb565b600281600481111561198357611983612283565b14156119d15760405162461bcd60e51b815260206004820152601f60248201527f45434453413a20696e76616c6964207369676e6174757265206c656e6774680060448201526064016104fb565b60038160048111156119e5576119e5612283565b1415611a3e5760405162461bcd60e51b815260206004820152602260248201527f45434453413a20696e76616c6964207369676e6174757265202773272076616c604482015261756560f01b60648201526084016104fb565b6004816004811115611a5257611a52612283565b14156106d15760405162461bcd60e51b815260206004820152602260248201527f45434453413a20696e76616c6964207369676e6174757265202776272076616c604482015261756560f01b60648201526084016104fb565b6001600160a01b038316611aca57611ac76008611b5583611b27565b50505b6001600160a01b038216611ae957611ae66008611b1b83611b27565b50505b6001600160a01b03838116600090815260066020526040808220548584168352912054610631929182169116836115bc565b60006106988284612139565b600080611b4985611b44611b3a88611284565b868863ffffffff16565b611b61565b91509150935093915050565b60006106988284612150565b8154600090819081611b7286611284565b9050600082118015611bb057504386611b8c600185612139565b81548110611b9c57611b9c612168565b60009182526020909120015463ffffffff16145b15611c1057611bbe85611c87565b86611bca600185612139565b81548110611bda57611bda612168565b9060005260206000200160000160046101000a8154816001600160e01b0302191690836001600160e01b03160217905550611c7e565b856000016040518060400160405280611c2843611cf4565b63ffffffff168152602001611c3c88611c87565b6001600160e01b0390811690915282546001810184556000938452602093849020835194909301519091166401000000000263ffffffff909316929092179101555b95939450505050565b60006001600160e01b03821115611cf05760405162461bcd60e51b815260206004820152602760248201527f53616665436173743a2076616c756520646f65736e27742066697420696e20326044820152663234206269747360c81b60648201526084016104fb565b5090565b600063ffffffff821115611cf05760405162461bcd60e51b815260206004820152602660248201527f53616665436173743a2076616c756520646f65736e27742066697420696e203360448201526532206269747360d01b60648201526084016104fb565b6001600160e01b0319811681146106d157600080fd5b600060208284031215611d8157600080fd5b813561069881611d59565b60005b83811015611da7578181015183820152602001611d8f565b838111156108c45750506000910152565b60008151808452611dd0816020860160208601611d8c565b601f01601f19169290920160200192915050565b6020815260006106986020830184611db8565b600060208284031215611e0957600080fd5b5035919050565b80356001600160a01b0381168114611e2757600080fd5b919050565b60008060408385031215611e3f57600080fd5b611e4883611e10565b946020939093013593505050565b600080600060608486031215611e6b57600080fd5b611e7484611e10565b9250611e8260208501611e10565b9150604084013590509250925092565b600060208284031215611ea457600080fd5b61069882611e10565b60008060408385031215611ec057600080fd5b611ec983611e10565b915060208301358015158114611ede57600080fd5b809150509250929050565b634e487b7160e01b600052604160045260246000fd5b60008060008060808587031215611f1557600080fd5b611f1e85611e10565b9350611f2c60208601611e10565b925060408501359150606085013567ffffffffffffffff80821115611f5057600080fd5b818701915087601f830112611f6457600080fd5b813581811115611f7657611f76611ee9565b604051601f8201601f19908116603f01168101908382118183101715611f9e57611f9e611ee9565b816040528281528a6020848701011115611fb757600080fd5b82602086016020830137600060208483010152809550505050505092959194509250565b60008060008060008060c08789031215611ff457600080fd5b611ffd87611e10565b95506020870135945060408701359350606087013560ff8116811461202157600080fd5b9598949750929560808101359460a0909101359350915050565b6000806040838503121561204e57600080fd5b61205783611e10565b915061206560208401611e10565b90509250929050565b600181811c9082168061208257607f821691505b6020821081141561147a57634e487b7160e01b600052602260045260246000fd5b60208082526031908201527f4552433732313a207472616e736665722063616c6c6572206973206e6f74206f6040820152701ddb995c881b9bdc88185c1c1c9bdd9959607a1b606082015260800190565b60008351612106818460208801611d8c565b83519083019061211a818360208801611d8c565b01949350505050565b634e487b7160e01b600052601160045260246000fd5b60008282101561214b5761214b612123565b500390565b6000821982111561216357612163612123565b500190565b634e487b7160e01b600052603260045260246000fd5b60208082526032908201527f4552433732313a207472616e7366657220746f206e6f6e20455243373231526560408201527131b2b4bb32b91034b6b83632b6b2b73a32b960711b606082015260800190565b60006000198214156121e4576121e4612123565b5060010190565b634e487b7160e01b600052601260045260246000fd5b600082612210576122106121eb565b500490565b600082612224576122246121eb565b500690565b6001600160a01b038581168252841660208201526040810183905260806060820181905260009061225c90830184611db8565b9695505050505050565b60006020828403121561227857600080fd5b815161069881611d59565b634e487b7160e01b600052602160045260246000fdfea26469706673582212207e1ed47cb8ea1862923e107d81d61707a525d7ee05180c151bce73f0b9ba9a7c64736f6c63430008090033",
  "linkReferences": {},
  "deployedLinkReferences": {}
}