{
  "_format": "hh-sol-artifact-1",
  "contractName": "ERC721RoyaltyMock",
  "sourceName": "contracts/mocks/ERC721RoyaltyMock.sol",
  "abi": [
    {
      "inputs": [
        {
          "internalType": "string",
          "name": "name",
          "type": "string"
        },
        {
          "internalType": "string",
          "name": "symbol",
          "type": "string"
        }
      ],
      "stateMutability": "nonpayable",
      "type": "constructor"
    },
    {
      "anonymous": false,
      "inputs": [
        {
          "indexed": true,
          "internalType": "address",
          "name": "owner",
          "type": "address"
        },
        {
          "indexed": true,
          "internalType": "address",
          "name": "approved",
          "type": "address"
        },
        {
          "indexed": true,
          "internalType": "uint256",
          "name": "tokenId",
          "type": "uint256"
        }
      ],
      "name": "Approval",
      "type": "event"
    },
    {
      "anonymous": false,
      "inputs": [
        {
          "indexed": true,
          "internalType": "address",
          "name": "owner",
          "type": "address"
        },
        {
          "indexed": true,
          "internalType": "address",
          "name": "operator",
          "type": "address"
        },
        {
          "indexed": false,
          "internalType": "bool",
          "name": "approved",
          "type": "bool"
        }
      ],
      "name": "ApprovalForAll",
      "type": "event"
    },
    {
      "anonymous": false,
      "inputs": [
        {
          "indexed": true,
          "internalType": "address",
          "name": "from",
          "type": "address"
        },
        {
          "indexed": true,
          "internalType": "address",
          "name": "to",
          "type": "address"
        },
        {
          "indexed": true,
          "internalType": "uint256",
          "name": "tokenId",
          "type": "uint256"
        }
      ],
      "name": "Transfer",
      "type": "event"
    },
    {
      "inputs": [
        {
          "internalType": "address",
          "name": "to",
          "type": "address"
        },
        {
          "internalType": "uint256",
          "name": "tokenId",
          "type": "uint256"
        }
      ],
      "name": "approve",
      "outputs": [],
      "stateMutability": "nonpayable",
      "type": "function"
    },
    {
      "inputs": [
        {
          "internalType": "address",
          "name": "owner",
          "type": "address"
        }
      ],
      "name": "balanceOf",
      "outputs": [
        {
          "internalType": "uint256",
          "name": "",
          "type": "uint256"
        }
      ],
      "stateMutability": "view",
      "type": "function"
    },
    {
      "inputs": [
        {
          "internalType": "uint256",
          "name": "tokenId",
          "type": "uint256"
        }
      ],
      "name": "burn",
      "outputs": [],
      "stateMutability": "nonpayable",
      "type": "function"
    },
    {
      "inputs": [],
      "name": "deleteDefaultRoyalty",
      "outputs": [],
      "stateMutability": "nonpayable",
      "type": "function"
    },
    {
      "inputs": [
        {
          "internalType": "uint256",
          "name": "tokenId",
          "type": "uint256"
        }
      ],
      "name": "getApproved",
      "outputs": [
        {
          "internalType": "address",
          "name": "",
          "type": "address"
        }
      ],
      "stateMutability": "view",
      "type": "function"
    },
    {
      "inputs": [
        {
          "internalType": "address",
          "name": "owner",
          "type": "address"
        },
        {
          "internalType": "address",
          "name": "operator",
          "type": "address"
        }
      ],
      "name": "isApprovedForAll",
      "outputs": [
        {
          "internalType": "bool",
          "name": "",
          "type": "bool"
        }
      ],
      "stateMutability": "view",
      "type": "function"
    },
    {
      "inputs": [
        {
          "internalType": "address",
          "name": "to",
          "type": "address"
        },
        {
          "internalType": "uint256",
          "name": "tokenId",
          "type": "uint256"
        }
      ],
      "name": "mint",
      "outputs": [],
      "stateMutability": "nonpayable",
      "type": "function"
    },
    {
      "inputs": [],
      "name": "name",
      "outputs": [
        {
          "internalType": "string",
          "name": "",
          "type": "string"
        }
      ],
      "stateMutability": "view",
      "type": "function"
    },
    {
      "inputs": [
        {
          "internalType": "uint256",
          "name": "tokenId",
          "type": "uint256"
        }
      ],
      "name": "ownerOf",
      "outputs": [
        {
          "internalType": "address",
          "name": "",
          "type": "address"
        }
      ],
      "stateMutability": "view",
      "type": "function"
    },
    {
      "inputs": [
        {
          "internalType": "uint256",
          "name": "_tokenId",
          "type": "uint256"
        },
        {
          "internalType": "uint256",
          "name": "_salePrice",
          "type": "uint256"
        }
      ],
      "name": "royaltyInfo",
      "outputs": [
        {
          "internalType": "address",
          "name": "",
          "type": "address"
        },
        {
          "internalType": "uint256",
          "name": "",
          "type": "uint256"
        }
      ],
      "stateMutability": "view",
      "type": "function"
    },
    {
      "inputs": [
        {
          "internalType": "address",
          "name": "from",
          "type": "address"
        },
        {
          "internalType": "address",
          "name": "to",
          "type": "address"
        },
        {
          "internalType": "uint256",
          "name": "tokenId",
          "type": "uint256"
        }
      ],
      "name": "safeTransferFrom",
      "outputs": [],
      "stateMutability": "nonpayable",
      "type": "function"
    },
    {
      "inputs": [
        {
          "internalType": "address",
          "name": "from",
          "type": "address"
        },
        {
          "internalType": "address",
          "name": "to",
          "type": "address"
        },
        {
          "internalType": "uint256",
          "name": "tokenId",
          "type": "uint256"
        },
        {
          "internalType": "bytes",
          "name": "_data",
          "type": "bytes"
        }
      ],
      "name": "safeTransferFrom",
      "outputs": [],
      "stateMutability": "nonpayable",
      "type": "function"
    },
    {
      "inputs": [
        {
          "internalType": "address",
          "name": "operator",
          "type": "address"
        },
        {
          "internalType": "bool",
          "name": "approved",
          "type": "bool"
        }
      ],
      "name": "setApprovalForAll",
      "outputs": [],
      "stateMutability": "nonpayable",
      "type": "function"
    },
    {
      "inputs": [
        {
          "internalType": "address",
          "name": "recipient",
          "type": "address"
        },
        {
          "internalType": "uint96",
          "name": "fraction",
          "type": "uint96"
        }
      ],
      "name": "setDefaultRoyalty",
      "outputs": [],
      "stateMutability": "nonpayable",
      "type": "function"
    },
    {
      "inputs": [
        {
          "internalType": "uint256",
          "name": "tokenId",
          "type": "uint256"
        },
        {
          "internalType": "address",
          "name": "recipient",
          "type": "address"
        },
        {
          "internalType": "uint96",
          "name": "fraction",
          "type": "uint96"
        }
      ],
      "name": "setTokenRoyalty",
      "outputs": [],
      "stateMutability": "nonpayable",
      "type": "function"
    },
    {
      "inputs": [
        {
          "internalType": "bytes4",
          "name": "interfaceId",
          "type": "bytes4"
        }
      ],
      "name": "supportsInterface",
      "outputs": [
        {
          "internalType": "bool",
          "name": "",
          "type": "bool"
        }
      ],
      "stateMutability": "view",
      "type": "function"
    },
    {
      "inputs": [],
      "name": "symbol",
      "outputs": [
        {
          "internalType": "string",
          "name": "",
          "type": "string"
        }
      ],
      "stateMutability": "view",
      "type": "function"
    },
    {
      "inputs": [
        {
          "internalType": "uint256",
          "name": "tokenId",
          "type": "uint256"
        }
      ],
      "name": "tokenURI",
      "outputs": [
        {
          "internalType": "string",
          "name": "",
          "type": "string"
        }
      ],
      "stateMutability": "view",
      "type": "function"
    },
    {
      "inputs": [
        {
          "internalType": "address",
          "name": "from",
          "type": "address"
        },
        {
          "internalType": "address",
          "name": "to",
          "type": "address"
        },
        {
          "internalType": "uint256",
          "name": "tokenId",
          "type": "uint256"
        }
      ],
      "name": "transferFrom",
      "outputs": [],
      "stateMutability": "nonpayable",
      "type": "function"
    }
  ],
  "bytecode": "0x60806040523480156200001157600080fd5b5060405162001b6238038062001b628339810160408190526200003491620001e1565b8151829082906200004d9060029060208501906200006e565b508051620000639060039060208401906200006e565b505050505062000288565b8280546200007c906200024b565b90600052602060002090601f016020900481019282620000a05760008555620000eb565b82601f10620000bb57805160ff1916838001178555620000eb565b82800160010185558215620000eb579182015b82811115620000eb578251825591602001919060010190620000ce565b50620000f9929150620000fd565b5090565b5b80821115620000f95760008155600101620000fe565b634e487b7160e01b600052604160045260246000fd5b600082601f8301126200013c57600080fd5b81516001600160401b038082111562000159576200015962000114565b604051601f8301601f19908116603f0116810190828211818310171562000184576200018462000114565b81604052838152602092508683858801011115620001a157600080fd5b600091505b83821015620001c55785820183015181830184015290820190620001a6565b83821115620001d75760008385830101525b9695505050505050565b60008060408385031215620001f557600080fd5b82516001600160401b03808211156200020d57600080fd5b6200021b868387016200012a565b935060208501519150808211156200023257600080fd5b5062000241858286016200012a565b9150509250929050565b600181811c908216806200026057607f821691505b602082108114156200028257634e487b7160e01b600052602260045260246000fd5b50919050565b6118ca80620002986000396000f3fe608060405234801561001057600080fd5b50600436106101215760003560e01c806342966c68116100ad578063a22cb46511610071578063a22cb46514610283578063aa1b103f14610296578063b88d4fde1461029e578063c87b56dd146102b1578063e985e9c5146102c457600080fd5b806342966c68146102215780635944c753146102345780636352211e1461024757806370a082311461025a57806395d89b411461027b57600080fd5b8063095ea7b3116100f4578063095ea7b3146101a357806323b872dd146101b65780632a55205a146101c957806340c10f19146101fb57806342842e0e1461020e57600080fd5b806301ffc9a71461012657806304634d8d1461014e57806306fdde0314610163578063081812fc14610178575b600080fd5b6101396101343660046112d2565b610300565b60405190151581526020015b60405180910390f35b61016161015c366004611322565b610311565b005b61016b61031f565b60405161014591906113ad565b61018b6101863660046113c0565b6103b1565b6040516001600160a01b039091168152602001610145565b6101616101b13660046113d9565b61044b565b6101616101c4366004611403565b610561565b6101dc6101d736600461143f565b610592565b604080516001600160a01b039093168352602083019190915201610145565b6101616102093660046113d9565b61063e565b61016161021c366004611403565b610648565b61016161022f3660046113c0565b610663565b610161610242366004611461565b61066f565b61018b6102553660046113c0565b61067a565b61026d61026836600461149d565b6106f1565b604051908152602001610145565b61016b610778565b6101616102913660046114b8565b610787565b610161610792565b6101616102ac36600461150a565b61079d565b61016b6102bf3660046113c0565b6107d5565b6101396102d23660046115e6565b6001600160a01b03918216600090815260076020908152604080832093909416825291909152205460ff1690565b600061030b826108bd565b92915050565b61031b82826108fd565b5050565b60606002805461032e90611610565b80601f016020809104026020016040519081016040528092919081815260200182805461035a90611610565b80156103a75780601f1061037c576101008083540402835291602001916103a7565b820191906000526020600020905b81548152906001019060200180831161038a57829003601f168201915b5050505050905090565b6000818152600460205260408120546001600160a01b031661042f5760405162461bcd60e51b815260206004820152602c60248201527f4552433732313a20617070726f76656420717565727920666f72206e6f6e657860448201526b34b9ba32b73a103a37b5b2b760a11b60648201526084015b60405180910390fd5b506000908152600660205260409020546001600160a01b031690565b60006104568261067a565b9050806001600160a01b0316836001600160a01b031614156104c45760405162461bcd60e51b815260206004820152602160248201527f4552433732313a20617070726f76616c20746f2063757272656e74206f776e656044820152603960f91b6064820152608401610426565b336001600160a01b03821614806104e057506104e081336102d2565b6105525760405162461bcd60e51b815260206004820152603860248201527f4552433732313a20617070726f76652063616c6c6572206973206e6f74206f7760448201527f6e6572206e6f7220617070726f76656420666f7220616c6c00000000000000006064820152608401610426565b61055c83836109b7565b505050565b61056b3382610a25565b6105875760405162461bcd60e51b81526004016104269061164b565b61055c838383610b1c565b60008281526001602090815260408083208151808301909252546001600160a01b038116808352600160a01b9091046001600160601b03169282019290925282916106075750604080518082019091526000546001600160a01b0381168252600160a01b90046001600160601b031660208201525b602081015160009061271090610626906001600160601b0316876116b2565b61063091906116e7565b915196919550909350505050565b61031b8282610cb8565b61055c8383836040518060200160405280600081525061079d565b61066c81610dfa565b50565b61055c838383610e14565b6000818152600460205260408120546001600160a01b03168061030b5760405162461bcd60e51b815260206004820152602960248201527f4552433732313a206f776e657220717565727920666f72206e6f6e657869737460448201526832b73a103a37b5b2b760b91b6064820152608401610426565b60006001600160a01b03821661075c5760405162461bcd60e51b815260206004820152602a60248201527f4552433732313a2062616c616e636520717565727920666f7220746865207a65604482015269726f206164647265737360b01b6064820152608401610426565b506001600160a01b031660009081526005602052604090205490565b60606003805461032e90611610565b61031b338383610edf565b61079b60008055565b565b6107a73383610a25565b6107c35760405162461bcd60e51b81526004016104269061164b565b6107cf84848484610fae565b50505050565b6000818152600460205260409020546060906001600160a01b03166108545760405162461bcd60e51b815260206004820152602f60248201527f4552433732314d657461646174613a2055524920717565727920666f72206e6f60448201526e3732bc34b9ba32b73a103a37b5b2b760891b6064820152608401610426565b600061086b60408051602081019091526000815290565b9050600081511161088b57604051806020016040528060008152506108b6565b8061089584610fe1565b6040516020016108a69291906116fb565b6040516020818303038152906040525b9392505050565b60006001600160e01b031982166380ac58cd60e01b14806108ee57506001600160e01b03198216635b5e139f60e01b145b8061030b575061030b826110df565b6127106001600160601b03821611156109285760405162461bcd60e51b81526004016104269061172a565b6001600160a01b03821661097e5760405162461bcd60e51b815260206004820152601960248201527f455243323938313a20696e76616c6964207265636569766572000000000000006044820152606401610426565b604080518082019091526001600160a01b039092168083526001600160601b039091166020909201829052600160a01b90910217600055565b600081815260066020526040902080546001600160a01b0319166001600160a01b03841690811790915581906109ec8261067a565b6001600160a01b03167f8c5be1e5ebec7d5bd14f71427d1e84f3dd0314c0f7b2291e5b200ac8c7c3b92560405160405180910390a45050565b6000818152600460205260408120546001600160a01b0316610a9e5760405162461bcd60e51b815260206004820152602c60248201527f4552433732313a206f70657261746f7220717565727920666f72206e6f6e657860448201526b34b9ba32b73a103a37b5b2b760a11b6064820152608401610426565b6000610aa98361067a565b9050806001600160a01b0316846001600160a01b03161480610ae45750836001600160a01b0316610ad9846103b1565b6001600160a01b0316145b80610b1457506001600160a01b0380821660009081526007602090815260408083209388168352929052205460ff165b949350505050565b826001600160a01b0316610b2f8261067a565b6001600160a01b031614610b935760405162461bcd60e51b815260206004820152602560248201527f4552433732313a207472616e736665722066726f6d20696e636f72726563742060448201526437bbb732b960d91b6064820152608401610426565b6001600160a01b038216610bf55760405162461bcd60e51b8152602060048201526024808201527f4552433732313a207472616e7366657220746f20746865207a65726f206164646044820152637265737360e01b6064820152608401610426565b610c006000826109b7565b6001600160a01b0383166000908152600560205260408120805460019290610c29908490611774565b90915550506001600160a01b0382166000908152600560205260408120805460019290610c5790849061178b565b909155505060008181526004602052604080822080546001600160a01b0319166001600160a01b0386811691821790925591518493918716917fddf252ad1be2c89b69c2b068fc378daa952ba7f163c4a11628f55a4df523b3ef91a4505050565b6001600160a01b038216610d0e5760405162461bcd60e51b815260206004820181905260248201527f4552433732313a206d696e7420746f20746865207a65726f20616464726573736044820152606401610426565b6000818152600460205260409020546001600160a01b031615610d735760405162461bcd60e51b815260206004820152601c60248201527f4552433732313a20746f6b656e20616c7265616479206d696e746564000000006044820152606401610426565b6001600160a01b0382166000908152600560205260408120805460019290610d9c90849061178b565b909155505060008181526004602052604080822080546001600160a01b0319166001600160a01b03861690811790915590518392907fddf252ad1be2c89b69c2b068fc378daa952ba7f163c4a11628f55a4df523b3ef908290a45050565b610e0381611114565b600090815260016020526040812055565b6127106001600160601b0382161115610e3f5760405162461bcd60e51b81526004016104269061172a565b6001600160a01b038216610e955760405162461bcd60e51b815260206004820152601b60248201527f455243323938313a20496e76616c696420706172616d657465727300000000006044820152606401610426565b6040805180820182526001600160a01b0393841681526001600160601b0392831660208083019182526000968752600190529190942093519051909116600160a01b029116179055565b816001600160a01b0316836001600160a01b03161415610f415760405162461bcd60e51b815260206004820152601960248201527f4552433732313a20617070726f766520746f2063616c6c6572000000000000006044820152606401610426565b6001600160a01b03838116600081815260076020908152604080832094871680845294825291829020805460ff191686151590811790915591519182527f17307eab39ab6107e8899845ad3d59bd9653f200f220920489ca2b5937696c31910160405180910390a3505050565b610fb9848484610b1c565b610fc5848484846111af565b6107cf5760405162461bcd60e51b8152600401610426906117a3565b6060816110055750506040805180820190915260018152600360fc1b602082015290565b8160005b811561102f5780611019816117f5565b91506110289050600a836116e7565b9150611009565b60008167ffffffffffffffff81111561104a5761104a6114f4565b6040519080825280601f01601f191660200182016040528015611074576020820181803683370190505b5090505b8415610b1457611089600183611774565b9150611096600a86611810565b6110a190603061178b565b60f81b8183815181106110b6576110b6611824565b60200101906001600160f81b031916908160001a9053506110d8600a866116e7565b9450611078565b60006001600160e01b0319821663152a902d60e11b148061030b57506301ffc9a760e01b6001600160e01b031983161461030b565b600061111f8261067a565b905061112c6000836109b7565b6001600160a01b0381166000908152600560205260408120805460019290611155908490611774565b909155505060008281526004602052604080822080546001600160a01b0319169055518391906001600160a01b038416907fddf252ad1be2c89b69c2b068fc378daa952ba7f163c4a11628f55a4df523b3ef908390a45050565b60006001600160a01b0384163b156112b157604051630a85bd0160e11b81526001600160a01b0385169063150b7a02906111f390339089908890889060040161183a565b602060405180830381600087803b15801561120d57600080fd5b505af192505050801561123d575060408051601f3d908101601f1916820190925261123a91810190611877565b60015b611297573d80801561126b576040519150601f19603f3d011682016040523d82523d6000602084013e611270565b606091505b50805161128f5760405162461bcd60e51b8152600401610426906117a3565b805181602001fd5b6001600160e01b031916630a85bd0160e11b149050610b14565b506001949350505050565b6001600160e01b03198116811461066c57600080fd5b6000602082840312156112e457600080fd5b81356108b6816112bc565b80356001600160a01b038116811461130657600080fd5b919050565b80356001600160601b038116811461130657600080fd5b6000806040838503121561133557600080fd5b61133e836112ef565b915061134c6020840161130b565b90509250929050565b60005b83811015611370578181015183820152602001611358565b838111156107cf5750506000910152565b60008151808452611399816020860160208601611355565b601f01601f19169290920160200192915050565b6020815260006108b66020830184611381565b6000602082840312156113d257600080fd5b5035919050565b600080604083850312156113ec57600080fd5b6113f5836112ef565b946020939093013593505050565b60008060006060848603121561141857600080fd5b611421846112ef565b925061142f602085016112ef565b9150604084013590509250925092565b6000806040838503121561145257600080fd5b50508035926020909101359150565b60008060006060848603121561147657600080fd5b83359250611486602085016112ef565b91506114946040850161130b565b90509250925092565b6000602082840312156114af57600080fd5b6108b6826112ef565b600080604083850312156114cb57600080fd5b6114d4836112ef565b9150602083013580151581146114e957600080fd5b809150509250929050565b634e487b7160e01b600052604160045260246000fd5b6000806000806080858703121561152057600080fd5b611529856112ef565b9350611537602086016112ef565b925060408501359150606085013567ffffffffffffffff8082111561155b57600080fd5b818701915087601f83011261156f57600080fd5b813581811115611581576115816114f4565b604051601f8201601f19908116603f011681019083821181831017156115a9576115a96114f4565b816040528281528a60208487010111156115c257600080fd5b82602086016020830137600060208483010152809550505050505092959194509250565b600080604083850312156115f957600080fd5b611602836112ef565b915061134c602084016112ef565b600181811c9082168061162457607f821691505b6020821081141561164557634e487b7160e01b600052602260045260246000fd5b50919050565b60208082526031908201527f4552433732313a207472616e736665722063616c6c6572206973206e6f74206f6040820152701ddb995c881b9bdc88185c1c1c9bdd9959607a1b606082015260800190565b634e487b7160e01b600052601160045260246000fd5b60008160001904831182151516156116cc576116cc61169c565b500290565b634e487b7160e01b600052601260045260246000fd5b6000826116f6576116f66116d1565b500490565b6000835161170d818460208801611355565b835190830190611721818360208801611355565b01949350505050565b6020808252602a908201527f455243323938313a20726f79616c7479206665652077696c6c206578636565646040820152692073616c65507269636560b01b606082015260800190565b6000828210156117865761178661169c565b500390565b6000821982111561179e5761179e61169c565b500190565b60208082526032908201527f4552433732313a207472616e7366657220746f206e6f6e20455243373231526560408201527131b2b4bb32b91034b6b83632b6b2b73a32b960711b606082015260800190565b60006000198214156118095761180961169c565b5060010190565b60008261181f5761181f6116d1565b500690565b634e487b7160e01b600052603260045260246000fd5b6001600160a01b038581168252841660208201526040810183905260806060820181905260009061186d90830184611381565b9695505050505050565b60006020828403121561188957600080fd5b81516108b6816112bc56fea2646970667358221220b451490012ebcf1a6ff57c8011136af169718d2c0e04f3f71f2c7803e087f7c664736f6c63430008090033",
  "linkReferences": {},
  "deployedLinkReferences": {}
}