{
  "_format": "hh-sol-artifact-1",
  "contractName": "ERC721URIStorageMock",
  "sourceName": "contracts/mocks/ERC721URIStorageMock.sol",
  "abi": [
    {
      "inputs": [
        {
          "internalType": "string",
          "name": "name",
          "type": "string"
        },
        {
          "internalType": "string",
          "name": "symbol",
          "type": "string"
        }
      ],
      "stateMutability": "nonpayable",
      "type": "constructor"
    },
    {
      "anonymous": false,
      "inputs": [
        {
          "indexed": true,
          "internalType": "address",
          "name": "owner",
          "type": "address"
        },
        {
          "indexed": true,
          "internalType": "address",
          "name": "approved",
          "type": "address"
        },
        {
          "indexed": true,
          "internalType": "uint256",
          "name": "tokenId",
          "type": "uint256"
        }
      ],
      "name": "Approval",
      "type": "event"
    },
    {
      "anonymous": false,
      "inputs": [
        {
          "indexed": true,
          "internalType": "address",
          "name": "owner",
          "type": "address"
        },
        {
          "indexed": true,
          "internalType": "address",
          "name": "operator",
          "type": "address"
        },
        {
          "indexed": false,
          "internalType": "bool",
          "name": "approved",
          "type": "bool"
        }
      ],
      "name": "ApprovalForAll",
      "type": "event"
    },
    {
      "anonymous": false,
      "inputs": [
        {
          "indexed": true,
          "internalType": "address",
          "name": "from",
          "type": "address"
        },
        {
          "indexed": true,
          "internalType": "address",
          "name": "to",
          "type": "address"
        },
        {
          "indexed": true,
          "internalType": "uint256",
          "name": "tokenId",
          "type": "uint256"
        }
      ],
      "name": "Transfer",
      "type": "event"
    },
    {
      "inputs": [
        {
          "internalType": "address",
          "name": "to",
          "type": "address"
        },
        {
          "internalType": "uint256",
          "name": "tokenId",
          "type": "uint256"
        }
      ],
      "name": "approve",
      "outputs": [],
      "stateMutability": "nonpayable",
      "type": "function"
    },
    {
      "inputs": [
        {
          "internalType": "address",
          "name": "owner",
          "type": "address"
        }
      ],
      "name": "balanceOf",
      "outputs": [
        {
          "internalType": "uint256",
          "name": "",
          "type": "uint256"
        }
      ],
      "stateMutability": "view",
      "type": "function"
    },
    {
      "inputs": [],
      "name": "baseURI",
      "outputs": [
        {
          "internalType": "string",
          "name": "",
          "type": "string"
        }
      ],
      "stateMutability": "view",
      "type": "function"
    },
    {
      "inputs": [
        {
          "internalType": "uint256",
          "name": "tokenId",
          "type": "uint256"
        }
      ],
      "name": "burn",
      "outputs": [],
      "stateMutability": "nonpayable",
      "type": "function"
    },
    {
      "inputs": [
        {
          "internalType": "uint256",
          "name": "tokenId",
          "type": "uint256"
        }
      ],
      "name": "exists",
      "outputs": [
        {
          "internalType": "bool",
          "name": "",
          "type": "bool"
        }
      ],
      "stateMutability": "view",
      "type": "function"
    },
    {
      "inputs": [
        {
          "internalType": "uint256",
          "name": "tokenId",
          "type": "uint256"
        }
      ],
      "name": "getApproved",
      "outputs": [
        {
          "internalType": "address",
          "name": "",
          "type": "address"
        }
      ],
      "stateMutability": "view",
      "type": "function"
    },
    {
      "inputs": [
        {
          "internalType": "address",
          "name": "owner",
          "type": "address"
        },
        {
          "internalType": "address",
          "name": "operator",
          "type": "address"
        }
      ],
      "name": "isApprovedForAll",
      "outputs": [
        {
          "internalType": "bool",
          "name": "",
          "type": "bool"
        }
      ],
      "stateMutability": "view",
      "type": "function"
    },
    {
      "inputs": [
        {
          "internalType": "address",
          "name": "to",
          "type": "address"
        },
        {
          "internalType": "uint256",
          "name": "tokenId",
          "type": "uint256"
        }
      ],
      "name": "mint",
      "outputs": [],
      "stateMutability": "nonpayable",
      "type": "function"
    },
    {
      "inputs": [],
      "name": "name",
      "outputs": [
        {
          "internalType": "string",
          "name": "",
          "type": "string"
        }
      ],
      "stateMutability": "view",
      "type": "function"
    },
    {
      "inputs": [
        {
          "internalType": "uint256",
          "name": "tokenId",
          "type": "uint256"
        }
      ],
      "name": "ownerOf",
      "outputs": [
        {
          "internalType": "address",
          "name": "",
          "type": "address"
        }
      ],
      "stateMutability": "view",
      "type": "function"
    },
    {
      "inputs": [
        {
          "internalType": "address",
          "name": "to",
          "type": "address"
        },
        {
          "internalType": "uint256",
          "name": "tokenId",
          "type": "uint256"
        },
        {
          "internalType": "bytes",
          "name": "_data",
          "type": "bytes"
        }
      ],
      "name": "safeMint",
      "outputs": [],
      "stateMutability": "nonpayable",
      "type": "function"
    },
    {
      "inputs": [
        {
          "internalType": "address",
          "name": "to",
          "type": "address"
        },
        {
          "internalType": "uint256",
          "name": "tokenId",
          "type": "uint256"
        }
      ],
      "name": "safeMint",
      "outputs": [],
      "stateMutability": "nonpayable",
      "type": "function"
    },
    {
      "inputs": [
        {
          "internalType": "address",
          "name": "from",
          "type": "address"
        },
        {
          "internalType": "address",
          "name": "to",
          "type": "address"
        },
        {
          "internalType": "uint256",
          "name": "tokenId",
          "type": "uint256"
        }
      ],
      "name": "safeTransferFrom",
      "outputs": [],
      "stateMutability": "nonpayable",
      "type": "function"
    },
    {
      "inputs": [
        {
          "internalType": "address",
          "name": "from",
          "type": "address"
        },
        {
          "internalType": "address",
          "name": "to",
          "type": "address"
        },
        {
          "internalType": "uint256",
          "name": "tokenId",
          "type": "uint256"
        },
        {
          "internalType": "bytes",
          "name": "_data",
          "type": "bytes"
        }
      ],
      "name": "safeTransferFrom",
      "outputs": [],
      "stateMutability": "nonpayable",
      "type": "function"
    },
    {
      "inputs": [
        {
          "internalType": "address",
          "name": "operator",
          "type": "address"
        },
        {
          "internalType": "bool",
          "name": "approved",
          "type": "bool"
        }
      ],
      "name": "setApprovalForAll",
      "outputs": [],
      "stateMutability": "nonpayable",
      "type": "function"
    },
    {
      "inputs": [
        {
          "internalType": "string",
          "name": "newBaseTokenURI",
          "type": "string"
        }
      ],
      "name": "setBaseURI",
      "outputs": [],
      "stateMutability": "nonpayable",
      "type": "function"
    },
    {
      "inputs": [
        {
          "internalType": "uint256",
          "name": "tokenId",
          "type": "uint256"
        },
        {
          "internalType": "string",
          "name": "_tokenURI",
          "type": "string"
        }
      ],
      "name": "setTokenURI",
      "outputs": [],
      "stateMutability": "nonpayable",
      "type": "function"
    },
    {
      "inputs": [
        {
          "internalType": "bytes4",
          "name": "interfaceId",
          "type": "bytes4"
        }
      ],
      "name": "supportsInterface",
      "outputs": [
        {
          "internalType": "bool",
          "name": "",
          "type": "bool"
        }
      ],
      "stateMutability": "view",
      "type": "function"
    },
    {
      "inputs": [],
      "name": "symbol",
      "outputs": [
        {
          "internalType": "string",
          "name": "",
          "type": "string"
        }
      ],
      "stateMutability": "view",
      "type": "function"
    },
    {
      "inputs": [
        {
          "internalType": "uint256",
          "name": "tokenId",
          "type": "uint256"
        }
      ],
      "name": "tokenURI",
      "outputs": [
        {
          "internalType": "string",
          "name": "",
          "type": "string"
        }
      ],
      "stateMutability": "view",
      "type": "function"
    },
    {
      "inputs": [
        {
          "internalType": "address",
          "name": "from",
          "type": "address"
        },
        {
          "internalType": "address",
          "name": "to",
          "type": "address"
        },
        {
          "internalType": "uint256",
          "name": "tokenId",
          "type": "uint256"
        }
      ],
      "name": "transferFrom",
      "outputs": [],
      "stateMutability": "nonpayable",
      "type": "function"
    }
  ],
  "bytecode": "0x60806040523480156200001157600080fd5b5060405162001d0a38038062001d0a8339810160408190526200003491620001e1565b8151829082906200004d9060009060208501906200006e565b508051620000639060019060208401906200006e565b505050505062000288565b8280546200007c906200024b565b90600052602060002090601f016020900481019282620000a05760008555620000eb565b82601f10620000bb57805160ff1916838001178555620000eb565b82800160010185558215620000eb579182015b82811115620000eb578251825591602001919060010190620000ce565b50620000f9929150620000fd565b5090565b5b80821115620000f95760008155600101620000fe565b634e487b7160e01b600052604160045260246000fd5b600082601f8301126200013c57600080fd5b81516001600160401b038082111562000159576200015962000114565b604051601f8301601f19908116603f0116810190828211818310171562000184576200018462000114565b81604052838152602092508683858801011115620001a157600080fd5b600091505b83821015620001c55785820183015181830184015290820190620001a6565b83821115620001d75760008385830101525b9695505050505050565b60008060408385031215620001f557600080fd5b82516001600160401b03808211156200020d57600080fd5b6200021b868387016200012a565b935060208501519150808211156200023257600080fd5b5062000241858286016200012a565b9150509250929050565b600181811c908216806200026057607f821691505b602082108114156200028257634e487b7160e01b600052602260045260246000fd5b50919050565b611a7280620002986000396000f3fe608060405234801561001057600080fd5b50600436106101375760003560e01c806355f804b3116100b857806395d89b411161007c57806395d89b411461028d578063a144819414610295578063a22cb465146102a8578063b88d4fde146102bb578063c87b56dd146102ce578063e985e9c5146102e157600080fd5b806355f804b31461022b5780636352211e1461023e5780636c0360eb1461025157806370a08231146102595780638832e6e31461027a57600080fd5b806323b872dd116100ff57806323b872dd146101cc57806340c10f19146101df57806342842e0e146101f257806342966c68146102055780634f558e791461021857600080fd5b806301ffc9a71461013c57806306fdde0314610164578063081812fc14610179578063095ea7b3146101a4578063162094c4146101b9575b600080fd5b61014f61014a36600461143c565b61031d565b60405190151581526020015b60405180910390f35b61016c61036f565b60405161015b91906114b1565b61018c6101873660046114c4565b610401565b6040516001600160a01b03909116815260200161015b565b6101b76101b23660046114f9565b61048e565b005b6101b76101c73660046115af565b6105a4565b6101b76101da36600461160a565b6105b2565b6101b76101ed3660046114f9565b6105e3565b6101b761020036600461160a565b6105ed565b6101b76102133660046114c4565b610608565b61014f6102263660046114c4565b610614565b6101b7610239366004611646565b61061f565b61018c61024c3660046114c4565b61062b565b61016c6106a2565b61026c6102673660046116b8565b6106b1565b60405190815260200161015b565b6101b76102883660046116f3565b610738565b61016c610743565b6101b76102a33660046114f9565b610752565b6101b76102b636600461174a565b61075c565b6101b76102c9366004611786565b610767565b61016c6102dc3660046114c4565b61079f565b61014f6102ef3660046117ee565b6001600160a01b03918216600090815260056020908152604080832093909416825291909152205460ff1690565b60006001600160e01b031982166380ac58cd60e01b148061034e57506001600160e01b03198216635b5e139f60e01b145b8061036957506301ffc9a760e01b6001600160e01b03198316145b92915050565b60606000805461037e90611821565b80601f01602080910402602001604051908101604052809291908181526020018280546103aa90611821565b80156103f75780601f106103cc576101008083540402835291602001916103f7565b820191906000526020600020905b8154815290600101906020018083116103da57829003601f168201915b5050505050905090565b600061040c82610909565b6104725760405162461bcd60e51b815260206004820152602c60248201527f4552433732313a20617070726f76656420717565727920666f72206e6f6e657860448201526b34b9ba32b73a103a37b5b2b760a11b60648201526084015b60405180910390fd5b506000908152600460205260409020546001600160a01b031690565b60006104998261062b565b9050806001600160a01b0316836001600160a01b031614156105075760405162461bcd60e51b815260206004820152602160248201527f4552433732313a20617070726f76616c20746f2063757272656e74206f776e656044820152603960f91b6064820152608401610469565b336001600160a01b0382161480610523575061052381336102ef565b6105955760405162461bcd60e51b815260206004820152603860248201527f4552433732313a20617070726f76652063616c6c6572206973206e6f74206f7760448201527f6e6572206e6f7220617070726f76656420666f7220616c6c00000000000000006064820152608401610469565b61059f8383610926565b505050565b6105ae8282610994565b5050565b6105bc3382610a1f565b6105d85760405162461bcd60e51b81526004016104699061185c565b61059f838383610b05565b6105ae8282610ca1565b61059f83838360405180602001604052806000815250610767565b61061181610dd4565b50565b600061036982610909565b61059f600783836112e3565b6000818152600260205260408120546001600160a01b0316806103695760405162461bcd60e51b815260206004820152602960248201527f4552433732313a206f776e657220717565727920666f72206e6f6e657869737460448201526832b73a103a37b5b2b760b91b6064820152608401610469565b60606106ac610e14565b905090565b60006001600160a01b03821661071c5760405162461bcd60e51b815260206004820152602a60248201527f4552433732313a2062616c616e636520717565727920666f7220746865207a65604482015269726f206164647265737360b01b6064820152608401610469565b506001600160a01b031660009081526003602052604090205490565b61059f838383610e23565b60606001805461037e90611821565b6105ae8282610e56565b6105ae338383610e70565b6107713383610a1f565b61078d5760405162461bcd60e51b81526004016104699061185c565b61079984848484610f3f565b50505050565b60606107aa82610909565b6108105760405162461bcd60e51b815260206004820152603160248201527f45524337323155524953746f726167653a2055524920717565727920666f72206044820152703737b732bc34b9ba32b73a103a37b5b2b760791b6064820152608401610469565b6000828152600660205260408120805461082990611821565b80601f016020809104026020016040519081016040528092919081815260200182805461085590611821565b80156108a25780601f10610877576101008083540402835291602001916108a2565b820191906000526020600020905b81548152906001019060200180831161088557829003601f168201915b5050505050905060006108b3610e14565b90508051600014156108c6575092915050565b8151156108f85780826040516020016108e09291906118ad565b60405160208183030381529060405292505050919050565b61090184610f72565b949350505050565b6000908152600260205260409020546001600160a01b0316151590565b600081815260046020526040902080546001600160a01b0319166001600160a01b038416908117909155819061095b8261062b565b6001600160a01b03167f8c5be1e5ebec7d5bd14f71427d1e84f3dd0314c0f7b2291e5b200ac8c7c3b92560405160405180910390a45050565b61099d82610909565b610a005760405162461bcd60e51b815260206004820152602e60248201527f45524337323155524953746f726167653a2055524920736574206f66206e6f6e60448201526d32bc34b9ba32b73a103a37b5b2b760911b6064820152608401610469565b6000828152600660209081526040909120825161059f92840190611367565b6000610a2a82610909565b610a8b5760405162461bcd60e51b815260206004820152602c60248201527f4552433732313a206f70657261746f7220717565727920666f72206e6f6e657860448201526b34b9ba32b73a103a37b5b2b760a11b6064820152608401610469565b6000610a968361062b565b9050806001600160a01b0316846001600160a01b03161480610ad15750836001600160a01b0316610ac684610401565b6001600160a01b0316145b8061090157506001600160a01b0380821660009081526005602090815260408083209388168352929052205460ff16610901565b826001600160a01b0316610b188261062b565b6001600160a01b031614610b7c5760405162461bcd60e51b815260206004820152602560248201527f4552433732313a207472616e736665722066726f6d20696e636f72726563742060448201526437bbb732b960d91b6064820152608401610469565b6001600160a01b038216610bde5760405162461bcd60e51b8152602060048201526024808201527f4552433732313a207472616e7366657220746f20746865207a65726f206164646044820152637265737360e01b6064820152608401610469565b610be9600082610926565b6001600160a01b0383166000908152600360205260408120805460019290610c129084906118f2565b90915550506001600160a01b0382166000908152600360205260408120805460019290610c40908490611909565b909155505060008181526002602052604080822080546001600160a01b0319166001600160a01b0386811691821790925591518493918716917fddf252ad1be2c89b69c2b068fc378daa952ba7f163c4a11628f55a4df523b3ef91a4505050565b6001600160a01b038216610cf75760405162461bcd60e51b815260206004820181905260248201527f4552433732313a206d696e7420746f20746865207a65726f20616464726573736044820152606401610469565b610d0081610909565b15610d4d5760405162461bcd60e51b815260206004820152601c60248201527f4552433732313a20746f6b656e20616c7265616479206d696e746564000000006044820152606401610469565b6001600160a01b0382166000908152600360205260408120805460019290610d76908490611909565b909155505060008181526002602052604080822080546001600160a01b0319166001600160a01b03861690811790915590518392907fddf252ad1be2c89b69c2b068fc378daa952ba7f163c4a11628f55a4df523b3ef908290a45050565b610ddd8161103d565b60008181526006602052604090208054610df690611821565b159050610611576000818152600660205260408120610611916113db565b60606007805461037e90611821565b610e2d8383610ca1565b610e3a60008484846110d8565b61059f5760405162461bcd60e51b815260040161046990611921565b6105ae828260405180602001604052806000815250610e23565b816001600160a01b0316836001600160a01b03161415610ed25760405162461bcd60e51b815260206004820152601960248201527f4552433732313a20617070726f766520746f2063616c6c6572000000000000006044820152606401610469565b6001600160a01b03838116600081815260056020908152604080832094871680845294825291829020805460ff191686151590811790915591519182527f17307eab39ab6107e8899845ad3d59bd9653f200f220920489ca2b5937696c31910160405180910390a3505050565b610f4a848484610b05565b610f56848484846110d8565b6107995760405162461bcd60e51b815260040161046990611921565b6060610f7d82610909565b610fe15760405162461bcd60e51b815260206004820152602f60248201527f4552433732314d657461646174613a2055524920717565727920666f72206e6f60448201526e3732bc34b9ba32b73a103a37b5b2b760891b6064820152608401610469565b6000610feb610e14565b9050600081511161100b5760405180602001604052806000815250611036565b80611015846111e5565b6040516020016110269291906118ad565b6040516020818303038152906040525b9392505050565b60006110488261062b565b9050611055600083610926565b6001600160a01b038116600090815260036020526040812080546001929061107e9084906118f2565b909155505060008281526002602052604080822080546001600160a01b0319169055518391906001600160a01b038416907fddf252ad1be2c89b69c2b068fc378daa952ba7f163c4a11628f55a4df523b3ef908390a45050565b60006001600160a01b0384163b156111da57604051630a85bd0160e11b81526001600160a01b0385169063150b7a029061111c903390899088908890600401611973565b602060405180830381600087803b15801561113657600080fd5b505af1925050508015611166575060408051601f3d908101601f19168201909252611163918101906119b0565b60015b6111c0573d808015611194576040519150601f19603f3d011682016040523d82523d6000602084013e611199565b606091505b5080516111b85760405162461bcd60e51b815260040161046990611921565b805181602001fd5b6001600160e01b031916630a85bd0160e11b149050610901565b506001949350505050565b6060816112095750506040805180820190915260018152600360fc1b602082015290565b8160005b8115611233578061121d816119cd565b915061122c9050600a836119fe565b915061120d565b60008167ffffffffffffffff81111561124e5761124e611523565b6040519080825280601f01601f191660200182016040528015611278576020820181803683370190505b5090505b84156109015761128d6001836118f2565b915061129a600a86611a12565b6112a5906030611909565b60f81b8183815181106112ba576112ba611a26565b60200101906001600160f81b031916908160001a9053506112dc600a866119fe565b945061127c565b8280546112ef90611821565b90600052602060002090601f0160209004810192826113115760008555611357565b82601f1061132a5782800160ff19823516178555611357565b82800160010185558215611357579182015b8281111561135757823582559160200191906001019061133c565b50611363929150611411565b5090565b82805461137390611821565b90600052602060002090601f0160209004810192826113955760008555611357565b82601f106113ae57805160ff1916838001178555611357565b82800160010185558215611357579182015b828111156113575782518255916020019190600101906113c0565b5080546113e790611821565b6000825580601f106113f7575050565b601f01602090049060005260206000209081019061061191905b5b808211156113635760008155600101611412565b6001600160e01b03198116811461061157600080fd5b60006020828403121561144e57600080fd5b813561103681611426565b60005b8381101561147457818101518382015260200161145c565b838111156107995750506000910152565b6000815180845261149d816020860160208601611459565b601f01601f19169290920160200192915050565b6020815260006110366020830184611485565b6000602082840312156114d657600080fd5b5035919050565b80356001600160a01b03811681146114f457600080fd5b919050565b6000806040838503121561150c57600080fd5b611515836114dd565b946020939093013593505050565b634e487b7160e01b600052604160045260246000fd5b600067ffffffffffffffff8084111561155457611554611523565b604051601f8501601f19908116603f0116810190828211818310171561157c5761157c611523565b8160405280935085815286868601111561159557600080fd5b858560208301376000602087830101525050509392505050565b600080604083850312156115c257600080fd5b82359150602083013567ffffffffffffffff8111156115e057600080fd5b8301601f810185136115f157600080fd5b61160085823560208401611539565b9150509250929050565b60008060006060848603121561161f57600080fd5b611628846114dd565b9250611636602085016114dd565b9150604084013590509250925092565b6000806020838503121561165957600080fd5b823567ffffffffffffffff8082111561167157600080fd5b818501915085601f83011261168557600080fd5b81358181111561169457600080fd5b8660208285010111156116a657600080fd5b60209290920196919550909350505050565b6000602082840312156116ca57600080fd5b611036826114dd565b600082601f8301126116e457600080fd5b61103683833560208501611539565b60008060006060848603121561170857600080fd5b611711846114dd565b925060208401359150604084013567ffffffffffffffff81111561173457600080fd5b611740868287016116d3565b9150509250925092565b6000806040838503121561175d57600080fd5b611766836114dd565b91506020830135801515811461177b57600080fd5b809150509250929050565b6000806000806080858703121561179c57600080fd5b6117a5856114dd565b93506117b3602086016114dd565b925060408501359150606085013567ffffffffffffffff8111156117d657600080fd5b6117e2878288016116d3565b91505092959194509250565b6000806040838503121561180157600080fd5b61180a836114dd565b9150611818602084016114dd565b90509250929050565b600181811c9082168061183557607f821691505b6020821081141561185657634e487b7160e01b600052602260045260246000fd5b50919050565b60208082526031908201527f4552433732313a207472616e736665722063616c6c6572206973206e6f74206f6040820152701ddb995c881b9bdc88185c1c1c9bdd9959607a1b606082015260800190565b600083516118bf818460208801611459565b8351908301906118d3818360208801611459565b01949350505050565b634e487b7160e01b600052601160045260246000fd5b600082821015611904576119046118dc565b500390565b6000821982111561191c5761191c6118dc565b500190565b60208082526032908201527f4552433732313a207472616e7366657220746f206e6f6e20455243373231526560408201527131b2b4bb32b91034b6b83632b6b2b73a32b960711b606082015260800190565b6001600160a01b03858116825284166020820152604081018390526080606082018190526000906119a690830184611485565b9695505050505050565b6000602082840312156119c257600080fd5b815161103681611426565b60006000198214156119e1576119e16118dc565b5060010190565b634e487b7160e01b600052601260045260246000fd5b600082611a0d57611a0d6119e8565b500490565b600082611a2157611a216119e8565b500690565b634e487b7160e01b600052603260045260246000fdfea26469706673582212208e0279e95bc762be2b960a576cfd5c1b802eb9a0b3fc77105ced6532c08b5d9064736f6c63430008090033",
  "linkReferences": {},
  "deployedLinkReferences": {}
}