{
  "_format": "hh-sol-artifact-1",
  "contractName": "AccessControlEnumerableMock",
  "sourceName": "contracts/mocks/AccessControlEnumerableMock.sol",
  "abi": [
    {
      "inputs": [],
      "stateMutability": "nonpayable",
      "type": "constructor"
    },
    {
      "anonymous": false,
      "inputs": [
        {
          "indexed": true,
          "internalType": "bytes32",
          "name": "role",
          "type": "bytes32"
        },
        {
          "indexed": true,
          "internalType": "bytes32",
          "name": "previousAdminRole",
          "type": "bytes32"
        },
        {
          "indexed": true,
          "internalType": "bytes32",
          "name": "newAdminRole",
          "type": "bytes32"
        }
      ],
      "name": "RoleAdminChanged",
      "type": "event"
    },
    {
      "anonymous": false,
      "inputs": [
        {
          "indexed": true,
          "internalType": "bytes32",
          "name": "role",
          "type": "bytes32"
        },
        {
          "indexed": true,
          "internalType": "address",
          "name": "account",
          "type": "address"
        },
        {
          "indexed": true,
          "internalType": "address",
          "name": "sender",
          "type": "address"
        }
      ],
      "name": "RoleGranted",
      "type": "event"
    },
    {
      "anonymous": false,
      "inputs": [
        {
          "indexed": true,
          "internalType": "bytes32",
          "name": "role",
          "type": "bytes32"
        },
        {
          "indexed": true,
          "internalType": "address",
          "name": "account",
          "type": "address"
        },
        {
          "indexed": true,
          "internalType": "address",
          "name": "sender",
          "type": "address"
        }
      ],
      "name": "RoleRevoked",
      "type": "event"
    },
    {
      "inputs": [],
      "name": "DEFAULT_ADMIN_ROLE",
      "outputs": [
        {
          "internalType": "bytes32",
          "name": "",
          "type": "bytes32"
        }
      ],
      "stateMutability": "view",
      "type": "function"
    },
    {
      "inputs": [
        {
          "internalType": "bytes32",
          "name": "role",
          "type": "bytes32"
        }
      ],
      "name": "getRoleAdmin",
      "outputs": [
        {
          "internalType": "bytes32",
          "name": "",
          "type": "bytes32"
        }
      ],
      "stateMutability": "view",
      "type": "function"
    },
    {
      "inputs": [
        {
          "internalType": "bytes32",
          "name": "role",
          "type": "bytes32"
        },
        {
          "internalType": "uint256",
          "name": "index",
          "type": "uint256"
        }
      ],
      "name": "getRoleMember",
      "outputs": [
        {
          "internalType": "address",
          "name": "",
          "type": "address"
        }
      ],
      "stateMutability": "view",
      "type": "function"
    },
    {
      "inputs": [
        {
          "internalType": "bytes32",
          "name": "role",
          "type": "bytes32"
        }
      ],
      "name": "getRoleMemberCount",
      "outputs": [
        {
          "internalType": "uint256",
          "name": "",
          "type": "uint256"
        }
      ],
      "stateMutability": "view",
      "type": "function"
    },
    {
      "inputs": [
        {
          "internalType": "bytes32",
          "name": "role",
          "type": "bytes32"
        },
        {
          "internalType": "address",
          "name": "account",
          "type": "address"
        }
      ],
      "name": "grantRole",
      "outputs": [],
      "stateMutability": "nonpayable",
      "type": "function"
    },
    {
      "inputs": [
        {
          "internalType": "bytes32",
          "name": "role",
          "type": "bytes32"
        },
        {
          "internalType": "address",
          "name": "account",
          "type": "address"
        }
      ],
      "name": "hasRole",
      "outputs": [
        {
          "internalType": "bool",
          "name": "",
          "type": "bool"
        }
      ],
      "stateMutability": "view",
      "type": "function"
    },
    {
      "inputs": [
        {
          "internalType": "bytes32",
          "name": "role",
          "type": "bytes32"
        },
        {
          "internalType": "address",
          "name": "account",
          "type": "address"
        }
      ],
      "name": "renounceRole",
      "outputs": [],
      "stateMutability": "nonpayable",
      "type": "function"
    },
    {
      "inputs": [
        {
          "internalType": "bytes32",
          "name": "role",
          "type": "bytes32"
        },
        {
          "internalType": "address",
          "name": "account",
          "type": "address"
        }
      ],
      "name": "revokeRole",
      "outputs": [],
      "stateMutability": "nonpayable",
      "type": "function"
    },
    {
      "inputs": [
        {
          "internalType": "bytes32",
          "name": "roleId",
          "type": "bytes32"
        }
      ],
      "name": "senderProtected",
      "outputs": [],
      "stateMutability": "nonpayable",
      "type": "function"
    },
    {
      "inputs": [
        {
          "internalType": "bytes32",
          "name": "roleId",
          "type": "bytes32"
        },
        {
          "internalType": "bytes32",
          "name": "adminRoleId",
          "type": "bytes32"
        }
      ],
      "name": "setRoleAdmin",
      "outputs": [],
      "stateMutability": "nonpayable",
      "type": "function"
    },
    {
      "inputs": [
        {
          "internalType": "bytes4",
          "name": "interfaceId",
          "type": "bytes4"
        }
      ],
      "name": "supportsInterface",
      "outputs": [
        {
          "internalType": "bool",
          "name": "",
          "type": "bool"
        }
      ],
      "stateMutability": "view",
      "type": "function"
    }
  ],
  "bytecode": "0x608060405234801561001057600080fd5b5061001c600033610021565b610177565b61002b828261002f565b5050565b610043828261006c60201b6103311760201c565b60008281526001602090815260409091206100679183906103b561010a821b17901c565b505050565b6000828152602081815260408083206001600160a01b038516845290915290205460ff1661002b576000828152602081815260408083206001600160a01b03851684529091529020805460ff191660011790556100c63390565b6001600160a01b0316816001600160a01b0316837f2f8788117e7eff1d82e926ec794901d17c78024a50270940304540a733656f0d60405160405180910390a45050565b600061011f836001600160a01b038416610128565b90505b92915050565b600081815260018301602052604081205461016f57508154600181810184556000848152602080822090930184905584548482528286019093526040902091909155610122565b506000610122565b610b03806101866000396000f3fe608060405234801561001057600080fd5b50600436106100a95760003560e01c80634b9304a4116100715780634b9304a4146101425780639010d07c1461015557806391d1485414610180578063a217fddf14610193578063ca15c8731461019b578063d547741f146101ae57600080fd5b806301ffc9a7146100ae5780631e4e0091146100d6578063248a9ca3146100eb5780632f2ff15d1461011c57806336568abe1461012f575b600080fd5b6100c16100bc366004610897565b6101c1565b60405190151581526020015b60405180910390f35b6100e96100e43660046108c1565b6101ec565b005b61010e6100f93660046108e3565b60009081526020819052604090206001015490565b6040519081526020016100cd565b6100e961012a3660046108fc565b6101fa565b6100e961013d3660046108fc565b610224565b6100e96101503660046108e3565b6102a3565b6101686101633660046108c1565b6102ad565b6040516001600160a01b0390911681526020016100cd565b6100c161018e3660046108fc565b6102cc565b61010e600081565b61010e6101a93660046108e3565b6102f5565b6100e96101bc3660046108fc565b61030c565b60006001600160e01b03198216635a05180f60e01b14806101e657506101e6826103ca565b92915050565b6101f682826103ff565b5050565b6000828152602081905260409020600101546102158161044a565b61021f8383610457565b505050565b6001600160a01b03811633146102995760405162461bcd60e51b815260206004820152602f60248201527f416363657373436f6e74726f6c3a2063616e206f6e6c792072656e6f756e636560448201526e103937b632b9903337b91039b2b63360891b60648201526084015b60405180910390fd5b6101f68282610479565b806101f68161044a565b60008281526001602052604081206102c5908361049b565b9392505050565b6000918252602082815260408084206001600160a01b0393909316845291905290205460ff1690565b60008181526001602052604081206101e6906104a7565b6000828152602081905260409020600101546103278161044a565b61021f8383610479565b61033b82826102cc565b6101f6576000828152602081815260408083206001600160a01b03851684529091529020805460ff191660011790556103713390565b6001600160a01b0316816001600160a01b0316837f2f8788117e7eff1d82e926ec794901d17c78024a50270940304540a733656f0d60405160405180910390a45050565b60006102c5836001600160a01b0384166104b1565b60006001600160e01b03198216637965db0b60e01b14806101e657506301ffc9a760e01b6001600160e01b03198316146101e6565b600082815260208190526040808220600101805490849055905190918391839186917fbd79b86ffe0ab8e8776151514217cd7cacd52c909f66475c3af44e129f0b00ff9190a4505050565b6104548133610500565b50565b6104618282610331565b600082815260016020526040902061021f90826103b5565b6104838282610564565b600082815260016020526040902061021f90826105c9565b60006102c583836105de565b60006101e6825490565b60008181526001830160205260408120546104f8575081546001818101845560008481526020808220909301849055845484825282860190935260409020919091556101e6565b5060006101e6565b61050a82826102cc565b6101f657610522816001600160a01b03166014610608565b61052d836020610608565b60405160200161053e929190610968565b60408051601f198184030181529082905262461bcd60e51b8252610290916004016109dd565b61056e82826102cc565b156101f6576000828152602081815260408083206001600160a01b0385168085529252808320805460ff1916905551339285917ff6391f5c32d9c69d2a47ea670b442974b53935d1edc7fd64eb21e047a839171b9190a45050565b60006102c5836001600160a01b0384166107a4565b60008260000182815481106105f5576105f5610a10565b9060005260206000200154905092915050565b60606000610617836002610a3c565b610622906002610a5b565b67ffffffffffffffff81111561063a5761063a610a73565b6040519080825280601f01601f191660200182016040528015610664576020820181803683370190505b509050600360fc1b8160008151811061067f5761067f610a10565b60200101906001600160f81b031916908160001a905350600f60fb1b816001815181106106ae576106ae610a10565b60200101906001600160f81b031916908160001a90535060006106d2846002610a3c565b6106dd906001610a5b565b90505b6001811115610755576f181899199a1a9b1b9c1cb0b131b232b360811b85600f166010811061071157610711610a10565b1a60f81b82828151811061072757610727610a10565b60200101906001600160f81b031916908160001a90535060049490941c9361074e81610a89565b90506106e0565b5083156102c55760405162461bcd60e51b815260206004820181905260248201527f537472696e67733a20686578206c656e67746820696e73756666696369656e746044820152606401610290565b6000818152600183016020526040812054801561088d5760006107c8600183610aa0565b85549091506000906107dc90600190610aa0565b90508181146108415760008660000182815481106107fc576107fc610a10565b906000526020600020015490508087600001848154811061081f5761081f610a10565b6000918252602080832090910192909255918252600188019052604090208390555b855486908061085257610852610ab7565b6001900381819060005260206000200160009055905585600101600086815260200190815260200160002060009055600193505050506101e6565b60009150506101e6565b6000602082840312156108a957600080fd5b81356001600160e01b0319811681146102c557600080fd5b600080604083850312156108d457600080fd5b50508035926020909101359150565b6000602082840312156108f557600080fd5b5035919050565b6000806040838503121561090f57600080fd5b8235915060208301356001600160a01b038116811461092d57600080fd5b809150509250929050565b60005b8381101561095357818101518382015260200161093b565b83811115610962576000848401525b50505050565b7f416363657373436f6e74726f6c3a206163636f756e74200000000000000000008152600083516109a0816017850160208801610938565b7001034b99036b4b9b9b4b733903937b6329607d1b60179184019182015283516109d1816028840160208801610938565b01602801949350505050565b60208152600082518060208401526109fc816040850160208701610938565b601f01601f19169190910160400192915050565b634e487b7160e01b600052603260045260246000fd5b634e487b7160e01b600052601160045260246000fd5b6000816000190483118215151615610a5657610a56610a26565b500290565b60008219821115610a6e57610a6e610a26565b500190565b634e487b7160e01b600052604160045260246000fd5b600081610a9857610a98610a26565b506000190190565b600082821015610ab257610ab2610a26565b500390565b634e487b7160e01b600052603160045260246000fdfea26469706673582212201ed61c20c8ba41ae878987ba29b559ffb98c2abc367309050220b4839924efc864736f6c63430008090033",
  "linkReferences": {},
  "deployedLinkReferences": {}
}