{
  "_format": "hh-sol-artifact-1",
  "contractName": "MyGovernor2",
  "sourceName": "contracts/mocks/wizard/MyGovernor2.sol",
  "abi": [
    {
      "inputs": [
        {
          "internalType": "contract IVotes",
          "name": "_token",
          "type": "address"
        },
        {
          "internalType": "contract TimelockController",
          "name": "_timelock",
          "type": "address"
        }
      ],
      "stateMutability": "nonpayable",
      "type": "constructor"
    },
    {
      "inputs": [],
      "name": "Empty",
      "type": "error"
    },
    {
      "anonymous": false,
      "inputs": [
        {
          "indexed": false,
          "internalType": "uint256",
          "name": "proposalId",
          "type": "uint256"
        }
      ],
      "name": "ProposalCanceled",
      "type": "event"
    },
    {
      "anonymous": false,
      "inputs": [
        {
          "indexed": false,
          "internalType": "uint256",
          "name": "proposalId",
          "type": "uint256"
        },
        {
          "indexed": false,
          "internalType": "address",
          "name": "proposer",
          "type": "address"
        },
        {
          "indexed": false,
          "internalType": "address[]",
          "name": "targets",
          "type": "address[]"
        },
        {
          "indexed": false,
          "internalType": "uint256[]",
          "name": "values",
          "type": "uint256[]"
        },
        {
          "indexed": false,
          "internalType": "string[]",
          "name": "signatures",
          "type": "string[]"
        },
        {
          "indexed": false,
          "internalType": "bytes[]",
          "name": "calldatas",
          "type": "bytes[]"
        },
        {
          "indexed": false,
          "internalType": "uint256",
          "name": "startBlock",
          "type": "uint256"
        },
        {
          "indexed": false,
          "internalType": "uint256",
          "name": "endBlock",
          "type": "uint256"
        },
        {
          "indexed": false,
          "internalType": "string",
          "name": "description",
          "type": "string"
        }
      ],
      "name": "ProposalCreated",
      "type": "event"
    },
    {
      "anonymous": false,
      "inputs": [
        {
          "indexed": false,
          "internalType": "uint256",
          "name": "proposalId",
          "type": "uint256"
        }
      ],
      "name": "ProposalExecuted",
      "type": "event"
    },
    {
      "anonymous": false,
      "inputs": [
        {
          "indexed": false,
          "internalType": "uint256",
          "name": "proposalId",
          "type": "uint256"
        },
        {
          "indexed": false,
          "internalType": "uint256",
          "name": "eta",
          "type": "uint256"
        }
      ],
      "name": "ProposalQueued",
      "type": "event"
    },
    {
      "anonymous": false,
      "inputs": [
        {
          "indexed": false,
          "internalType": "uint256",
          "name": "oldQuorumNumerator",
          "type": "uint256"
        },
        {
          "indexed": false,
          "internalType": "uint256",
          "name": "newQuorumNumerator",
          "type": "uint256"
        }
      ],
      "name": "QuorumNumeratorUpdated",
      "type": "event"
    },
    {
      "anonymous": false,
      "inputs": [
        {
          "indexed": false,
          "internalType": "address",
          "name": "oldTimelock",
          "type": "address"
        },
        {
          "indexed": false,
          "internalType": "address",
          "name": "newTimelock",
          "type": "address"
        }
      ],
      "name": "TimelockChange",
      "type": "event"
    },
    {
      "anonymous": false,
      "inputs": [
        {
          "indexed": true,
          "internalType": "address",
          "name": "voter",
          "type": "address"
        },
        {
          "indexed": false,
          "internalType": "uint256",
          "name": "proposalId",
          "type": "uint256"
        },
        {
          "indexed": false,
          "internalType": "uint8",
          "name": "support",
          "type": "uint8"
        },
        {
          "indexed": false,
          "internalType": "uint256",
          "name": "weight",
          "type": "uint256"
        },
        {
          "indexed": false,
          "internalType": "string",
          "name": "reason",
          "type": "string"
        }
      ],
      "name": "VoteCast",
      "type": "event"
    },
    {
      "inputs": [],
      "name": "BALLOT_TYPEHASH",
      "outputs": [
        {
          "internalType": "bytes32",
          "name": "",
          "type": "bytes32"
        }
      ],
      "stateMutability": "view",
      "type": "function"
    },
    {
      "inputs": [],
      "name": "COUNTING_MODE",
      "outputs": [
        {
          "internalType": "string",
          "name": "",
          "type": "string"
        }
      ],
      "stateMutability": "pure",
      "type": "function"
    },
    {
      "inputs": [
        {
          "internalType": "uint256",
          "name": "proposalId",
          "type": "uint256"
        },
        {
          "internalType": "uint8",
          "name": "support",
          "type": "uint8"
        }
      ],
      "name": "castVote",
      "outputs": [
        {
          "internalType": "uint256",
          "name": "",
          "type": "uint256"
        }
      ],
      "stateMutability": "nonpayable",
      "type": "function"
    },
    {
      "inputs": [
        {
          "internalType": "uint256",
          "name": "proposalId",
          "type": "uint256"
        },
        {
          "internalType": "uint8",
          "name": "support",
          "type": "uint8"
        },
        {
          "internalType": "uint8",
          "name": "v",
          "type": "uint8"
        },
        {
          "internalType": "bytes32",
          "name": "r",
          "type": "bytes32"
        },
        {
          "internalType": "bytes32",
          "name": "s",
          "type": "bytes32"
        }
      ],
      "name": "castVoteBySig",
      "outputs": [
        {
          "internalType": "uint256",
          "name": "",
          "type": "uint256"
        }
      ],
      "stateMutability": "nonpayable",
      "type": "function"
    },
    {
      "inputs": [
        {
          "internalType": "uint256",
          "name": "proposalId",
          "type": "uint256"
        },
        {
          "internalType": "uint8",
          "name": "support",
          "type": "uint8"
        },
        {
          "internalType": "string",
          "name": "reason",
          "type": "string"
        }
      ],
      "name": "castVoteWithReason",
      "outputs": [
        {
          "internalType": "uint256",
          "name": "",
          "type": "uint256"
        }
      ],
      "stateMutability": "nonpayable",
      "type": "function"
    },
    {
      "inputs": [
        {
          "internalType": "address[]",
          "name": "targets",
          "type": "address[]"
        },
        {
          "internalType": "uint256[]",
          "name": "values",
          "type": "uint256[]"
        },
        {
          "internalType": "bytes[]",
          "name": "calldatas",
          "type": "bytes[]"
        },
        {
          "internalType": "bytes32",
          "name": "descriptionHash",
          "type": "bytes32"
        }
      ],
      "name": "execute",
      "outputs": [
        {
          "internalType": "uint256",
          "name": "",
          "type": "uint256"
        }
      ],
      "stateMutability": "payable",
      "type": "function"
    },
    {
      "inputs": [
        {
          "internalType": "address",
          "name": "account",
          "type": "address"
        },
        {
          "internalType": "uint256",
          "name": "blockNumber",
          "type": "uint256"
        }
      ],
      "name": "getVotes",
      "outputs": [
        {
          "internalType": "uint256",
          "name": "",
          "type": "uint256"
        }
      ],
      "stateMutability": "view",
      "type": "function"
    },
    {
      "inputs": [
        {
          "internalType": "uint256",
          "name": "proposalId",
          "type": "uint256"
        },
        {
          "internalType": "address",
          "name": "account",
          "type": "address"
        }
      ],
      "name": "hasVoted",
      "outputs": [
        {
          "internalType": "bool",
          "name": "",
          "type": "bool"
        }
      ],
      "stateMutability": "view",
      "type": "function"
    },
    {
      "inputs": [
        {
          "internalType": "address[]",
          "name": "targets",
          "type": "address[]"
        },
        {
          "internalType": "uint256[]",
          "name": "values",
          "type": "uint256[]"
        },
        {
          "internalType": "bytes[]",
          "name": "calldatas",
          "type": "bytes[]"
        },
        {
          "internalType": "bytes32",
          "name": "descriptionHash",
          "type": "bytes32"
        }
      ],
      "name": "hashProposal",
      "outputs": [
        {
          "internalType": "uint256",
          "name": "",
          "type": "uint256"
        }
      ],
      "stateMutability": "pure",
      "type": "function"
    },
    {
      "inputs": [],
      "name": "name",
      "outputs": [
        {
          "internalType": "string",
          "name": "",
          "type": "string"
        }
      ],
      "stateMutability": "view",
      "type": "function"
    },
    {
      "inputs": [
        {
          "internalType": "uint256",
          "name": "proposalId",
          "type": "uint256"
        }
      ],
      "name": "proposalDeadline",
      "outputs": [
        {
          "internalType": "uint256",
          "name": "",
          "type": "uint256"
        }
      ],
      "stateMutability": "view",
      "type": "function"
    },
    {
      "inputs": [
        {
          "internalType": "uint256",
          "name": "proposalId",
          "type": "uint256"
        }
      ],
      "name": "proposalEta",
      "outputs": [
        {
          "internalType": "uint256",
          "name": "",
          "type": "uint256"
        }
      ],
      "stateMutability": "view",
      "type": "function"
    },
    {
      "inputs": [
        {
          "internalType": "uint256",
          "name": "proposalId",
          "type": "uint256"
        }
      ],
      "name": "proposalSnapshot",
      "outputs": [
        {
          "internalType": "uint256",
          "name": "",
          "type": "uint256"
        }
      ],
      "stateMutability": "view",
      "type": "function"
    },
    {
      "inputs": [],
      "name": "proposalThreshold",
      "outputs": [
        {
          "internalType": "uint256",
          "name": "",
          "type": "uint256"
        }
      ],
      "stateMutability": "pure",
      "type": "function"
    },
    {
      "inputs": [
        {
          "internalType": "uint256",
          "name": "proposalId",
          "type": "uint256"
        }
      ],
      "name": "proposalVotes",
      "outputs": [
        {
          "internalType": "uint256",
          "name": "againstVotes",
          "type": "uint256"
        },
        {
          "internalType": "uint256",
          "name": "forVotes",
          "type": "uint256"
        },
        {
          "internalType": "uint256",
          "name": "abstainVotes",
          "type": "uint256"
        }
      ],
      "stateMutability": "view",
      "type": "function"
    },
    {
      "inputs": [
        {
          "internalType": "address[]",
          "name": "targets",
          "type": "address[]"
        },
        {
          "internalType": "uint256[]",
          "name": "values",
          "type": "uint256[]"
        },
        {
          "internalType": "bytes[]",
          "name": "calldatas",
          "type": "bytes[]"
        },
        {
          "internalType": "string",
          "name": "description",
          "type": "string"
        }
      ],
      "name": "propose",
      "outputs": [
        {
          "internalType": "uint256",
          "name": "",
          "type": "uint256"
        }
      ],
      "stateMutability": "nonpayable",
      "type": "function"
    },
    {
      "inputs": [
        {
          "internalType": "address[]",
          "name": "targets",
          "type": "address[]"
        },
        {
          "internalType": "uint256[]",
          "name": "values",
          "type": "uint256[]"
        },
        {
          "internalType": "bytes[]",
          "name": "calldatas",
          "type": "bytes[]"
        },
        {
          "internalType": "bytes32",
          "name": "descriptionHash",
          "type": "bytes32"
        }
      ],
      "name": "queue",
      "outputs": [
        {
          "internalType": "uint256",
          "name": "",
          "type": "uint256"
        }
      ],
      "stateMutability": "nonpayable",
      "type": "function"
    },
    {
      "inputs": [
        {
          "internalType": "uint256",
          "name": "blockNumber",
          "type": "uint256"
        }
      ],
      "name": "quorum",
      "outputs": [
        {
          "internalType": "uint256",
          "name": "",
          "type": "uint256"
        }
      ],
      "stateMutability": "view",
      "type": "function"
    },
    {
      "inputs": [],
      "name": "quorumDenominator",
      "outputs": [
        {
          "internalType": "uint256",
          "name": "",
          "type": "uint256"
        }
      ],
      "stateMutability": "view",
      "type": "function"
    },
    {
      "inputs": [],
      "name": "quorumNumerator",
      "outputs": [
        {
          "internalType": "uint256",
          "name": "",
          "type": "uint256"
        }
      ],
      "stateMutability": "view",
      "type": "function"
    },
    {
      "inputs": [
        {
          "internalType": "address",
          "name": "target",
          "type": "address"
        },
        {
          "internalType": "uint256",
          "name": "value",
          "type": "uint256"
        },
        {
          "internalType": "bytes",
          "name": "data",
          "type": "bytes"
        }
      ],
      "name": "relay",
      "outputs": [],
      "stateMutability": "nonpayable",
      "type": "function"
    },
    {
      "inputs": [
        {
          "internalType": "uint256",
          "name": "proposalId",
          "type": "uint256"
        }
      ],
      "name": "state",
      "outputs": [
        {
          "internalType": "enum IGovernor.ProposalState",
          "name": "",
          "type": "uint8"
        }
      ],
      "stateMutability": "view",
      "type": "function"
    },
    {
      "inputs": [
        {
          "internalType": "bytes4",
          "name": "interfaceId",
          "type": "bytes4"
        }
      ],
      "name": "supportsInterface",
      "outputs": [
        {
          "internalType": "bool",
          "name": "",
          "type": "bool"
        }
      ],
      "stateMutability": "view",
      "type": "function"
    },
    {
      "inputs": [],
      "name": "timelock",
      "outputs": [
        {
          "internalType": "address",
          "name": "",
          "type": "address"
        }
      ],
      "stateMutability": "view",
      "type": "function"
    },
    {
      "inputs": [],
      "name": "token",
      "outputs": [
        {
          "internalType": "contract IVotes",
          "name": "",
          "type": "address"
        }
      ],
      "stateMutability": "view",
      "type": "function"
    },
    {
      "inputs": [
        {
          "internalType": "uint256",
          "name": "newQuorumNumerator",
          "type": "uint256"
        }
      ],
      "name": "updateQuorumNumerator",
      "outputs": [],
      "stateMutability": "nonpayable",
      "type": "function"
    },
    {
      "inputs": [
        {
          "internalType": "contract TimelockController",
          "name": "newTimelock",
          "type": "address"
        }
      ],
      "name": "updateTimelock",
      "outputs": [],
      "stateMutability": "nonpayable",
      "type": "function"
    },
    {
      "inputs": [],
      "name": "version",
      "outputs": [
        {
          "internalType": "string",
          "name": "",
          "type": "string"
        }
      ],
      "stateMutability": "view",
      "type": "function"
    },
    {
      "inputs": [],
      "name": "votingDelay",
      "outputs": [
        {
          "internalType": "uint256",
          "name": "",
          "type": "uint256"
        }
      ],
      "stateMutability": "pure",
      "type": "function"
    },
    {
      "inputs": [],
      "name": "votingPeriod",
      "outputs": [
        {
          "internalType": "uint256",
          "name": "",
          "type": "uint256"
        }
      ],
      "stateMutability": "pure",
      "type": "function"
    },
    {
      "stateMutability": "payable",
      "type": "receive"
    }
  ],
  "bytecode": "0x6101606040523480156200001257600080fd5b506040516200320238038062003202833981016040819052620000359162000353565b600482826040518060400160405280600a81526020016926bca3b7bb32b93737b960b11b815250806200006d6200014360201b60201c565b815160208084019190912082518383012060e08290526101008190524660a0818152604080517f8b73c3c69bb8fe3d512ecc4cf759cc79239f7b179b0ffacaa9a75d522b39400f81880181905281830187905260608201869052608082019490945230818401528151808203909301835260c00190528051940193909320919290916080523060c052610120525050825162000113925060009150602084019062000294565b50620001219050816200015e565b506001600160a01b0316610140526200013a81620001c7565b505050620003cf565b6040805180820190915260018152603160f81b602082015290565b600454604080516001600160a01b03928316815291831660208301527f08f74ea46ef7894f65eabfb5e6e695de773a000b47c529ab559178069b226401910160405180910390a1600480546001600160a01b0319166001600160a01b0392909216919091179055565b60648111156200024f5760405162461bcd60e51b815260206004820152604360248201527f476f7665726e6f72566f74657351756f72756d4672616374696f6e3a2071756f60448201527f72756d4e756d657261746f72206f7665722071756f72756d44656e6f6d696e616064820152623a37b960e91b608482015260a40160405180910390fd5b600680549082905560408051828152602081018490527f0553476bf02ef2726e8ce5ced78d63e26e602e4a2257b1f559418e24b4633997910160405180910390a15050565b828054620002a29062000392565b90600052602060002090601f016020900481019282620002c6576000855562000311565b82601f10620002e157805160ff191683800117855562000311565b8280016001018555821562000311579182015b8281111562000311578251825591602001919060010190620002f4565b506200031f92915062000323565b5090565b5b808211156200031f576000815560010162000324565b6001600160a01b03811681146200035057600080fd5b50565b600080604083850312156200036757600080fd5b825162000374816200033a565b602084015190925062000387816200033a565b809150509250929050565b600181811c90821680620003a757607f821691505b60208210811415620003c957634e487b7160e01b600052602260045260246000fd5b50919050565b60805160a05160c05160e051610100516101205161014051612dca620004386000396000818161064f015281816114b3015261154c015260006117500152600061179f0152600061177a015260006116d3015260006116fd015260006117270152612dca6000f3fe6080604052600436106101d15760003560e01c80637d5e81e2116100f7578063c28bc2fa11610095578063deaaa7cc11610064578063deaaa7cc146105c9578063eb9019d4146105fd578063f8ce560a1461061d578063fc0c546a1461063d57600080fd5b8063c28bc2fa14610511578063c59057e414610531578063d33219b414610551578063dd4e2ba51461058357600080fd5b8063a890c910116100d1578063a890c91014610495578063ab58fb8e146104b5578063b58131b0146104d5578063c01f9e37146104f157600080fd5b80637d5e81e21461044c57806397c3d3341461046c578063a7713a701461048057600080fd5b80633932abb11161016f578063544ffc9c1161013e578063544ffc9c1461038d57806354fd4d50146103e2578063567813881461040c5780637b3c71d31461042c57600080fd5b80633932abb1146102e25780633bccf4fd146102f65780633e4f49e614610316578063438596321461034357600080fd5b806306fdde03116101ab57806306fdde031461026d578063160cbed71461028f5780632656227d146102af5780632d63f693146102c257600080fd5b806301ffc9a7146101f957806302a251a31461022e57806306f3f9e61461024d57600080fd5b366101f457306101df610671565b6001600160a01b0316146101f257600080fd5b005b600080fd5b34801561020557600080fd5b506102196102143660046121f9565b61068a565b60405190151581526020015b60405180910390f35b34801561023a57600080fd5b5061b2fa5b604051908152602001610225565b34801561025957600080fd5b506101f2610268366004612223565b61069b565b34801561027957600080fd5b50610282610733565b6040516102259190612298565b34801561029b57600080fd5b5061023f6102aa3660046124e3565b6107c5565b61023f6102bd3660046124e3565b6109ed565b3480156102ce57600080fd5b5061023f6102dd366004612223565b610ada565b3480156102ee57600080fd5b50600161023f565b34801561030257600080fd5b5061023f610311366004612588565b610b11565b34801561032257600080fd5b50610336610331366004612223565b610ba5565b60405161022591906125ec565b34801561034f57600080fd5b5061021961035e366004612614565b60008281526007602090815260408083206001600160a01b038516845260030190915290205460ff1692915050565b34801561039957600080fd5b506103c76103a8366004612223565b6000908152600760205260409020805460018201546002909201549092565b60408051938452602084019290925290820152606001610225565b3480156103ee57600080fd5b506040805180820190915260018152603160f81b6020820152610282565b34801561041857600080fd5b5061023f610427366004612644565b610bb0565b34801561043857600080fd5b5061023f6104473660046126b8565b610bd9565b34801561045857600080fd5b5061023f610467366004612711565b610c2b565b34801561047857600080fd5b50606461023f565b34801561048c57600080fd5b5060065461023f565b3480156104a157600080fd5b506101f26104b03660046127d1565b610c42565b3480156104c157600080fd5b5061023f6104d0366004612223565b610cce565b3480156104e157600080fd5b50683635c9adc5dea0000061023f565b3480156104fd57600080fd5b5061023f61050c366004612223565b610d72565b34801561051d57600080fd5b506101f261052c3660046127ee565b610da1565b34801561053d57600080fd5b5061023f61054c3660046124e3565b610e6d565b34801561055d57600080fd5b506004546001600160a01b03165b6040516001600160a01b039091168152602001610225565b34801561058f57600080fd5b506040805180820190915260208082527f737570706f72743d627261766f2671756f72756d3d666f722c6162737461696e90820152610282565b3480156105d557600080fd5b5061023f7f150214d74d59b7d1e90c73fc22ef3d991dd0a76b046543d4d80ab92d2a50328f81565b34801561060957600080fd5b5061023f610618366004612831565b610ea7565b34801561062957600080fd5b5061023f610638366004612223565b610eb3565b34801561064957600080fd5b5061056b7f000000000000000000000000000000000000000000000000000000000000000081565b60006106856004546001600160a01b031690565b905090565b600061069582610ebe565b92915050565b6106a3610671565b6001600160a01b0316336001600160a01b0316146106dc5760405162461bcd60e51b81526004016106d39061285d565b60405180910390fd5b306106e5610671565b6001600160a01b0316146107275760008036604051610705929190612894565b604051809103902090505b8061071b6002610ee3565b1461072557610710565b505b61073081610f62565b50565b606060008054610742906128a4565b80601f016020809104026020016040519081016040528092919081815260200182805461076e906128a4565b80156107bb5780601f10610790576101008083540402835291602001916107bb565b820191906000526020600020905b81548152906001019060200180831161079e57829003601f168201915b5050505050905090565b6000806107d486868686610e6d565b905060046107e182610ba5565b60078111156107f2576107f26125d6565b1461080f5760405162461bcd60e51b81526004016106d3906128df565b6000600460009054906101000a90046001600160a01b03166001600160a01b031663f27a0c926040518163ffffffff1660e01b815260040160206040518083038186803b15801561085f57600080fd5b505afa158015610873573d6000803e3d6000fd5b505050506040513d601f19601f820116820180604052508101906108979190612920565b6004805460405163b1c5f42760e01b81529293506001600160a01b03169163b1c5f427916108d0918b918b918b916000918c9101612a02565b60206040518083038186803b1580156108e857600080fd5b505afa1580156108fc573d6000803e3d6000fd5b505050506040513d601f19601f820116820180604052508101906109209190612920565b600083815260056020526040808220929092556004805492516308f2a0bb60e41b81526001600160a01b0390931692638f2a0bb09261096b928c928c928c9290918c918a9101612a50565b600060405180830381600087803b15801561098557600080fd5b505af1158015610999573d6000803e3d6000fd5b505050507f9a2e42fd6722813d69113e7d0079d3d940171428df7373df9c7f7617cfda28928282426109cb9190612abe565b6040805192835260208301919091520160405180910390a15095945050505050565b6000806109fc86868686610e6d565b90506000610a0982610ba5565b90506004816007811115610a1f57610a1f6125d6565b1480610a3c57506005816007811115610a3a57610a3a6125d6565b145b610a585760405162461bcd60e51b81526004016106d3906128df565b600082815260016020818152604092839020600201805460ff191690921790915590518381527f712ae1383f79ac853f8d882153778e0260ef8f03b504e2866e0593e04d2b291f910160405180910390a1610ab6828888888861102a565b610ac382888888886110cc565b610ad082888888886110d9565b5095945050505050565b60008181526001602090815260408083208151928301909152546001600160401b0316908190525b6001600160401b031692915050565b604080517f150214d74d59b7d1e90c73fc22ef3d991dd0a76b046543d4d80ab92d2a50328f602082015290810186905260ff851660608201526000908190610b7d90610b759060800160405160208183030381529060405280519060200120611112565b868686611160565b9050610b9a8782886040518060200160405280600081525061117e565b979650505050505050565b600061069582611289565b600080339050610bd18482856040518060200160405280600081525061117e565b949350505050565b600080339050610c2186828787878080601f01602080910402602001604051908101604052809392919081815260200183838082843760009201919091525061117e92505050565b9695505050505050565b6000610c39858585856113ed565b95945050505050565b610c4a610671565b6001600160a01b0316336001600160a01b031614610c7a5760405162461bcd60e51b81526004016106d39061285d565b30610c83610671565b6001600160a01b031614610cc55760008036604051610ca3929190612894565b604051809103902090505b80610cb96002610ee3565b14610cc357610cae565b505b610730816113fb565b6004805460008381526005602052604080822054905163d45c443560e01b8152938401529182916001600160a01b03169063d45c44359060240160206040518083038186803b158015610d2057600080fd5b505afa158015610d34573d6000803e3d6000fd5b505050506040513d601f19601f82011682018060405250810190610d589190612920565b905080600114610d685780610d6b565b60005b9392505050565b60008181526001602081815260408084208151928301909152909101546001600160401b031690819052610b02565b610da9610671565b6001600160a01b0316336001600160a01b031614610dd95760405162461bcd60e51b81526004016106d39061285d565b30610de2610671565b6001600160a01b031614610e245760008036604051610e02929190612894565b604051809103902090505b80610e186002610ee3565b14610e2257610e0d565b505b610e668483838080601f016020809104026020016040519081016040528093929190818152602001838380828437600092019190915250889250611464915050565b5050505050565b600084848484604051602001610e869493929190612ad6565b60408051601f19818403018152919052805160209091012095945050505050565b6000610d6b838361148a565b60006106958261152f565b60006001600160e01b03198216636e665ced60e01b14806106955750610695826115e2565b6000610efe8254600f81810b600160801b909204900b131590565b15610f1c57604051631ed9509560e11b815260040160405180910390fd5b508054600f0b6000818152600180840160205260408220805492905583546fffffffffffffffffffffffffffffffff191692016001600160801b03169190911790915590565b6064811115610fe55760405162461bcd60e51b815260206004820152604360248201527f476f7665726e6f72566f74657351756f72756d4672616374696f6e3a2071756f60448201527f72756d4e756d657261746f72206f7665722071756f72756d44656e6f6d696e616064820152623a37b960e91b608482015260a4016106d3565b600680549082905560408051828152602081018490527f0553476bf02ef2726e8ce5ced78d63e26e602e4a2257b1f559418e24b4633997910160405180910390a15050565b30611033610671565b6001600160a01b031614610e665760005b84518110156110c457306001600160a01b031685828151811061106957611069612b21565b60200260200101516001600160a01b031614156110b4576110b483828151811061109557611095612b21565b602002602001015180519060200120600261161790919063ffffffff16565b6110bd81612b37565b9050611044565b505050505050565b610e668585858585611653565b306110e2610671565b6001600160a01b031614610e6657600254600f81810b600160801b909204900b1315610e66576000600255610e66565b600061069561111f6116c6565b8360405161190160f01b6020820152602281018390526042810182905260009060620160405160208183030381529060405280519060200120905092915050565b6000806000611171878787876117ed565b91509150610ad0816118da565b600084815260016020819052604082209061119887610ba5565b60078111156111a9576111a96125d6565b146112025760405162461bcd60e51b815260206004820152602360248201527f476f7665726e6f723a20766f7465206e6f742063757272656e746c792061637460448201526269766560e81b60648201526084016106d3565b604080516020810190915281546001600160401b03169081905260009061122a908790610ea7565b905061123887878784611a95565b856001600160a01b03167fb8e138887d0aa13bab447e82de9d5c1777041ecd21ca36ba824ff1e6c07ddda4888784886040516112779493929190612b52565b60405180910390a29695505050505050565b60008061129583611c14565b905060048160078111156112ab576112ab6125d6565b146112b65792915050565b600083815260056020526040902054806112d1575092915050565b60048054604051632ab0f52960e01b81529182018390526001600160a01b031690632ab0f5299060240160206040518083038186803b15801561131357600080fd5b505afa158015611327573d6000803e3d6000fd5b505050506040513d601f19601f8201168201806040525081019061134b9190612b7a565b1561135a575060079392505050565b60048054604051632c258a9f60e11b81529182018390526001600160a01b03169063584b153e9060240160206040518083038186803b15801561139c57600080fd5b505afa1580156113b0573d6000803e3d6000fd5b505050506040513d601f19601f820116820180604052508101906113d49190612b7a565b156113e3575060059392505050565b5060029392505050565b6000610c3985858585611d20565b600454604080516001600160a01b03928316815291831660208301527f08f74ea46ef7894f65eabfb5e6e695de773a000b47c529ab559178069b226401910160405180910390a1600480546001600160a01b0319166001600160a01b0392909216919091179055565b6060610bd1848484604051806060016040528060298152602001612d6c60299139611ff7565b604051630748d63560e31b81526001600160a01b038381166004830152602482018390526000917f000000000000000000000000000000000000000000000000000000000000000090911690633a46b1a89060440160206040518083038186803b1580156114f757600080fd5b505afa15801561150b573d6000803e3d6000fd5b505050506040513d601f19601f82011682018060405250810190610d6b9190612920565b60006064600654604051632394e7a360e21b8152600481018590527f00000000000000000000000000000000000000000000000000000000000000006001600160a01b031690638e539e8c9060240160206040518083038186803b15801561159657600080fd5b505afa1580156115aa573d6000803e3d6000fd5b505050506040513d601f19601f820116820180604052508101906115ce9190612920565b6115d89190612b9c565b6106959190612bbb565b60006001600160e01b0319821663bf26d89760e01b148061069557506301ffc9a760e01b6001600160e01b0319831614610695565b8154600160801b90819004600f0b6000818152600180860160205260409091209390935583546001600160801b03908116939091011602179055565b6004805460405163e38335e560e01b81526001600160a01b039091169163e38335e591349161168d918991899189916000918a9101612a02565b6000604051808303818588803b1580156116a657600080fd5b505af11580156116ba573d6000803e3d6000fd5b50505050505050505050565b6000306001600160a01b037f00000000000000000000000000000000000000000000000000000000000000001614801561171f57507f000000000000000000000000000000000000000000000000000000000000000046145b1561174957507f000000000000000000000000000000000000000000000000000000000000000090565b50604080517f00000000000000000000000000000000000000000000000000000000000000006020808301919091527f0000000000000000000000000000000000000000000000000000000000000000828401527f000000000000000000000000000000000000000000000000000000000000000060608301524660808301523060a0808401919091528351808403909101815260c0909201909252805191012090565b6000807f7fffffffffffffffffffffffffffffff5d576e7357a4501ddfe92f46681b20a083111561182457506000905060036118d1565b8460ff16601b1415801561183c57508460ff16601c14155b1561184d57506000905060046118d1565b6040805160008082526020820180845289905260ff881692820192909252606081018690526080810185905260019060a0016020604051602081039080840390855afa1580156118a1573d6000803e3d6000fd5b5050604051601f1901519150506001600160a01b0381166118ca576000600192509250506118d1565b9150600090505b94509492505050565b60008160048111156118ee576118ee6125d6565b14156118f75750565b600181600481111561190b5761190b6125d6565b14156119595760405162461bcd60e51b815260206004820152601860248201527f45434453413a20696e76616c6964207369676e6174757265000000000000000060448201526064016106d3565b600281600481111561196d5761196d6125d6565b14156119bb5760405162461bcd60e51b815260206004820152601f60248201527f45434453413a20696e76616c6964207369676e6174757265206c656e6774680060448201526064016106d3565b60038160048111156119cf576119cf6125d6565b1415611a285760405162461bcd60e51b815260206004820152602260248201527f45434453413a20696e76616c6964207369676e6174757265202773272076616c604482015261756560f01b60648201526084016106d3565b6004816004811115611a3c57611a3c6125d6565b14156107305760405162461bcd60e51b815260206004820152602260248201527f45434453413a20696e76616c6964207369676e6174757265202776272076616c604482015261756560f01b60648201526084016106d3565b60008481526007602090815260408083206001600160a01b0387168452600381019092529091205460ff1615611b1d5760405162461bcd60e51b815260206004820152602760248201527f476f7665726e6f72566f74696e6753696d706c653a20766f746520616c726561604482015266191e4818d85cdd60ca1b60648201526084016106d3565b6001600160a01b03841660009081526003820160205260408120805460ff1916600117905560ff168360ff161415611b6e5781816000016000828254611b639190612abe565b90915550610e669050565b60ff831660011415611b8e5781816001016000828254611b639190612abe565b60ff831660021415611bae5781816002016000828254611b639190612abe565b60405162461bcd60e51b815260206004820152603560248201527f476f7665726e6f72566f74696e6753696d706c653a20696e76616c69642076616044820152746c756520666f7220656e756d20566f74655479706560581b60648201526084016106d3565b6000818152600160205260408120600281015460ff1615611c385750600792915050565b6002810154610100900460ff1615611c535750600292915050565b6000611c5e84610ada565b905080611cad5760405162461bcd60e51b815260206004820152601d60248201527f476f7665726e6f723a20756e6b6e6f776e2070726f706f73616c20696400000060448201526064016106d3565b438110611cbe575060009392505050565b6000611cc985610d72565b9050438110611cdd57506001949350505050565b611ce68561211d565b8015611d05575060008581526007602052604090208054600190910154115b15611d1557506004949350505050565b506003949350505050565b6000683635c9adc5dea00000611d3b33610618600143612bdd565b1015611dbb5760405162461bcd60e51b815260206004820152604360248201527f476f7665726e6f72436f6d7061746962696c697479427261766f3a2070726f7060448201527f6f73657220766f7465732062656c6f772070726f706f73616c207468726573686064820152621bdb1960ea1b608482015260a4016106d3565b6000611dd08686868680519060200120610e6d565b90508451865114611df35760405162461bcd60e51b81526004016106d390612bf4565b8351865114611e145760405162461bcd60e51b81526004016106d390612bf4565b6000865111611e655760405162461bcd60e51b815260206004820152601860248201527f476f7665726e6f723a20656d7074792070726f706f73616c000000000000000060448201526064016106d3565b600081815260016020908152604091829020825191820190925281546001600160401b03169081905215611ee55760405162461bcd60e51b815260206004820152602160248201527f476f7665726e6f723a2070726f706f73616c20616c72656164792065786973746044820152607360f81b60648201526084016106d3565b6000611ef16001612154565b611efa43612154565b611f049190612c35565b90506000611f1361b2fa612154565b611f1d9083612c35565b835467ffffffffffffffff19166001600160401b038416178455905060018301805467ffffffffffffffff19166001600160401b0383161790557f7d84a6263ae0d98d3329bd7b46bb4e8d6f98cd35a7adb45c274c8b7fd5ebd5e084338b8b8d516001600160401b03811115611f9557611f956122ab565b604051908082528060200260200182016040528015611fc857816020015b6060815260200190600190039081611fb35790505b508c88888e604051611fe299989796959493929190612c60565b60405180910390a15091979650505050505050565b6060824710156120585760405162461bcd60e51b815260206004820152602660248201527f416464726573733a20696e73756666696369656e742062616c616e636520666f6044820152651c8818d85b1b60d21b60648201526084016106d3565b6001600160a01b0385163b6120af5760405162461bcd60e51b815260206004820152601d60248201527f416464726573733a2063616c6c20746f206e6f6e2d636f6e747261637400000060448201526064016106d3565b600080866001600160a01b031685876040516120cb9190612d4f565b60006040518083038185875af1925050503d8060008114612108576040519150601f19603f3d011682016040523d82523d6000602084013e61210d565b606091505b5091509150610b9a8282866121c0565b60008181526007602052604081206002810154600182015461213f9190612abe565b61214b61063885610ada565b11159392505050565b60006001600160401b038211156121bc5760405162461bcd60e51b815260206004820152602660248201527f53616665436173743a2076616c756520646f65736e27742066697420696e203660448201526534206269747360d01b60648201526084016106d3565b5090565b606083156121cf575081610d6b565b8251156121df5782518084602001fd5b8160405162461bcd60e51b81526004016106d39190612298565b60006020828403121561220b57600080fd5b81356001600160e01b031981168114610d6b57600080fd5b60006020828403121561223557600080fd5b5035919050565b60005b8381101561225757818101518382015260200161223f565b83811115612266576000848401525b50505050565b6000815180845261228481602086016020860161223c565b601f01601f19169290920160200192915050565b602081526000610d6b602083018461226c565b634e487b7160e01b600052604160045260246000fd5b604051601f8201601f191681016001600160401b03811182821017156122e9576122e96122ab565b604052919050565b60006001600160401b0382111561230a5761230a6122ab565b5060051b60200190565b6001600160a01b038116811461073057600080fd5b600082601f83011261233a57600080fd5b8135602061234f61234a836122f1565b6122c1565b82815260059290921b8401810191818101908684111561236e57600080fd5b8286015b8481101561239257803561238581612314565b8352918301918301612372565b509695505050505050565b600082601f8301126123ae57600080fd5b813560206123be61234a836122f1565b82815260059290921b840181019181810190868411156123dd57600080fd5b8286015b8481101561239257803583529183019183016123e1565b60006001600160401b03831115612411576124116122ab565b612424601f8401601f19166020016122c1565b905082815283838301111561243857600080fd5b828260208301376000602084830101529392505050565b600082601f83011261246057600080fd5b8135602061247061234a836122f1565b82815260059290921b8401810191818101908684111561248f57600080fd5b8286015b848110156123925780356001600160401b038111156124b25760008081fd5b8701603f810189136124c45760008081fd5b6124d58986830135604084016123f8565b845250918301918301612493565b600080600080608085870312156124f957600080fd5b84356001600160401b038082111561251057600080fd5b61251c88838901612329565b9550602087013591508082111561253257600080fd5b61253e8883890161239d565b9450604087013591508082111561255457600080fd5b506125618782880161244f565b949793965093946060013593505050565b803560ff8116811461258357600080fd5b919050565b600080600080600060a086880312156125a057600080fd5b853594506125b060208701612572565b93506125be60408701612572565b94979396509394606081013594506080013592915050565b634e487b7160e01b600052602160045260246000fd5b602081016008831061260e57634e487b7160e01b600052602160045260246000fd5b91905290565b6000806040838503121561262757600080fd5b82359150602083013561263981612314565b809150509250929050565b6000806040838503121561265757600080fd5b8235915061266760208401612572565b90509250929050565b60008083601f84011261268257600080fd5b5081356001600160401b0381111561269957600080fd5b6020830191508360208285010111156126b157600080fd5b9250929050565b600080600080606085870312156126ce57600080fd5b843593506126de60208601612572565b925060408501356001600160401b038111156126f957600080fd5b61270587828801612670565b95989497509550505050565b6000806000806080858703121561272757600080fd5b84356001600160401b038082111561273e57600080fd5b61274a88838901612329565b9550602087013591508082111561276057600080fd5b61276c8883890161239d565b9450604087013591508082111561278257600080fd5b61278e8883890161244f565b935060608701359150808211156127a457600080fd5b508501601f810187136127b657600080fd5b6127c5878235602084016123f8565b91505092959194509250565b6000602082840312156127e357600080fd5b8135610d6b81612314565b6000806000806060858703121561280457600080fd5b843561280f81612314565b93506020850135925060408501356001600160401b038111156126f957600080fd5b6000806040838503121561284457600080fd5b823561284f81612314565b946020939093013593505050565b60208082526018908201527f476f7665726e6f723a206f6e6c79476f7665726e616e63650000000000000000604082015260600190565b8183823760009101908152919050565b600181811c908216806128b857607f821691505b602082108114156128d957634e487b7160e01b600052602260045260246000fd5b50919050565b60208082526021908201527f476f7665726e6f723a2070726f706f73616c206e6f74207375636365737366756040820152601b60fa1b606082015260800190565b60006020828403121561293257600080fd5b5051919050565b600081518084526020808501945080840160005b838110156129725781516001600160a01b03168752958201959082019060010161294d565b509495945050505050565b600081518084526020808501945080840160005b8381101561297257815187529582019590820190600101612991565b600081518084526020808501808196508360051b8101915082860160005b858110156129f55782840389526129e384835161226c565b988501989350908401906001016129cb565b5091979650505050505050565b60a081526000612a1560a0830188612939565b8281036020840152612a27818861297d565b90508281036040840152612a3b81876129ad565b60608401959095525050608001529392505050565b60c081526000612a6360c0830189612939565b8281036020840152612a75818961297d565b90508281036040840152612a8981886129ad565b60608401969096525050608081019290925260a0909101529392505050565b634e487b7160e01b600052601160045260246000fd5b60008219821115612ad157612ad1612aa8565b500190565b608081526000612ae96080830187612939565b8281036020840152612afb818761297d565b90508281036040840152612b0f81866129ad565b91505082606083015295945050505050565b634e487b7160e01b600052603260045260246000fd5b6000600019821415612b4b57612b4b612aa8565b5060010190565b84815260ff84166020820152826040820152608060608201526000610c21608083018461226c565b600060208284031215612b8c57600080fd5b81518015158114610d6b57600080fd5b6000816000190483118215151615612bb657612bb6612aa8565b500290565b600082612bd857634e487b7160e01b600052601260045260246000fd5b500490565b600082821015612bef57612bef612aa8565b500390565b60208082526021908201527f476f7665726e6f723a20696e76616c69642070726f706f73616c206c656e67746040820152600d60fb1b606082015260800190565b60006001600160401b03808316818516808303821115612c5757612c57612aa8565b01949350505050565b60006101208b8352602060018060a01b038c1681850152816040850152612c898285018c612939565b91508382036060850152612c9d828b61297d565b915083820360808501528189518084528284019150828160051b850101838c0160005b83811015612cee57601f19878403018552612cdc83835161226c565b94860194925090850190600101612cc0565b505086810360a0880152612d02818c6129ad565b945050505050612d1d60c08401876001600160401b03169052565b6001600160401b03851660e0840152828103610100840152612d3f818561226c565b9c9b505050505050505050505050565b60008251612d6181846020870161223c565b919091019291505056fe416464726573733a206c6f772d6c6576656c2063616c6c20776974682076616c7565206661696c6564a2646970667358221220145d4403445e8afe3ccb5703e8d0cd59ba3b2dfc3b234993370ae5265c1fa88864736f6c63430008090033",
  "linkReferences": {},
  "deployedLinkReferences": {}
}