{
  "_format": "hh-sol-artifact-1",
  "contractName": "ERC20FlashMintMock",
  "sourceName": "contracts/mocks/ERC20FlashMintMock.sol",
  "abi": [
    {
      "inputs": [
        {
          "internalType": "string",
          "name": "name",
          "type": "string"
        },
        {
          "internalType": "string",
          "name": "symbol",
          "type": "string"
        },
        {
          "internalType": "address",
          "name": "initialAccount",
          "type": "address"
        },
        {
          "internalType": "uint256",
          "name": "initialBalance",
          "type": "uint256"
        }
      ],
      "stateMutability": "nonpayable",
      "type": "constructor"
    },
    {
      "anonymous": false,
      "inputs": [
        {
          "indexed": true,
          "internalType": "address",
          "name": "owner",
          "type": "address"
        },
        {
          "indexed": true,
          "internalType": "address",
          "name": "spender",
          "type": "address"
        },
        {
          "indexed": false,
          "internalType": "uint256",
          "name": "value",
          "type": "uint256"
        }
      ],
      "name": "Approval",
      "type": "event"
    },
    {
      "anonymous": false,
      "inputs": [
        {
          "indexed": true,
          "internalType": "address",
          "name": "from",
          "type": "address"
        },
        {
          "indexed": true,
          "internalType": "address",
          "name": "to",
          "type": "address"
        },
        {
          "indexed": false,
          "internalType": "uint256",
          "name": "value",
          "type": "uint256"
        }
      ],
      "name": "Transfer",
      "type": "event"
    },
    {
      "inputs": [
        {
          "internalType": "address",
          "name": "owner",
          "type": "address"
        },
        {
          "internalType": "address",
          "name": "spender",
          "type": "address"
        }
      ],
      "name": "allowance",
      "outputs": [
        {
          "internalType": "uint256",
          "name": "",
          "type": "uint256"
        }
      ],
      "stateMutability": "view",
      "type": "function"
    },
    {
      "inputs": [
        {
          "internalType": "address",
          "name": "spender",
          "type": "address"
        },
        {
          "internalType": "uint256",
          "name": "amount",
          "type": "uint256"
        }
      ],
      "name": "approve",
      "outputs": [
        {
          "internalType": "bool",
          "name": "",
          "type": "bool"
        }
      ],
      "stateMutability": "nonpayable",
      "type": "function"
    },
    {
      "inputs": [
        {
          "internalType": "address",
          "name": "account",
          "type": "address"
        }
      ],
      "name": "balanceOf",
      "outputs": [
        {
          "internalType": "uint256",
          "name": "",
          "type": "uint256"
        }
      ],
      "stateMutability": "view",
      "type": "function"
    },
    {
      "inputs": [],
      "name": "decimals",
      "outputs": [
        {
          "internalType": "uint8",
          "name": "",
          "type": "uint8"
        }
      ],
      "stateMutability": "view",
      "type": "function"
    },
    {
      "inputs": [
        {
          "internalType": "address",
          "name": "spender",
          "type": "address"
        },
        {
          "internalType": "uint256",
          "name": "subtractedValue",
          "type": "uint256"
        }
      ],
      "name": "decreaseAllowance",
      "outputs": [
        {
          "internalType": "bool",
          "name": "",
          "type": "bool"
        }
      ],
      "stateMutability": "nonpayable",
      "type": "function"
    },
    {
      "inputs": [
        {
          "internalType": "address",
          "name": "token",
          "type": "address"
        },
        {
          "internalType": "uint256",
          "name": "amount",
          "type": "uint256"
        }
      ],
      "name": "flashFee",
      "outputs": [
        {
          "internalType": "uint256",
          "name": "",
          "type": "uint256"
        }
      ],
      "stateMutability": "view",
      "type": "function"
    },
    {
      "inputs": [
        {
          "internalType": "contract IERC3156FlashBorrower",
          "name": "receiver",
          "type": "address"
        },
        {
          "internalType": "address",
          "name": "token",
          "type": "address"
        },
        {
          "internalType": "uint256",
          "name": "amount",
          "type": "uint256"
        },
        {
          "internalType": "bytes",
          "name": "data",
          "type": "bytes"
        }
      ],
      "name": "flashLoan",
      "outputs": [
        {
          "internalType": "bool",
          "name": "",
          "type": "bool"
        }
      ],
      "stateMutability": "nonpayable",
      "type": "function"
    },
    {
      "inputs": [
        {
          "internalType": "address",
          "name": "spender",
          "type": "address"
        },
        {
          "internalType": "uint256",
          "name": "addedValue",
          "type": "uint256"
        }
      ],
      "name": "increaseAllowance",
      "outputs": [
        {
          "internalType": "bool",
          "name": "",
          "type": "bool"
        }
      ],
      "stateMutability": "nonpayable",
      "type": "function"
    },
    {
      "inputs": [
        {
          "internalType": "address",
          "name": "token",
          "type": "address"
        }
      ],
      "name": "maxFlashLoan",
      "outputs": [
        {
          "internalType": "uint256",
          "name": "",
          "type": "uint256"
        }
      ],
      "stateMutability": "view",
      "type": "function"
    },
    {
      "inputs": [],
      "name": "name",
      "outputs": [
        {
          "internalType": "string",
          "name": "",
          "type": "string"
        }
      ],
      "stateMutability": "view",
      "type": "function"
    },
    {
      "inputs": [],
      "name": "symbol",
      "outputs": [
        {
          "internalType": "string",
          "name": "",
          "type": "string"
        }
      ],
      "stateMutability": "view",
      "type": "function"
    },
    {
      "inputs": [],
      "name": "totalSupply",
      "outputs": [
        {
          "internalType": "uint256",
          "name": "",
          "type": "uint256"
        }
      ],
      "stateMutability": "view",
      "type": "function"
    },
    {
      "inputs": [
        {
          "internalType": "address",
          "name": "to",
          "type": "address"
        },
        {
          "internalType": "uint256",
          "name": "amount",
          "type": "uint256"
        }
      ],
      "name": "transfer",
      "outputs": [
        {
          "internalType": "bool",
          "name": "",
          "type": "bool"
        }
      ],
      "stateMutability": "nonpayable",
      "type": "function"
    },
    {
      "inputs": [
        {
          "internalType": "address",
          "name": "from",
          "type": "address"
        },
        {
          "internalType": "address",
          "name": "to",
          "type": "address"
        },
        {
          "internalType": "uint256",
          "name": "amount",
          "type": "uint256"
        }
      ],
      "name": "transferFrom",
      "outputs": [
        {
          "internalType": "bool",
          "name": "",
          "type": "bool"
        }
      ],
      "stateMutability": "nonpayable",
      "type": "function"
    }
  ],
  "bytecode": "0x60806040523480156200001157600080fd5b5060405162001351380380620013518339810160408190526200003491620002dd565b8351849084906200004d9060039060208501906200016a565b508051620000639060049060208401906200016a565b5050506200007882826200008260201b60201c565b50505050620003d4565b6001600160a01b038216620000dd5760405162461bcd60e51b815260206004820152601f60248201527f45524332303a206d696e7420746f20746865207a65726f206164647265737300604482015260640160405180910390fd5b8060026000828254620000f1919062000370565b90915550506001600160a01b038216600090815260208190526040812080548392906200012090849062000370565b90915550506040518181526001600160a01b038316906000907fddf252ad1be2c89b69c2b068fc378daa952ba7f163c4a11628f55a4df523b3ef9060200160405180910390a35050565b828054620001789062000397565b90600052602060002090601f0160209004810192826200019c5760008555620001e7565b82601f10620001b757805160ff1916838001178555620001e7565b82800160010185558215620001e7579182015b82811115620001e7578251825591602001919060010190620001ca565b50620001f5929150620001f9565b5090565b5b80821115620001f55760008155600101620001fa565b634e487b7160e01b600052604160045260246000fd5b600082601f8301126200023857600080fd5b81516001600160401b038082111562000255576200025562000210565b604051601f8301601f19908116603f0116810190828211818310171562000280576200028062000210565b816040528381526020925086838588010111156200029d57600080fd5b600091505b83821015620002c15785820183015181830184015290820190620002a2565b83821115620002d35760008385830101525b9695505050505050565b60008060008060808587031215620002f457600080fd5b84516001600160401b03808211156200030c57600080fd5b6200031a8883890162000226565b955060208701519150808211156200033157600080fd5b50620003408782880162000226565b604087015190945090506001600160a01b03811681146200036057600080fd5b6060959095015193969295505050565b600082198211156200039257634e487b7160e01b600052601160045260246000fd5b500190565b600181811c90821680620003ac57607f821691505b60208210811415620003ce57634e487b7160e01b600052602260045260246000fd5b50919050565b610f6d80620003e46000396000f3fe608060405234801561001057600080fd5b50600436106100ea5760003560e01c8063613255ab1161008c578063a457c2d711610066578063a457c2d7146101ce578063a9059cbb146101e1578063d9d98ce4146101f4578063dd62ed3e1461020757600080fd5b8063613255ab1461018a57806370a082311461019d57806395d89b41146101c657600080fd5b806323b872dd116100c857806323b872dd14610142578063313ce5671461015557806339509351146101645780635cffe9de1461017757600080fd5b806306fdde03146100ef578063095ea7b31461010d57806318160ddd14610130575b600080fd5b6100f761021a565b6040516101049190610c6c565b60405180910390f35b61012061011b366004610cd9565b6102ac565b6040519015158152602001610104565b6002545b604051908152602001610104565b610120610150366004610d05565b6102c4565b60405160128152602001610104565b610120610172366004610cd9565b6102e8565b610120610185366004610d46565b610327565b610134610198366004610de5565b61056f565b6101346101ab366004610de5565b6001600160a01b031660009081526020819052604090205490565b6100f761059d565b6101206101dc366004610cd9565b6105ac565b6101206101ef366004610cd9565b61063e565b610134610202366004610cd9565b61064c565b610134610215366004610e09565b6106af565b60606003805461022990610e42565b80601f016020809104026020016040519081016040528092919081815260200182805461025590610e42565b80156102a25780601f10610277576101008083540402835291602001916102a2565b820191906000526020600020905b81548152906001019060200180831161028557829003601f168201915b5050505050905090565b6000336102ba8185856106da565b5060019392505050565b6000336102d28582856107ff565b6102dd858585610879565b506001949350505050565b3360008181526001602090815260408083206001600160a01b03871684529091528120549091906102ba9082908690610322908790610e93565b6106da565b60006103328561056f565b84111561039a5760405162461bcd60e51b815260206004820152602b60248201527f4552433230466c6173684d696e743a20616d6f756e742065786365656473206d60448201526a30bc233630b9b42637b0b760a91b60648201526084015b60405180910390fd5b60006103a6868661064c565b90506103b28786610a47565b6040516323e30c8b60e01b81527f439148f0bbc682ca079e46d6e2c2f0c1e3b820f1a291b069d8882abf8cf18dd9906001600160a01b038916906323e30c8b9061040a9033908b908b9088908c908c90600401610eab565b602060405180830381600087803b15801561042457600080fd5b505af1158015610438573d6000803e3d6000fd5b505050506040513d601f19601f8201168201806040525081019061045c9190610f07565b146104b55760405162461bcd60e51b8152602060048201526024808201527f4552433230466c6173684d696e743a20696e76616c69642072657475726e2076604482015263616c756560e01b6064820152608401610391565b60006104c188306106af565b90506104cd8287610e93565b8110156105345760405162461bcd60e51b815260206004820152602f60248201527f4552433230466c6173684d696e743a20616c6c6f77616e636520646f6573206e60448201526e1bdd08185b1b1bddc81c99599d5b99608a1b6064820152608401610391565b61054e8830846105448a86610f20565b6103229190610f20565b6105618861055c8489610e93565b610b26565b506001979650505050505050565b60006001600160a01b0382163014610588576000610597565b60025461059790600019610f20565b92915050565b60606004805461022990610e42565b3360008181526001602090815260408083206001600160a01b0387168452909152812054909190838110156106315760405162461bcd60e51b815260206004820152602560248201527f45524332303a2064656372656173656420616c6c6f77616e63652062656c6f77604482015264207a65726f60d81b6064820152608401610391565b6102dd82868684036106da565b6000336102ba818585610879565b60006001600160a01b03831630146106a65760405162461bcd60e51b815260206004820152601b60248201527f4552433230466c6173684d696e743a2077726f6e6720746f6b656e00000000006044820152606401610391565b50600092915050565b6001600160a01b03918216600090815260016020908152604080832093909416825291909152205490565b6001600160a01b03831661073c5760405162461bcd60e51b8152602060048201526024808201527f45524332303a20617070726f76652066726f6d20746865207a65726f206164646044820152637265737360e01b6064820152608401610391565b6001600160a01b03821661079d5760405162461bcd60e51b815260206004820152602260248201527f45524332303a20617070726f766520746f20746865207a65726f206164647265604482015261737360f01b6064820152608401610391565b6001600160a01b0383811660008181526001602090815260408083209487168084529482529182902085905590518481527f8c5be1e5ebec7d5bd14f71427d1e84f3dd0314c0f7b2291e5b200ac8c7c3b92591015b60405180910390a3505050565b600061080b84846106af565b9050600019811461087357818110156108665760405162461bcd60e51b815260206004820152601d60248201527f45524332303a20696e73756666696369656e7420616c6c6f77616e63650000006044820152606401610391565b61087384848484036106da565b50505050565b6001600160a01b0383166108dd5760405162461bcd60e51b815260206004820152602560248201527f45524332303a207472616e736665722066726f6d20746865207a65726f206164604482015264647265737360d81b6064820152608401610391565b6001600160a01b03821661093f5760405162461bcd60e51b815260206004820152602360248201527f45524332303a207472616e7366657220746f20746865207a65726f206164647260448201526265737360e81b6064820152608401610391565b6001600160a01b038316600090815260208190526040902054818110156109b75760405162461bcd60e51b815260206004820152602660248201527f45524332303a207472616e7366657220616d6f756e7420657863656564732062604482015265616c616e636560d01b6064820152608401610391565b6001600160a01b038085166000908152602081905260408082208585039055918516815290812080548492906109ee908490610e93565b92505081905550826001600160a01b0316846001600160a01b03167fddf252ad1be2c89b69c2b068fc378daa952ba7f163c4a11628f55a4df523b3ef84604051610a3a91815260200190565b60405180910390a3610873565b6001600160a01b038216610a9d5760405162461bcd60e51b815260206004820152601f60248201527f45524332303a206d696e7420746f20746865207a65726f2061646472657373006044820152606401610391565b8060026000828254610aaf9190610e93565b90915550506001600160a01b03821660009081526020819052604081208054839290610adc908490610e93565b90915550506040518181526001600160a01b038316906000907fddf252ad1be2c89b69c2b068fc378daa952ba7f163c4a11628f55a4df523b3ef9060200160405180910390a35050565b6001600160a01b038216610b865760405162461bcd60e51b815260206004820152602160248201527f45524332303a206275726e2066726f6d20746865207a65726f206164647265736044820152607360f81b6064820152608401610391565b6001600160a01b03821660009081526020819052604090205481811015610bfa5760405162461bcd60e51b815260206004820152602260248201527f45524332303a206275726e20616d6f756e7420657863656564732062616c616e604482015261636560f01b6064820152608401610391565b6001600160a01b0383166000908152602081905260408120838303905560028054849290610c29908490610f20565b90915550506040518281526000906001600160a01b038516907fddf252ad1be2c89b69c2b068fc378daa952ba7f163c4a11628f55a4df523b3ef906020016107f2565b600060208083528351808285015260005b81811015610c9957858101830151858201604001528201610c7d565b81811115610cab576000604083870101525b50601f01601f1916929092016040019392505050565b6001600160a01b0381168114610cd657600080fd5b50565b60008060408385031215610cec57600080fd5b8235610cf781610cc1565b946020939093013593505050565b600080600060608486031215610d1a57600080fd5b8335610d2581610cc1565b92506020840135610d3581610cc1565b929592945050506040919091013590565b600080600080600060808688031215610d5e57600080fd5b8535610d6981610cc1565b94506020860135610d7981610cc1565b935060408601359250606086013567ffffffffffffffff80821115610d9d57600080fd5b818801915088601f830112610db157600080fd5b813581811115610dc057600080fd5b896020828501011115610dd257600080fd5b9699959850939650602001949392505050565b600060208284031215610df757600080fd5b8135610e0281610cc1565b9392505050565b60008060408385031215610e1c57600080fd5b8235610e2781610cc1565b91506020830135610e3781610cc1565b809150509250929050565b600181811c90821680610e5657607f821691505b60208210811415610e7757634e487b7160e01b600052602260045260246000fd5b50919050565b634e487b7160e01b600052601160045260246000fd5b60008219821115610ea657610ea6610e7d565b500190565b6001600160a01b03878116825286166020820152604081018590526060810184905260a06080820181905281018290526000828460c0840137600060c0848401015260c0601f19601f8501168301019050979650505050505050565b600060208284031215610f1957600080fd5b5051919050565b600082821015610f3257610f32610e7d565b50039056fea2646970667358221220df40a123d2b847ddd9f49afa805452e6f8ba8200cbe7f3514ff39c542607746e64736f6c63430008090033",
  "linkReferences": {},
  "deployedLinkReferences": {}
}