{
  "_format": "hh-sol-artifact-1",
  "contractName": "GovernorCompatibilityBravoMock",
  "sourceName": "contracts/mocks/GovernorCompatibilityBravoMock.sol",
  "abi": [
    {
      "inputs": [
        {
          "internalType": "string",
          "name": "name_",
          "type": "string"
        },
        {
          "internalType": "contract ERC20VotesComp",
          "name": "token_",
          "type": "address"
        },
        {
          "internalType": "uint256",
          "name": "votingDelay_",
          "type": "uint256"
        },
        {
          "internalType": "uint256",
          "name": "votingPeriod_",
          "type": "uint256"
        },
        {
          "internalType": "uint256",
          "name": "proposalThreshold_",
          "type": "uint256"
        },
        {
          "internalType": "contract ICompoundTimelock",
          "name": "timelock_",
          "type": "address"
        }
      ],
      "stateMutability": "nonpayable",
      "type": "constructor"
    },
    {
      "inputs": [],
      "name": "Empty",
      "type": "error"
    },
    {
      "anonymous": false,
      "inputs": [
        {
          "indexed": false,
          "internalType": "uint256",
          "name": "proposalId",
          "type": "uint256"
        }
      ],
      "name": "ProposalCanceled",
      "type": "event"
    },
    {
      "anonymous": false,
      "inputs": [
        {
          "indexed": false,
          "internalType": "uint256",
          "name": "proposalId",
          "type": "uint256"
        },
        {
          "indexed": false,
          "internalType": "address",
          "name": "proposer",
          "type": "address"
        },
        {
          "indexed": false,
          "internalType": "address[]",
          "name": "targets",
          "type": "address[]"
        },
        {
          "indexed": false,
          "internalType": "uint256[]",
          "name": "values",
          "type": "uint256[]"
        },
        {
          "indexed": false,
          "internalType": "string[]",
          "name": "signatures",
          "type": "string[]"
        },
        {
          "indexed": false,
          "internalType": "bytes[]",
          "name": "calldatas",
          "type": "bytes[]"
        },
        {
          "indexed": false,
          "internalType": "uint256",
          "name": "startBlock",
          "type": "uint256"
        },
        {
          "indexed": false,
          "internalType": "uint256",
          "name": "endBlock",
          "type": "uint256"
        },
        {
          "indexed": false,
          "internalType": "string",
          "name": "description",
          "type": "string"
        }
      ],
      "name": "ProposalCreated",
      "type": "event"
    },
    {
      "anonymous": false,
      "inputs": [
        {
          "indexed": false,
          "internalType": "uint256",
          "name": "proposalId",
          "type": "uint256"
        }
      ],
      "name": "ProposalExecuted",
      "type": "event"
    },
    {
      "anonymous": false,
      "inputs": [
        {
          "indexed": false,
          "internalType": "uint256",
          "name": "proposalId",
          "type": "uint256"
        },
        {
          "indexed": false,
          "internalType": "uint256",
          "name": "eta",
          "type": "uint256"
        }
      ],
      "name": "ProposalQueued",
      "type": "event"
    },
    {
      "anonymous": false,
      "inputs": [
        {
          "indexed": false,
          "internalType": "uint256",
          "name": "oldProposalThreshold",
          "type": "uint256"
        },
        {
          "indexed": false,
          "internalType": "uint256",
          "name": "newProposalThreshold",
          "type": "uint256"
        }
      ],
      "name": "ProposalThresholdSet",
      "type": "event"
    },
    {
      "anonymous": false,
      "inputs": [
        {
          "indexed": false,
          "internalType": "address",
          "name": "oldTimelock",
          "type": "address"
        },
        {
          "indexed": false,
          "internalType": "address",
          "name": "newTimelock",
          "type": "address"
        }
      ],
      "name": "TimelockChange",
      "type": "event"
    },
    {
      "anonymous": false,
      "inputs": [
        {
          "indexed": true,
          "internalType": "address",
          "name": "voter",
          "type": "address"
        },
        {
          "indexed": false,
          "internalType": "uint256",
          "name": "proposalId",
          "type": "uint256"
        },
        {
          "indexed": false,
          "internalType": "uint8",
          "name": "support",
          "type": "uint8"
        },
        {
          "indexed": false,
          "internalType": "uint256",
          "name": "weight",
          "type": "uint256"
        },
        {
          "indexed": false,
          "internalType": "string",
          "name": "reason",
          "type": "string"
        }
      ],
      "name": "VoteCast",
      "type": "event"
    },
    {
      "anonymous": false,
      "inputs": [
        {
          "indexed": false,
          "internalType": "uint256",
          "name": "oldVotingDelay",
          "type": "uint256"
        },
        {
          "indexed": false,
          "internalType": "uint256",
          "name": "newVotingDelay",
          "type": "uint256"
        }
      ],
      "name": "VotingDelaySet",
      "type": "event"
    },
    {
      "anonymous": false,
      "inputs": [
        {
          "indexed": false,
          "internalType": "uint256",
          "name": "oldVotingPeriod",
          "type": "uint256"
        },
        {
          "indexed": false,
          "internalType": "uint256",
          "name": "newVotingPeriod",
          "type": "uint256"
        }
      ],
      "name": "VotingPeriodSet",
      "type": "event"
    },
    {
      "inputs": [],
      "name": "BALLOT_TYPEHASH",
      "outputs": [
        {
          "internalType": "bytes32",
          "name": "",
          "type": "bytes32"
        }
      ],
      "stateMutability": "view",
      "type": "function"
    },
    {
      "inputs": [],
      "name": "COUNTING_MODE",
      "outputs": [
        {
          "internalType": "string",
          "name": "",
          "type": "string"
        }
      ],
      "stateMutability": "pure",
      "type": "function"
    },
    {
      "inputs": [],
      "name": "__acceptAdmin",
      "outputs": [],
      "stateMutability": "nonpayable",
      "type": "function"
    },
    {
      "inputs": [
        {
          "internalType": "uint256",
          "name": "proposalId",
          "type": "uint256"
        }
      ],
      "name": "cancel",
      "outputs": [],
      "stateMutability": "nonpayable",
      "type": "function"
    },
    {
      "inputs": [
        {
          "internalType": "address[]",
          "name": "targets",
          "type": "address[]"
        },
        {
          "internalType": "uint256[]",
          "name": "values",
          "type": "uint256[]"
        },
        {
          "internalType": "bytes[]",
          "name": "calldatas",
          "type": "bytes[]"
        },
        {
          "internalType": "bytes32",
          "name": "salt",
          "type": "bytes32"
        }
      ],
      "name": "cancel",
      "outputs": [
        {
          "internalType": "uint256",
          "name": "proposalId",
          "type": "uint256"
        }
      ],
      "stateMutability": "nonpayable",
      "type": "function"
    },
    {
      "inputs": [
        {
          "internalType": "uint256",
          "name": "proposalId",
          "type": "uint256"
        },
        {
          "internalType": "uint8",
          "name": "support",
          "type": "uint8"
        }
      ],
      "name": "castVote",
      "outputs": [
        {
          "internalType": "uint256",
          "name": "",
          "type": "uint256"
        }
      ],
      "stateMutability": "nonpayable",
      "type": "function"
    },
    {
      "inputs": [
        {
          "internalType": "uint256",
          "name": "proposalId",
          "type": "uint256"
        },
        {
          "internalType": "uint8",
          "name": "support",
          "type": "uint8"
        },
        {
          "internalType": "uint8",
          "name": "v",
          "type": "uint8"
        },
        {
          "internalType": "bytes32",
          "name": "r",
          "type": "bytes32"
        },
        {
          "internalType": "bytes32",
          "name": "s",
          "type": "bytes32"
        }
      ],
      "name": "castVoteBySig",
      "outputs": [
        {
          "internalType": "uint256",
          "name": "",
          "type": "uint256"
        }
      ],
      "stateMutability": "nonpayable",
      "type": "function"
    },
    {
      "inputs": [
        {
          "internalType": "uint256",
          "name": "proposalId",
          "type": "uint256"
        },
        {
          "internalType": "uint8",
          "name": "support",
          "type": "uint8"
        },
        {
          "internalType": "string",
          "name": "reason",
          "type": "string"
        }
      ],
      "name": "castVoteWithReason",
      "outputs": [
        {
          "internalType": "uint256",
          "name": "",
          "type": "uint256"
        }
      ],
      "stateMutability": "nonpayable",
      "type": "function"
    },
    {
      "inputs": [
        {
          "internalType": "address[]",
          "name": "targets",
          "type": "address[]"
        },
        {
          "internalType": "uint256[]",
          "name": "values",
          "type": "uint256[]"
        },
        {
          "internalType": "bytes[]",
          "name": "calldatas",
          "type": "bytes[]"
        },
        {
          "internalType": "bytes32",
          "name": "salt",
          "type": "bytes32"
        }
      ],
      "name": "execute",
      "outputs": [
        {
          "internalType": "uint256",
          "name": "",
          "type": "uint256"
        }
      ],
      "stateMutability": "payable",
      "type": "function"
    },
    {
      "inputs": [
        {
          "internalType": "uint256",
          "name": "proposalId",
          "type": "uint256"
        }
      ],
      "name": "execute",
      "outputs": [],
      "stateMutability": "payable",
      "type": "function"
    },
    {
      "inputs": [
        {
          "internalType": "uint256",
          "name": "proposalId",
          "type": "uint256"
        }
      ],
      "name": "getActions",
      "outputs": [
        {
          "internalType": "address[]",
          "name": "targets",
          "type": "address[]"
        },
        {
          "internalType": "uint256[]",
          "name": "values",
          "type": "uint256[]"
        },
        {
          "internalType": "string[]",
          "name": "signatures",
          "type": "string[]"
        },
        {
          "internalType": "bytes[]",
          "name": "calldatas",
          "type": "bytes[]"
        }
      ],
      "stateMutability": "view",
      "type": "function"
    },
    {
      "inputs": [
        {
          "internalType": "uint256",
          "name": "proposalId",
          "type": "uint256"
        },
        {
          "internalType": "address",
          "name": "voter",
          "type": "address"
        }
      ],
      "name": "getReceipt",
      "outputs": [
        {
          "components": [
            {
              "internalType": "bool",
              "name": "hasVoted",
              "type": "bool"
            },
            {
              "internalType": "uint8",
              "name": "support",
              "type": "uint8"
            },
            {
              "internalType": "uint96",
              "name": "votes",
              "type": "uint96"
            }
          ],
          "internalType": "struct IGovernorCompatibilityBravo.Receipt",
          "name": "",
          "type": "tuple"
        }
      ],
      "stateMutability": "view",
      "type": "function"
    },
    {
      "inputs": [
        {
          "internalType": "address",
          "name": "account",
          "type": "address"
        },
        {
          "internalType": "uint256",
          "name": "blockNumber",
          "type": "uint256"
        }
      ],
      "name": "getVotes",
      "outputs": [
        {
          "internalType": "uint256",
          "name": "",
          "type": "uint256"
        }
      ],
      "stateMutability": "view",
      "type": "function"
    },
    {
      "inputs": [
        {
          "internalType": "uint256",
          "name": "proposalId",
          "type": "uint256"
        },
        {
          "internalType": "address",
          "name": "account",
          "type": "address"
        }
      ],
      "name": "hasVoted",
      "outputs": [
        {
          "internalType": "bool",
          "name": "",
          "type": "bool"
        }
      ],
      "stateMutability": "view",
      "type": "function"
    },
    {
      "inputs": [
        {
          "internalType": "address[]",
          "name": "targets",
          "type": "address[]"
        },
        {
          "internalType": "uint256[]",
          "name": "values",
          "type": "uint256[]"
        },
        {
          "internalType": "bytes[]",
          "name": "calldatas",
          "type": "bytes[]"
        },
        {
          "internalType": "bytes32",
          "name": "descriptionHash",
          "type": "bytes32"
        }
      ],
      "name": "hashProposal",
      "outputs": [
        {
          "internalType": "uint256",
          "name": "",
          "type": "uint256"
        }
      ],
      "stateMutability": "pure",
      "type": "function"
    },
    {
      "inputs": [],
      "name": "name",
      "outputs": [
        {
          "internalType": "string",
          "name": "",
          "type": "string"
        }
      ],
      "stateMutability": "view",
      "type": "function"
    },
    {
      "inputs": [
        {
          "internalType": "uint256",
          "name": "proposalId",
          "type": "uint256"
        }
      ],
      "name": "proposalDeadline",
      "outputs": [
        {
          "internalType": "uint256",
          "name": "",
          "type": "uint256"
        }
      ],
      "stateMutability": "view",
      "type": "function"
    },
    {
      "inputs": [
        {
          "internalType": "uint256",
          "name": "proposalId",
          "type": "uint256"
        }
      ],
      "name": "proposalEta",
      "outputs": [
        {
          "internalType": "uint256",
          "name": "",
          "type": "uint256"
        }
      ],
      "stateMutability": "view",
      "type": "function"
    },
    {
      "inputs": [
        {
          "internalType": "uint256",
          "name": "proposalId",
          "type": "uint256"
        }
      ],
      "name": "proposalSnapshot",
      "outputs": [
        {
          "internalType": "uint256",
          "name": "",
          "type": "uint256"
        }
      ],
      "stateMutability": "view",
      "type": "function"
    },
    {
      "inputs": [],
      "name": "proposalThreshold",
      "outputs": [
        {
          "internalType": "uint256",
          "name": "",
          "type": "uint256"
        }
      ],
      "stateMutability": "view",
      "type": "function"
    },
    {
      "inputs": [
        {
          "internalType": "uint256",
          "name": "proposalId",
          "type": "uint256"
        }
      ],
      "name": "proposals",
      "outputs": [
        {
          "internalType": "uint256",
          "name": "id",
          "type": "uint256"
        },
        {
          "internalType": "address",
          "name": "proposer",
          "type": "address"
        },
        {
          "internalType": "uint256",
          "name": "eta",
          "type": "uint256"
        },
        {
          "internalType": "uint256",
          "name": "startBlock",
          "type": "uint256"
        },
        {
          "internalType": "uint256",
          "name": "endBlock",
          "type": "uint256"
        },
        {
          "internalType": "uint256",
          "name": "forVotes",
          "type": "uint256"
        },
        {
          "internalType": "uint256",
          "name": "againstVotes",
          "type": "uint256"
        },
        {
          "internalType": "uint256",
          "name": "abstainVotes",
          "type": "uint256"
        },
        {
          "internalType": "bool",
          "name": "canceled",
          "type": "bool"
        },
        {
          "internalType": "bool",
          "name": "executed",
          "type": "bool"
        }
      ],
      "stateMutability": "view",
      "type": "function"
    },
    {
      "inputs": [
        {
          "internalType": "address[]",
          "name": "targets",
          "type": "address[]"
        },
        {
          "internalType": "uint256[]",
          "name": "values",
          "type": "uint256[]"
        },
        {
          "internalType": "bytes[]",
          "name": "calldatas",
          "type": "bytes[]"
        },
        {
          "internalType": "string",
          "name": "description",
          "type": "string"
        }
      ],
      "name": "propose",
      "outputs": [
        {
          "internalType": "uint256",
          "name": "",
          "type": "uint256"
        }
      ],
      "stateMutability": "nonpayable",
      "type": "function"
    },
    {
      "inputs": [
        {
          "internalType": "address[]",
          "name": "targets",
          "type": "address[]"
        },
        {
          "internalType": "uint256[]",
          "name": "values",
          "type": "uint256[]"
        },
        {
          "internalType": "string[]",
          "name": "signatures",
          "type": "string[]"
        },
        {
          "internalType": "bytes[]",
          "name": "calldatas",
          "type": "bytes[]"
        },
        {
          "internalType": "string",
          "name": "description",
          "type": "string"
        }
      ],
      "name": "propose",
      "outputs": [
        {
          "internalType": "uint256",
          "name": "",
          "type": "uint256"
        }
      ],
      "stateMutability": "nonpayable",
      "type": "function"
    },
    {
      "inputs": [
        {
          "internalType": "address[]",
          "name": "targets",
          "type": "address[]"
        },
        {
          "internalType": "uint256[]",
          "name": "values",
          "type": "uint256[]"
        },
        {
          "internalType": "bytes[]",
          "name": "calldatas",
          "type": "bytes[]"
        },
        {
          "internalType": "bytes32",
          "name": "salt",
          "type": "bytes32"
        }
      ],
      "name": "queue",
      "outputs": [
        {
          "internalType": "uint256",
          "name": "",
          "type": "uint256"
        }
      ],
      "stateMutability": "nonpayable",
      "type": "function"
    },
    {
      "inputs": [
        {
          "internalType": "uint256",
          "name": "proposalId",
          "type": "uint256"
        }
      ],
      "name": "queue",
      "outputs": [],
      "stateMutability": "nonpayable",
      "type": "function"
    },
    {
      "inputs": [
        {
          "internalType": "uint256",
          "name": "",
          "type": "uint256"
        }
      ],
      "name": "quorum",
      "outputs": [
        {
          "internalType": "uint256",
          "name": "",
          "type": "uint256"
        }
      ],
      "stateMutability": "pure",
      "type": "function"
    },
    {
      "inputs": [],
      "name": "quorumVotes",
      "outputs": [
        {
          "internalType": "uint256",
          "name": "",
          "type": "uint256"
        }
      ],
      "stateMutability": "view",
      "type": "function"
    },
    {
      "inputs": [
        {
          "internalType": "address",
          "name": "target",
          "type": "address"
        },
        {
          "internalType": "uint256",
          "name": "value",
          "type": "uint256"
        },
        {
          "internalType": "bytes",
          "name": "data",
          "type": "bytes"
        }
      ],
      "name": "relay",
      "outputs": [],
      "stateMutability": "nonpayable",
      "type": "function"
    },
    {
      "inputs": [
        {
          "internalType": "uint256",
          "name": "newProposalThreshold",
          "type": "uint256"
        }
      ],
      "name": "setProposalThreshold",
      "outputs": [],
      "stateMutability": "nonpayable",
      "type": "function"
    },
    {
      "inputs": [
        {
          "internalType": "uint256",
          "name": "newVotingDelay",
          "type": "uint256"
        }
      ],
      "name": "setVotingDelay",
      "outputs": [],
      "stateMutability": "nonpayable",
      "type": "function"
    },
    {
      "inputs": [
        {
          "internalType": "uint256",
          "name": "newVotingPeriod",
          "type": "uint256"
        }
      ],
      "name": "setVotingPeriod",
      "outputs": [],
      "stateMutability": "nonpayable",
      "type": "function"
    },
    {
      "inputs": [
        {
          "internalType": "uint256",
          "name": "proposalId",
          "type": "uint256"
        }
      ],
      "name": "state",
      "outputs": [
        {
          "internalType": "enum IGovernor.ProposalState",
          "name": "",
          "type": "uint8"
        }
      ],
      "stateMutability": "view",
      "type": "function"
    },
    {
      "inputs": [
        {
          "internalType": "bytes4",
          "name": "interfaceId",
          "type": "bytes4"
        }
      ],
      "name": "supportsInterface",
      "outputs": [
        {
          "internalType": "bool",
          "name": "",
          "type": "bool"
        }
      ],
      "stateMutability": "view",
      "type": "function"
    },
    {
      "inputs": [],
      "name": "timelock",
      "outputs": [
        {
          "internalType": "address",
          "name": "",
          "type": "address"
        }
      ],
      "stateMutability": "view",
      "type": "function"
    },
    {
      "inputs": [],
      "name": "token",
      "outputs": [
        {
          "internalType": "contract ERC20VotesComp",
          "name": "",
          "type": "address"
        }
      ],
      "stateMutability": "view",
      "type": "function"
    },
    {
      "inputs": [
        {
          "internalType": "contract ICompoundTimelock",
          "name": "newTimelock",
          "type": "address"
        }
      ],
      "name": "updateTimelock",
      "outputs": [],
      "stateMutability": "nonpayable",
      "type": "function"
    },
    {
      "inputs": [],
      "name": "version",
      "outputs": [
        {
          "internalType": "string",
          "name": "",
          "type": "string"
        }
      ],
      "stateMutability": "view",
      "type": "function"
    },
    {
      "inputs": [],
      "name": "votingDelay",
      "outputs": [
        {
          "internalType": "uint256",
          "name": "",
          "type": "uint256"
        }
      ],
      "stateMutability": "view",
      "type": "function"
    },
    {
      "inputs": [],
      "name": "votingPeriod",
      "outputs": [
        {
          "internalType": "uint256",
          "name": "",
          "type": "uint256"
        }
      ],
      "stateMutability": "view",
      "type": "function"
    },
    {
      "stateMutability": "payable",
      "type": "receive"
    }
  ],
  "bytecode": "0x6101606040523480156200001257600080fd5b5060405162004df938038062004df98339810160408190526200003591620003be565b84818585858a806200005b6040805180820190915260018152603160f81b602082015290565b815160208084019190912082518383012060e08290526101008190524660a0818152604080517f8b73c3c69bb8fe3d512ecc4cf759cc79239f7b179b0ffacaa9a75d522b39400f81880181905281830187905260608201869052608082019490945230818401528151808203909301835260c00190528051940193909320919290916080523060c0526101205250508251620001019250600091506020840190620002e5565b506200010f90508362000154565b6200011a8262000195565b62000125816200023b565b50505062000139816200027c60201b60201c565b506001600160a01b031661014052506200051a945050505050565b60055460408051918252602082018390527fc565b045403dc03c2eea82b81a0465edad9e2e7fc4d97e11421c209da93d7a93910160405180910390a1600555565b60008111620001fa5760405162461bcd60e51b815260206004820152602760248201527f476f7665726e6f7253657474696e67733a20766f74696e6720706572696f6420604482015266746f6f206c6f7760c81b606482015260840160405180910390fd5b60065460408051918252602082018390527f7e3f7f0708a84de9203036abaa450dccc85ad5ff52f78c170f3edb55cf5e8828910160405180910390a1600655565b60075460408051918252602082018390527fccb45da8d5717e6c4544694297c4ba5cf151d455c9bb0ed4fc7a38411bc05461910160405180910390a1600755565b600854604080516001600160a01b03928316815291831660208301527f08f74ea46ef7894f65eabfb5e6e695de773a000b47c529ab559178069b226401910160405180910390a1600880546001600160a01b0319166001600160a01b0392909216919091179055565b828054620002f390620004dd565b90600052602060002090601f01602090048101928262000317576000855562000362565b82601f106200033257805160ff191683800117855562000362565b8280016001018555821562000362579182015b828111156200036257825182559160200191906001019062000345565b506200037092915062000374565b5090565b5b8082111562000370576000815560010162000375565b634e487b7160e01b600052604160045260246000fd5b80516001600160a01b0381168114620003b957600080fd5b919050565b60008060008060008060c08789031215620003d857600080fd5b86516001600160401b0380821115620003f057600080fd5b818901915089601f8301126200040557600080fd5b8151818111156200041a576200041a6200038b565b604051601f8201601f19908116603f011681019083821181831017156200044557620004456200038b565b81604052828152602093508c848487010111156200046257600080fd5b600091505b8282101562000486578482018401518183018501529083019062000467565b82821115620004985760008484830101525b9950620004aa915050898201620003a1565b96505050604087015193506060870151925060808701519150620004d160a08801620003a1565b90509295509295509295565b600181811c90821680620004f257607f821691505b602082108114156200051457634e487b7160e01b600052602260045260246000fd5b50919050565b60805160a05160c05160e05161010051610120516101405161487d6200057c600039600081816108890152612639015260006129370152600061298601526000612961015260006128ba015260006128e40152600061290e015261487d6000f3fe6080604052600436106102345760003560e01c80637d5e81e21161012e578063dd4e2ba5116100ab578063eb9019d41161006f578063eb9019d414610816578063ece40cc114610836578063f8ce560a14610856578063fc0c546a14610877578063fe0d94c1146108ab57600080fd5b8063dd4e2ba514610692578063ddf0b009146106d8578063deaaa7cc146106f8578063e23a9a521461072c578063ea0217cf146107f657600080fd5b8063c01f9e37116100f2578063c01f9e37146105e0578063c28bc2fa14610600578063c59057e414610620578063d33219b414610640578063da95691a1461067257600080fd5b80637d5e81e214610556578063a890c91014610576578063ab58fb8e14610596578063b58131b0146105b6578063b9a61961146105cb57600080fd5b80633932abb1116101bc578063452115d611610180578063452115d6146104ac57806354fd4d50146104cc57806356781388146104f657806370b0f660146105165780637b3c71d31461053657600080fd5b80633932abb1146103e05780633bccf4fd146103f55780633e4f49e61461041557806340e58ee514610442578063438596321461046257600080fd5b8063160cbed711610203578063160cbed71461034857806324bc1a64146103685780632656227d1461037d5780632d63f69314610390578063328dd982146103b057600080fd5b8063013cf08b1461025c57806301ffc9a7146102d757806302a251a31461030757806306fdde031461032657600080fd5b3661025757306102426108be565b6001600160a01b03161461025557600080fd5b005b600080fd5b34801561026857600080fd5b5061027c610277366004613b27565b6108d7565b604080519a8b526001600160a01b0390991660208b0152978901969096526060880194909452608087019290925260a086015260c085015260e084015215156101008301521515610120820152610140015b60405180910390f35b3480156102e357600080fd5b506102f76102f2366004613b40565b610980565b60405190151581526020016102ce565b34801561031357600080fd5b506006545b6040519081526020016102ce565b34801561033257600080fd5b5061033b610991565b6040516102ce9190613bc2565b34801561035457600080fd5b50610318610363366004613e16565b610a23565b34801561037457600080fd5b50610318610a3a565b61031861038b366004613e16565b610a4a565b34801561039c57600080fd5b506103186103ab366004613b27565b610a58565b3480156103bc57600080fd5b506103d06103cb366004613b27565b610a8f565b6040516102ce9493929190613f6b565b3480156103ec57600080fd5b50600554610318565b34801561040157600080fd5b50610318610410366004613fce565b610d20565b34801561042157600080fd5b50610435610430366004613b27565b610db4565b6040516102ce9190614032565b34801561044e57600080fd5b5061025561045d366004613b27565b610dbf565b34801561046e57600080fd5b506102f761047d36600461405a565b60008281526004602090815260408083206001600160a01b038516845260080190915290205460ff1692915050565b3480156104b857600080fd5b506103186104c7366004613e16565b6110dc565b3480156104d857600080fd5b506040805180820190915260018152603160f81b602082015261033b565b34801561050257600080fd5b5061031861051136600461408a565b6110ea565b34801561052257600080fd5b50610255610531366004613b27565b611113565b34801561054257600080fd5b506103186105513660046140fe565b6111a2565b34801561056257600080fd5b50610318610571366004614177565b6111f4565b34801561058257600080fd5b50610255610591366004614223565b611202565b3480156105a257600080fd5b506103186105b1366004613b27565b61128e565b3480156105c257600080fd5b50610318611299565b3480156105d757600080fd5b506102556112a4565b3480156105ec57600080fd5b506103186105fb366004613b27565b61130e565b34801561060c57600080fd5b5061025561061b366004614240565b61133d565b34801561062c57600080fd5b5061031861063b366004613e16565b611409565b34801561064c57600080fd5b506008546001600160a01b03165b6040516001600160a01b0390911681526020016102ce565b34801561067e57600080fd5b5061031861068d366004614302565b611443565b34801561069e57600080fd5b5060408051808201909152601a81527f737570706f72743d627261766f2671756f72756d3d627261766f000000000000602082015261033b565b3480156106e457600080fd5b506102556106f3366004613b27565b611468565b34801561070457600080fd5b506103187f150214d74d59b7d1e90c73fc22ef3d991dd0a76b046543d4d80ab92d2a50328f81565b34801561073857600080fd5b506107c661074736600461405a565b60408051606081018252600080825260208201819052918101919091525060009182526004602090815260408084206001600160a01b0393909316845260089092018152918190208151606081018352905460ff8082161515835261010082041693820193909352620100009092046001600160601b03169082015290565b6040805182511515815260208084015160ff1690820152918101516001600160601b0316908201526060016102ce565b34801561080257600080fd5b50610255610811366004613b27565b6116d6565b34801561082257600080fd5b506103186108313660046143d3565b611762565b34801561084257600080fd5b50610255610851366004613b27565b611775565b34801561086257600080fd5b50610318610871366004613b27565b50600090565b34801561088357600080fd5b5061065a7f000000000000000000000000000000000000000000000000000000000000000081565b6102556108b9366004613b27565b611801565b60006108d26008546001600160a01b031690565b905090565b80600080808080808080806108eb8a61128e565b97506108f68b610a58565b96506109018b61130e565b60008c815260046020526040812080546005820154600683015460078401546001600160a01b039093169e50949a5098509296509194506109418d610db4565b905060028160078111156109575761095761401c565b149350600781600781111561096e5761096e61401c565b14925050509193959799509193959799565b600061098b82611a6f565b92915050565b6060600080546109a0906143ff565b80601f01602080910402602001604051908101604052809291908181526020018280546109cc906143ff565b8015610a195780601f106109ee57610100808354040283529160200191610a19565b820191906000526020600020905b8154815290600101906020018083116109fc57829003601f168201915b5050505050905090565b6000610a3185858585611a94565b95945050505050565b60006108d2610871600143614450565b6000610a3185858585611e3b565b60008181526001602090815260408083208151928301909152546001600160401b0316908190525b6001600160401b031692915050565b60608060608060006004600087815260200190815260200160002090508060010181600201826003018360040183805480602002602001604051908101604052809291908181526020018280548015610b1157602002820191906000526020600020905b81546001600160a01b03168152600190910190602001808311610af3575b5050505050935082805480602002602001604051908101604052809291908181526020018280548015610b6357602002820191906000526020600020905b815481526020019060010190808311610b4f575b5050505050925081805480602002602001604051908101604052809291908181526020016000905b82821015610c37578382906000526020600020018054610baa906143ff565b80601f0160208091040260200160405190810160405280929190818152602001828054610bd6906143ff565b8015610c235780601f10610bf857610100808354040283529160200191610c23565b820191906000526020600020905b815481529060010190602001808311610c0657829003601f168201915b505050505081526020019060010190610b8b565b50505050915080805480602002602001604051908101604052809291908181526020016000905b82821015610d0a578382906000526020600020018054610c7d906143ff565b80601f0160208091040260200160405190810160405280929190818152602001828054610ca9906143ff565b8015610cf65780601f10610ccb57610100808354040283529160200191610cf6565b820191906000526020600020905b815481529060010190602001808311610cd957829003601f168201915b505050505081526020019060010190610c5e565b5050505090509450945094509450509193509193565b604080517f150214d74d59b7d1e90c73fc22ef3d991dd0a76b046543d4d80ab92d2a50328f602082015290810186905260ff851660608201526000908190610d8c90610d849060800160405160208183030381529060405280519060200120611f28565b868686611f76565b9050610da987828860405180602001604052806000815250611f94565b979650505050505050565b600061098b8261209f565b600081815260046020526040902080546001600160a01b0316336001600160a01b03161480610e0d5750610df1611299565b8154610e0b906001600160a01b0316610831600143614450565b105b610e6e5760405162461bcd60e51b815260206004820152602760248201527f476f7665726e6f72427261766f3a2070726f706f7365722061626f76652074686044820152661c995cda1bdb1960ca1b60648201526084015b60405180910390fd5b6110d781600101805480602002602001604051908101604052809291908181526020018280548015610ec957602002820191906000526020600020905b81546001600160a01b03168152600190910190602001808311610eab575b505050505082600201805480602002602001604051908101604052809291908181526020018280548015610f1c57602002820191906000526020600020905b815481526020019060010190808311610f08575b50505050506110cd84600301805480602002602001604051908101604052809291908181526020016000905b82821015610ff4578382906000526020600020018054610f67906143ff565b80601f0160208091040260200160405190810160405280929190818152602001828054610f93906143ff565b8015610fe05780601f10610fb557610100808354040283529160200191610fe0565b820191906000526020600020905b815481529060010190602001808311610fc357829003601f168201915b505050505081526020019060010190610f48565b50505060048701805460408051602080840282018101909252828152935060009084015b828210156110c4578382906000526020600020018054611037906143ff565b80601f0160208091040260200160405190810160405280929190818152602001828054611063906143ff565b80156110b05780601f10611085576101008083540402835291602001916110b0565b820191906000526020600020905b81548152906001019060200180831161109357829003601f168201915b505050505081526020019060010190611018565b5050505061218f565b84600901546122c1565b505050565b6000610a31858585856122c1565b60008033905061110b84828560405180602001604052806000815250611f94565b949350505050565b61111b6108be565b6001600160a01b0316336001600160a01b03161461114b5760405162461bcd60e51b8152600401610e6590614467565b306111546108be565b6001600160a01b031614611196576000803660405161117492919061449e565b604051809103902090505b8061118a60026122cf565b146111945761117f565b505b61119f8161234e565b50565b6000803390506111ea86828787878080601f016020809104026020016040519081016040528093929190818152602001838380828437600092019190915250611f9492505050565b9695505050505050565b6000610a318585858561238f565b61120a6108be565b6001600160a01b0316336001600160a01b03161461123a5760405162461bcd60e51b8152600401610e6590614467565b306112436108be565b6001600160a01b031614611285576000803660405161126392919061449e565b604051809103902090505b8061127960026122cf565b146112835761126e565b505b61119f816123f7565b600061098b82612460565b60006108d260075490565b600860009054906101000a90046001600160a01b03166001600160a01b0316630e18b6816040518163ffffffff1660e01b8152600401600060405180830381600087803b1580156112f457600080fd5b505af1158015611308573d6000803e3d6000fd5b50505050565b60008181526001602081815260408084208151928301909152909101546001600160401b031690819052610a80565b6113456108be565b6001600160a01b0316336001600160a01b0316146113755760405162461bcd60e51b8152600401610e6590614467565b3061137e6108be565b6001600160a01b0316146113c0576000803660405161139e92919061449e565b604051809103902090505b806113b460026122cf565b146113be576113a9565b505b6114028483838080601f01602080910402602001604051908101604052809392919081815260200183838082843760009201919091525088925061248c915050565b5050505050565b60008484848460405160200161142294939291906144ae565b60408051601f19818403018152919052805160209091012095945050505050565b60006114533387878787876124b2565b6111ea8686611462878761218f565b856111f4565b60008181526004602090815260409182902060018101805484518185028101850190955280855291936110d7939092908301828280156114d157602002820191906000526020600020905b81546001600160a01b031681526001909101906020018083116114b3575b50505050508260020180548060200260200160405190810160405280929190818152602001828054801561152457602002820191906000526020600020905b815481526020019060010190808311611510575b50505050506116cc84600301805480602002602001604051908101604052809291908181526020016000905b828210156115fc57838290600052602060002001805461156f906143ff565b80601f016020809104026020016040519081016040528092919081815260200182805461159b906143ff565b80156115e85780601f106115bd576101008083540402835291602001916115e8565b820191906000526020600020905b8154815290600101906020018083116115cb57829003601f168201915b505050505081526020019060010190611550565b50505060048701805460408051602080840282018101909252828152935060009084015b828210156110c457838290600052602060002001805461163f906143ff565b80601f016020809104026020016040519081016040528092919081815260200182805461166b906143ff565b80156116b85780601f1061168d576101008083540402835291602001916116b8565b820191906000526020600020905b81548152906001019060200180831161169b57829003601f168201915b505050505081526020019060010190611620565b8460090154610a23565b6116de6108be565b6001600160a01b0316336001600160a01b03161461170e5760405162461bcd60e51b8152600401610e6590614467565b306117176108be565b6001600160a01b031614611759576000803660405161173792919061449e565b604051809103902090505b8061174d60026122cf565b1461175757611742565b505b61119f8161256f565b600061176e8383612610565b9392505050565b61177d6108be565b6001600160a01b0316336001600160a01b0316146117ad5760405162461bcd60e51b8152600401610e6590614467565b306117b66108be565b6001600160a01b0316146117f857600080366040516117d692919061449e565b604051809103902090505b806117ec60026122cf565b146117f6576117e1565b505b61119f816126c5565b60008181526004602090815260409182902060018101805484518185028101850190955280855291936110d79390929083018282801561186a57602002820191906000526020600020905b81546001600160a01b0316815260019091019060200180831161184c575b5050505050826002018054806020026020016040519081016040528092919081815260200182805480156118bd57602002820191906000526020600020905b8154815260200190600101908083116118a9575b5050505050611a6584600301805480602002602001604051908101604052809291908181526020016000905b82821015611995578382906000526020600020018054611908906143ff565b80601f0160208091040260200160405190810160405280929190818152602001828054611934906143ff565b80156119815780601f1061195657610100808354040283529160200191611981565b820191906000526020600020905b81548152906001019060200180831161196457829003601f168201915b5050505050815260200190600101906118e9565b50505060048701805460408051602080840282018101909252828152935060009084015b828210156110c45783829060005260206000200180546119d8906143ff565b80601f0160208091040260200160405190810160405280929190818152602001828054611a04906143ff565b8015611a515780601f10611a2657610100808354040283529160200191611a51565b820191906000526020600020905b815481529060010190602001808311611a3457829003601f168201915b5050505050815260200190600101906119b9565b8460090154610a4a565b60006001600160e01b03198216636e665ced60e01b148061098b575061098b82612706565b600080611aa386868686611409565b90506004611ab082610db4565b6007811115611ac157611ac161401c565b14611ade5760405162461bcd60e51b8152600401610e65906144f9565b60085460408051630d48571f60e31b815290516000926001600160a01b031691636a42b8f8916004808301926020929190829003018186803b158015611b2357600080fd5b505afa158015611b37573d6000803e3d6000fd5b505050506040513d601f19601f82011682018060405250810190611b5b919061453a565b611b659042614553565b9050611b87611b738261273b565b6000848152600960205260409020906127a7565b60005b8751811015611df65760085488516001600160a01b039091169063f2b06537908a9084908110611bbc57611bbc61456b565b6020026020010151898481518110611bd657611bd661456b565b6020026020010151898581518110611bf057611bf061456b565b602002602001015186604051602001611c0c9493929190614581565b604051602081830303815290604052805190602001206040518263ffffffff1660e01b8152600401611c4091815260200190565b60206040518083038186803b158015611c5857600080fd5b505afa158015611c6c573d6000803e3d6000fd5b505050506040513d601f19601f82011682018060405250810190611c9091906145c7565b15611d0e5760405162461bcd60e51b815260206004820152604260248201527f476f7665726e6f7254696d656c6f636b436f6d706f756e643a206964656e746960448201527f63616c2070726f706f73616c20616374696f6e20616c72656164792071756575606482015261195960f21b608482015260a401610e65565b60085488516001600160a01b0390911690633a66f901908a9084908110611d3757611d3761456b565b6020026020010151898481518110611d5157611d5161456b565b6020026020010151898581518110611d6b57611d6b61456b565b6020026020010151866040518563ffffffff1660e01b8152600401611d939493929190614581565b602060405180830381600087803b158015611dad57600080fd5b505af1158015611dc1573d6000803e3d6000fd5b505050506040513d601f19601f82011682018060405250810190611de5919061453a565b50611def816145e9565b9050611b8a565b5060408051838152602081018390527f9a2e42fd6722813d69113e7d0079d3d940171428df7373df9c7f7617cfda289291015b60405180910390a15095945050505050565b600080611e4a86868686611409565b90506000611e5782610db4565b90506004816007811115611e6d57611e6d61401c565b1480611e8a57506005816007811115611e8857611e8861401c565b145b611ea65760405162461bcd60e51b8152600401610e65906144f9565b600082815260016020818152604092839020600201805460ff191690921790915590518381527f712ae1383f79ac853f8d882153778e0260ef8f03b504e2866e0593e04d2b291f910160405180910390a1611f0482888888886127c5565b611f118288888888612867565b611f1e8288888888612874565b5095945050505050565b600061098b611f356128ad565b8360405161190160f01b6020820152602281018390526042810182905260009060620160405160208183030381529060405280519060200120905092915050565b6000806000611f87878787876129d4565b91509150611f1e81612ac1565b6000848152600160208190526040822090611fae87610db4565b6007811115611fbf57611fbf61401c565b146120185760405162461bcd60e51b815260206004820152602360248201527f476f7665726e6f723a20766f7465206e6f742063757272656e746c792061637460448201526269766560e81b6064820152608401610e65565b604080516020810190915281546001600160401b031690819052600090612040908790611762565b905061204e87878784612c7c565b856001600160a01b03167fb8e138887d0aa13bab447e82de9d5c1777041ecd21ca36ba824ff1e6c07ddda48887848860405161208d9493929190614604565b60405180910390a29695505050505050565b6000806120ab83612e19565b905060048160078111156120c1576120c161401c565b146120cc5792915050565b60006120d78461128e565b9050806120e5575092915050565b600860009054906101000a90046001600160a01b03166001600160a01b031663c1a287e26040518163ffffffff1660e01b815260040160206040518083038186803b15801561213357600080fd5b505afa158015612147573d6000803e3d6000fd5b505050506040513d601f19601f8201168201806040525081019061216b919061453a565b6121759082614553565b4210612185575060069392505050565b5060059392505050565b6060600082516001600160401b038111156121ac576121ac613bd5565b6040519080825280602002602001820160405280156121df57816020015b60608152602001906001900390816121ca5790505b50905060005b84518110156122b9578481815181106122005761220061456b565b602002602001015151600014612270578481815181106122225761222261456b565b6020026020010151805190602001208482815181106122435761224361456b565b602002602001015160405160200161225c92919061462c565b60405160208183030381529060405261228b565b8381815181106122825761228261456b565b60200260200101515b82828151811061229d5761229d61456b565b6020026020010181905250806122b2906145e9565b90506121e5565b509392505050565b6000610a3185858585612f28565b60006122ea8254600f81810b600160801b909204900b131590565b1561230857604051631ed9509560e11b815260040160405180910390fd5b508054600f0b6000818152600180840160205260408220805492905583546fffffffffffffffffffffffffffffffff191692016001600160801b03169190911790915590565b60055460408051918252602082018390527fc565b045403dc03c2eea82b81a0465edad9e2e7fc4d97e11421c209da93d7a93910160405180910390a1600555565b60006123eb33868686516001600160401b038111156123b0576123b0613bd5565b6040519080825280602002602001820160405280156123e357816020015b60608152602001906001900390816123ce5790505b5087876124b2565b610a3185858585613043565b600854604080516001600160a01b03928316815291831660208301527f08f74ea46ef7894f65eabfb5e6e695de773a000b47c529ab559178069b226401910160405180910390a1600880546001600160a01b0319166001600160a01b0392909216919091179055565b60008181526009602090815260408083208151928301909152546001600160401b031690819052610a80565b606061110b84848460405180606001604052806029815260200161481f602991396132ff565b8051602082012060006124d087876124ca888861218f565b85611409565b60008181526004602052604090206009810154919250906125645780546001600160a01b0319166001600160a01b038a16178155875161251990600183019060208b01906138dd565b50865161252f90600283019060208a019061393e565b5085516125459060038301906020890190613979565b50845161255b90600483019060208801906139d2565b50600981018390555b505050505050505050565b600081116125cf5760405162461bcd60e51b815260206004820152602760248201527f476f7665726e6f7253657474696e67733a20766f74696e6720706572696f6420604482015266746f6f206c6f7760c81b6064820152608401610e65565b60065460408051918252602082018390527f7e3f7f0708a84de9203036abaa450dccc85ad5ff52f78c170f3edb55cf5e8828910160405180910390a1600655565b60405163782d6fe160e01b81526001600160a01b038381166004830152602482018390526000917f00000000000000000000000000000000000000000000000000000000000000009091169063782d6fe19060440160206040518083038186803b15801561267d57600080fd5b505afa158015612691573d6000803e3d6000fd5b505050506040513d601f19601f820116820180604052508101906126b5919061465d565b6001600160601b03169392505050565b60075460408051918252602082018390527fccb45da8d5717e6c4544694297c4ba5cf151d455c9bb0ed4fc7a38411bc05461910160405180910390a1600755565b60006001600160e01b0319821663bf26d89760e01b148061098b57506301ffc9a760e01b6001600160e01b031983161461098b565b60006001600160401b038211156127a35760405162461bcd60e51b815260206004820152602660248201527f53616665436173743a2076616c756520646f65736e27742066697420696e203660448201526534206269747360d01b6064820152608401610e65565b5090565b815467ffffffffffffffff19166001600160401b0391909116179055565b306127ce6108be565b6001600160a01b0316146114025760005b845181101561285f57306001600160a01b03168582815181106128045761280461456b565b60200260200101516001600160a01b0316141561284f5761284f8382815181106128305761283061456b565b602002602001015180519060200120600261342590919063ffffffff16565b612858816145e9565b90506127df565b505050505050565b6114028585858585613461565b3061287d6108be565b6001600160a01b03161461140257600254600f81810b600160801b909204900b1315611402576000600255611402565b6000306001600160a01b037f00000000000000000000000000000000000000000000000000000000000000001614801561290657507f000000000000000000000000000000000000000000000000000000000000000046145b1561293057507f000000000000000000000000000000000000000000000000000000000000000090565b50604080517f00000000000000000000000000000000000000000000000000000000000000006020808301919091527f0000000000000000000000000000000000000000000000000000000000000000828401527f000000000000000000000000000000000000000000000000000000000000000060608301524660808301523060a0808401919091528351808403909101815260c0909201909252805191012090565b6000807f7fffffffffffffffffffffffffffffff5d576e7357a4501ddfe92f46681b20a0831115612a0b5750600090506003612ab8565b8460ff16601b14158015612a2357508460ff16601c14155b15612a345750600090506004612ab8565b6040805160008082526020820180845289905260ff881692820192909252606081018690526080810185905260019060a0016020604051602081039080840390855afa158015612a88573d6000803e3d6000fd5b5050604051601f1901519150506001600160a01b038116612ab157600060019250925050612ab8565b9150600090505b94509492505050565b6000816004811115612ad557612ad561401c565b1415612ade5750565b6001816004811115612af257612af261401c565b1415612b405760405162461bcd60e51b815260206004820152601860248201527f45434453413a20696e76616c6964207369676e617475726500000000000000006044820152606401610e65565b6002816004811115612b5457612b5461401c565b1415612ba25760405162461bcd60e51b815260206004820152601f60248201527f45434453413a20696e76616c6964207369676e6174757265206c656e677468006044820152606401610e65565b6003816004811115612bb657612bb661401c565b1415612c0f5760405162461bcd60e51b815260206004820152602260248201527f45434453413a20696e76616c6964207369676e6174757265202773272076616c604482015261756560f01b6064820152608401610e65565b6004816004811115612c2357612c2361401c565b141561119f5760405162461bcd60e51b815260206004820152602260248201527f45434453413a20696e76616c6964207369676e6174757265202776272076616c604482015261756560f01b6064820152608401610e65565b60008481526004602090815260408083206001600160a01b038716845260088101909252909120805460ff1615612d0b5760405162461bcd60e51b815260206004820152602d60248201527f476f7665726e6f72436f6d7061746962696c697479427261766f3a20766f746560448201526c08185b1c9958591e4818d85cdd609a1b6064820152608401610e65565b805460ff85166101000261ffff19909116176001178155612d2b836135ef565b81546001600160601b039190911662010000026dffffffffffffffffffffffff00001990911617815560ff8416612d7b5782826006016000828254612d709190614553565b9091555061285f9050565b60ff841660011415612d9b5782826005016000828254612d709190614553565b60ff841660021415612dbb5782826007016000828254612d709190614553565b60405162461bcd60e51b815260206004820152602d60248201527f476f7665726e6f72436f6d7061746962696c697479427261766f3a20696e766160448201526c6c696420766f7465207479706560981b6064820152608401610e65565b6000818152600160205260408120600281015460ff1615612e3d5750600792915050565b6002810154610100900460ff1615612e585750600292915050565b6000612e6384610a58565b905080612eb25760405162461bcd60e51b815260206004820152601d60248201527f476f7665726e6f723a20756e6b6e6f776e2070726f706f73616c2069640000006044820152606401610e65565b438110612ec3575060009392505050565b6000612ece8561130e565b9050438110612ee257506001949350505050565b612eeb85613657565b8015612f0d575060008581526004602052604090206006810154600590910154115b15612f1d57506004949350505050565b506003949350505050565b600080612f378686868661367f565b90506000612f448261128e565b90508015611f1e5760005b87518110156130205760085488516001600160a01b039091169063591fcdfe908a9084908110612f8157612f8161456b565b6020026020010151898481518110612f9b57612f9b61456b565b6020026020010151898581518110612fb557612fb561456b565b6020026020010151866040518563ffffffff1660e01b8152600401612fdd9493929190614581565b600060405180830381600087803b158015612ff757600080fd5b505af115801561300b573d6000803e3d6000fd5b5050505080613019906145e9565b9050612f4f565b506000828152600960205260409020805467ffffffffffffffff19169055611f1e565b600061304d611299565b61305c33610831600143614450565b10156130dc5760405162461bcd60e51b815260206004820152604360248201527f476f7665726e6f72436f6d7061746962696c697479427261766f3a2070726f7060448201527f6f73657220766f7465732062656c6f772070726f706f73616c207468726573686064820152621bdb1960ea1b608482015260a401610e65565b60006130f18686868680519060200120611409565b905084518651146131145760405162461bcd60e51b8152600401610e6590614686565b83518651146131355760405162461bcd60e51b8152600401610e6590614686565b60008651116131865760405162461bcd60e51b815260206004820152601860248201527f476f7665726e6f723a20656d7074792070726f706f73616c00000000000000006044820152606401610e65565b600081815260016020908152604091829020825191820190925281546001600160401b031690819052156132065760405162461bcd60e51b815260206004820152602160248201527f476f7665726e6f723a2070726f706f73616c20616c72656164792065786973746044820152607360f81b6064820152608401610e65565b600061321961321460055490565b61273b565b6132224361273b565b61322c91906146c7565b9050600061323c61321460065490565b61324690836146c7565b905061325283836127a7565b61325f60018401826127a7565b7f7d84a6263ae0d98d3329bd7b46bb4e8d6f98cd35a7adb45c274c8b7fd5ebd5e084338b8b8d516001600160401b0381111561329d5761329d613bd5565b6040519080825280602002602001820160405280156132d057816020015b60608152602001906001900390816132bb5790505b508c88888e6040516132ea999897969594939291906146f2565b60405180910390a15091979650505050505050565b6060824710156133605760405162461bcd60e51b815260206004820152602660248201527f416464726573733a20696e73756666696369656e742062616c616e636520666f6044820152651c8818d85b1b60d21b6064820152608401610e65565b6001600160a01b0385163b6133b75760405162461bcd60e51b815260206004820152601d60248201527f416464726573733a2063616c6c20746f206e6f6e2d636f6e74726163740000006044820152606401610e65565b600080866001600160a01b031685876040516133d39190614795565b60006040518083038185875af1925050503d8060008114613410576040519150601f19603f3d011682016040523d82523d6000602084013e613415565b606091505b5091509150610da982828661378b565b8154600160801b90819004600f0b6000818152600180860160205260409091209390935583546001600160801b03908116939091011602179055565b600061346c8661128e565b9050600081116134d85760405162461bcd60e51b815260206004820152603160248201527f476f7665726e6f7254696d656c6f636b436f6d706f756e643a2070726f706f73604482015270185b081b9bdd081e595d081c5d595d5959607a1b6064820152608401610e65565b6008546134ee906001600160a01b0316346137c4565b60005b85518110156135e65760085486516001600160a01b0390911690630825f38f908890849081106135235761352361456b565b602002602001015187848151811061353d5761353d61456b565b60200260200101518785815181106135575761355761456b565b6020026020010151866040518563ffffffff1660e01b815260040161357f9493929190614581565b600060405180830381600087803b15801561359957600080fd5b505af11580156135ad573d6000803e3d6000fd5b505050506040513d6000823e601f3d908101601f191682016040526135d591908101906147b1565b506135df816145e9565b90506134f1565b50505050505050565b60006001600160601b038211156127a35760405162461bcd60e51b815260206004820152602660248201527f53616665436173743a2076616c756520646f65736e27742066697420696e203960448201526536206269747360d01b6064820152608401610e65565b6000818152600460205260408120600581015461367661087185610a58565b11159392505050565b60008061368e86868686611409565b9050600061369b82610db4565b905060028160078111156136b1576136b161401c565b141580156136d1575060068160078111156136ce576136ce61401c565b14155b80156136ef575060078160078111156136ec576136ec61401c565b14155b61373b5760405162461bcd60e51b815260206004820152601d60248201527f476f7665726e6f723a2070726f706f73616c206e6f74206163746976650000006044820152606401610e65565b60008281526001602052604090819020600201805461ff001916610100179055517f789cf55be980739dad1d0699b93b58e806b51c9d96619bfa8fe0a28abaa7b30c90611e299084815260200190565b6060831561379a57508161176e565b8251156137aa5782518084602001fd5b8160405162461bcd60e51b8152600401610e659190613bc2565b804710156138145760405162461bcd60e51b815260206004820152601d60248201527f416464726573733a20696e73756666696369656e742062616c616e63650000006044820152606401610e65565b6000826001600160a01b03168260405160006040518083038185875af1925050503d8060008114613861576040519150601f19603f3d011682016040523d82523d6000602084013e613866565b606091505b50509050806110d75760405162461bcd60e51b815260206004820152603a60248201527f416464726573733a20756e61626c6520746f2073656e642076616c75652c207260448201527f6563697069656e74206d617920686176652072657665727465640000000000006064820152608401610e65565b828054828255906000526020600020908101928215613932579160200282015b8281111561393257825182546001600160a01b0319166001600160a01b039091161782556020909201916001909101906138fd565b506127a3929150613a2b565b828054828255906000526020600020908101928215613932579160200282015b8281111561393257825182559160200191906001019061395e565b8280548282559060005260206000209081019282156139c6579160200282015b828111156139c657825180516139b6918491602090910190613a40565b5091602001919060010190613999565b506127a3929150613ab3565b828054828255906000526020600020908101928215613a1f579160200282015b82811115613a1f5782518051613a0f918491602090910190613a40565b50916020019190600101906139f2565b506127a3929150613ad0565b5b808211156127a35760008155600101613a2c565b828054613a4c906143ff565b90600052602060002090601f016020900481019282613a6e5760008555613932565b82601f10613a8757805160ff1916838001178555613932565b82800160010185558215613932579182018281111561393257825182559160200191906001019061395e565b808211156127a3576000613ac78282613aed565b50600101613ab3565b808211156127a3576000613ae48282613aed565b50600101613ad0565b508054613af9906143ff565b6000825580601f10613b09575050565b601f01602090049060005260206000209081019061119f9190613a2b565b600060208284031215613b3957600080fd5b5035919050565b600060208284031215613b5257600080fd5b81356001600160e01b03198116811461176e57600080fd5b60005b83811015613b85578181015183820152602001613b6d565b838111156113085750506000910152565b60008151808452613bae816020860160208601613b6a565b601f01601f19169290920160200192915050565b60208152600061176e6020830184613b96565b634e487b7160e01b600052604160045260246000fd5b604051601f8201601f191681016001600160401b0381118282101715613c1357613c13613bd5565b604052919050565b60006001600160401b03821115613c3457613c34613bd5565b5060051b60200190565b6001600160a01b038116811461119f57600080fd5b600082601f830112613c6457600080fd5b81356020613c79613c7483613c1b565b613beb565b82815260059290921b84018101918181019086841115613c9857600080fd5b8286015b84811015613cbc578035613caf81613c3e565b8352918301918301613c9c565b509695505050505050565b600082601f830112613cd857600080fd5b81356020613ce8613c7483613c1b565b82815260059290921b84018101918181019086841115613d0757600080fd5b8286015b84811015613cbc5780358352918301918301613d0b565b60006001600160401b03821115613d3b57613d3b613bd5565b50601f01601f191660200190565b6000613d57613c7484613d22565b9050828152838383011115613d6b57600080fd5b828260208301376000602084830101529392505050565b600082601f830112613d9357600080fd5b81356020613da3613c7483613c1b565b82815260059290921b84018101918181019086841115613dc257600080fd5b8286015b84811015613cbc5780356001600160401b03811115613de55760008081fd5b8701603f81018913613df75760008081fd5b613e08898683013560408401613d49565b845250918301918301613dc6565b60008060008060808587031215613e2c57600080fd5b84356001600160401b0380821115613e4357600080fd5b613e4f88838901613c53565b95506020870135915080821115613e6557600080fd5b613e7188838901613cc7565b94506040870135915080821115613e8757600080fd5b50613e9487828801613d82565b949793965093946060013593505050565b600081518084526020808501945080840160005b83811015613ede5781516001600160a01b031687529582019590820190600101613eb9565b509495945050505050565b600081518084526020808501945080840160005b83811015613ede57815187529582019590820190600101613efd565b6000815180845260208085019450848260051b860182860160005b85811015613f5e578383038952613f4c838351613b96565b98850198925090840190600101613f34565b5090979650505050505050565b608081526000613f7e6080830187613ea5565b8281036020840152613f908187613ee9565b90508281036040840152613fa48186613f19565b90508281036060840152610da98185613f19565b803560ff81168114613fc957600080fd5b919050565b600080600080600060a08688031215613fe657600080fd5b85359450613ff660208701613fb8565b935061400460408701613fb8565b94979396509394606081013594506080013592915050565b634e487b7160e01b600052602160045260246000fd5b602081016008831061405457634e487b7160e01b600052602160045260246000fd5b91905290565b6000806040838503121561406d57600080fd5b82359150602083013561407f81613c3e565b809150509250929050565b6000806040838503121561409d57600080fd5b823591506140ad60208401613fb8565b90509250929050565b60008083601f8401126140c857600080fd5b5081356001600160401b038111156140df57600080fd5b6020830191508360208285010111156140f757600080fd5b9250929050565b6000806000806060858703121561411457600080fd5b8435935061412460208601613fb8565b925060408501356001600160401b0381111561413f57600080fd5b61414b878288016140b6565b95989497509550505050565b600082601f83011261416857600080fd5b61176e83833560208501613d49565b6000806000806080858703121561418d57600080fd5b84356001600160401b03808211156141a457600080fd5b6141b088838901613c53565b955060208701359150808211156141c657600080fd5b6141d288838901613cc7565b945060408701359150808211156141e857600080fd5b6141f488838901613d82565b9350606087013591508082111561420a57600080fd5b5061421787828801614157565b91505092959194509250565b60006020828403121561423557600080fd5b813561176e81613c3e565b6000806000806060858703121561425657600080fd5b843561426181613c3e565b93506020850135925060408501356001600160401b0381111561413f57600080fd5b600082601f83011261429457600080fd5b813560206142a4613c7483613c1b565b82815260059290921b840181019181810190868411156142c357600080fd5b8286015b84811015613cbc5780356001600160401b038111156142e65760008081fd5b6142f48986838b0101614157565b8452509183019183016142c7565b600080600080600060a0868803121561431a57600080fd5b85356001600160401b038082111561433157600080fd5b61433d89838a01613c53565b9650602088013591508082111561435357600080fd5b61435f89838a01613cc7565b9550604088013591508082111561437557600080fd5b61438189838a01614283565b9450606088013591508082111561439757600080fd5b6143a389838a01613d82565b935060808801359150808211156143b957600080fd5b506143c688828901614157565b9150509295509295909350565b600080604083850312156143e657600080fd5b82356143f181613c3e565b946020939093013593505050565b600181811c9082168061441357607f821691505b6020821081141561443457634e487b7160e01b600052602260045260246000fd5b50919050565b634e487b7160e01b600052601160045260246000fd5b6000828210156144625761446261443a565b500390565b60208082526018908201527f476f7665726e6f723a206f6e6c79476f7665726e616e63650000000000000000604082015260600190565b8183823760009101908152919050565b6080815260006144c16080830187613ea5565b82810360208401526144d38187613ee9565b905082810360408401526144e78186613f19565b91505082606083015295945050505050565b60208082526021908201527f476f7665726e6f723a2070726f706f73616c206e6f74207375636365737366756040820152601b60fa1b606082015260800190565b60006020828403121561454c57600080fd5b5051919050565b600082198211156145665761456661443a565b500190565b634e487b7160e01b600052603260045260246000fd5b60018060a01b038516815283602082015260a06040820152600060a082015260c0606082015260006145b660c0830185613b96565b905082608083015295945050505050565b6000602082840312156145d957600080fd5b8151801515811461176e57600080fd5b60006000198214156145fd576145fd61443a565b5060010190565b84815260ff841660208201528260408201526080606082015260006111ea6080830184613b96565b6001600160e01b031983168152815160009061464f816004850160208701613b6a565b919091016004019392505050565b60006020828403121561466f57600080fd5b81516001600160601b038116811461176e57600080fd5b60208082526021908201527f476f7665726e6f723a20696e76616c69642070726f706f73616c206c656e67746040820152600d60fb1b606082015260800190565b60006001600160401b038083168185168083038211156146e9576146e961443a565b01949350505050565b8981526001600160a01b03891660208201526101206040820181905260009061471d8382018b613ea5565b90508281036060840152614731818a613ee9565b905082810360808401526147458189613f19565b905082810360a08401526147598188613f19565b6001600160401b0387811660c0860152861660e085015283810361010085015290506147858185613b96565b9c9b505050505050505050505050565b600082516147a7818460208701613b6a565b9190910192915050565b6000602082840312156147c357600080fd5b81516001600160401b038111156147d957600080fd5b8201601f810184136147ea57600080fd5b80516147f8613c7482613d22565b81815285602083850101111561480d57600080fd5b610a31826020830160208601613b6a56fe416464726573733a206c6f772d6c6576656c2063616c6c20776974682076616c7565206661696c6564a2646970667358221220cb5a08041dd53f0c6e4d67c6d0025474108240c092ed030384e165521bb7ca2064736f6c63430008090033",
  "linkReferences": {},
  "deployedLinkReferences": {}
}