{
  "_format": "hh-sol-artifact-1",
  "contractName": "CheckpointsImpl",
  "sourceName": "contracts/mocks/CheckpointsImpl.sol",
  "abi": [
    {
      "inputs": [
        {
          "internalType": "uint256",
          "name": "blockNumber",
          "type": "uint256"
        }
      ],
      "name": "getAtBlock",
      "outputs": [
        {
          "internalType": "uint256",
          "name": "",
          "type": "uint256"
        }
      ],
      "stateMutability": "view",
      "type": "function"
    },
    {
      "inputs": [],
      "name": "latest",
      "outputs": [
        {
          "internalType": "uint256",
          "name": "",
          "type": "uint256"
        }
      ],
      "stateMutability": "view",
      "type": "function"
    },
    {
      "inputs": [
        {
          "internalType": "uint256",
          "name": "value",
          "type": "uint256"
        }
      ],
      "name": "push",
      "outputs": [
        {
          "internalType": "uint256",
          "name": "",
          "type": "uint256"
        },
        {
          "internalType": "uint256",
          "name": "",
          "type": "uint256"
        }
      ],
      "stateMutability": "nonpayable",
      "type": "function"
    }
  ],
  "bytecode": "0x608060405234801561001057600080fd5b5061052b806100206000396000f3fe608060405234801561001057600080fd5b50600436106100415760003560e01c806352bfe78914610046578063959ac48414610061578063ee1bc75114610089575b600080fd5b61004e61009c565b6040519081526020015b60405180910390f35b61007461006f36600461045f565b6100ad565b60408051928352602083019190915201610058565b61004e61009736600461045f565b6100c3565b60006100a860006100d5565b905090565b6000806100ba8184610131565b91509150915091565b60006100cf8183610257565b92915050565b8054600090801561011e57826100ec60018361048e565b815481106100fc576100fc6104a5565b60009182526020909120015464010000000090046001600160e01b0316610121565b60005b6001600160e01b03169392505050565b8154600090819081610142866100d5565b90506000821180156101805750438661015c60018561048e565b8154811061016c5761016c6104a5565b60009182526020909120015463ffffffff16145b156101e05761018e8561036b565b8661019a60018561048e565b815481106101aa576101aa6104a5565b9060005260206000200160000160046101000a8154816001600160e01b0302191690836001600160e01b0316021790555061024e565b8560000160405180604001604052806101f8436103d8565b63ffffffff16815260200161020c8861036b565b6001600160e01b0390811690915282546001810184556000938452602093849020835194909301519091166401000000000263ffffffff909316929092179101555b95939450505050565b60004382106102ad5760405162461bcd60e51b815260206004820181905260248201527f436865636b706f696e74733a20626c6f636b206e6f7420796574206d696e656460448201526064015b60405180910390fd5b825460005b818110156103125760006102c6828461043d565b9050848660000182815481106102de576102de6104a5565b60009182526020909120015463ffffffff1611156102fe5780925061030c565b6103098160016104bb565b91505b506102b2565b8115610356578461032460018461048e565b81548110610334576103346104a5565b60009182526020909120015464010000000090046001600160e01b0316610359565b60005b6001600160e01b031695945050505050565b60006001600160e01b038211156103d45760405162461bcd60e51b815260206004820152602760248201527f53616665436173743a2076616c756520646f65736e27742066697420696e20326044820152663234206269747360c81b60648201526084016102a4565b5090565b600063ffffffff8211156103d45760405162461bcd60e51b815260206004820152602660248201527f53616665436173743a2076616c756520646f65736e27742066697420696e203360448201526532206269747360d01b60648201526084016102a4565b600061044c60028484186104d3565b610458908484166104bb565b9392505050565b60006020828403121561047157600080fd5b5035919050565b634e487b7160e01b600052601160045260246000fd5b6000828210156104a0576104a0610478565b500390565b634e487b7160e01b600052603260045260246000fd5b600082198211156104ce576104ce610478565b500190565b6000826104f057634e487b7160e01b600052601260045260246000fd5b50049056fea26469706673582212208bdbc4a3e3095334e2a080223e9a61b397b7e35d0290f2dc1adf2d9a897fc64b64736f6c63430008090033",
  "linkReferences": {},
  "deployedLinkReferences": {}
}