{
  "_format": "hh-sol-artifact-1",
  "contractName": "ERC20VotesCompMock",
  "sourceName": "contracts/mocks/ERC20VotesCompMock.sol",
  "abi": [
    {
      "inputs": [
        {
          "internalType": "string",
          "name": "name",
          "type": "string"
        },
        {
          "internalType": "string",
          "name": "symbol",
          "type": "string"
        }
      ],
      "stateMutability": "nonpayable",
      "type": "constructor"
    },
    {
      "anonymous": false,
      "inputs": [
        {
          "indexed": true,
          "internalType": "address",
          "name": "owner",
          "type": "address"
        },
        {
          "indexed": true,
          "internalType": "address",
          "name": "spender",
          "type": "address"
        },
        {
          "indexed": false,
          "internalType": "uint256",
          "name": "value",
          "type": "uint256"
        }
      ],
      "name": "Approval",
      "type": "event"
    },
    {
      "anonymous": false,
      "inputs": [
        {
          "indexed": true,
          "internalType": "address",
          "name": "delegator",
          "type": "address"
        },
        {
          "indexed": true,
          "internalType": "address",
          "name": "fromDelegate",
          "type": "address"
        },
        {
          "indexed": true,
          "internalType": "address",
          "name": "toDelegate",
          "type": "address"
        }
      ],
      "name": "DelegateChanged",
      "type": "event"
    },
    {
      "anonymous": false,
      "inputs": [
        {
          "indexed": true,
          "internalType": "address",
          "name": "delegate",
          "type": "address"
        },
        {
          "indexed": false,
          "internalType": "uint256",
          "name": "previousBalance",
          "type": "uint256"
        },
        {
          "indexed": false,
          "internalType": "uint256",
          "name": "newBalance",
          "type": "uint256"
        }
      ],
      "name": "DelegateVotesChanged",
      "type": "event"
    },
    {
      "anonymous": false,
      "inputs": [
        {
          "indexed": true,
          "internalType": "address",
          "name": "from",
          "type": "address"
        },
        {
          "indexed": true,
          "internalType": "address",
          "name": "to",
          "type": "address"
        },
        {
          "indexed": false,
          "internalType": "uint256",
          "name": "value",
          "type": "uint256"
        }
      ],
      "name": "Transfer",
      "type": "event"
    },
    {
      "inputs": [],
      "name": "DOMAIN_SEPARATOR",
      "outputs": [
        {
          "internalType": "bytes32",
          "name": "",
          "type": "bytes32"
        }
      ],
      "stateMutability": "view",
      "type": "function"
    },
    {
      "inputs": [
        {
          "internalType": "address",
          "name": "owner",
          "type": "address"
        },
        {
          "internalType": "address",
          "name": "spender",
          "type": "address"
        }
      ],
      "name": "allowance",
      "outputs": [
        {
          "internalType": "uint256",
          "name": "",
          "type": "uint256"
        }
      ],
      "stateMutability": "view",
      "type": "function"
    },
    {
      "inputs": [
        {
          "internalType": "address",
          "name": "spender",
          "type": "address"
        },
        {
          "internalType": "uint256",
          "name": "amount",
          "type": "uint256"
        }
      ],
      "name": "approve",
      "outputs": [
        {
          "internalType": "bool",
          "name": "",
          "type": "bool"
        }
      ],
      "stateMutability": "nonpayable",
      "type": "function"
    },
    {
      "inputs": [
        {
          "internalType": "address",
          "name": "account",
          "type": "address"
        }
      ],
      "name": "balanceOf",
      "outputs": [
        {
          "internalType": "uint256",
          "name": "",
          "type": "uint256"
        }
      ],
      "stateMutability": "view",
      "type": "function"
    },
    {
      "inputs": [
        {
          "internalType": "address",
          "name": "account",
          "type": "address"
        },
        {
          "internalType": "uint256",
          "name": "amount",
          "type": "uint256"
        }
      ],
      "name": "burn",
      "outputs": [],
      "stateMutability": "nonpayable",
      "type": "function"
    },
    {
      "inputs": [
        {
          "internalType": "address",
          "name": "account",
          "type": "address"
        },
        {
          "internalType": "uint32",
          "name": "pos",
          "type": "uint32"
        }
      ],
      "name": "checkpoints",
      "outputs": [
        {
          "components": [
            {
              "internalType": "uint32",
              "name": "fromBlock",
              "type": "uint32"
            },
            {
              "internalType": "uint224",
              "name": "votes",
              "type": "uint224"
            }
          ],
          "internalType": "struct ERC20Votes.Checkpoint",
          "name": "",
          "type": "tuple"
        }
      ],
      "stateMutability": "view",
      "type": "function"
    },
    {
      "inputs": [],
      "name": "decimals",
      "outputs": [
        {
          "internalType": "uint8",
          "name": "",
          "type": "uint8"
        }
      ],
      "stateMutability": "view",
      "type": "function"
    },
    {
      "inputs": [
        {
          "internalType": "address",
          "name": "spender",
          "type": "address"
        },
        {
          "internalType": "uint256",
          "name": "subtractedValue",
          "type": "uint256"
        }
      ],
      "name": "decreaseAllowance",
      "outputs": [
        {
          "internalType": "bool",
          "name": "",
          "type": "bool"
        }
      ],
      "stateMutability": "nonpayable",
      "type": "function"
    },
    {
      "inputs": [
        {
          "internalType": "address",
          "name": "delegatee",
          "type": "address"
        }
      ],
      "name": "delegate",
      "outputs": [],
      "stateMutability": "nonpayable",
      "type": "function"
    },
    {
      "inputs": [
        {
          "internalType": "address",
          "name": "delegatee",
          "type": "address"
        },
        {
          "internalType": "uint256",
          "name": "nonce",
          "type": "uint256"
        },
        {
          "internalType": "uint256",
          "name": "expiry",
          "type": "uint256"
        },
        {
          "internalType": "uint8",
          "name": "v",
          "type": "uint8"
        },
        {
          "internalType": "bytes32",
          "name": "r",
          "type": "bytes32"
        },
        {
          "internalType": "bytes32",
          "name": "s",
          "type": "bytes32"
        }
      ],
      "name": "delegateBySig",
      "outputs": [],
      "stateMutability": "nonpayable",
      "type": "function"
    },
    {
      "inputs": [
        {
          "internalType": "address",
          "name": "account",
          "type": "address"
        }
      ],
      "name": "delegates",
      "outputs": [
        {
          "internalType": "address",
          "name": "",
          "type": "address"
        }
      ],
      "stateMutability": "view",
      "type": "function"
    },
    {
      "inputs": [],
      "name": "getChainId",
      "outputs": [
        {
          "internalType": "uint256",
          "name": "",
          "type": "uint256"
        }
      ],
      "stateMutability": "view",
      "type": "function"
    },
    {
      "inputs": [
        {
          "internalType": "address",
          "name": "account",
          "type": "address"
        }
      ],
      "name": "getCurrentVotes",
      "outputs": [
        {
          "internalType": "uint96",
          "name": "",
          "type": "uint96"
        }
      ],
      "stateMutability": "view",
      "type": "function"
    },
    {
      "inputs": [
        {
          "internalType": "uint256",
          "name": "blockNumber",
          "type": "uint256"
        }
      ],
      "name": "getPastTotalSupply",
      "outputs": [
        {
          "internalType": "uint256",
          "name": "",
          "type": "uint256"
        }
      ],
      "stateMutability": "view",
      "type": "function"
    },
    {
      "inputs": [
        {
          "internalType": "address",
          "name": "account",
          "type": "address"
        },
        {
          "internalType": "uint256",
          "name": "blockNumber",
          "type": "uint256"
        }
      ],
      "name": "getPastVotes",
      "outputs": [
        {
          "internalType": "uint256",
          "name": "",
          "type": "uint256"
        }
      ],
      "stateMutability": "view",
      "type": "function"
    },
    {
      "inputs": [
        {
          "internalType": "address",
          "name": "account",
          "type": "address"
        },
        {
          "internalType": "uint256",
          "name": "blockNumber",
          "type": "uint256"
        }
      ],
      "name": "getPriorVotes",
      "outputs": [
        {
          "internalType": "uint96",
          "name": "",
          "type": "uint96"
        }
      ],
      "stateMutability": "view",
      "type": "function"
    },
    {
      "inputs": [
        {
          "internalType": "address",
          "name": "account",
          "type": "address"
        }
      ],
      "name": "getVotes",
      "outputs": [
        {
          "internalType": "uint256",
          "name": "",
          "type": "uint256"
        }
      ],
      "stateMutability": "view",
      "type": "function"
    },
    {
      "inputs": [
        {
          "internalType": "address",
          "name": "spender",
          "type": "address"
        },
        {
          "internalType": "uint256",
          "name": "addedValue",
          "type": "uint256"
        }
      ],
      "name": "increaseAllowance",
      "outputs": [
        {
          "internalType": "bool",
          "name": "",
          "type": "bool"
        }
      ],
      "stateMutability": "nonpayable",
      "type": "function"
    },
    {
      "inputs": [
        {
          "internalType": "address",
          "name": "account",
          "type": "address"
        },
        {
          "internalType": "uint256",
          "name": "amount",
          "type": "uint256"
        }
      ],
      "name": "mint",
      "outputs": [],
      "stateMutability": "nonpayable",
      "type": "function"
    },
    {
      "inputs": [],
      "name": "name",
      "outputs": [
        {
          "internalType": "string",
          "name": "",
          "type": "string"
        }
      ],
      "stateMutability": "view",
      "type": "function"
    },
    {
      "inputs": [
        {
          "internalType": "address",
          "name": "owner",
          "type": "address"
        }
      ],
      "name": "nonces",
      "outputs": [
        {
          "internalType": "uint256",
          "name": "",
          "type": "uint256"
        }
      ],
      "stateMutability": "view",
      "type": "function"
    },
    {
      "inputs": [
        {
          "internalType": "address",
          "name": "account",
          "type": "address"
        }
      ],
      "name": "numCheckpoints",
      "outputs": [
        {
          "internalType": "uint32",
          "name": "",
          "type": "uint32"
        }
      ],
      "stateMutability": "view",
      "type": "function"
    },
    {
      "inputs": [
        {
          "internalType": "address",
          "name": "owner",
          "type": "address"
        },
        {
          "internalType": "address",
          "name": "spender",
          "type": "address"
        },
        {
          "internalType": "uint256",
          "name": "value",
          "type": "uint256"
        },
        {
          "internalType": "uint256",
          "name": "deadline",
          "type": "uint256"
        },
        {
          "internalType": "uint8",
          "name": "v",
          "type": "uint8"
        },
        {
          "internalType": "bytes32",
          "name": "r",
          "type": "bytes32"
        },
        {
          "internalType": "bytes32",
          "name": "s",
          "type": "bytes32"
        }
      ],
      "name": "permit",
      "outputs": [],
      "stateMutability": "nonpayable",
      "type": "function"
    },
    {
      "inputs": [],
      "name": "symbol",
      "outputs": [
        {
          "internalType": "string",
          "name": "",
          "type": "string"
        }
      ],
      "stateMutability": "view",
      "type": "function"
    },
    {
      "inputs": [],
      "name": "totalSupply",
      "outputs": [
        {
          "internalType": "uint256",
          "name": "",
          "type": "uint256"
        }
      ],
      "stateMutability": "view",
      "type": "function"
    },
    {
      "inputs": [
        {
          "internalType": "address",
          "name": "to",
          "type": "address"
        },
        {
          "internalType": "uint256",
          "name": "amount",
          "type": "uint256"
        }
      ],
      "name": "transfer",
      "outputs": [
        {
          "internalType": "bool",
          "name": "",
          "type": "bool"
        }
      ],
      "stateMutability": "nonpayable",
      "type": "function"
    },
    {
      "inputs": [
        {
          "internalType": "address",
          "name": "from",
          "type": "address"
        },
        {
          "internalType": "address",
          "name": "to",
          "type": "address"
        },
        {
          "internalType": "uint256",
          "name": "amount",
          "type": "uint256"
        }
      ],
      "name": "transferFrom",
      "outputs": [
        {
          "internalType": "bool",
          "name": "",
          "type": "bool"
        }
      ],
      "stateMutability": "nonpayable",
      "type": "function"
    }
  ],
  "bytecode": "0x6101606040527f6e71edae12b1b97f4d1f60370fef10105fa2faae0126114a169c64845d6126c9610140523480156200003757600080fd5b50604051620022ad380380620022ad8339810160408190526200005a91620002b7565b8180604051806040016040528060018152602001603160f81b815250848481600390805190602001906200009092919062000144565b508051620000a690600490602084019062000144565b5050825160208085019190912083518483012060e08290526101008190524660a0818152604080517f8b73c3c69bb8fe3d512ecc4cf759cc79239f7b179b0ffacaa9a75d522b39400f81880181905281830187905260608201869052608082019490945230818401528151808203909301835260c0019052805194019390932091935091906080523060c05261012052506200035e95505050505050565b828054620001529062000321565b90600052602060002090601f016020900481019282620001765760008555620001c1565b82601f106200019157805160ff1916838001178555620001c1565b82800160010185558215620001c1579182015b82811115620001c1578251825591602001919060010190620001a4565b50620001cf929150620001d3565b5090565b5b80821115620001cf5760008155600101620001d4565b634e487b7160e01b600052604160045260246000fd5b600082601f8301126200021257600080fd5b81516001600160401b03808211156200022f576200022f620001ea565b604051601f8301601f19908116603f011681019082821181831017156200025a576200025a620001ea565b816040528381526020925086838588010111156200027757600080fd5b600091505b838210156200029b57858201830151818301840152908201906200027c565b83821115620002ad5760008385830101525b9695505050505050565b60008060408385031215620002cb57600080fd5b82516001600160401b0380821115620002e357600080fd5b620002f18683870162000200565b935060208501519150808211156200030857600080fd5b50620003178582860162000200565b9150509250929050565b600181811c908216806200033657607f821691505b602082108114156200035857634e487b7160e01b600052602260045260246000fd5b50919050565b60805160a05160c05160e051610100516101205161014051611ef4620003b960003960006109ac01526000610f5401526000610fa301526000610f7e01526000610ed701526000610f0101526000610f2b0152611ef46000f3fe608060405234801561001057600080fd5b50600436106101a95760003560e01c806370a08231116100f9578063a457c2d711610097578063c3cda52011610071578063c3cda520146103cc578063d505accf146103df578063dd62ed3e146103f2578063f1127ed81461042b57600080fd5b8063a457c2d714610393578063a9059cbb146103a6578063b4b5ea57146103b957600080fd5b80638e539e8c116100d35780638e539e8c1461035257806395d89b41146103655780639ab24eb01461036d5780639dc29fac1461038057600080fd5b806370a08231146102eb578063782d6fe1146103145780637ecebe001461033f57600080fd5b80633644e5151161016657806340c10f191161014057806340c10f1914610257578063587cde1e1461026c5780635c19a95c146102b05780636fcfff45146102c357600080fd5b80633644e5151461022957806339509351146102315780633a46b1a81461024457600080fd5b806306fdde03146101ae578063095ea7b3146101cc57806318160ddd146101ef57806323b872dd14610201578063313ce567146102145780633408e47014610223575b600080fd5b6101b6610468565b6040516101c39190611ba5565b60405180910390f35b6101df6101da366004611c16565b6104fa565b60405190151581526020016101c3565b6002545b6040519081526020016101c3565b6101df61020f366004611c40565b610512565b604051601281526020016101c3565b466101f3565b6101f3610536565b6101df61023f366004611c16565b610545565b6101f3610252366004611c16565b610584565b61026a610265366004611c16565b610603565b005b61029861027a366004611c7c565b6001600160a01b039081166000908152600660205260409020541690565b6040516001600160a01b0390911681526020016101c3565b61026a6102be366004611c7c565b610611565b6102d66102d1366004611c7c565b61061e565b60405163ffffffff90911681526020016101c3565b6101f36102f9366004611c7c565b6001600160a01b031660009081526020819052604090205490565b610327610322366004611c16565b610646565b6040516001600160601b0390911681526020016101c3565b6101f361034d366004611c7c565b61065a565b6101f3610360366004611c97565b610678565b6101b66106d4565b6101f361037b366004611c7c565b6106e3565b61026a61038e366004611c16565b61076a565b6101df6103a1366004611c16565b610774565b6101df6103b4366004611c16565b610806565b6103276103c7366004611c7c565b610814565b61026a6103da366004611cc1565b610822565b61026a6103ed366004611d19565b610958565b6101f3610400366004611d83565b6001600160a01b03918216600090815260016020908152604080832093909416825291909152205490565b61043e610439366004611db6565b610abc565b60408051825163ffffffff1681526020928301516001600160e01b031692810192909252016101c3565b60606003805461047790611df6565b80601f01602080910402602001604051908101604052809291908181526020018280546104a390611df6565b80156104f05780601f106104c5576101008083540402835291602001916104f0565b820191906000526020600020905b8154815290600101906020018083116104d357829003601f168201915b5050505050905090565b600033610508818585610b40565b5060019392505050565b600033610520858285610c64565b61052b858585610cf6565b506001949350505050565b6000610540610eca565b905090565b3360008181526001602090815260408083206001600160a01b0387168452909152812054909190610508908290869061057f908790611e41565b610b40565b60004382106105da5760405162461bcd60e51b815260206004820152601f60248201527f4552433230566f7465733a20626c6f636b206e6f7420796574206d696e65640060448201526064015b60405180910390fd5b6001600160a01b03831660009081526007602052604090206105fc9083610ff1565b9392505050565b61060d82826110ae565b5050565b61061b3382611138565b50565b6001600160a01b038116600090815260076020526040812054610640906111b1565b92915050565b60006105fc6106558484610584565b61121a565b6001600160a01b038116600090815260056020526040812054610640565b60004382106106c95760405162461bcd60e51b815260206004820152601f60248201527f4552433230566f7465733a20626c6f636b206e6f7420796574206d696e65640060448201526064016105d1565b610640600883610ff1565b60606004805461047790611df6565b6001600160a01b0381166000908152600760205260408120548015610757576001600160a01b0383166000908152600760205260409020610725600183611e59565b8154811061073557610735611e70565b60009182526020909120015464010000000090046001600160e01b031661075a565b60005b6001600160e01b03169392505050565b61060d8282611282565b3360008181526001602090815260408083206001600160a01b0387168452909152812054909190838110156107f95760405162461bcd60e51b815260206004820152602560248201527f45524332303a2064656372656173656420616c6c6f77616e63652062656c6f77604482015264207a65726f60d81b60648201526084016105d1565b61052b8286868403610b40565b600033610508818585610cf6565b6000610640610655836106e3565b834211156108725760405162461bcd60e51b815260206004820152601d60248201527f4552433230566f7465733a207369676e6174757265206578706972656400000060448201526064016105d1565b604080517fe48329057bfd03d55e49b547132e39cffd9c1820ad7b9d4c5307691425d15adf60208201526001600160a01b0388169181019190915260608101869052608081018590526000906108ec906108e49060a0016040516020818303038152906040528051906020012061129a565b8585856112e8565b90506108f781611310565b86146109455760405162461bcd60e51b815260206004820152601960248201527f4552433230566f7465733a20696e76616c6964206e6f6e63650000000000000060448201526064016105d1565b61094f8188611138565b50505050505050565b834211156109a85760405162461bcd60e51b815260206004820152601d60248201527f45524332305065726d69743a206578706972656420646561646c696e6500000060448201526064016105d1565b60007f00000000000000000000000000000000000000000000000000000000000000008888886109d78c611310565b6040805160208101969096526001600160a01b0394851690860152929091166060840152608083015260a082015260c0810186905260e0016040516020818303038152906040528051906020012090506000610a328261129a565b90506000610a42828787876112e8565b9050896001600160a01b0316816001600160a01b031614610aa55760405162461bcd60e51b815260206004820152601e60248201527f45524332305065726d69743a20696e76616c6964207369676e6174757265000060448201526064016105d1565b610ab08a8a8a610b40565b50505050505050505050565b60408051808201909152600080825260208201526001600160a01b0383166000908152600760205260409020805463ffffffff8416908110610b0057610b00611e70565b60009182526020918290206040805180820190915291015463ffffffff8116825264010000000090046001600160e01b0316918101919091529392505050565b6001600160a01b038316610ba25760405162461bcd60e51b8152602060048201526024808201527f45524332303a20617070726f76652066726f6d20746865207a65726f206164646044820152637265737360e01b60648201526084016105d1565b6001600160a01b038216610c035760405162461bcd60e51b815260206004820152602260248201527f45524332303a20617070726f766520746f20746865207a65726f206164647265604482015261737360f01b60648201526084016105d1565b6001600160a01b0383811660008181526001602090815260408083209487168084529482529182902085905590518481527f8c5be1e5ebec7d5bd14f71427d1e84f3dd0314c0f7b2291e5b200ac8c7c3b925910160405180910390a3505050565b6001600160a01b038381166000908152600160209081526040808320938616835292905220546000198114610cf05781811015610ce35760405162461bcd60e51b815260206004820152601d60248201527f45524332303a20696e73756666696369656e7420616c6c6f77616e636500000060448201526064016105d1565b610cf08484848403610b40565b50505050565b6001600160a01b038316610d5a5760405162461bcd60e51b815260206004820152602560248201527f45524332303a207472616e736665722066726f6d20746865207a65726f206164604482015264647265737360d81b60648201526084016105d1565b6001600160a01b038216610dbc5760405162461bcd60e51b815260206004820152602360248201527f45524332303a207472616e7366657220746f20746865207a65726f206164647260448201526265737360e81b60648201526084016105d1565b6001600160a01b03831660009081526020819052604090205481811015610e345760405162461bcd60e51b815260206004820152602660248201527f45524332303a207472616e7366657220616d6f756e7420657863656564732062604482015265616c616e636560d01b60648201526084016105d1565b6001600160a01b03808516600090815260208190526040808220858503905591851681529081208054849290610e6b908490611e41565b92505081905550826001600160a01b0316846001600160a01b03167fddf252ad1be2c89b69c2b068fc378daa952ba7f163c4a11628f55a4df523b3ef84604051610eb791815260200190565b60405180910390a3610cf084848461133d565b6000306001600160a01b037f000000000000000000000000000000000000000000000000000000000000000016148015610f2357507f000000000000000000000000000000000000000000000000000000000000000046145b15610f4d57507f000000000000000000000000000000000000000000000000000000000000000090565b50604080517f00000000000000000000000000000000000000000000000000000000000000006020808301919091527f0000000000000000000000000000000000000000000000000000000000000000828401527f000000000000000000000000000000000000000000000000000000000000000060608301524660808301523060a0808401919091528351808403909101815260c0909201909252805191012090565b8154600090815b8181101561105557600061100c828461136f565b90508486828154811061102157611021611e70565b60009182526020909120015463ffffffff1611156110415780925061104f565b61104c816001611e41565b91505b50610ff8565b81156110995784611067600184611e59565b8154811061107757611077611e70565b60009182526020909120015464010000000090046001600160e01b031661109c565b60005b6001600160e01b031695945050505050565b6110b8828261138a565b6002546001600160601b03101561112a5760405162461bcd60e51b815260206004820152603060248201527f4552433230566f7465733a20746f74616c20737570706c79207269736b73206f60448201526f766572666c6f77696e6720766f74657360801b60648201526084016105d1565b610cf060086114718361147d565b6001600160a01b038281166000818152600660208181526040808420805485845282862054949093528787166001600160a01b03198416811790915590519190951694919391928592917f3134e8a2e6d97e929a7e54011ea5485d7d196dd5f0ba4d4ef95803e8e3fc257f9190a4610cf08284836115f6565b600063ffffffff8211156112165760405162461bcd60e51b815260206004820152602660248201527f53616665436173743a2076616c756520646f65736e27742066697420696e203360448201526532206269747360d01b60648201526084016105d1565b5090565b60006001600160601b038211156112165760405162461bcd60e51b815260206004820152602660248201527f53616665436173743a2076616c756520646f65736e27742066697420696e203960448201526536206269747360d01b60648201526084016105d1565b61128c8282611733565b610cf060086118888361147d565b60006106406112a7610eca565b8360405161190160f01b6020820152602281018390526042810182905260009060620160405160208183030381529060405280519060200120905092915050565b60008060006112f987878787611894565b9150915061130681611981565b5095945050505050565b6001600160a01b03811660009081526005602052604090208054600181018255905b50919050565b505050565b6001600160a01b03838116600090815260066020526040808220548584168352912054611338929182169116836115f6565b600061137e6002848418611e86565b6105fc90848416611e41565b6001600160a01b0382166113e05760405162461bcd60e51b815260206004820152601f60248201527f45524332303a206d696e7420746f20746865207a65726f20616464726573730060448201526064016105d1565b80600260008282546113f29190611e41565b90915550506001600160a01b0382166000908152602081905260408120805483929061141f908490611e41565b90915550506040518181526001600160a01b038316906000907fddf252ad1be2c89b69c2b068fc378daa952ba7f163c4a11628f55a4df523b3ef9060200160405180910390a361060d6000838361133d565b60006105fc8284611e41565b8254600090819080156114c85785611496600183611e59565b815481106114a6576114a6611e70565b60009182526020909120015464010000000090046001600160e01b03166114cb565b60005b6001600160e01b031692506114e483858763ffffffff16565b9150600081118015611522575043866114fe600184611e59565b8154811061150e5761150e611e70565b60009182526020909120015463ffffffff16145b156115825761153082611b3c565b8661153c600184611e59565b8154811061154c5761154c611e70565b9060005260206000200160000160046101000a8154816001600160e01b0302191690836001600160e01b031602179055506115ed565b856040518060400160405280611597436111b1565b63ffffffff1681526020016115ab85611b3c565b6001600160e01b0390811690915282546001810184556000938452602093849020835194909301519091166401000000000263ffffffff909316929092179101555b50935093915050565b816001600160a01b0316836001600160a01b0316141580156116185750600081115b15611338576001600160a01b038316156116a6576001600160a01b03831660009081526007602052604081208190611653906118888561147d565b91509150846001600160a01b03167fdec2bacdd2f05b59de34da9b523dff8be42e5e38e818c82fdb0bae774387a724838360405161169b929190918252602082015260400190565b60405180910390a250505b6001600160a01b03821615611338576001600160a01b038216600090815260076020526040812081906116dc906114718561147d565b91509150836001600160a01b03167fdec2bacdd2f05b59de34da9b523dff8be42e5e38e818c82fdb0bae774387a7248383604051611724929190918252602082015260400190565b60405180910390a25050505050565b6001600160a01b0382166117935760405162461bcd60e51b815260206004820152602160248201527f45524332303a206275726e2066726f6d20746865207a65726f206164647265736044820152607360f81b60648201526084016105d1565b6001600160a01b038216600090815260208190526040902054818110156118075760405162461bcd60e51b815260206004820152602260248201527f45524332303a206275726e20616d6f756e7420657863656564732062616c616e604482015261636560f01b60648201526084016105d1565b6001600160a01b0383166000908152602081905260408120838303905560028054849290611836908490611e59565b90915550506040518281526000906001600160a01b038516907fddf252ad1be2c89b69c2b068fc378daa952ba7f163c4a11628f55a4df523b3ef9060200160405180910390a36113388360008461133d565b60006105fc8284611e59565b6000807f7fffffffffffffffffffffffffffffff5d576e7357a4501ddfe92f46681b20a08311156118cb5750600090506003611978565b8460ff16601b141580156118e357508460ff16601c14155b156118f45750600090506004611978565b6040805160008082526020820180845289905260ff881692820192909252606081018690526080810185905260019060a0016020604051602081039080840390855afa158015611948573d6000803e3d6000fd5b5050604051601f1901519150506001600160a01b03811661197157600060019250925050611978565b9150600090505b94509492505050565b600081600481111561199557611995611ea8565b141561199e5750565b60018160048111156119b2576119b2611ea8565b1415611a005760405162461bcd60e51b815260206004820152601860248201527f45434453413a20696e76616c6964207369676e6174757265000000000000000060448201526064016105d1565b6002816004811115611a1457611a14611ea8565b1415611a625760405162461bcd60e51b815260206004820152601f60248201527f45434453413a20696e76616c6964207369676e6174757265206c656e6774680060448201526064016105d1565b6003816004811115611a7657611a76611ea8565b1415611acf5760405162461bcd60e51b815260206004820152602260248201527f45434453413a20696e76616c6964207369676e6174757265202773272076616c604482015261756560f01b60648201526084016105d1565b6004816004811115611ae357611ae3611ea8565b141561061b5760405162461bcd60e51b815260206004820152602260248201527f45434453413a20696e76616c6964207369676e6174757265202776272076616c604482015261756560f01b60648201526084016105d1565b60006001600160e01b038211156112165760405162461bcd60e51b815260206004820152602760248201527f53616665436173743a2076616c756520646f65736e27742066697420696e20326044820152663234206269747360c81b60648201526084016105d1565b600060208083528351808285015260005b81811015611bd257858101830151858201604001528201611bb6565b81811115611be4576000604083870101525b50601f01601f1916929092016040019392505050565b80356001600160a01b0381168114611c1157600080fd5b919050565b60008060408385031215611c2957600080fd5b611c3283611bfa565b946020939093013593505050565b600080600060608486031215611c5557600080fd5b611c5e84611bfa565b9250611c6c60208501611bfa565b9150604084013590509250925092565b600060208284031215611c8e57600080fd5b6105fc82611bfa565b600060208284031215611ca957600080fd5b5035919050565b803560ff81168114611c1157600080fd5b60008060008060008060c08789031215611cda57600080fd5b611ce387611bfa565b95506020870135945060408701359350611cff60608801611cb0565b92506080870135915060a087013590509295509295509295565b600080600080600080600060e0888a031215611d3457600080fd5b611d3d88611bfa565b9650611d4b60208901611bfa565b95506040880135945060608801359350611d6760808901611cb0565b925060a0880135915060c0880135905092959891949750929550565b60008060408385031215611d9657600080fd5b611d9f83611bfa565b9150611dad60208401611bfa565b90509250929050565b60008060408385031215611dc957600080fd5b611dd283611bfa565b9150602083013563ffffffff81168114611deb57600080fd5b809150509250929050565b600181811c90821680611e0a57607f821691505b6020821081141561133257634e487b7160e01b600052602260045260246000fd5b634e487b7160e01b600052601160045260246000fd5b60008219821115611e5457611e54611e2b565b500190565b600082821015611e6b57611e6b611e2b565b500390565b634e487b7160e01b600052603260045260246000fd5b600082611ea357634e487b7160e01b600052601260045260246000fd5b500490565b634e487b7160e01b600052602160045260246000fdfea26469706673582212206351d6066da8817f2f9d866ca94a3d9e73275a35e07ed2ebe8ce85ad6a80c6ec64736f6c63430008090033",
  "linkReferences": {},
  "deployedLinkReferences": {}
}