{
  "_format": "hh-sol-artifact-1",
  "contractName": "ERC4626Mock",
  "sourceName": "contracts/mocks/ERC4626Mock.sol",
  "abi": [
    {
      "inputs": [
        {
          "internalType": "contract IERC20Metadata",
          "name": "asset",
          "type": "address"
        },
        {
          "internalType": "string",
          "name": "name",
          "type": "string"
        },
        {
          "internalType": "string",
          "name": "symbol",
          "type": "string"
        }
      ],
      "stateMutability": "nonpayable",
      "type": "constructor"
    },
    {
      "anonymous": false,
      "inputs": [
        {
          "indexed": true,
          "internalType": "address",
          "name": "owner",
          "type": "address"
        },
        {
          "indexed": true,
          "internalType": "address",
          "name": "spender",
          "type": "address"
        },
        {
          "indexed": false,
          "internalType": "uint256",
          "name": "value",
          "type": "uint256"
        }
      ],
      "name": "Approval",
      "type": "event"
    },
    {
      "anonymous": false,
      "inputs": [
        {
          "indexed": true,
          "internalType": "address",
          "name": "caller",
          "type": "address"
        },
        {
          "indexed": true,
          "internalType": "address",
          "name": "owner",
          "type": "address"
        },
        {
          "indexed": false,
          "internalType": "uint256",
          "name": "assets",
          "type": "uint256"
        },
        {
          "indexed": false,
          "internalType": "uint256",
          "name": "shares",
          "type": "uint256"
        }
      ],
      "name": "Deposit",
      "type": "event"
    },
    {
      "anonymous": false,
      "inputs": [
        {
          "indexed": true,
          "internalType": "address",
          "name": "from",
          "type": "address"
        },
        {
          "indexed": true,
          "internalType": "address",
          "name": "to",
          "type": "address"
        },
        {
          "indexed": false,
          "internalType": "uint256",
          "name": "value",
          "type": "uint256"
        }
      ],
      "name": "Transfer",
      "type": "event"
    },
    {
      "anonymous": false,
      "inputs": [
        {
          "indexed": true,
          "internalType": "address",
          "name": "caller",
          "type": "address"
        },
        {
          "indexed": true,
          "internalType": "address",
          "name": "receiver",
          "type": "address"
        },
        {
          "indexed": true,
          "internalType": "address",
          "name": "owner",
          "type": "address"
        },
        {
          "indexed": false,
          "internalType": "uint256",
          "name": "assets",
          "type": "uint256"
        },
        {
          "indexed": false,
          "internalType": "uint256",
          "name": "shares",
          "type": "uint256"
        }
      ],
      "name": "Withdraw",
      "type": "event"
    },
    {
      "inputs": [
        {
          "internalType": "address",
          "name": "owner",
          "type": "address"
        },
        {
          "internalType": "address",
          "name": "spender",
          "type": "address"
        }
      ],
      "name": "allowance",
      "outputs": [
        {
          "internalType": "uint256",
          "name": "",
          "type": "uint256"
        }
      ],
      "stateMutability": "view",
      "type": "function"
    },
    {
      "inputs": [
        {
          "internalType": "address",
          "name": "spender",
          "type": "address"
        },
        {
          "internalType": "uint256",
          "name": "amount",
          "type": "uint256"
        }
      ],
      "name": "approve",
      "outputs": [
        {
          "internalType": "bool",
          "name": "",
          "type": "bool"
        }
      ],
      "stateMutability": "nonpayable",
      "type": "function"
    },
    {
      "inputs": [],
      "name": "asset",
      "outputs": [
        {
          "internalType": "address",
          "name": "",
          "type": "address"
        }
      ],
      "stateMutability": "view",
      "type": "function"
    },
    {
      "inputs": [
        {
          "internalType": "address",
          "name": "account",
          "type": "address"
        }
      ],
      "name": "balanceOf",
      "outputs": [
        {
          "internalType": "uint256",
          "name": "",
          "type": "uint256"
        }
      ],
      "stateMutability": "view",
      "type": "function"
    },
    {
      "inputs": [
        {
          "internalType": "uint256",
          "name": "shares",
          "type": "uint256"
        }
      ],
      "name": "convertToAssets",
      "outputs": [
        {
          "internalType": "uint256",
          "name": "assets",
          "type": "uint256"
        }
      ],
      "stateMutability": "view",
      "type": "function"
    },
    {
      "inputs": [
        {
          "internalType": "uint256",
          "name": "assets",
          "type": "uint256"
        }
      ],
      "name": "convertToShares",
      "outputs": [
        {
          "internalType": "uint256",
          "name": "shares",
          "type": "uint256"
        }
      ],
      "stateMutability": "view",
      "type": "function"
    },
    {
      "inputs": [],
      "name": "decimals",
      "outputs": [
        {
          "internalType": "uint8",
          "name": "",
          "type": "uint8"
        }
      ],
      "stateMutability": "view",
      "type": "function"
    },
    {
      "inputs": [
        {
          "internalType": "address",
          "name": "spender",
          "type": "address"
        },
        {
          "internalType": "uint256",
          "name": "subtractedValue",
          "type": "uint256"
        }
      ],
      "name": "decreaseAllowance",
      "outputs": [
        {
          "internalType": "bool",
          "name": "",
          "type": "bool"
        }
      ],
      "stateMutability": "nonpayable",
      "type": "function"
    },
    {
      "inputs": [
        {
          "internalType": "uint256",
          "name": "assets",
          "type": "uint256"
        },
        {
          "internalType": "address",
          "name": "receiver",
          "type": "address"
        }
      ],
      "name": "deposit",
      "outputs": [
        {
          "internalType": "uint256",
          "name": "",
          "type": "uint256"
        }
      ],
      "stateMutability": "nonpayable",
      "type": "function"
    },
    {
      "inputs": [
        {
          "internalType": "address",
          "name": "spender",
          "type": "address"
        },
        {
          "internalType": "uint256",
          "name": "addedValue",
          "type": "uint256"
        }
      ],
      "name": "increaseAllowance",
      "outputs": [
        {
          "internalType": "bool",
          "name": "",
          "type": "bool"
        }
      ],
      "stateMutability": "nonpayable",
      "type": "function"
    },
    {
      "inputs": [
        {
          "internalType": "address",
          "name": "",
          "type": "address"
        }
      ],
      "name": "maxDeposit",
      "outputs": [
        {
          "internalType": "uint256",
          "name": "",
          "type": "uint256"
        }
      ],
      "stateMutability": "view",
      "type": "function"
    },
    {
      "inputs": [
        {
          "internalType": "address",
          "name": "",
          "type": "address"
        }
      ],
      "name": "maxMint",
      "outputs": [
        {
          "internalType": "uint256",
          "name": "",
          "type": "uint256"
        }
      ],
      "stateMutability": "view",
      "type": "function"
    },
    {
      "inputs": [
        {
          "internalType": "address",
          "name": "owner",
          "type": "address"
        }
      ],
      "name": "maxRedeem",
      "outputs": [
        {
          "internalType": "uint256",
          "name": "",
          "type": "uint256"
        }
      ],
      "stateMutability": "view",
      "type": "function"
    },
    {
      "inputs": [
        {
          "internalType": "address",
          "name": "owner",
          "type": "address"
        }
      ],
      "name": "maxWithdraw",
      "outputs": [
        {
          "internalType": "uint256",
          "name": "",
          "type": "uint256"
        }
      ],
      "stateMutability": "view",
      "type": "function"
    },
    {
      "inputs": [
        {
          "internalType": "uint256",
          "name": "shares",
          "type": "uint256"
        },
        {
          "internalType": "address",
          "name": "receiver",
          "type": "address"
        }
      ],
      "name": "mint",
      "outputs": [
        {
          "internalType": "uint256",
          "name": "",
          "type": "uint256"
        }
      ],
      "stateMutability": "nonpayable",
      "type": "function"
    },
    {
      "inputs": [
        {
          "internalType": "address",
          "name": "account",
          "type": "address"
        },
        {
          "internalType": "uint256",
          "name": "amount",
          "type": "uint256"
        }
      ],
      "name": "mockBurn",
      "outputs": [],
      "stateMutability": "nonpayable",
      "type": "function"
    },
    {
      "inputs": [
        {
          "internalType": "address",
          "name": "account",
          "type": "address"
        },
        {
          "internalType": "uint256",
          "name": "amount",
          "type": "uint256"
        }
      ],
      "name": "mockMint",
      "outputs": [],
      "stateMutability": "nonpayable",
      "type": "function"
    },
    {
      "inputs": [],
      "name": "name",
      "outputs": [
        {
          "internalType": "string",
          "name": "",
          "type": "string"
        }
      ],
      "stateMutability": "view",
      "type": "function"
    },
    {
      "inputs": [
        {
          "internalType": "uint256",
          "name": "assets",
          "type": "uint256"
        }
      ],
      "name": "previewDeposit",
      "outputs": [
        {
          "internalType": "uint256",
          "name": "",
          "type": "uint256"
        }
      ],
      "stateMutability": "view",
      "type": "function"
    },
    {
      "inputs": [
        {
          "internalType": "uint256",
          "name": "shares",
          "type": "uint256"
        }
      ],
      "name": "previewMint",
      "outputs": [
        {
          "internalType": "uint256",
          "name": "",
          "type": "uint256"
        }
      ],
      "stateMutability": "view",
      "type": "function"
    },
    {
      "inputs": [
        {
          "internalType": "uint256",
          "name": "shares",
          "type": "uint256"
        }
      ],
      "name": "previewRedeem",
      "outputs": [
        {
          "internalType": "uint256",
          "name": "",
          "type": "uint256"
        }
      ],
      "stateMutability": "view",
      "type": "function"
    },
    {
      "inputs": [
        {
          "internalType": "uint256",
          "name": "assets",
          "type": "uint256"
        }
      ],
      "name": "previewWithdraw",
      "outputs": [
        {
          "internalType": "uint256",
          "name": "",
          "type": "uint256"
        }
      ],
      "stateMutability": "view",
      "type": "function"
    },
    {
      "inputs": [
        {
          "internalType": "uint256",
          "name": "shares",
          "type": "uint256"
        },
        {
          "internalType": "address",
          "name": "receiver",
          "type": "address"
        },
        {
          "internalType": "address",
          "name": "owner",
          "type": "address"
        }
      ],
      "name": "redeem",
      "outputs": [
        {
          "internalType": "uint256",
          "name": "",
          "type": "uint256"
        }
      ],
      "stateMutability": "nonpayable",
      "type": "function"
    },
    {
      "inputs": [],
      "name": "symbol",
      "outputs": [
        {
          "internalType": "string",
          "name": "",
          "type": "string"
        }
      ],
      "stateMutability": "view",
      "type": "function"
    },
    {
      "inputs": [],
      "name": "totalAssets",
      "outputs": [
        {
          "internalType": "uint256",
          "name": "",
          "type": "uint256"
        }
      ],
      "stateMutability": "view",
      "type": "function"
    },
    {
      "inputs": [],
      "name": "totalSupply",
      "outputs": [
        {
          "internalType": "uint256",
          "name": "",
          "type": "uint256"
        }
      ],
      "stateMutability": "view",
      "type": "function"
    },
    {
      "inputs": [
        {
          "internalType": "address",
          "name": "to",
          "type": "address"
        },
        {
          "internalType": "uint256",
          "name": "amount",
          "type": "uint256"
        }
      ],
      "name": "transfer",
      "outputs": [
        {
          "internalType": "bool",
          "name": "",
          "type": "bool"
        }
      ],
      "stateMutability": "nonpayable",
      "type": "function"
    },
    {
      "inputs": [
        {
          "internalType": "address",
          "name": "from",
          "type": "address"
        },
        {
          "internalType": "address",
          "name": "to",
          "type": "address"
        },
        {
          "internalType": "uint256",
          "name": "amount",
          "type": "uint256"
        }
      ],
      "name": "transferFrom",
      "outputs": [
        {
          "internalType": "bool",
          "name": "",
          "type": "bool"
        }
      ],
      "stateMutability": "nonpayable",
      "type": "function"
    },
    {
      "inputs": [
        {
          "internalType": "uint256",
          "name": "assets",
          "type": "uint256"
        },
        {
          "internalType": "address",
          "name": "receiver",
          "type": "address"
        },
        {
          "internalType": "address",
          "name": "owner",
          "type": "address"
        }
      ],
      "name": "withdraw",
      "outputs": [
        {
          "internalType": "uint256",
          "name": "",
          "type": "uint256"
        }
      ],
      "stateMutability": "nonpayable",
      "type": "function"
    }
  ],
  "bytecode": "0x60a06040523480156200001157600080fd5b5060405162001c6438038062001c648339810160408190526200003491620001f1565b82828281600390805190602001906200004f9291906200007e565b508051620000659060049060208401906200007e565b5050506001600160a01b031660805250620002b8915050565b8280546200008c906200027b565b90600052602060002090601f016020900481019282620000b05760008555620000fb565b82601f10620000cb57805160ff1916838001178555620000fb565b82800160010185558215620000fb579182015b82811115620000fb578251825591602001919060010190620000de565b50620001099291506200010d565b5090565b5b808211156200010957600081556001016200010e565b634e487b7160e01b600052604160045260246000fd5b600082601f8301126200014c57600080fd5b81516001600160401b038082111562000169576200016962000124565b604051601f8301601f19908116603f0116810190828211818310171562000194576200019462000124565b81604052838152602092508683858801011115620001b157600080fd5b600091505b83821015620001d55785820183015181830184015290820190620001b6565b83821115620001e75760008385830101525b9695505050505050565b6000806000606084860312156200020757600080fd5b83516001600160a01b03811681146200021f57600080fd5b60208501519093506001600160401b03808211156200023d57600080fd5b6200024b878388016200013a565b935060408601519150808211156200026257600080fd5b5062000271868287016200013a565b9150509250925092565b600181811c908216806200029057607f821691505b60208210811415620002b257634e487b7160e01b600052602260045260246000fd5b50919050565b60805161195f620003056000396000818161029901528181610464015281816105c10152818161076d01528181610811015281816109f201528181610b1c0152610bcb015261195f6000f3fe608060405234801561001057600080fd5b50600436106101cf5760003560e01c80636e553f6511610104578063b460af94116100a2578063ce96cb7711610071578063ce96cb77146103da578063d905777e146103ed578063dd62ed3e14610400578063ef8b30f71461043957600080fd5b8063b460af94146103a1578063ba087652146103b4578063c63d75b6146102d6578063c6e6f592146103c757600080fd5b806395d89b41116100de57806395d89b4114610360578063a457c2d714610368578063a9059cbb1461037b578063b3d7f6b91461038e57600080fd5b80636e553f651461031157806370a082311461032457806394bf804d1461034d57600080fd5b8063313ce56711610171578063395093511161014b57806339509351146102c3578063402d267d146102d6578063492dc938146102eb5780634cdad506146102fe57600080fd5b8063313ce56714610268578063378934b41461027757806338d52e0f1461028c57600080fd5b8063095ea7b3116101ad578063095ea7b3146102175780630a28a4771461023a57806318160ddd1461024d57806323b872dd1461025557600080fd5b806301e1d114146101d457806306fdde03146101ef57806307a2d13a14610204575b600080fd5b6101dc61044c565b6040519081526020015b60405180910390f35b6101f76104eb565b6040516101e69190611580565b6101dc6102123660046115b3565b61057d565b61022a6102253660046115e8565b610676565b60405190151581526020016101e6565b6101dc6102483660046115b3565b610690565b6002546101dc565b61022a610263366004611612565b6106c4565b604051601281526020016101e6565b61028a6102853660046115e8565b6106e8565b005b6040516001600160a01b037f00000000000000000000000000000000000000000000000000000000000000001681526020016101e6565b61022a6102d13660046115e8565b6106f6565b6101dc6102e436600461164e565b5060001990565b61028a6102f93660046115e8565b610735565b6101dc61030c3660046115b3565b61073f565b6101dc61031f366004611669565b61074a565b6101dc61033236600461164e565b6001600160a01b031660009081526020819052604090205490565b6101dc61035b366004611669565b6107fc565b6101f7610890565b61022a6103763660046115e8565b61089f565b61022a6103893660046115e8565b610931565b6101dc61039c3660046115b3565b61093f565b6101dc6103af366004611695565b610957565b6101dc6103c2366004611695565b610a81565b6101dc6103d53660046115b3565b610b9a565b6101dc6103e836600461164e565b610c6c565b6101dc6103fb36600461164e565b610c8e565b6101dc61040e3660046116d1565b6001600160a01b03918216600090815260016020908152604080832093909416825291909152205490565b6101dc6104473660046115b3565b610cac565b6040516370a0823160e01b81523060048201526000907f00000000000000000000000000000000000000000000000000000000000000006001600160a01b0316906370a082319060240160206040518083038186803b1580156104ae57600080fd5b505afa1580156104c2573d6000803e3d6000fd5b505050506040513d601f19601f820116820180604052508101906104e691906116fb565b905090565b6060600380546104fa90611714565b80601f016020809104026020016040519081016040528092919081815260200182805461052690611714565b80156105735780601f1061054857610100808354040283529160200191610573565b820191906000526020600020905b81548152906001019060200180831161055657829003601f168201915b5050505050905090565b60008061058960025490565b905080156105b3578061059a61044c565b6105a49085611765565b6105ae9190611784565b61066f565b6105bf6012600a61188a565b7f00000000000000000000000000000000000000000000000000000000000000006001600160a01b031663313ce5676040518163ffffffff1660e01b815260040160206040518083038186803b15801561061857600080fd5b505afa15801561062c573d6000803e3d6000fd5b505050506040513d601f19601f820116820180604052508101906106509190611899565b61065b90600a61188a565b6106659085611765565b61066f9190611784565b9392505050565b600033610684818585610cb7565b60019150505b92915050565b60008061069c83610b9a565b9050826106a88261057d565b106106b45760006106b7565b60015b61066f9060ff16826118bc565b6000336106d2858285610ddc565b6106dd858585610e6e565b506001949350505050565b6106f2828261103c565b5050565b3360008181526001602090815260408083206001600160a01b038716845290915281205490919061068490829086906107309087906118bc565b610cb7565b6106f2828261111b565b600061068a8261057d565b600061075a565b60405180910390fd5b33600061076685610cac565b90506107947f0000000000000000000000000000000000000000000000000000000000000000833088611266565b61079e848261103c565b836001600160a01b0316826001600160a01b03167fdcbc1c05240f31ff3ad067ef1ee35ce4997762752e3a095284754544f4c709d787846040516107ec929190918252602082015260400190565b60405180910390a3949350505050565b600033600061080a8561093f565b90506108387f0000000000000000000000000000000000000000000000000000000000000000833084611266565b610842848661103c565b836001600160a01b0316826001600160a01b03167fdcbc1c05240f31ff3ad067ef1ee35ce4997762752e3a095284754544f4c709d783886040516107ec929190918252602082015260400190565b6060600480546104fa90611714565b3360008181526001602090815260408083206001600160a01b0387168452909152812054909190838110156109245760405162461bcd60e51b815260206004820152602560248201527f45524332303a2064656372656173656420616c6c6f77616e63652062656c6f77604482015264207a65726f60d81b6064820152608401610751565b6106dd8286868403610cb7565b600033610684818585610e6e565b60008061094b8361057d565b9050826106a882610b9a565b600061096282610c6c565b8411156109b15760405162461bcd60e51b815260206004820152601f60248201527f455243343632363a207769746864726177206d6f7265207468656e206d6178006044820152606401610751565b3360006109bd86610690565b9050836001600160a01b0316826001600160a01b0316146109e3576109e3848383610ddc565b6109ed848261111b565b610a187f000000000000000000000000000000000000000000000000000000000000000086886112d1565b836001600160a01b0316856001600160a01b0316836001600160a01b03167ffbde797d201c681b91056529119e0b02407c7bb96a4a2c75c01fc9667232c8db8985604051610a70929190918252602082015260400190565b60405180910390a495945050505050565b6000610a8c82610c8e565b841115610adb5760405162461bcd60e51b815260206004820152601d60248201527f455243343632363a2072656465656d206d6f7265207468656e206d61780000006044820152606401610751565b336000610ae78661073f565b9050836001600160a01b0316826001600160a01b031614610b0d57610b0d848388610ddc565b610b17848761111b565b610b427f000000000000000000000000000000000000000000000000000000000000000086836112d1565b836001600160a01b0316856001600160a01b0316836001600160a01b03167ffbde797d201c681b91056529119e0b02407c7bb96a4a2c75c01fc9667232c8db848a604051610a70929190918252602082015260400190565b600080610ba660025490565b9050821580610bb3575080155b610bc957610bbf61044c565b6105a48285611765565b7f00000000000000000000000000000000000000000000000000000000000000006001600160a01b031663313ce5676040518163ffffffff1660e01b815260040160206040518083038186803b158015610c2257600080fd5b505afa158015610c36573d6000803e3d6000fd5b505050506040513d601f19601f82011682018060405250810190610c5a9190611899565b610c6590600a61188a565b6012610650565b6001600160a01b03811660009081526020819052604081205461068a9061057d565b6001600160a01b03811660009081526020819052604081205461068a565b600061068a82610b9a565b6001600160a01b038316610d195760405162461bcd60e51b8152602060048201526024808201527f45524332303a20617070726f76652066726f6d20746865207a65726f206164646044820152637265737360e01b6064820152608401610751565b6001600160a01b038216610d7a5760405162461bcd60e51b815260206004820152602260248201527f45524332303a20617070726f766520746f20746865207a65726f206164647265604482015261737360f01b6064820152608401610751565b6001600160a01b0383811660008181526001602090815260408083209487168084529482529182902085905590518481527f8c5be1e5ebec7d5bd14f71427d1e84f3dd0314c0f7b2291e5b200ac8c7c3b92591015b60405180910390a3505050565b6001600160a01b038381166000908152600160209081526040808320938616835292905220546000198114610e685781811015610e5b5760405162461bcd60e51b815260206004820152601d60248201527f45524332303a20696e73756666696369656e7420616c6c6f77616e63650000006044820152606401610751565b610e688484848403610cb7565b50505050565b6001600160a01b038316610ed25760405162461bcd60e51b815260206004820152602560248201527f45524332303a207472616e736665722066726f6d20746865207a65726f206164604482015264647265737360d81b6064820152608401610751565b6001600160a01b038216610f345760405162461bcd60e51b815260206004820152602360248201527f45524332303a207472616e7366657220746f20746865207a65726f206164647260448201526265737360e81b6064820152608401610751565b6001600160a01b03831660009081526020819052604090205481811015610fac5760405162461bcd60e51b815260206004820152602660248201527f45524332303a207472616e7366657220616d6f756e7420657863656564732062604482015265616c616e636560d01b6064820152608401610751565b6001600160a01b03808516600090815260208190526040808220858503905591851681529081208054849290610fe39084906118bc565b92505081905550826001600160a01b0316846001600160a01b03167fddf252ad1be2c89b69c2b068fc378daa952ba7f163c4a11628f55a4df523b3ef8460405161102f91815260200190565b60405180910390a3610e68565b6001600160a01b0382166110925760405162461bcd60e51b815260206004820152601f60248201527f45524332303a206d696e7420746f20746865207a65726f2061646472657373006044820152606401610751565b80600260008282546110a491906118bc565b90915550506001600160a01b038216600090815260208190526040812080548392906110d19084906118bc565b90915550506040518181526001600160a01b038316906000907fddf252ad1be2c89b69c2b068fc378daa952ba7f163c4a11628f55a4df523b3ef9060200160405180910390a35050565b6001600160a01b03821661117b5760405162461bcd60e51b815260206004820152602160248201527f45524332303a206275726e2066726f6d20746865207a65726f206164647265736044820152607360f81b6064820152608401610751565b6001600160a01b038216600090815260208190526040902054818110156111ef5760405162461bcd60e51b815260206004820152602260248201527f45524332303a206275726e20616d6f756e7420657863656564732062616c616e604482015261636560f01b6064820152608401610751565b6001600160a01b038316600090815260208190526040812083830390556002805484929061121e9084906118d4565b90915550506040518281526000906001600160a01b038516907fddf252ad1be2c89b69c2b068fc378daa952ba7f163c4a11628f55a4df523b3ef90602001610dcf565b505050565b6040516001600160a01b0380851660248301528316604482015260648101829052610e689085906323b872dd60e01b906084015b60408051601f198184030181529190526020810180516001600160e01b03166001600160e01b031990931692909217909152611301565b6040516001600160a01b03831660248201526044810182905261126190849063a9059cbb60e01b9060640161129a565b6000611356826040518060400160405280602081526020017f5361666545524332303a206c6f772d6c6576656c2063616c6c206661696c6564815250856001600160a01b03166113d39092919063ffffffff16565b805190915015611261578080602001905181019061137491906118eb565b6112615760405162461bcd60e51b815260206004820152602a60248201527f5361666545524332303a204552433230206f7065726174696f6e20646964206e6044820152691bdd081cdd58d8d9595960b21b6064820152608401610751565b60606113e284846000856113ea565b949350505050565b60608247101561144b5760405162461bcd60e51b815260206004820152602660248201527f416464726573733a20696e73756666696369656e742062616c616e636520666f6044820152651c8818d85b1b60d21b6064820152608401610751565b6001600160a01b0385163b6114a25760405162461bcd60e51b815260206004820152601d60248201527f416464726573733a2063616c6c20746f206e6f6e2d636f6e74726163740000006044820152606401610751565b600080866001600160a01b031685876040516114be919061190d565b60006040518083038185875af1925050503d80600081146114fb576040519150601f19603f3d011682016040523d82523d6000602084013e611500565b606091505b509150915061151082828661151b565b979650505050505050565b6060831561152a57508161066f565b82511561153a5782518084602001fd5b8160405162461bcd60e51b81526004016107519190611580565b60005b8381101561156f578181015183820152602001611557565b83811115610e685750506000910152565b602081526000825180602084015261159f816040850160208701611554565b601f01601f19169190910160400192915050565b6000602082840312156115c557600080fd5b5035919050565b80356001600160a01b03811681146115e357600080fd5b919050565b600080604083850312156115fb57600080fd5b611604836115cc565b946020939093013593505050565b60008060006060848603121561162757600080fd5b611630846115cc565b925061163e602085016115cc565b9150604084013590509250925092565b60006020828403121561166057600080fd5b61066f826115cc565b6000806040838503121561167c57600080fd5b8235915061168c602084016115cc565b90509250929050565b6000806000606084860312156116aa57600080fd5b833592506116ba602085016115cc565b91506116c8604085016115cc565b90509250925092565b600080604083850312156116e457600080fd5b6116ed836115cc565b915061168c602084016115cc565b60006020828403121561170d57600080fd5b5051919050565b600181811c9082168061172857607f821691505b6020821081141561174957634e487b7160e01b600052602260045260246000fd5b50919050565b634e487b7160e01b600052601160045260246000fd5b600081600019048311821515161561177f5761177f61174f565b500290565b6000826117a157634e487b7160e01b600052601260045260246000fd5b500490565b600181815b808511156117e15781600019048211156117c7576117c761174f565b808516156117d457918102915b93841c93908002906117ab565b509250929050565b6000826117f85750600161068a565b816118055750600061068a565b816001811461181b576002811461182557611841565b600191505061068a565b60ff8411156118365761183661174f565b50506001821b61068a565b5060208310610133831016604e8410600b8410161715611864575081810a61068a565b61186e83836117a6565b80600019048211156118825761188261174f565b029392505050565b600061066f60ff8416836117e9565b6000602082840312156118ab57600080fd5b815160ff8116811461066f57600080fd5b600082198211156118cf576118cf61174f565b500190565b6000828210156118e6576118e661174f565b500390565b6000602082840312156118fd57600080fd5b8151801515811461066f57600080fd5b6000825161191f818460208701611554565b919091019291505056fea2646970667358221220568a1ec8dfd31a29104fd894c517b1febcbd12f68bcc10971c1f41971f34a3e764736f6c63430008090033",
  "linkReferences": {},
  "deployedLinkReferences": {}
}