{
  "_format": "hh-sol-artifact-1",
  "contractName": "ERC20WrapperMock",
  "sourceName": "contracts/mocks/ERC20WrapperMock.sol",
  "abi": [
    {
      "inputs": [
        {
          "internalType": "contract IERC20",
          "name": "_underlyingToken",
          "type": "address"
        },
        {
          "internalType": "string",
          "name": "name",
          "type": "string"
        },
        {
          "internalType": "string",
          "name": "symbol",
          "type": "string"
        }
      ],
      "stateMutability": "nonpayable",
      "type": "constructor"
    },
    {
      "anonymous": false,
      "inputs": [
        {
          "indexed": true,
          "internalType": "address",
          "name": "owner",
          "type": "address"
        },
        {
          "indexed": true,
          "internalType": "address",
          "name": "spender",
          "type": "address"
        },
        {
          "indexed": false,
          "internalType": "uint256",
          "name": "value",
          "type": "uint256"
        }
      ],
      "name": "Approval",
      "type": "event"
    },
    {
      "anonymous": false,
      "inputs": [
        {
          "indexed": true,
          "internalType": "address",
          "name": "from",
          "type": "address"
        },
        {
          "indexed": true,
          "internalType": "address",
          "name": "to",
          "type": "address"
        },
        {
          "indexed": false,
          "internalType": "uint256",
          "name": "value",
          "type": "uint256"
        }
      ],
      "name": "Transfer",
      "type": "event"
    },
    {
      "inputs": [
        {
          "internalType": "address",
          "name": "owner",
          "type": "address"
        },
        {
          "internalType": "address",
          "name": "spender",
          "type": "address"
        }
      ],
      "name": "allowance",
      "outputs": [
        {
          "internalType": "uint256",
          "name": "",
          "type": "uint256"
        }
      ],
      "stateMutability": "view",
      "type": "function"
    },
    {
      "inputs": [
        {
          "internalType": "address",
          "name": "spender",
          "type": "address"
        },
        {
          "internalType": "uint256",
          "name": "amount",
          "type": "uint256"
        }
      ],
      "name": "approve",
      "outputs": [
        {
          "internalType": "bool",
          "name": "",
          "type": "bool"
        }
      ],
      "stateMutability": "nonpayable",
      "type": "function"
    },
    {
      "inputs": [
        {
          "internalType": "address",
          "name": "account",
          "type": "address"
        }
      ],
      "name": "balanceOf",
      "outputs": [
        {
          "internalType": "uint256",
          "name": "",
          "type": "uint256"
        }
      ],
      "stateMutability": "view",
      "type": "function"
    },
    {
      "inputs": [],
      "name": "decimals",
      "outputs": [
        {
          "internalType": "uint8",
          "name": "",
          "type": "uint8"
        }
      ],
      "stateMutability": "view",
      "type": "function"
    },
    {
      "inputs": [
        {
          "internalType": "address",
          "name": "spender",
          "type": "address"
        },
        {
          "internalType": "uint256",
          "name": "subtractedValue",
          "type": "uint256"
        }
      ],
      "name": "decreaseAllowance",
      "outputs": [
        {
          "internalType": "bool",
          "name": "",
          "type": "bool"
        }
      ],
      "stateMutability": "nonpayable",
      "type": "function"
    },
    {
      "inputs": [
        {
          "internalType": "address",
          "name": "account",
          "type": "address"
        },
        {
          "internalType": "uint256",
          "name": "amount",
          "type": "uint256"
        }
      ],
      "name": "depositFor",
      "outputs": [
        {
          "internalType": "bool",
          "name": "",
          "type": "bool"
        }
      ],
      "stateMutability": "nonpayable",
      "type": "function"
    },
    {
      "inputs": [
        {
          "internalType": "address",
          "name": "spender",
          "type": "address"
        },
        {
          "internalType": "uint256",
          "name": "addedValue",
          "type": "uint256"
        }
      ],
      "name": "increaseAllowance",
      "outputs": [
        {
          "internalType": "bool",
          "name": "",
          "type": "bool"
        }
      ],
      "stateMutability": "nonpayable",
      "type": "function"
    },
    {
      "inputs": [],
      "name": "name",
      "outputs": [
        {
          "internalType": "string",
          "name": "",
          "type": "string"
        }
      ],
      "stateMutability": "view",
      "type": "function"
    },
    {
      "inputs": [
        {
          "internalType": "address",
          "name": "account",
          "type": "address"
        }
      ],
      "name": "recover",
      "outputs": [
        {
          "internalType": "uint256",
          "name": "",
          "type": "uint256"
        }
      ],
      "stateMutability": "nonpayable",
      "type": "function"
    },
    {
      "inputs": [],
      "name": "symbol",
      "outputs": [
        {
          "internalType": "string",
          "name": "",
          "type": "string"
        }
      ],
      "stateMutability": "view",
      "type": "function"
    },
    {
      "inputs": [],
      "name": "totalSupply",
      "outputs": [
        {
          "internalType": "uint256",
          "name": "",
          "type": "uint256"
        }
      ],
      "stateMutability": "view",
      "type": "function"
    },
    {
      "inputs": [
        {
          "internalType": "address",
          "name": "to",
          "type": "address"
        },
        {
          "internalType": "uint256",
          "name": "amount",
          "type": "uint256"
        }
      ],
      "name": "transfer",
      "outputs": [
        {
          "internalType": "bool",
          "name": "",
          "type": "bool"
        }
      ],
      "stateMutability": "nonpayable",
      "type": "function"
    },
    {
      "inputs": [
        {
          "internalType": "address",
          "name": "from",
          "type": "address"
        },
        {
          "internalType": "address",
          "name": "to",
          "type": "address"
        },
        {
          "internalType": "uint256",
          "name": "amount",
          "type": "uint256"
        }
      ],
      "name": "transferFrom",
      "outputs": [
        {
          "internalType": "bool",
          "name": "",
          "type": "bool"
        }
      ],
      "stateMutability": "nonpayable",
      "type": "function"
    },
    {
      "inputs": [],
      "name": "underlying",
      "outputs": [
        {
          "internalType": "contract IERC20",
          "name": "",
          "type": "address"
        }
      ],
      "stateMutability": "view",
      "type": "function"
    },
    {
      "inputs": [
        {
          "internalType": "address",
          "name": "account",
          "type": "address"
        },
        {
          "internalType": "uint256",
          "name": "amount",
          "type": "uint256"
        }
      ],
      "name": "withdrawTo",
      "outputs": [
        {
          "internalType": "bool",
          "name": "",
          "type": "bool"
        }
      ],
      "stateMutability": "nonpayable",
      "type": "function"
    }
  ],
  "bytecode": "0x60a06040523480156200001157600080fd5b5060405162001360380380620013608339810160408190526200003491620001f1565b82828281600390805190602001906200004f9291906200007e565b508051620000659060049060208401906200007e565b5050506001600160a01b031660805250620002b8915050565b8280546200008c906200027b565b90600052602060002090601f016020900481019282620000b05760008555620000fb565b82601f10620000cb57805160ff1916838001178555620000fb565b82800160010185558215620000fb579182015b82811115620000fb578251825591602001919060010190620000de565b50620001099291506200010d565b5090565b5b808211156200010957600081556001016200010e565b634e487b7160e01b600052604160045260246000fd5b600082601f8301126200014c57600080fd5b81516001600160401b038082111562000169576200016962000124565b604051601f8301601f19908116603f0116810190828211818310171562000194576200019462000124565b81604052838152602092508683858801011115620001b157600080fd5b600091505b83821015620001d55785820183015181830184015290820190620001b6565b83821115620001e75760008385830101525b9695505050505050565b6000806000606084860312156200020757600080fd5b83516001600160a01b03811681146200021f57600080fd5b60208501519093506001600160401b03808211156200023d57600080fd5b6200024b878388016200013a565b935060408601519150808211156200026257600080fd5b5062000271868287016200013a565b9150509250925092565b600181811c908216806200029057607f821691505b60208210811415620002b257634e487b7160e01b600052602260045260246000fd5b50919050565b608051611077620002e9600039600081816101c40152818161035a015281816103b6015261062b01526110776000f3fe608060405234801561001057600080fd5b50600436106100f55760003560e01c8063313ce5671161009757806395d89b411161006657806395d89b4114610227578063a457c2d71461022f578063a9059cbb14610242578063dd62ed3e1461025557600080fd5b8063313ce5671461019d57806339509351146101ac5780636f307dc3146101bf57806370a08231146101fe57600080fd5b806318160ddd116100d357806318160ddd1461015c578063205c28781461016457806323b872dd146101775780632f4f21e21461018a57600080fd5b806306fdde03146100fa578063095ea7b3146101185780630cd865ec1461013b575b600080fd5b61010261028e565b60405161010f9190610e67565b60405180910390f35b61012b610126366004610eb6565b610320565b604051901515815260200161010f565b61014e610149366004610ee0565b610338565b60405190815260200161010f565b60025461014e565b61012b610172366004610eb6565b610349565b61012b610185366004610efb565b610389565b61012b610198366004610eb6565b6103af565b6040516012815260200161010f565b61012b6101ba366004610eb6565b6103e7565b6101e67f000000000000000000000000000000000000000000000000000000000000000081565b6040516001600160a01b03909116815260200161010f565b61014e61020c366004610ee0565b6001600160a01b031660009081526020819052604090205490565b610102610426565b61012b61023d366004610eb6565b610435565b61012b610250366004610eb6565b6104d7565b61014e610263366004610f37565b6001600160a01b03918216600090815260016020908152604080832093909416825291909152205490565b60606003805461029d90610f6a565b80601f01602080910402602001604051908101604052809291908181526020018280546102c990610f6a565b80156103165780601f106102eb57610100808354040283529160200191610316565b820191906000526020600020905b8154815290600101906020018083116102f957829003601f168201915b5050505050905090565b60003361032e8185856104e5565b5060019392505050565b60006103438261060a565b92915050565b600061035533836106c3565b6103807f0000000000000000000000000000000000000000000000000000000000000000848461080e565b50600192915050565b600033610397858285610871565b6103a2858585610903565b60019150505b9392505050565b60006103dd7f0000000000000000000000000000000000000000000000000000000000000000333085610ad1565b6103808383610b09565b3360008181526001602090815260408083206001600160a01b038716845290915281205490919061032e9082908690610421908790610fbb565b6104e5565b60606004805461029d90610f6a565b3360008181526001602090815260408083206001600160a01b0387168452909152812054909190838110156104bf5760405162461bcd60e51b815260206004820152602560248201527f45524332303a2064656372656173656420616c6c6f77616e63652062656c6f77604482015264207a65726f60d81b60648201526084015b60405180910390fd5b6104cc82868684036104e5565b506001949350505050565b60003361032e818585610903565b6001600160a01b0383166105475760405162461bcd60e51b8152602060048201526024808201527f45524332303a20617070726f76652066726f6d20746865207a65726f206164646044820152637265737360e01b60648201526084016104b6565b6001600160a01b0382166105a85760405162461bcd60e51b815260206004820152602260248201527f45524332303a20617070726f766520746f20746865207a65726f206164647265604482015261737360f01b60648201526084016104b6565b6001600160a01b0383811660008181526001602090815260408083209487168084529482529182902085905590518481527f8c5be1e5ebec7d5bd14f71427d1e84f3dd0314c0f7b2291e5b200ac8c7c3b92591015b60405180910390a3505050565b60008061061660025490565b6040516370a0823160e01b81523060048201527f00000000000000000000000000000000000000000000000000000000000000006001600160a01b0316906370a082319060240160206040518083038186803b15801561067557600080fd5b505afa158015610689573d6000803e3d6000fd5b505050506040513d601f19601f820116820180604052508101906106ad9190610fd3565b6106b79190610fec565b90506103438382610b09565b6001600160a01b0382166107235760405162461bcd60e51b815260206004820152602160248201527f45524332303a206275726e2066726f6d20746865207a65726f206164647265736044820152607360f81b60648201526084016104b6565b6001600160a01b038216600090815260208190526040902054818110156107975760405162461bcd60e51b815260206004820152602260248201527f45524332303a206275726e20616d6f756e7420657863656564732062616c616e604482015261636560f01b60648201526084016104b6565b6001600160a01b03831660009081526020819052604081208383039055600280548492906107c6908490610fec565b90915550506040518281526000906001600160a01b038516907fddf252ad1be2c89b69c2b068fc378daa952ba7f163c4a11628f55a4df523b3ef906020016105fd565b505050565b6040516001600160a01b03831660248201526044810182905261080990849063a9059cbb60e01b906064015b60408051601f198184030181529190526020810180516001600160e01b03166001600160e01b031990931692909217909152610be8565b6001600160a01b0383811660009081526001602090815260408083209386168352929052205460001981146108fd57818110156108f05760405162461bcd60e51b815260206004820152601d60248201527f45524332303a20696e73756666696369656e7420616c6c6f77616e636500000060448201526064016104b6565b6108fd84848484036104e5565b50505050565b6001600160a01b0383166109675760405162461bcd60e51b815260206004820152602560248201527f45524332303a207472616e736665722066726f6d20746865207a65726f206164604482015264647265737360d81b60648201526084016104b6565b6001600160a01b0382166109c95760405162461bcd60e51b815260206004820152602360248201527f45524332303a207472616e7366657220746f20746865207a65726f206164647260448201526265737360e81b60648201526084016104b6565b6001600160a01b03831660009081526020819052604090205481811015610a415760405162461bcd60e51b815260206004820152602660248201527f45524332303a207472616e7366657220616d6f756e7420657863656564732062604482015265616c616e636560d01b60648201526084016104b6565b6001600160a01b03808516600090815260208190526040808220858503905591851681529081208054849290610a78908490610fbb565b92505081905550826001600160a01b0316846001600160a01b03167fddf252ad1be2c89b69c2b068fc378daa952ba7f163c4a11628f55a4df523b3ef84604051610ac491815260200190565b60405180910390a36108fd565b6040516001600160a01b03808516602483015283166044820152606481018290526108fd9085906323b872dd60e01b9060840161083a565b6001600160a01b038216610b5f5760405162461bcd60e51b815260206004820152601f60248201527f45524332303a206d696e7420746f20746865207a65726f20616464726573730060448201526064016104b6565b8060026000828254610b719190610fbb565b90915550506001600160a01b03821660009081526020819052604081208054839290610b9e908490610fbb565b90915550506040518181526001600160a01b038316906000907fddf252ad1be2c89b69c2b068fc378daa952ba7f163c4a11628f55a4df523b3ef9060200160405180910390a35050565b6000610c3d826040518060400160405280602081526020017f5361666545524332303a206c6f772d6c6576656c2063616c6c206661696c6564815250856001600160a01b0316610cba9092919063ffffffff16565b8051909150156108095780806020019051810190610c5b9190611003565b6108095760405162461bcd60e51b815260206004820152602a60248201527f5361666545524332303a204552433230206f7065726174696f6e20646964206e6044820152691bdd081cdd58d8d9595960b21b60648201526084016104b6565b6060610cc98484600085610cd1565b949350505050565b606082471015610d325760405162461bcd60e51b815260206004820152602660248201527f416464726573733a20696e73756666696369656e742062616c616e636520666f6044820152651c8818d85b1b60d21b60648201526084016104b6565b6001600160a01b0385163b610d895760405162461bcd60e51b815260206004820152601d60248201527f416464726573733a2063616c6c20746f206e6f6e2d636f6e747261637400000060448201526064016104b6565b600080866001600160a01b03168587604051610da59190611025565b60006040518083038185875af1925050503d8060008114610de2576040519150601f19603f3d011682016040523d82523d6000602084013e610de7565b606091505b5091509150610df7828286610e02565b979650505050505050565b60608315610e115750816103a8565b825115610e215782518084602001fd5b8160405162461bcd60e51b81526004016104b69190610e67565b60005b83811015610e56578181015183820152602001610e3e565b838111156108fd5750506000910152565b6020815260008251806020840152610e86816040850160208701610e3b565b601f01601f19169190910160400192915050565b80356001600160a01b0381168114610eb157600080fd5b919050565b60008060408385031215610ec957600080fd5b610ed283610e9a565b946020939093013593505050565b600060208284031215610ef257600080fd5b6103a882610e9a565b600080600060608486031215610f1057600080fd5b610f1984610e9a565b9250610f2760208501610e9a565b9150604084013590509250925092565b60008060408385031215610f4a57600080fd5b610f5383610e9a565b9150610f6160208401610e9a565b90509250929050565b600181811c90821680610f7e57607f821691505b60208210811415610f9f57634e487b7160e01b600052602260045260246000fd5b50919050565b634e487b7160e01b600052601160045260246000fd5b60008219821115610fce57610fce610fa5565b500190565b600060208284031215610fe557600080fd5b5051919050565b600082821015610ffe57610ffe610fa5565b500390565b60006020828403121561101557600080fd5b815180151581146103a857600080fd5b60008251611037818460208701610e3b565b919091019291505056fea264697066735822122030fdc8857c039af7f1fce247a7445c3162f894fcc655e3ab669b1aff17a6951064736f6c63430008090033",
  "linkReferences": {},
  "deployedLinkReferences": {}
}