{
  "_format": "hh-sol-artifact-1",
  "contractName": "GovernorTimelockCompoundMock",
  "sourceName": "contracts/mocks/GovernorTimelockCompoundMock.sol",
  "abi": [
    {
      "inputs": [
        {
          "internalType": "string",
          "name": "name_",
          "type": "string"
        },
        {
          "internalType": "contract IVotes",
          "name": "token_",
          "type": "address"
        },
        {
          "internalType": "uint256",
          "name": "votingDelay_",
          "type": "uint256"
        },
        {
          "internalType": "uint256",
          "name": "votingPeriod_",
          "type": "uint256"
        },
        {
          "internalType": "contract ICompoundTimelock",
          "name": "timelock_",
          "type": "address"
        },
        {
          "internalType": "uint256",
          "name": "quorumNumerator_",
          "type": "uint256"
        }
      ],
      "stateMutability": "nonpayable",
      "type": "constructor"
    },
    {
      "inputs": [],
      "name": "Empty",
      "type": "error"
    },
    {
      "anonymous": false,
      "inputs": [
        {
          "indexed": false,
          "internalType": "uint256",
          "name": "proposalId",
          "type": "uint256"
        }
      ],
      "name": "ProposalCanceled",
      "type": "event"
    },
    {
      "anonymous": false,
      "inputs": [
        {
          "indexed": false,
          "internalType": "uint256",
          "name": "proposalId",
          "type": "uint256"
        },
        {
          "indexed": false,
          "internalType": "address",
          "name": "proposer",
          "type": "address"
        },
        {
          "indexed": false,
          "internalType": "address[]",
          "name": "targets",
          "type": "address[]"
        },
        {
          "indexed": false,
          "internalType": "uint256[]",
          "name": "values",
          "type": "uint256[]"
        },
        {
          "indexed": false,
          "internalType": "string[]",
          "name": "signatures",
          "type": "string[]"
        },
        {
          "indexed": false,
          "internalType": "bytes[]",
          "name": "calldatas",
          "type": "bytes[]"
        },
        {
          "indexed": false,
          "internalType": "uint256",
          "name": "startBlock",
          "type": "uint256"
        },
        {
          "indexed": false,
          "internalType": "uint256",
          "name": "endBlock",
          "type": "uint256"
        },
        {
          "indexed": false,
          "internalType": "string",
          "name": "description",
          "type": "string"
        }
      ],
      "name": "ProposalCreated",
      "type": "event"
    },
    {
      "anonymous": false,
      "inputs": [
        {
          "indexed": false,
          "internalType": "uint256",
          "name": "proposalId",
          "type": "uint256"
        }
      ],
      "name": "ProposalExecuted",
      "type": "event"
    },
    {
      "anonymous": false,
      "inputs": [
        {
          "indexed": false,
          "internalType": "uint256",
          "name": "proposalId",
          "type": "uint256"
        },
        {
          "indexed": false,
          "internalType": "uint256",
          "name": "eta",
          "type": "uint256"
        }
      ],
      "name": "ProposalQueued",
      "type": "event"
    },
    {
      "anonymous": false,
      "inputs": [
        {
          "indexed": false,
          "internalType": "uint256",
          "name": "oldProposalThreshold",
          "type": "uint256"
        },
        {
          "indexed": false,
          "internalType": "uint256",
          "name": "newProposalThreshold",
          "type": "uint256"
        }
      ],
      "name": "ProposalThresholdSet",
      "type": "event"
    },
    {
      "anonymous": false,
      "inputs": [
        {
          "indexed": false,
          "internalType": "uint256",
          "name": "oldQuorumNumerator",
          "type": "uint256"
        },
        {
          "indexed": false,
          "internalType": "uint256",
          "name": "newQuorumNumerator",
          "type": "uint256"
        }
      ],
      "name": "QuorumNumeratorUpdated",
      "type": "event"
    },
    {
      "anonymous": false,
      "inputs": [
        {
          "indexed": false,
          "internalType": "address",
          "name": "oldTimelock",
          "type": "address"
        },
        {
          "indexed": false,
          "internalType": "address",
          "name": "newTimelock",
          "type": "address"
        }
      ],
      "name": "TimelockChange",
      "type": "event"
    },
    {
      "anonymous": false,
      "inputs": [
        {
          "indexed": true,
          "internalType": "address",
          "name": "voter",
          "type": "address"
        },
        {
          "indexed": false,
          "internalType": "uint256",
          "name": "proposalId",
          "type": "uint256"
        },
        {
          "indexed": false,
          "internalType": "uint8",
          "name": "support",
          "type": "uint8"
        },
        {
          "indexed": false,
          "internalType": "uint256",
          "name": "weight",
          "type": "uint256"
        },
        {
          "indexed": false,
          "internalType": "string",
          "name": "reason",
          "type": "string"
        }
      ],
      "name": "VoteCast",
      "type": "event"
    },
    {
      "anonymous": false,
      "inputs": [
        {
          "indexed": false,
          "internalType": "uint256",
          "name": "oldVotingDelay",
          "type": "uint256"
        },
        {
          "indexed": false,
          "internalType": "uint256",
          "name": "newVotingDelay",
          "type": "uint256"
        }
      ],
      "name": "VotingDelaySet",
      "type": "event"
    },
    {
      "anonymous": false,
      "inputs": [
        {
          "indexed": false,
          "internalType": "uint256",
          "name": "oldVotingPeriod",
          "type": "uint256"
        },
        {
          "indexed": false,
          "internalType": "uint256",
          "name": "newVotingPeriod",
          "type": "uint256"
        }
      ],
      "name": "VotingPeriodSet",
      "type": "event"
    },
    {
      "inputs": [],
      "name": "BALLOT_TYPEHASH",
      "outputs": [
        {
          "internalType": "bytes32",
          "name": "",
          "type": "bytes32"
        }
      ],
      "stateMutability": "view",
      "type": "function"
    },
    {
      "inputs": [],
      "name": "COUNTING_MODE",
      "outputs": [
        {
          "internalType": "string",
          "name": "",
          "type": "string"
        }
      ],
      "stateMutability": "pure",
      "type": "function"
    },
    {
      "inputs": [],
      "name": "__acceptAdmin",
      "outputs": [],
      "stateMutability": "nonpayable",
      "type": "function"
    },
    {
      "inputs": [
        {
          "internalType": "address[]",
          "name": "targets",
          "type": "address[]"
        },
        {
          "internalType": "uint256[]",
          "name": "values",
          "type": "uint256[]"
        },
        {
          "internalType": "bytes[]",
          "name": "calldatas",
          "type": "bytes[]"
        },
        {
          "internalType": "bytes32",
          "name": "salt",
          "type": "bytes32"
        }
      ],
      "name": "cancel",
      "outputs": [
        {
          "internalType": "uint256",
          "name": "proposalId",
          "type": "uint256"
        }
      ],
      "stateMutability": "nonpayable",
      "type": "function"
    },
    {
      "inputs": [
        {
          "internalType": "uint256",
          "name": "proposalId",
          "type": "uint256"
        },
        {
          "internalType": "uint8",
          "name": "support",
          "type": "uint8"
        }
      ],
      "name": "castVote",
      "outputs": [
        {
          "internalType": "uint256",
          "name": "",
          "type": "uint256"
        }
      ],
      "stateMutability": "nonpayable",
      "type": "function"
    },
    {
      "inputs": [
        {
          "internalType": "uint256",
          "name": "proposalId",
          "type": "uint256"
        },
        {
          "internalType": "uint8",
          "name": "support",
          "type": "uint8"
        },
        {
          "internalType": "uint8",
          "name": "v",
          "type": "uint8"
        },
        {
          "internalType": "bytes32",
          "name": "r",
          "type": "bytes32"
        },
        {
          "internalType": "bytes32",
          "name": "s",
          "type": "bytes32"
        }
      ],
      "name": "castVoteBySig",
      "outputs": [
        {
          "internalType": "uint256",
          "name": "",
          "type": "uint256"
        }
      ],
      "stateMutability": "nonpayable",
      "type": "function"
    },
    {
      "inputs": [
        {
          "internalType": "uint256",
          "name": "proposalId",
          "type": "uint256"
        },
        {
          "internalType": "uint8",
          "name": "support",
          "type": "uint8"
        },
        {
          "internalType": "string",
          "name": "reason",
          "type": "string"
        }
      ],
      "name": "castVoteWithReason",
      "outputs": [
        {
          "internalType": "uint256",
          "name": "",
          "type": "uint256"
        }
      ],
      "stateMutability": "nonpayable",
      "type": "function"
    },
    {
      "inputs": [
        {
          "internalType": "address[]",
          "name": "targets",
          "type": "address[]"
        },
        {
          "internalType": "uint256[]",
          "name": "values",
          "type": "uint256[]"
        },
        {
          "internalType": "bytes[]",
          "name": "calldatas",
          "type": "bytes[]"
        },
        {
          "internalType": "bytes32",
          "name": "descriptionHash",
          "type": "bytes32"
        }
      ],
      "name": "execute",
      "outputs": [
        {
          "internalType": "uint256",
          "name": "",
          "type": "uint256"
        }
      ],
      "stateMutability": "payable",
      "type": "function"
    },
    {
      "inputs": [
        {
          "internalType": "address",
          "name": "account",
          "type": "address"
        },
        {
          "internalType": "uint256",
          "name": "blockNumber",
          "type": "uint256"
        }
      ],
      "name": "getVotes",
      "outputs": [
        {
          "internalType": "uint256",
          "name": "",
          "type": "uint256"
        }
      ],
      "stateMutability": "view",
      "type": "function"
    },
    {
      "inputs": [
        {
          "internalType": "uint256",
          "name": "proposalId",
          "type": "uint256"
        },
        {
          "internalType": "address",
          "name": "account",
          "type": "address"
        }
      ],
      "name": "hasVoted",
      "outputs": [
        {
          "internalType": "bool",
          "name": "",
          "type": "bool"
        }
      ],
      "stateMutability": "view",
      "type": "function"
    },
    {
      "inputs": [
        {
          "internalType": "address[]",
          "name": "targets",
          "type": "address[]"
        },
        {
          "internalType": "uint256[]",
          "name": "values",
          "type": "uint256[]"
        },
        {
          "internalType": "bytes[]",
          "name": "calldatas",
          "type": "bytes[]"
        },
        {
          "internalType": "bytes32",
          "name": "descriptionHash",
          "type": "bytes32"
        }
      ],
      "name": "hashProposal",
      "outputs": [
        {
          "internalType": "uint256",
          "name": "",
          "type": "uint256"
        }
      ],
      "stateMutability": "pure",
      "type": "function"
    },
    {
      "inputs": [],
      "name": "name",
      "outputs": [
        {
          "internalType": "string",
          "name": "",
          "type": "string"
        }
      ],
      "stateMutability": "view",
      "type": "function"
    },
    {
      "inputs": [
        {
          "internalType": "uint256",
          "name": "proposalId",
          "type": "uint256"
        }
      ],
      "name": "proposalDeadline",
      "outputs": [
        {
          "internalType": "uint256",
          "name": "",
          "type": "uint256"
        }
      ],
      "stateMutability": "view",
      "type": "function"
    },
    {
      "inputs": [
        {
          "internalType": "uint256",
          "name": "proposalId",
          "type": "uint256"
        }
      ],
      "name": "proposalEta",
      "outputs": [
        {
          "internalType": "uint256",
          "name": "",
          "type": "uint256"
        }
      ],
      "stateMutability": "view",
      "type": "function"
    },
    {
      "inputs": [
        {
          "internalType": "uint256",
          "name": "proposalId",
          "type": "uint256"
        }
      ],
      "name": "proposalSnapshot",
      "outputs": [
        {
          "internalType": "uint256",
          "name": "",
          "type": "uint256"
        }
      ],
      "stateMutability": "view",
      "type": "function"
    },
    {
      "inputs": [],
      "name": "proposalThreshold",
      "outputs": [
        {
          "internalType": "uint256",
          "name": "",
          "type": "uint256"
        }
      ],
      "stateMutability": "view",
      "type": "function"
    },
    {
      "inputs": [
        {
          "internalType": "uint256",
          "name": "proposalId",
          "type": "uint256"
        }
      ],
      "name": "proposalVotes",
      "outputs": [
        {
          "internalType": "uint256",
          "name": "againstVotes",
          "type": "uint256"
        },
        {
          "internalType": "uint256",
          "name": "forVotes",
          "type": "uint256"
        },
        {
          "internalType": "uint256",
          "name": "abstainVotes",
          "type": "uint256"
        }
      ],
      "stateMutability": "view",
      "type": "function"
    },
    {
      "inputs": [
        {
          "internalType": "address[]",
          "name": "targets",
          "type": "address[]"
        },
        {
          "internalType": "uint256[]",
          "name": "values",
          "type": "uint256[]"
        },
        {
          "internalType": "bytes[]",
          "name": "calldatas",
          "type": "bytes[]"
        },
        {
          "internalType": "string",
          "name": "description",
          "type": "string"
        }
      ],
      "name": "propose",
      "outputs": [
        {
          "internalType": "uint256",
          "name": "",
          "type": "uint256"
        }
      ],
      "stateMutability": "nonpayable",
      "type": "function"
    },
    {
      "inputs": [
        {
          "internalType": "address[]",
          "name": "targets",
          "type": "address[]"
        },
        {
          "internalType": "uint256[]",
          "name": "values",
          "type": "uint256[]"
        },
        {
          "internalType": "bytes[]",
          "name": "calldatas",
          "type": "bytes[]"
        },
        {
          "internalType": "bytes32",
          "name": "descriptionHash",
          "type": "bytes32"
        }
      ],
      "name": "queue",
      "outputs": [
        {
          "internalType": "uint256",
          "name": "",
          "type": "uint256"
        }
      ],
      "stateMutability": "nonpayable",
      "type": "function"
    },
    {
      "inputs": [
        {
          "internalType": "uint256",
          "name": "blockNumber",
          "type": "uint256"
        }
      ],
      "name": "quorum",
      "outputs": [
        {
          "internalType": "uint256",
          "name": "",
          "type": "uint256"
        }
      ],
      "stateMutability": "view",
      "type": "function"
    },
    {
      "inputs": [],
      "name": "quorumDenominator",
      "outputs": [
        {
          "internalType": "uint256",
          "name": "",
          "type": "uint256"
        }
      ],
      "stateMutability": "view",
      "type": "function"
    },
    {
      "inputs": [],
      "name": "quorumNumerator",
      "outputs": [
        {
          "internalType": "uint256",
          "name": "",
          "type": "uint256"
        }
      ],
      "stateMutability": "view",
      "type": "function"
    },
    {
      "inputs": [
        {
          "internalType": "address",
          "name": "target",
          "type": "address"
        },
        {
          "internalType": "uint256",
          "name": "value",
          "type": "uint256"
        },
        {
          "internalType": "bytes",
          "name": "data",
          "type": "bytes"
        }
      ],
      "name": "relay",
      "outputs": [],
      "stateMutability": "nonpayable",
      "type": "function"
    },
    {
      "inputs": [
        {
          "internalType": "uint256",
          "name": "newProposalThreshold",
          "type": "uint256"
        }
      ],
      "name": "setProposalThreshold",
      "outputs": [],
      "stateMutability": "nonpayable",
      "type": "function"
    },
    {
      "inputs": [
        {
          "internalType": "uint256",
          "name": "newVotingDelay",
          "type": "uint256"
        }
      ],
      "name": "setVotingDelay",
      "outputs": [],
      "stateMutability": "nonpayable",
      "type": "function"
    },
    {
      "inputs": [
        {
          "internalType": "uint256",
          "name": "newVotingPeriod",
          "type": "uint256"
        }
      ],
      "name": "setVotingPeriod",
      "outputs": [],
      "stateMutability": "nonpayable",
      "type": "function"
    },
    {
      "inputs": [
        {
          "internalType": "uint256",
          "name": "proposalId",
          "type": "uint256"
        }
      ],
      "name": "state",
      "outputs": [
        {
          "internalType": "enum IGovernor.ProposalState",
          "name": "",
          "type": "uint8"
        }
      ],
      "stateMutability": "view",
      "type": "function"
    },
    {
      "inputs": [
        {
          "internalType": "bytes4",
          "name": "interfaceId",
          "type": "bytes4"
        }
      ],
      "name": "supportsInterface",
      "outputs": [
        {
          "internalType": "bool",
          "name": "",
          "type": "bool"
        }
      ],
      "stateMutability": "view",
      "type": "function"
    },
    {
      "inputs": [],
      "name": "timelock",
      "outputs": [
        {
          "internalType": "address",
          "name": "",
          "type": "address"
        }
      ],
      "stateMutability": "view",
      "type": "function"
    },
    {
      "inputs": [],
      "name": "token",
      "outputs": [
        {
          "internalType": "contract IVotes",
          "name": "",
          "type": "address"
        }
      ],
      "stateMutability": "view",
      "type": "function"
    },
    {
      "inputs": [
        {
          "internalType": "uint256",
          "name": "newQuorumNumerator",
          "type": "uint256"
        }
      ],
      "name": "updateQuorumNumerator",
      "outputs": [],
      "stateMutability": "nonpayable",
      "type": "function"
    },
    {
      "inputs": [
        {
          "internalType": "contract ICompoundTimelock",
          "name": "newTimelock",
          "type": "address"
        }
      ],
      "name": "updateTimelock",
      "outputs": [],
      "stateMutability": "nonpayable",
      "type": "function"
    },
    {
      "inputs": [],
      "name": "version",
      "outputs": [
        {
          "internalType": "string",
          "name": "",
          "type": "string"
        }
      ],
      "stateMutability": "view",
      "type": "function"
    },
    {
      "inputs": [],
      "name": "votingDelay",
      "outputs": [
        {
          "internalType": "uint256",
          "name": "",
          "type": "uint256"
        }
      ],
      "stateMutability": "view",
      "type": "function"
    },
    {
      "inputs": [],
      "name": "votingPeriod",
      "outputs": [
        {
          "internalType": "uint256",
          "name": "",
          "type": "uint256"
        }
      ],
      "stateMutability": "view",
      "type": "function"
    },
    {
      "stateMutability": "payable",
      "type": "receive"
    }
  ],
  "bytecode": "0x6101606040523480156200001257600080fd5b5060405162003d3638038062003d36833981016040819052620000359162000496565b808583868660008b806200005d6040805180820190915260018152603160f81b602082015290565b815160208084019190912082518383012060e08290526101008190524660a0818152604080517f8b73c3c69bb8fe3d512ecc4cf759cc79239f7b179b0ffacaa9a75d522b39400f81880181905281830187905260608201869052608082019490945230818401528151808203909301835260c00190528051940193909320919290916080523060c0526101205250508251620001039250600091506020840190620003bd565b506200011190508362000161565b6200011c82620001a2565b620001278162000249565b5050506200013b816200028a60201b60201c565b506001600160a01b0316610140526200015481620002f3565b50505050505050620005f2565b60045460408051918252602082018390527fc565b045403dc03c2eea82b81a0465edad9e2e7fc4d97e11421c209da93d7a93910160405180910390a1600455565b60008111620002085760405162461bcd60e51b815260206004820152602760248201527f476f7665726e6f7253657474696e67733a20766f74696e6720706572696f6420604482015266746f6f206c6f7760c81b60648201526084015b60405180910390fd5b60055460408051918252602082018390527f7e3f7f0708a84de9203036abaa450dccc85ad5ff52f78c170f3edb55cf5e8828910160405180910390a1600555565b60065460408051918252602082018390527fccb45da8d5717e6c4544694297c4ba5cf151d455c9bb0ed4fc7a38411bc05461910160405180910390a1600655565b600754604080516001600160a01b03928316815291831660208301527f08f74ea46ef7894f65eabfb5e6e695de773a000b47c529ab559178069b226401910160405180910390a1600780546001600160a01b0319166001600160a01b0392909216919091179055565b6064811115620003785760405162461bcd60e51b815260206004820152604360248201527f476f7665726e6f72566f74657351756f72756d4672616374696f6e3a2071756f60448201527f72756d4e756d657261746f72206f7665722071756f72756d44656e6f6d696e616064820152623a37b960e91b608482015260a401620001ff565b600980549082905560408051828152602081018490527f0553476bf02ef2726e8ce5ced78d63e26e602e4a2257b1f559418e24b4633997910160405180910390a15050565b828054620003cb90620005b5565b90600052602060002090601f016020900481019282620003ef57600085556200043a565b82601f106200040a57805160ff19168380011785556200043a565b828001600101855582156200043a579182015b828111156200043a5782518255916020019190600101906200041d565b50620004489291506200044c565b5090565b5b808211156200044857600081556001016200044d565b634e487b7160e01b600052604160045260246000fd5b80516001600160a01b03811681146200049157600080fd5b919050565b60008060008060008060c08789031215620004b057600080fd5b86516001600160401b0380821115620004c857600080fd5b818901915089601f830112620004dd57600080fd5b815181811115620004f257620004f262000463565b604051601f8201601f19908116603f011681019083821181831017156200051d576200051d62000463565b81604052828152602093508c848487010111156200053a57600080fd5b600091505b828210156200055e57848201840151818301850152908301906200053f565b82821115620005705760008484830101525b99506200058291505089820162000479565b965050506040870151935060608701519250620005a26080880162000479565b915060a087015190509295509295509295565b600181811c90821680620005ca57607f821691505b60208210811415620005ec57634e487b7160e01b600052602260045260246000fd5b50919050565b60805160a05160c05160e0516101005161012051610140516136db6200065b6000396000818161071501528181611c540152611d2e0152600061204d0152600061209c0152600061207701526000611fd001526000611ffa0152600061202401526136db6000f3fe6080604052600436106102085760003560e01c80637d5e81e211610118578063c59057e4116100a0578063ea0217cf1161006f578063ea0217cf14610683578063eb9019d4146106a3578063ece40cc1146106c3578063f8ce560a146106e3578063fc0c546a1461070357600080fd5b8063c59057e4146105b7578063d33219b4146105d7578063dd4e2ba514610609578063deaaa7cc1461064f57600080fd5b8063ab58fb8e116100e7578063ab58fb8e1461052d578063b58131b01461054d578063b9a6196114610562578063c01f9e3714610577578063c28bc2fa1461059757600080fd5b80637d5e81e2146104c457806397c3d334146104e4578063a7713a70146104f8578063a890c9101461050d57600080fd5b80633bccf4fd1161019b578063544ffc9c1161016a578063544ffc9c146103e557806354fd4d501461043a578063567813881461046457806370b0f660146104845780637b3c71d3146104a457600080fd5b80633bccf4fd1461032e5780633e4f49e61461034e578063438596321461037b578063452115d6146103c557600080fd5b8063160cbed7116101d7578063160cbed7146102c65780632656227d146102e65780632d63f693146102f95780633932abb11461031957600080fd5b806301ffc9a71461023057806302a251a31461026557806306f3f9e61461028457806306fdde03146102a457600080fd5b3661022b5730610216610737565b6001600160a01b03161461022957600080fd5b005b600080fd5b34801561023c57600080fd5b5061025061024b366004612af8565b610750565b60405190151581526020015b60405180910390f35b34801561027157600080fd5b506005545b60405190815260200161025c565b34801561029057600080fd5b5061022961029f366004612b22565b610761565b3480156102b057600080fd5b506102b96107f9565b60405161025c9190612b93565b3480156102d257600080fd5b506102766102e1366004612de7565b61088b565b6102766102f4366004612de7565b610c32565b34801561030557600080fd5b50610276610314366004612b22565b610d1f565b34801561032557600080fd5b50600454610276565b34801561033a57600080fd5b50610276610349366004612e8c565b610d56565b34801561035a57600080fd5b5061036e610369366004612b22565b610dea565b60405161025c9190612ef0565b34801561038757600080fd5b50610250610396366004612f18565b6000828152600a602090815260408083206001600160a01b038516845260030190915290205460ff1692915050565b3480156103d157600080fd5b506102766103e0366004612de7565b610df5565b3480156103f157600080fd5b5061041f610400366004612b22565b6000908152600a60205260409020805460018201546002909201549092565b6040805193845260208401929092529082015260600161025c565b34801561044657600080fd5b506040805180820190915260018152603160f81b60208201526102b9565b34801561047057600080fd5b5061027661047f366004612f48565b610e0c565b34801561049057600080fd5b5061022961049f366004612b22565b610e35565b3480156104b057600080fd5b506102766104bf366004612fbc565b610ec1565b3480156104d057600080fd5b506102766104df366004613015565b610f13565b3480156104f057600080fd5b506064610276565b34801561050457600080fd5b50600954610276565b34801561051957600080fd5b506102296105283660046130d5565b6111cf565b34801561053957600080fd5b50610276610548366004612b22565b61125b565b34801561055957600080fd5b50610276611287565b34801561056e57600080fd5b50610229611292565b34801561058357600080fd5b50610276610592366004612b22565b6112fc565b3480156105a357600080fd5b506102296105b23660046130f2565b61132b565b3480156105c357600080fd5b506102766105d2366004612de7565b6113f7565b3480156105e357600080fd5b506007546001600160a01b03165b6040516001600160a01b03909116815260200161025c565b34801561061557600080fd5b506040805180820190915260208082527f737570706f72743d627261766f2671756f72756d3d666f722c6162737461696e908201526102b9565b34801561065b57600080fd5b506102767f150214d74d59b7d1e90c73fc22ef3d991dd0a76b046543d4d80ab92d2a50328f81565b34801561068f57600080fd5b5061022961069e366004612b22565b611431565b3480156106af57600080fd5b506102766106be366004613135565b6114bd565b3480156106cf57600080fd5b506102296106de366004612b22565b6114d0565b3480156106ef57600080fd5b506102766106fe366004612b22565b61155c565b34801561070f57600080fd5b506105f17f000000000000000000000000000000000000000000000000000000000000000081565b600061074b6007546001600160a01b031690565b905090565b600061075b82611567565b92915050565b610769610737565b6001600160a01b0316336001600160a01b0316146107a25760405162461bcd60e51b815260040161079990613161565b60405180910390fd5b306107ab610737565b6001600160a01b0316146107ed57600080366040516107cb929190613198565b604051809103902090505b806107e1600261158c565b146107eb576107d6565b505b6107f68161160b565b50565b606060008054610808906131a8565b80601f0160208091040260200160405190810160405280929190818152602001828054610834906131a8565b80156108815780601f1061085657610100808354040283529160200191610881565b820191906000526020600020905b81548152906001019060200180831161086457829003601f168201915b5050505050905090565b60008061089a868686866113f7565b905060046108a782610dea565b60078111156108b8576108b8612eda565b146108d55760405162461bcd60e51b8152600401610799906131e3565b60075460408051630d48571f60e31b815290516000926001600160a01b031691636a42b8f8916004808301926020929190829003018186803b15801561091a57600080fd5b505afa15801561092e573d6000803e3d6000fd5b505050506040513d601f19601f820116820180604052508101906109529190613224565b61095c9042613253565b905061097e61096a826116d3565b60008481526008602052604090209061173f565b60005b8751811015610bed5760075488516001600160a01b039091169063f2b06537908a90849081106109b3576109b361326b565b60200260200101518984815181106109cd576109cd61326b565b60200260200101518985815181106109e7576109e761326b565b602002602001015186604051602001610a039493929190613281565b604051602081830303815290604052805190602001206040518263ffffffff1660e01b8152600401610a3791815260200190565b60206040518083038186803b158015610a4f57600080fd5b505afa158015610a63573d6000803e3d6000fd5b505050506040513d601f19601f82011682018060405250810190610a8791906132c7565b15610b055760405162461bcd60e51b815260206004820152604260248201527f476f7665726e6f7254696d656c6f636b436f6d706f756e643a206964656e746960448201527f63616c2070726f706f73616c20616374696f6e20616c72656164792071756575606482015261195960f21b608482015260a401610799565b60075488516001600160a01b0390911690633a66f901908a9084908110610b2e57610b2e61326b565b6020026020010151898481518110610b4857610b4861326b565b6020026020010151898581518110610b6257610b6261326b565b6020026020010151866040518563ffffffff1660e01b8152600401610b8a9493929190613281565b602060405180830381600087803b158015610ba457600080fd5b505af1158015610bb8573d6000803e3d6000fd5b505050506040513d601f19601f82011682018060405250810190610bdc9190613224565b50610be6816132e9565b9050610981565b5060408051838152602081018390527f9a2e42fd6722813d69113e7d0079d3d940171428df7373df9c7f7617cfda289291015b60405180910390a15095945050505050565b600080610c41868686866113f7565b90506000610c4e82610dea565b90506004816007811115610c6457610c64612eda565b1480610c8157506005816007811115610c7f57610c7f612eda565b145b610c9d5760405162461bcd60e51b8152600401610799906131e3565b600082815260016020818152604092839020600201805460ff191690921790915590518381527f712ae1383f79ac853f8d882153778e0260ef8f03b504e2866e0593e04d2b291f910160405180910390a1610cfb828888888861175d565b610d0882888888886117ff565b610d15828888888861180c565b5095945050505050565b60008181526001602090815260408083208151928301909152546001600160401b0316908190525b6001600160401b031692915050565b604080517f150214d74d59b7d1e90c73fc22ef3d991dd0a76b046543d4d80ab92d2a50328f602082015290810186905260ff851660608201526000908190610dc290610dba9060800160405160208183030381529060405280519060200120611845565b868686611893565b9050610ddf878288604051806020016040528060008152506118b1565b979650505050505050565b600061075b826119bc565b6000610e0385858585611aac565b95945050505050565b600080339050610e2d848285604051806020016040528060008152506118b1565b949350505050565b610e3d610737565b6001600160a01b0316336001600160a01b031614610e6d5760405162461bcd60e51b815260040161079990613161565b30610e76610737565b6001600160a01b031614610eb85760008036604051610e96929190613198565b604051809103902090505b80610eac600261158c565b14610eb657610ea1565b505b6107f681611aba565b600080339050610f0986828787878080601f0160208091040260200160405190810160405280939291908181526020018383808284376000920191909152506118b192505050565b9695505050505050565b6000610f1d611287565b610f2c336106be600143613304565b1015610fac5760405162461bcd60e51b815260206004820152604360248201527f476f7665726e6f72436f6d7061746962696c697479427261766f3a2070726f7060448201527f6f73657220766f7465732062656c6f772070726f706f73616c207468726573686064820152621bdb1960ea1b608482015260a401610799565b6000610fc186868686805190602001206113f7565b90508451865114610fe45760405162461bcd60e51b81526004016107999061331b565b83518651146110055760405162461bcd60e51b81526004016107999061331b565b60008651116110565760405162461bcd60e51b815260206004820152601860248201527f476f7665726e6f723a20656d7074792070726f706f73616c00000000000000006044820152606401610799565b600081815260016020908152604091829020825191820190925281546001600160401b031690819052156110d65760405162461bcd60e51b815260206004820152602160248201527f476f7665726e6f723a2070726f706f73616c20616c72656164792065786973746044820152607360f81b6064820152608401610799565b60006110e96110e460045490565b6116d3565b6110f2436116d3565b6110fc919061335c565b9050600061110c6110e460055490565b611116908361335c565b9050611122838361173f565b61112f600184018261173f565b7f7d84a6263ae0d98d3329bd7b46bb4e8d6f98cd35a7adb45c274c8b7fd5ebd5e084338b8b8d516001600160401b0381111561116d5761116d612ba6565b6040519080825280602002602001820160405280156111a057816020015b606081526020019060019003908161118b5790505b508c88888e6040516111ba99989796959493929190613450565b60405180910390a15091979650505050505050565b6111d7610737565b6001600160a01b0316336001600160a01b0316146112075760405162461bcd60e51b815260040161079990613161565b30611210610737565b6001600160a01b0316146112525760008036604051611230929190613198565b604051809103902090505b80611246600261158c565b146112505761123b565b505b6107f681611afb565b60008181526008602090815260408083208151928301909152546001600160401b031690819052610d47565b600061074b60065490565b600760009054906101000a90046001600160a01b03166001600160a01b0316630e18b6816040518163ffffffff1660e01b8152600401600060405180830381600087803b1580156112e257600080fd5b505af11580156112f6573d6000803e3d6000fd5b50505050565b60008181526001602081815260408084208151928301909152909101546001600160401b031690819052610d47565b611333610737565b6001600160a01b0316336001600160a01b0316146113635760405162461bcd60e51b815260040161079990613161565b3061136c610737565b6001600160a01b0316146113ae576000803660405161138c929190613198565b604051809103902090505b806113a2600261158c565b146113ac57611397565b505b6113f08483838080601f016020809104026020016040519081016040528093929190818152602001838380828437600092019190915250889250611b64915050565b5050505050565b600084848484604051602001611410949392919061353f565b60408051601f19818403018152919052805160209091012095945050505050565b611439610737565b6001600160a01b0316336001600160a01b0316146114695760405162461bcd60e51b815260040161079990613161565b30611472610737565b6001600160a01b0316146114b45760008036604051611492929190613198565b604051809103902090505b806114a8600261158c565b146114b25761149d565b505b6107f681611b8a565b60006114c98383611c2b565b9392505050565b6114d8610737565b6001600160a01b0316336001600160a01b0316146115085760405162461bcd60e51b815260040161079990613161565b30611511610737565b6001600160a01b0316146115535760008036604051611531929190613198565b604051809103902090505b80611547600261158c565b146115515761153c565b505b6107f681611cd0565b600061075b82611d11565b60006001600160e01b03198216636e665ced60e01b148061075b575061075b82611dc4565b60006115a78254600f81810b600160801b909204900b131590565b156115c557604051631ed9509560e11b815260040160405180910390fd5b508054600f0b6000818152600180840160205260408220805492905583546fffffffffffffffffffffffffffffffff191692016001600160801b03169190911790915590565b606481111561168e5760405162461bcd60e51b815260206004820152604360248201527f476f7665726e6f72566f74657351756f72756d4672616374696f6e3a2071756f60448201527f72756d4e756d657261746f72206f7665722071756f72756d44656e6f6d696e616064820152623a37b960e91b608482015260a401610799565b600980549082905560408051828152602081018490527f0553476bf02ef2726e8ce5ced78d63e26e602e4a2257b1f559418e24b4633997910160405180910390a15050565b60006001600160401b0382111561173b5760405162461bcd60e51b815260206004820152602660248201527f53616665436173743a2076616c756520646f65736e27742066697420696e203660448201526534206269747360d01b6064820152608401610799565b5090565b815467ffffffffffffffff19166001600160401b0391909116179055565b30611766610737565b6001600160a01b0316146113f05760005b84518110156117f757306001600160a01b031685828151811061179c5761179c61326b565b60200260200101516001600160a01b031614156117e7576117e78382815181106117c8576117c861326b565b6020026020010151805190602001206002611df990919063ffffffff16565b6117f0816132e9565b9050611777565b505050505050565b6113f08585858585611e35565b30611815610737565b6001600160a01b0316146113f057600254600f81810b600160801b909204900b13156113f05760006002556113f0565b600061075b611852611fc3565b8360405161190160f01b6020820152602281018390526042810182905260009060620160405160208183030381529060405280519060200120905092915050565b60008060006118a4878787876120ea565b91509150610d15816121d7565b60008481526001602081905260408220906118cb87610dea565b60078111156118dc576118dc612eda565b146119355760405162461bcd60e51b815260206004820152602360248201527f476f7665726e6f723a20766f7465206e6f742063757272656e746c792061637460448201526269766560e81b6064820152608401610799565b604080516020810190915281546001600160401b03169081905260009061195d9087906114bd565b905061196b87878784612392565b856001600160a01b03167fb8e138887d0aa13bab447e82de9d5c1777041ecd21ca36ba824ff1e6c07ddda4888784886040516119aa949392919061358a565b60405180910390a29695505050505050565b6000806119c883612511565b905060048160078111156119de576119de612eda565b146119e95792915050565b60006119f48461125b565b905080611a02575092915050565b600760009054906101000a90046001600160a01b03166001600160a01b031663c1a287e26040518163ffffffff1660e01b815260040160206040518083038186803b158015611a5057600080fd5b505afa158015611a64573d6000803e3d6000fd5b505050506040513d601f19601f82011682018060405250810190611a889190613224565b611a929082613253565b4210611aa2575060069392505050565b5060059392505050565b6000610e038585858561261d565b60045460408051918252602082018390527fc565b045403dc03c2eea82b81a0465edad9e2e7fc4d97e11421c209da93d7a93910160405180910390a1600455565b600754604080516001600160a01b03928316815291831660208301527f08f74ea46ef7894f65eabfb5e6e695de773a000b47c529ab559178069b226401910160405180910390a1600780546001600160a01b0319166001600160a01b0392909216919091179055565b6060610e2d84848460405180606001604052806029815260200161367d60299139612738565b60008111611bea5760405162461bcd60e51b815260206004820152602760248201527f476f7665726e6f7253657474696e67733a20766f74696e6720706572696f6420604482015266746f6f206c6f7760c81b6064820152608401610799565b60055460408051918252602082018390527f7e3f7f0708a84de9203036abaa450dccc85ad5ff52f78c170f3edb55cf5e8828910160405180910390a1600555565b604051630748d63560e31b81526001600160a01b038381166004830152602482018390526000917f000000000000000000000000000000000000000000000000000000000000000090911690633a46b1a89060440160206040518083038186803b158015611c9857600080fd5b505afa158015611cac573d6000803e3d6000fd5b505050506040513d601f19601f820116820180604052508101906114c99190613224565b60065460408051918252602082018390527fccb45da8d5717e6c4544694297c4ba5cf151d455c9bb0ed4fc7a38411bc05461910160405180910390a1600655565b60006064600954604051632394e7a360e21b8152600481018590527f00000000000000000000000000000000000000000000000000000000000000006001600160a01b031690638e539e8c9060240160206040518083038186803b158015611d7857600080fd5b505afa158015611d8c573d6000803e3d6000fd5b505050506040513d601f19601f82011682018060405250810190611db09190613224565b611dba91906135b2565b61075b91906135d1565b60006001600160e01b0319821663bf26d89760e01b148061075b57506301ffc9a760e01b6001600160e01b031983161461075b565b8154600160801b90819004600f0b6000818152600180860160205260409091209390935583546001600160801b03908116939091011602179055565b6000611e408661125b565b905060008111611eac5760405162461bcd60e51b815260206004820152603160248201527f476f7665726e6f7254696d656c6f636b436f6d706f756e643a2070726f706f73604482015270185b081b9bdd081e595d081c5d595d5959607a1b6064820152608401610799565b600754611ec2906001600160a01b03163461285e565b60005b8551811015611fba5760075486516001600160a01b0390911690630825f38f90889084908110611ef757611ef761326b565b6020026020010151878481518110611f1157611f1161326b565b6020026020010151878581518110611f2b57611f2b61326b565b6020026020010151866040518563ffffffff1660e01b8152600401611f539493929190613281565b600060405180830381600087803b158015611f6d57600080fd5b505af1158015611f81573d6000803e3d6000fd5b505050506040513d6000823e601f3d908101601f19168201604052611fa991908101906135f3565b50611fb3816132e9565b9050611ec5565b50505050505050565b6000306001600160a01b037f00000000000000000000000000000000000000000000000000000000000000001614801561201c57507f000000000000000000000000000000000000000000000000000000000000000046145b1561204657507f000000000000000000000000000000000000000000000000000000000000000090565b50604080517f00000000000000000000000000000000000000000000000000000000000000006020808301919091527f0000000000000000000000000000000000000000000000000000000000000000828401527f000000000000000000000000000000000000000000000000000000000000000060608301524660808301523060a0808401919091528351808403909101815260c0909201909252805191012090565b6000807f7fffffffffffffffffffffffffffffff5d576e7357a4501ddfe92f46681b20a083111561212157506000905060036121ce565b8460ff16601b1415801561213957508460ff16601c14155b1561214a57506000905060046121ce565b6040805160008082526020820180845289905260ff881692820192909252606081018690526080810185905260019060a0016020604051602081039080840390855afa15801561219e573d6000803e3d6000fd5b5050604051601f1901519150506001600160a01b0381166121c7576000600192509250506121ce565b9150600090505b94509492505050565b60008160048111156121eb576121eb612eda565b14156121f45750565b600181600481111561220857612208612eda565b14156122565760405162461bcd60e51b815260206004820152601860248201527f45434453413a20696e76616c6964207369676e617475726500000000000000006044820152606401610799565b600281600481111561226a5761226a612eda565b14156122b85760405162461bcd60e51b815260206004820152601f60248201527f45434453413a20696e76616c6964207369676e6174757265206c656e677468006044820152606401610799565b60038160048111156122cc576122cc612eda565b14156123255760405162461bcd60e51b815260206004820152602260248201527f45434453413a20696e76616c6964207369676e6174757265202773272076616c604482015261756560f01b6064820152608401610799565b600481600481111561233957612339612eda565b14156107f65760405162461bcd60e51b815260206004820152602260248201527f45434453413a20696e76616c6964207369676e6174757265202776272076616c604482015261756560f01b6064820152608401610799565b6000848152600a602090815260408083206001600160a01b0387168452600381019092529091205460ff161561241a5760405162461bcd60e51b815260206004820152602760248201527f476f7665726e6f72566f74696e6753696d706c653a20766f746520616c726561604482015266191e4818d85cdd60ca1b6064820152608401610799565b6001600160a01b03841660009081526003820160205260408120805460ff1916600117905560ff168360ff16141561246b57818160000160008282546124609190613253565b909155506113f09050565b60ff83166001141561248b57818160010160008282546124609190613253565b60ff8316600214156124ab57818160020160008282546124609190613253565b60405162461bcd60e51b815260206004820152603560248201527f476f7665726e6f72566f74696e6753696d706c653a20696e76616c69642076616044820152746c756520666f7220656e756d20566f74655479706560581b6064820152608401610799565b6000818152600160205260408120600281015460ff16156125355750600792915050565b6002810154610100900460ff16156125505750600292915050565b600061255b84610d1f565b9050806125aa5760405162461bcd60e51b815260206004820152601d60248201527f476f7665726e6f723a20756e6b6e6f776e2070726f706f73616c2069640000006044820152606401610799565b4381106125bb575060009392505050565b60006125c6856112fc565b90504381106125da57506001949350505050565b6125e38561297c565b801561260257506000858152600a602052604090208054600190910154115b1561261257506004949350505050565b506003949350505050565b60008061262c868686866129b3565b905060006126398261125b565b90508015610d155760005b87518110156127155760075488516001600160a01b039091169063591fcdfe908a90849081106126765761267661326b565b60200260200101518984815181106126905761269061326b565b60200260200101518985815181106126aa576126aa61326b565b6020026020010151866040518563ffffffff1660e01b81526004016126d29493929190613281565b600060405180830381600087803b1580156126ec57600080fd5b505af1158015612700573d6000803e3d6000fd5b505050508061270e906132e9565b9050612644565b506000828152600860205260409020805467ffffffffffffffff19169055610d15565b6060824710156127995760405162461bcd60e51b815260206004820152602660248201527f416464726573733a20696e73756666696369656e742062616c616e636520666f6044820152651c8818d85b1b60d21b6064820152608401610799565b6001600160a01b0385163b6127f05760405162461bcd60e51b815260206004820152601d60248201527f416464726573733a2063616c6c20746f206e6f6e2d636f6e74726163740000006044820152606401610799565b600080866001600160a01b0316858760405161280c9190613660565b60006040518083038185875af1925050503d8060008114612849576040519150601f19603f3d011682016040523d82523d6000602084013e61284e565b606091505b5091509150610ddf828286612abf565b804710156128ae5760405162461bcd60e51b815260206004820152601d60248201527f416464726573733a20696e73756666696369656e742062616c616e63650000006044820152606401610799565b6000826001600160a01b03168260405160006040518083038185875af1925050503d80600081146128fb576040519150601f19603f3d011682016040523d82523d6000602084013e612900565b606091505b50509050806129775760405162461bcd60e51b815260206004820152603a60248201527f416464726573733a20756e61626c6520746f2073656e642076616c75652c207260448201527f6563697069656e74206d617920686176652072657665727465640000000000006064820152608401610799565b505050565b6000818152600a602052604081206002810154600182015461299e9190613253565b6129aa6106fe85610d1f565b11159392505050565b6000806129c2868686866113f7565b905060006129cf82610dea565b905060028160078111156129e5576129e5612eda565b14158015612a0557506006816007811115612a0257612a02612eda565b14155b8015612a2357506007816007811115612a2057612a20612eda565b14155b612a6f5760405162461bcd60e51b815260206004820152601d60248201527f476f7665726e6f723a2070726f706f73616c206e6f74206163746976650000006044820152606401610799565b60008281526001602052604090819020600201805461ff001916610100179055517f789cf55be980739dad1d0699b93b58e806b51c9d96619bfa8fe0a28abaa7b30c90610c209084815260200190565b60608315612ace5750816114c9565b825115612ade5782518084602001fd5b8160405162461bcd60e51b81526004016107999190612b93565b600060208284031215612b0a57600080fd5b81356001600160e01b0319811681146114c957600080fd5b600060208284031215612b3457600080fd5b5035919050565b60005b83811015612b56578181015183820152602001612b3e565b838111156112f65750506000910152565b60008151808452612b7f816020860160208601612b3b565b601f01601f19169290920160200192915050565b6020815260006114c96020830184612b67565b634e487b7160e01b600052604160045260246000fd5b604051601f8201601f191681016001600160401b0381118282101715612be457612be4612ba6565b604052919050565b60006001600160401b03821115612c0557612c05612ba6565b5060051b60200190565b6001600160a01b03811681146107f657600080fd5b600082601f830112612c3557600080fd5b81356020612c4a612c4583612bec565b612bbc565b82815260059290921b84018101918181019086841115612c6957600080fd5b8286015b84811015612c8d578035612c8081612c0f565b8352918301918301612c6d565b509695505050505050565b600082601f830112612ca957600080fd5b81356020612cb9612c4583612bec565b82815260059290921b84018101918181019086841115612cd857600080fd5b8286015b84811015612c8d5780358352918301918301612cdc565b60006001600160401b03821115612d0c57612d0c612ba6565b50601f01601f191660200190565b6000612d28612c4584612cf3565b9050828152838383011115612d3c57600080fd5b828260208301376000602084830101529392505050565b600082601f830112612d6457600080fd5b81356020612d74612c4583612bec565b82815260059290921b84018101918181019086841115612d9357600080fd5b8286015b84811015612c8d5780356001600160401b03811115612db65760008081fd5b8701603f81018913612dc85760008081fd5b612dd9898683013560408401612d1a565b845250918301918301612d97565b60008060008060808587031215612dfd57600080fd5b84356001600160401b0380821115612e1457600080fd5b612e2088838901612c24565b95506020870135915080821115612e3657600080fd5b612e4288838901612c98565b94506040870135915080821115612e5857600080fd5b50612e6587828801612d53565b949793965093946060013593505050565b803560ff81168114612e8757600080fd5b919050565b600080600080600060a08688031215612ea457600080fd5b85359450612eb460208701612e76565b9350612ec260408701612e76565b94979396509394606081013594506080013592915050565b634e487b7160e01b600052602160045260246000fd5b6020810160088310612f1257634e487b7160e01b600052602160045260246000fd5b91905290565b60008060408385031215612f2b57600080fd5b823591506020830135612f3d81612c0f565b809150509250929050565b60008060408385031215612f5b57600080fd5b82359150612f6b60208401612e76565b90509250929050565b60008083601f840112612f8657600080fd5b5081356001600160401b03811115612f9d57600080fd5b602083019150836020828501011115612fb557600080fd5b9250929050565b60008060008060608587031215612fd257600080fd5b84359350612fe260208601612e76565b925060408501356001600160401b03811115612ffd57600080fd5b61300987828801612f74565b95989497509550505050565b6000806000806080858703121561302b57600080fd5b84356001600160401b038082111561304257600080fd5b61304e88838901612c24565b9550602087013591508082111561306457600080fd5b61307088838901612c98565b9450604087013591508082111561308657600080fd5b61309288838901612d53565b935060608701359150808211156130a857600080fd5b508501601f810187136130ba57600080fd5b6130c987823560208401612d1a565b91505092959194509250565b6000602082840312156130e757600080fd5b81356114c981612c0f565b6000806000806060858703121561310857600080fd5b843561311381612c0f565b93506020850135925060408501356001600160401b03811115612ffd57600080fd5b6000806040838503121561314857600080fd5b823561315381612c0f565b946020939093013593505050565b60208082526018908201527f476f7665726e6f723a206f6e6c79476f7665726e616e63650000000000000000604082015260600190565b8183823760009101908152919050565b600181811c908216806131bc57607f821691505b602082108114156131dd57634e487b7160e01b600052602260045260246000fd5b50919050565b60208082526021908201527f476f7665726e6f723a2070726f706f73616c206e6f74207375636365737366756040820152601b60fa1b606082015260800190565b60006020828403121561323657600080fd5b5051919050565b634e487b7160e01b600052601160045260246000fd5b600082198211156132665761326661323d565b500190565b634e487b7160e01b600052603260045260246000fd5b60018060a01b038516815283602082015260a06040820152600060a082015260c0606082015260006132b660c0830185612b67565b905082608083015295945050505050565b6000602082840312156132d957600080fd5b815180151581146114c957600080fd5b60006000198214156132fd576132fd61323d565b5060010190565b6000828210156133165761331661323d565b500390565b60208082526021908201527f476f7665726e6f723a20696e76616c69642070726f706f73616c206c656e67746040820152600d60fb1b606082015260800190565b60006001600160401b0380831681851680830382111561337e5761337e61323d565b01949350505050565b600081518084526020808501945080840160005b838110156133c05781516001600160a01b03168752958201959082019060010161339b565b509495945050505050565b600081518084526020808501945080840160005b838110156133c0578151875295820195908201906001016133df565b600081518084526020808501808196508360051b8101915082860160005b85811015613443578284038952613431848351612b67565b98850198935090840190600101613419565b5091979650505050505050565b60006101208b8352602060018060a01b038c16818501528160408501526134798285018c613387565b9150838203606085015261348d828b6133cb565b915083820360808501528189518084528284019150828160051b850101838c0160005b838110156134de57601f198784030185526134cc838351612b67565b948601949250908501906001016134b0565b505086810360a08801526134f2818c6133fb565b94505050505061350d60c08401876001600160401b03169052565b6001600160401b03851660e084015282810361010084015261352f8185612b67565b9c9b505050505050505050505050565b6080815260006135526080830187613387565b828103602084015261356481876133cb565b9050828103604084015261357881866133fb565b91505082606083015295945050505050565b84815260ff84166020820152826040820152608060608201526000610f096080830184612b67565b60008160001904831182151516156135cc576135cc61323d565b500290565b6000826135ee57634e487b7160e01b600052601260045260246000fd5b500490565b60006020828403121561360557600080fd5b81516001600160401b0381111561361b57600080fd5b8201601f8101841361362c57600080fd5b805161363a612c4582612cf3565b81815285602083850101111561364f57600080fd5b610e03826020830160208601612b3b565b60008251613672818460208701612b3b565b919091019291505056fe416464726573733a206c6f772d6c6576656c2063616c6c20776974682076616c7565206661696c6564a264697066735822122009661739aafb5388816d571fcaad137f33bbbe238be64f1ba9b79228ccb6d5eb64736f6c63430008090033",
  "linkReferences": {},
  "deployedLinkReferences": {}
}