{
  "_format": "hh-sol-artifact-1",
  "contractName": "GovernorPreventLateQuorumMock",
  "sourceName": "contracts/mocks/GovernorPreventLateQuorumMock.sol",
  "abi": [
    {
      "inputs": [
        {
          "internalType": "string",
          "name": "name_",
          "type": "string"
        },
        {
          "internalType": "contract IVotes",
          "name": "token_",
          "type": "address"
        },
        {
          "internalType": "uint256",
          "name": "votingDelay_",
          "type": "uint256"
        },
        {
          "internalType": "uint256",
          "name": "votingPeriod_",
          "type": "uint256"
        },
        {
          "internalType": "uint256",
          "name": "quorum_",
          "type": "uint256"
        },
        {
          "internalType": "uint64",
          "name": "voteExtension_",
          "type": "uint64"
        }
      ],
      "stateMutability": "nonpayable",
      "type": "constructor"
    },
    {
      "inputs": [],
      "name": "Empty",
      "type": "error"
    },
    {
      "anonymous": false,
      "inputs": [
        {
          "indexed": false,
          "internalType": "uint64",
          "name": "oldVoteExtension",
          "type": "uint64"
        },
        {
          "indexed": false,
          "internalType": "uint64",
          "name": "newVoteExtension",
          "type": "uint64"
        }
      ],
      "name": "LateQuorumVoteExtensionSet",
      "type": "event"
    },
    {
      "anonymous": false,
      "inputs": [
        {
          "indexed": false,
          "internalType": "uint256",
          "name": "proposalId",
          "type": "uint256"
        }
      ],
      "name": "ProposalCanceled",
      "type": "event"
    },
    {
      "anonymous": false,
      "inputs": [
        {
          "indexed": false,
          "internalType": "uint256",
          "name": "proposalId",
          "type": "uint256"
        },
        {
          "indexed": false,
          "internalType": "address",
          "name": "proposer",
          "type": "address"
        },
        {
          "indexed": false,
          "internalType": "address[]",
          "name": "targets",
          "type": "address[]"
        },
        {
          "indexed": false,
          "internalType": "uint256[]",
          "name": "values",
          "type": "uint256[]"
        },
        {
          "indexed": false,
          "internalType": "string[]",
          "name": "signatures",
          "type": "string[]"
        },
        {
          "indexed": false,
          "internalType": "bytes[]",
          "name": "calldatas",
          "type": "bytes[]"
        },
        {
          "indexed": false,
          "internalType": "uint256",
          "name": "startBlock",
          "type": "uint256"
        },
        {
          "indexed": false,
          "internalType": "uint256",
          "name": "endBlock",
          "type": "uint256"
        },
        {
          "indexed": false,
          "internalType": "string",
          "name": "description",
          "type": "string"
        }
      ],
      "name": "ProposalCreated",
      "type": "event"
    },
    {
      "anonymous": false,
      "inputs": [
        {
          "indexed": false,
          "internalType": "uint256",
          "name": "proposalId",
          "type": "uint256"
        }
      ],
      "name": "ProposalExecuted",
      "type": "event"
    },
    {
      "anonymous": false,
      "inputs": [
        {
          "indexed": true,
          "internalType": "uint256",
          "name": "proposalId",
          "type": "uint256"
        },
        {
          "indexed": false,
          "internalType": "uint64",
          "name": "extendedDeadline",
          "type": "uint64"
        }
      ],
      "name": "ProposalExtended",
      "type": "event"
    },
    {
      "anonymous": false,
      "inputs": [
        {
          "indexed": false,
          "internalType": "uint256",
          "name": "oldProposalThreshold",
          "type": "uint256"
        },
        {
          "indexed": false,
          "internalType": "uint256",
          "name": "newProposalThreshold",
          "type": "uint256"
        }
      ],
      "name": "ProposalThresholdSet",
      "type": "event"
    },
    {
      "anonymous": false,
      "inputs": [
        {
          "indexed": true,
          "internalType": "address",
          "name": "voter",
          "type": "address"
        },
        {
          "indexed": false,
          "internalType": "uint256",
          "name": "proposalId",
          "type": "uint256"
        },
        {
          "indexed": false,
          "internalType": "uint8",
          "name": "support",
          "type": "uint8"
        },
        {
          "indexed": false,
          "internalType": "uint256",
          "name": "weight",
          "type": "uint256"
        },
        {
          "indexed": false,
          "internalType": "string",
          "name": "reason",
          "type": "string"
        }
      ],
      "name": "VoteCast",
      "type": "event"
    },
    {
      "anonymous": false,
      "inputs": [
        {
          "indexed": false,
          "internalType": "uint256",
          "name": "oldVotingDelay",
          "type": "uint256"
        },
        {
          "indexed": false,
          "internalType": "uint256",
          "name": "newVotingDelay",
          "type": "uint256"
        }
      ],
      "name": "VotingDelaySet",
      "type": "event"
    },
    {
      "anonymous": false,
      "inputs": [
        {
          "indexed": false,
          "internalType": "uint256",
          "name": "oldVotingPeriod",
          "type": "uint256"
        },
        {
          "indexed": false,
          "internalType": "uint256",
          "name": "newVotingPeriod",
          "type": "uint256"
        }
      ],
      "name": "VotingPeriodSet",
      "type": "event"
    },
    {
      "inputs": [],
      "name": "BALLOT_TYPEHASH",
      "outputs": [
        {
          "internalType": "bytes32",
          "name": "",
          "type": "bytes32"
        }
      ],
      "stateMutability": "view",
      "type": "function"
    },
    {
      "inputs": [],
      "name": "COUNTING_MODE",
      "outputs": [
        {
          "internalType": "string",
          "name": "",
          "type": "string"
        }
      ],
      "stateMutability": "pure",
      "type": "function"
    },
    {
      "inputs": [
        {
          "internalType": "uint256",
          "name": "proposalId",
          "type": "uint256"
        },
        {
          "internalType": "uint8",
          "name": "support",
          "type": "uint8"
        }
      ],
      "name": "castVote",
      "outputs": [
        {
          "internalType": "uint256",
          "name": "",
          "type": "uint256"
        }
      ],
      "stateMutability": "nonpayable",
      "type": "function"
    },
    {
      "inputs": [
        {
          "internalType": "uint256",
          "name": "proposalId",
          "type": "uint256"
        },
        {
          "internalType": "uint8",
          "name": "support",
          "type": "uint8"
        },
        {
          "internalType": "uint8",
          "name": "v",
          "type": "uint8"
        },
        {
          "internalType": "bytes32",
          "name": "r",
          "type": "bytes32"
        },
        {
          "internalType": "bytes32",
          "name": "s",
          "type": "bytes32"
        }
      ],
      "name": "castVoteBySig",
      "outputs": [
        {
          "internalType": "uint256",
          "name": "",
          "type": "uint256"
        }
      ],
      "stateMutability": "nonpayable",
      "type": "function"
    },
    {
      "inputs": [
        {
          "internalType": "uint256",
          "name": "proposalId",
          "type": "uint256"
        },
        {
          "internalType": "uint8",
          "name": "support",
          "type": "uint8"
        },
        {
          "internalType": "string",
          "name": "reason",
          "type": "string"
        }
      ],
      "name": "castVoteWithReason",
      "outputs": [
        {
          "internalType": "uint256",
          "name": "",
          "type": "uint256"
        }
      ],
      "stateMutability": "nonpayable",
      "type": "function"
    },
    {
      "inputs": [
        {
          "internalType": "address[]",
          "name": "targets",
          "type": "address[]"
        },
        {
          "internalType": "uint256[]",
          "name": "values",
          "type": "uint256[]"
        },
        {
          "internalType": "bytes[]",
          "name": "calldatas",
          "type": "bytes[]"
        },
        {
          "internalType": "bytes32",
          "name": "descriptionHash",
          "type": "bytes32"
        }
      ],
      "name": "execute",
      "outputs": [
        {
          "internalType": "uint256",
          "name": "",
          "type": "uint256"
        }
      ],
      "stateMutability": "payable",
      "type": "function"
    },
    {
      "inputs": [
        {
          "internalType": "address",
          "name": "account",
          "type": "address"
        },
        {
          "internalType": "uint256",
          "name": "blockNumber",
          "type": "uint256"
        }
      ],
      "name": "getVotes",
      "outputs": [
        {
          "internalType": "uint256",
          "name": "",
          "type": "uint256"
        }
      ],
      "stateMutability": "view",
      "type": "function"
    },
    {
      "inputs": [
        {
          "internalType": "uint256",
          "name": "proposalId",
          "type": "uint256"
        },
        {
          "internalType": "address",
          "name": "account",
          "type": "address"
        }
      ],
      "name": "hasVoted",
      "outputs": [
        {
          "internalType": "bool",
          "name": "",
          "type": "bool"
        }
      ],
      "stateMutability": "view",
      "type": "function"
    },
    {
      "inputs": [
        {
          "internalType": "address[]",
          "name": "targets",
          "type": "address[]"
        },
        {
          "internalType": "uint256[]",
          "name": "values",
          "type": "uint256[]"
        },
        {
          "internalType": "bytes[]",
          "name": "calldatas",
          "type": "bytes[]"
        },
        {
          "internalType": "bytes32",
          "name": "descriptionHash",
          "type": "bytes32"
        }
      ],
      "name": "hashProposal",
      "outputs": [
        {
          "internalType": "uint256",
          "name": "",
          "type": "uint256"
        }
      ],
      "stateMutability": "pure",
      "type": "function"
    },
    {
      "inputs": [],
      "name": "lateQuorumVoteExtension",
      "outputs": [
        {
          "internalType": "uint64",
          "name": "",
          "type": "uint64"
        }
      ],
      "stateMutability": "view",
      "type": "function"
    },
    {
      "inputs": [],
      "name": "name",
      "outputs": [
        {
          "internalType": "string",
          "name": "",
          "type": "string"
        }
      ],
      "stateMutability": "view",
      "type": "function"
    },
    {
      "inputs": [
        {
          "internalType": "uint256",
          "name": "proposalId",
          "type": "uint256"
        }
      ],
      "name": "proposalDeadline",
      "outputs": [
        {
          "internalType": "uint256",
          "name": "",
          "type": "uint256"
        }
      ],
      "stateMutability": "view",
      "type": "function"
    },
    {
      "inputs": [
        {
          "internalType": "uint256",
          "name": "proposalId",
          "type": "uint256"
        }
      ],
      "name": "proposalSnapshot",
      "outputs": [
        {
          "internalType": "uint256",
          "name": "",
          "type": "uint256"
        }
      ],
      "stateMutability": "view",
      "type": "function"
    },
    {
      "inputs": [],
      "name": "proposalThreshold",
      "outputs": [
        {
          "internalType": "uint256",
          "name": "",
          "type": "uint256"
        }
      ],
      "stateMutability": "view",
      "type": "function"
    },
    {
      "inputs": [
        {
          "internalType": "uint256",
          "name": "proposalId",
          "type": "uint256"
        }
      ],
      "name": "proposalVotes",
      "outputs": [
        {
          "internalType": "uint256",
          "name": "againstVotes",
          "type": "uint256"
        },
        {
          "internalType": "uint256",
          "name": "forVotes",
          "type": "uint256"
        },
        {
          "internalType": "uint256",
          "name": "abstainVotes",
          "type": "uint256"
        }
      ],
      "stateMutability": "view",
      "type": "function"
    },
    {
      "inputs": [
        {
          "internalType": "address[]",
          "name": "targets",
          "type": "address[]"
        },
        {
          "internalType": "uint256[]",
          "name": "values",
          "type": "uint256[]"
        },
        {
          "internalType": "bytes[]",
          "name": "calldatas",
          "type": "bytes[]"
        },
        {
          "internalType": "string",
          "name": "description",
          "type": "string"
        }
      ],
      "name": "propose",
      "outputs": [
        {
          "internalType": "uint256",
          "name": "",
          "type": "uint256"
        }
      ],
      "stateMutability": "nonpayable",
      "type": "function"
    },
    {
      "inputs": [
        {
          "internalType": "uint256",
          "name": "",
          "type": "uint256"
        }
      ],
      "name": "quorum",
      "outputs": [
        {
          "internalType": "uint256",
          "name": "",
          "type": "uint256"
        }
      ],
      "stateMutability": "view",
      "type": "function"
    },
    {
      "inputs": [
        {
          "internalType": "address",
          "name": "target",
          "type": "address"
        },
        {
          "internalType": "uint256",
          "name": "value",
          "type": "uint256"
        },
        {
          "internalType": "bytes",
          "name": "data",
          "type": "bytes"
        }
      ],
      "name": "relay",
      "outputs": [],
      "stateMutability": "nonpayable",
      "type": "function"
    },
    {
      "inputs": [
        {
          "internalType": "uint64",
          "name": "newVoteExtension",
          "type": "uint64"
        }
      ],
      "name": "setLateQuorumVoteExtension",
      "outputs": [],
      "stateMutability": "nonpayable",
      "type": "function"
    },
    {
      "inputs": [
        {
          "internalType": "uint256",
          "name": "newProposalThreshold",
          "type": "uint256"
        }
      ],
      "name": "setProposalThreshold",
      "outputs": [],
      "stateMutability": "nonpayable",
      "type": "function"
    },
    {
      "inputs": [
        {
          "internalType": "uint256",
          "name": "newVotingDelay",
          "type": "uint256"
        }
      ],
      "name": "setVotingDelay",
      "outputs": [],
      "stateMutability": "nonpayable",
      "type": "function"
    },
    {
      "inputs": [
        {
          "internalType": "uint256",
          "name": "newVotingPeriod",
          "type": "uint256"
        }
      ],
      "name": "setVotingPeriod",
      "outputs": [],
      "stateMutability": "nonpayable",
      "type": "function"
    },
    {
      "inputs": [
        {
          "internalType": "uint256",
          "name": "proposalId",
          "type": "uint256"
        }
      ],
      "name": "state",
      "outputs": [
        {
          "internalType": "enum IGovernor.ProposalState",
          "name": "",
          "type": "uint8"
        }
      ],
      "stateMutability": "view",
      "type": "function"
    },
    {
      "inputs": [
        {
          "internalType": "bytes4",
          "name": "interfaceId",
          "type": "bytes4"
        }
      ],
      "name": "supportsInterface",
      "outputs": [
        {
          "internalType": "bool",
          "name": "",
          "type": "bool"
        }
      ],
      "stateMutability": "view",
      "type": "function"
    },
    {
      "inputs": [],
      "name": "token",
      "outputs": [
        {
          "internalType": "contract IVotes",
          "name": "",
          "type": "address"
        }
      ],
      "stateMutability": "view",
      "type": "function"
    },
    {
      "inputs": [],
      "name": "version",
      "outputs": [
        {
          "internalType": "string",
          "name": "",
          "type": "string"
        }
      ],
      "stateMutability": "view",
      "type": "function"
    },
    {
      "inputs": [],
      "name": "votingDelay",
      "outputs": [
        {
          "internalType": "uint256",
          "name": "",
          "type": "uint256"
        }
      ],
      "stateMutability": "view",
      "type": "function"
    },
    {
      "inputs": [],
      "name": "votingPeriod",
      "outputs": [
        {
          "internalType": "uint256",
          "name": "",
          "type": "uint256"
        }
      ],
      "stateMutability": "view",
      "type": "function"
    },
    {
      "stateMutability": "payable",
      "type": "receive"
    }
  ],
  "bytecode": "0x6101606040523480156200001257600080fd5b5060405162002e4538038062002e458339810160408190526200003591620003d3565b8085858560008a806200005c6040805180820190915260018152603160f81b602082015290565b815160208084019190912082518383012060e08290526101008190524660a0818152604080517f8b73c3c69bb8fe3d512ecc4cf759cc79239f7b179b0ffacaa9a75d522b39400f81880181905281830187905260608201869052608082019490945230818401528151808203909301835260c00190528051940193909320919290916080523060c0526101205250508251620001029250600091506020840190620002e2565b506200011090508362000151565b6200011b8262000192565b620001268162000238565b5050506001600160a01b031661014052620001418162000279565b5050600a55506200052f92505050565b60045460408051918252602082018390527fc565b045403dc03c2eea82b81a0465edad9e2e7fc4d97e11421c209da93d7a93910160405180910390a1600455565b60008111620001f75760405162461bcd60e51b815260206004820152602760248201527f476f7665726e6f7253657474696e67733a20766f74696e6720706572696f6420604482015266746f6f206c6f7760c81b606482015260840160405180910390fd5b60055460408051918252602082018390527f7e3f7f0708a84de9203036abaa450dccc85ad5ff52f78c170f3edb55cf5e8828910160405180910390a1600555565b60065460408051918252602082018390527fccb45da8d5717e6c4544694297c4ba5cf151d455c9bb0ed4fc7a38411bc05461910160405180910390a1600655565b600854604080516001600160401b03928316815291831660208301527f7ca4ac117ed3cdce75c1161d8207c440389b1a15d69d096831664657c07dafc2910160405180910390a1600880546001600160401b0319166001600160401b0392909216919091179055565b828054620002f090620004f2565b90600052602060002090601f0160209004810192826200031457600085556200035f565b82601f106200032f57805160ff19168380011785556200035f565b828001600101855582156200035f579182015b828111156200035f57825182559160200191906001019062000342565b506200036d92915062000371565b5090565b5b808211156200036d576000815560010162000372565b634e487b7160e01b600052604160045260246000fd5b80516001600160a01b0381168114620003b657600080fd5b919050565b80516001600160401b0381168114620003b657600080fd5b60008060008060008060c08789031215620003ed57600080fd5b86516001600160401b03808211156200040557600080fd5b818901915089601f8301126200041a57600080fd5b8151818111156200042f576200042f62000388565b604051601f8201601f19908116603f011681019083821181831017156200045a576200045a62000388565b81604052828152602093508c848487010111156200047757600080fd5b600091505b828210156200049b57848201840151818301850152908301906200047c565b82821115620004ad5760008484830101525b9950620004bf9150508982016200039e565b96505050604087015193506060870151925060808701519150620004e660a08801620003bb565b90509295509295509295565b600181811c908216806200050757607f821691505b602082108114156200052957634e487b7160e01b600052602260045260246000fd5b50919050565b60805160a05160c05160e0516101005161012051610140516128b462000591600039600081816105e80152610ef6015260006115fa01526000611649015260006116240152600061157d015260006115a7015260006115d101526128b46000f3fe6080604052600436106101bb5760003560e01c80637b3c71d3116100ec578063dd4e2ba51161008a578063eb9019d411610064578063eb9019d414610574578063ece40cc114610594578063f8ce560a146105b4578063fc0c546a146105d657600080fd5b8063dd4e2ba5146104da578063deaaa7cc14610520578063ea0217cf1461055457600080fd5b8063c01f9e37116100c6578063c01f9e371461045a578063c28bc2fa1461047a578063c59057e41461049a578063d07f91e9146104ba57600080fd5b80637b3c71d3146104055780637d5e81e214610425578063b58131b01461044557600080fd5b80633bccf4fd11610159578063544ffc9c11610133578063544ffc9c1461034657806354fd4d501461039b57806356781388146103c557806370b0f660146103e557600080fd5b80633bccf4fd146102af5780633e4f49e6146102cf57806343859632146102fc57600080fd5b80632656227d116101955780632656227d1461023f5780632d63f6931461025257806332b8113e146102725780633932abb11461029a57600080fd5b806301ffc9a7146101c957806302a251a3146101fe57806306fdde031461021d57600080fd5b366101c457005b005b600080fd5b3480156101d557600080fd5b506101e96101e4366004611e1e565b610622565b60405190151581526020015b60405180910390f35b34801561020a57600080fd5b506005545b6040519081526020016101f5565b34801561022957600080fd5b50610232610659565b6040516101f59190611ea4565b61020f61024d3660046120f4565b6106eb565b34801561025e57600080fd5b5061020f61026d366004612183565b610817565b34801561027e57600080fd5b506008546040516001600160401b0390911681526020016101f5565b3480156102a657600080fd5b5060045461020f565b3480156102bb57600080fd5b5061020f6102ca3660046121ad565b61084e565b3480156102db57600080fd5b506102ef6102ea366004612183565b6108e2565b6040516101f59190612211565b34801561030857600080fd5b506101e9610317366004612239565b60008281526007602090815260408083206001600160a01b038516845260030190915290205460ff1692915050565b34801561035257600080fd5b50610380610361366004612183565b6000908152600760205260409020805460018201546002909201549092565b604080519384526020840192909252908201526060016101f5565b3480156103a757600080fd5b506040805180820190915260018152603160f81b6020820152610232565b3480156103d157600080fd5b5061020f6103e0366004612265565b6109ee565b3480156103f157600080fd5b506101c2610400366004612183565b610a17565b34801561041157600080fd5b5061020f6104203660046122d0565b610a5e565b34801561043157600080fd5b5061020f610440366004612329565b610ab0565b34801561045157600080fd5b5061020f610d6c565b34801561046657600080fd5b5061020f610475366004612183565b610d7c565b34801561048657600080fd5b506101c26104953660046123e9565b610d87565b3480156104a657600080fd5b5061020f6104b53660046120f4565b610e0b565b3480156104c657600080fd5b506101c26104d536600461242a565b610e45565b3480156104e657600080fd5b506040805180820190915260208082527f737570706f72743d627261766f2671756f72756d3d666f722c6162737461696e90820152610232565b34801561052c57600080fd5b5061020f7f150214d74d59b7d1e90c73fc22ef3d991dd0a76b046543d4d80ab92d2a50328f81565b34801561056057600080fd5b506101c261056f366004612183565b610e89565b34801561058057600080fd5b5061020f61058f366004612453565b610ecd565b3480156105a057600080fd5b506101c26105af366004612183565b610f79565b3480156105c057600080fd5b5061020f6105cf366004612183565b50600a5490565b3480156105e257600080fd5b5061060a7f000000000000000000000000000000000000000000000000000000000000000081565b6040516001600160a01b0390911681526020016101f5565b60006001600160e01b0319821663bf26d89760e01b148061065357506301ffc9a760e01b6001600160e01b03198316145b92915050565b6060600080546106689061247d565b80601f01602080910402602001604051908101604052809291908181526020018280546106949061247d565b80156106e15780601f106106b6576101008083540402835291602001916106e1565b820191906000526020600020905b8154815290600101906020018083116106c457829003601f168201915b5050505050905090565b6000806106fa86868686610e0b565b90506000610707826108e2565b9050600481600781111561071d5761071d6121fb565b148061073a57506005816007811115610738576107386121fb565b145b6107955760405162461bcd60e51b815260206004820152602160248201527f476f7665726e6f723a2070726f706f73616c206e6f74207375636365737366756044820152601b60fa1b60648201526084015b60405180910390fd5b600082815260016020818152604092839020600201805460ff191690921790915590518381527f712ae1383f79ac853f8d882153778e0260ef8f03b504e2866e0593e04d2b291f910160405180910390a16107f38288888888610fbd565b610800828888888861104a565b61080d8288888888610fbd565b5095945050505050565b60008181526001602090815260408083208151928301909152546001600160401b0316908190525b6001600160401b031692915050565b604080517f150214d74d59b7d1e90c73fc22ef3d991dd0a76b046543d4d80ab92d2a50328f602082015290810186905260ff8516606082015260009081906108ba906108b29060800160405160208183030381529060405280519060200120611149565b868686611197565b90506108d7878288604051806020016040528060008152506111b5565b979650505050505050565b6000818152600160205260408120600281015460ff16156109065750600792915050565b6002810154610100900460ff16156109215750600292915050565b600061092c84610817565b90508061097b5760405162461bcd60e51b815260206004820152601d60248201527f476f7665726e6f723a20756e6b6e6f776e2070726f706f73616c206964000000604482015260640161078c565b43811061098c575060009392505050565b600061099785610d7c565b90504381106109ab57506001949350505050565b6109b4856111cc565b80156109d3575060008581526007602052604090208054600190910154115b156109e357506004949350505050565b506003949350505050565b600080339050610a0f848285604051806020016040528060008152506111b5565b949350505050565b333014610a365760405162461bcd60e51b815260040161078c906124b8565b610a52565b80610a466002611203565b14610a5057610a3b565b505b610a5b81611282565b50565b600080339050610aa686828787878080601f0160208091040260200160405190810160405280939291908181526020018383808284376000920191909152506111b592505050565b9695505050505050565b6000610aba610d6c565b610ac93361058f600143612505565b1015610b495760405162461bcd60e51b815260206004820152604360248201527f476f7665726e6f72436f6d7061746962696c697479427261766f3a2070726f7060448201527f6f73657220766f7465732062656c6f772070726f706f73616c207468726573686064820152621bdb1960ea1b608482015260a40161078c565b6000610b5e8686868680519060200120610e0b565b90508451865114610b815760405162461bcd60e51b815260040161078c9061251c565b8351865114610ba25760405162461bcd60e51b815260040161078c9061251c565b6000865111610bf35760405162461bcd60e51b815260206004820152601860248201527f476f7665726e6f723a20656d7074792070726f706f73616c0000000000000000604482015260640161078c565b600081815260016020908152604091829020825191820190925281546001600160401b03169081905215610c735760405162461bcd60e51b815260206004820152602160248201527f476f7665726e6f723a2070726f706f73616c20616c72656164792065786973746044820152607360f81b606482015260840161078c565b6000610c86610c8160045490565b6112c3565b610c8f436112c3565b610c99919061255d565b90506000610ca9610c8160055490565b610cb3908361255d565b9050610cbf838361132f565b610ccc600184018261132f565b7f7d84a6263ae0d98d3329bd7b46bb4e8d6f98cd35a7adb45c274c8b7fd5ebd5e084338b8b8d516001600160401b03811115610d0a57610d0a611eb7565b604051908082528060200260200182016040528015610d3d57816020015b6060815260200190600190039081610d285790505b508c88888e604051610d579998979695949392919061264e565b60405180910390a15091979650505050505050565b6000610d7760065490565b905090565b60006106538261134d565b333014610da65760405162461bcd60e51b815260040161078c906124b8565b610dc2565b80610db66002611203565b14610dc057610dab565b505b610e048483838080601f016020809104026020016040519081016040528093929190818152602001838380828437600092019190915250889250611389915050565b5050505050565b600084848484604051602001610e24949392919061273d565b60408051601f19818403018152919052805160209091012095945050505050565b333014610e645760405162461bcd60e51b815260040161078c906124b8565b610e80565b80610e746002611203565b14610e7e57610e69565b505b610a5b816113af565b333014610ea85760405162461bcd60e51b815260040161078c906124b8565b610ec4565b80610eb86002611203565b14610ec257610ead565b505b610a5b81611419565b604051630748d63560e31b81526001600160a01b038381166004830152602482018390526000917f000000000000000000000000000000000000000000000000000000000000000090911690633a46b1a89060440160206040518083038186803b158015610f3a57600080fd5b505afa158015610f4e573d6000803e3d6000fd5b505050506040513d601f19601f82011682018060405250810190610f729190612788565b9392505050565b333014610f985760405162461bcd60e51b815260040161078c906124b8565b610fb4565b80610fa86002611203565b14610fb257610f9d565b505b610a5b816114ba565b610e04565b845181101561104257306001600160a01b0316858281518110610fe757610fe76127a1565b60200260200101516001600160a01b0316141561103257611032838281518110611013576110136127a1565b60200260200101518051906020012060026114fb90919063ffffffff16565b61103b816127b7565b9050610fc2565b505050505050565b600060405180606001604052806027815260200161282f60279139905060005b855181101561114057600080878381518110611088576110886127a1565b60200260200101516001600160a01b03168784815181106110ab576110ab6127a1565b60200260200101518785815181106110c5576110c56127a1565b60200260200101516040516110da91906127d2565b60006040518083038185875af1925050503d8060008114611117576040519150601f19603f3d011682016040523d82523d6000602084013e61111c565b606091505b509150915061112c828286611537565b50505080611139906127b7565b905061106a565b50505050505050565b6000610653611156611570565b8360405161190160f01b6020820152602281018390526042810182905260009060620160405160208183030381529060405280519060200120905092915050565b60008060006111a887878787611697565b9150915061080d81611784565b60006111c38585858561193f565b95945050505050565b6000818152600760205260408120600281015460018201546111ee91906127ee565b6111fa6105cf85610817565b11159392505050565b600061121e8254600f81810b600160801b909204900b131590565b1561123c57604051631ed9509560e11b815260040160405180910390fd5b508054600f0b6000818152600180840160205260408220805492905583546fffffffffffffffffffffffffffffffff191692016001600160801b03169190911790915590565b60045460408051918252602082018390527fc565b045403dc03c2eea82b81a0465edad9e2e7fc4d97e11421c209da93d7a93910160405180910390a1600455565b60006001600160401b0382111561132b5760405162461bcd60e51b815260206004820152602660248201527f53616665436173743a2076616c756520646f65736e27742066697420696e203660448201526534206269747360d01b606482015260840161078c565b5090565b815467ffffffffffffffff19166001600160401b0391909116179055565b600061065361135b83611a28565b600084815260096020908152604091829020825191820190925290546001600160401b031690819052611a57565b6060610a0f84848460405180606001604052806029815260200161285660299139611a6e565b600854604080516001600160401b03928316815291831660208301527f7ca4ac117ed3cdce75c1161d8207c440389b1a15d69d096831664657c07dafc2910160405180910390a16008805467ffffffffffffffff19166001600160401b0392909216919091179055565b600081116114795760405162461bcd60e51b815260206004820152602760248201527f476f7665726e6f7253657474696e67733a20766f74696e6720706572696f6420604482015266746f6f206c6f7760c81b606482015260840161078c565b60055460408051918252602082018390527f7e3f7f0708a84de9203036abaa450dccc85ad5ff52f78c170f3edb55cf5e8828910160405180910390a1600555565b60065460408051918252602082018390527fccb45da8d5717e6c4544694297c4ba5cf151d455c9bb0ed4fc7a38411bc05461910160405180910390a1600655565b8154600160801b90819004600f0b6000818152600180860160205260409091209390935583546001600160801b03908116939091011602179055565b60608315611546575081610f72565b8251156115565782518084602001fd5b8160405162461bcd60e51b815260040161078c9190611ea4565b6000306001600160a01b037f0000000000000000000000000000000000000000000000000000000000000000161480156115c957507f000000000000000000000000000000000000000000000000000000000000000046145b156115f357507f000000000000000000000000000000000000000000000000000000000000000090565b50604080517f00000000000000000000000000000000000000000000000000000000000000006020808301919091527f0000000000000000000000000000000000000000000000000000000000000000828401527f000000000000000000000000000000000000000000000000000000000000000060608301524660808301523060a0808401919091528351808403909101815260c0909201909252805191012090565b6000807f7fffffffffffffffffffffffffffffff5d576e7357a4501ddfe92f46681b20a08311156116ce575060009050600361177b565b8460ff16601b141580156116e657508460ff16601c14155b156116f7575060009050600461177b565b6040805160008082526020820180845289905260ff881692820192909252606081018690526080810185905260019060a0016020604051602081039080840390855afa15801561174b573d6000803e3d6000fd5b5050604051601f1901519150506001600160a01b0381166117745760006001925092505061177b565b9150600090505b94509492505050565b6000816004811115611798576117986121fb565b14156117a15750565b60018160048111156117b5576117b56121fb565b14156118035760405162461bcd60e51b815260206004820152601860248201527f45434453413a20696e76616c6964207369676e61747572650000000000000000604482015260640161078c565b6002816004811115611817576118176121fb565b14156118655760405162461bcd60e51b815260206004820152601f60248201527f45434453413a20696e76616c6964207369676e6174757265206c656e67746800604482015260640161078c565b6003816004811115611879576118796121fb565b14156118d25760405162461bcd60e51b815260206004820152602260248201527f45434453413a20696e76616c6964207369676e6174757265202773272076616c604482015261756560f01b606482015260840161078c565b60048160048111156118e6576118e66121fb565b1415610a5b5760405162461bcd60e51b815260206004820152602260248201527f45434453413a20696e76616c6964207369676e6174757265202776272076616c604482015261756560f01b606482015260840161078c565b60008061194e86868686611b94565b600087815260096020908152604091829020825191820190925281546001600160401b0316908190529192509015801561198c575061198c876111cc565b1561080d5760006119a56008546001600160401b031690565b6119ae436112c3565b6119b8919061255d565b90506119c388610d7c565b816001600160401b03161115611a12576040516001600160401b038216815288907f541f725fb9f7c98a30cc9c0ff32fbb14358cd7159c847a3aa20a2bdc442ba5119060200160405180910390a25b611a1c828261132f565b50509050949350505050565b60008181526001602081815260408084208151928301909152909101546001600160401b03169081905261083f565b600081831015611a675781610f72565b5090919050565b606082471015611acf5760405162461bcd60e51b815260206004820152602660248201527f416464726573733a20696e73756666696369656e742062616c616e636520666f6044820152651c8818d85b1b60d21b606482015260840161078c565b6001600160a01b0385163b611b265760405162461bcd60e51b815260206004820152601d60248201527f416464726573733a2063616c6c20746f206e6f6e2d636f6e7472616374000000604482015260640161078c565b600080866001600160a01b03168587604051611b4291906127d2565b60006040518083038185875af1925050503d8060008114611b7f576040519150601f19603f3d011682016040523d82523d6000602084013e611b84565b606091505b50915091506108d7828286611537565b6000848152600160208190526040822090611bae876108e2565b6007811115611bbf57611bbf6121fb565b14611c185760405162461bcd60e51b815260206004820152602360248201527f476f7665726e6f723a20766f7465206e6f742063757272656e746c792061637460448201526269766560e81b606482015260840161078c565b604080516020810190915281546001600160401b031690819052600090611c40908790610ecd565b9050611c4e87878784611c9f565b856001600160a01b03167fb8e138887d0aa13bab447e82de9d5c1777041ecd21ca36ba824ff1e6c07ddda488878488604051611c8d9493929190612806565b60405180910390a29695505050505050565b60008481526007602090815260408083206001600160a01b0387168452600381019092529091205460ff1615611d275760405162461bcd60e51b815260206004820152602760248201527f476f7665726e6f72566f74696e6753696d706c653a20766f746520616c726561604482015266191e4818d85cdd60ca1b606482015260840161078c565b6001600160a01b03841660009081526003820160205260408120805460ff1916600117905560ff168360ff161415611d785781816000016000828254611d6d91906127ee565b90915550610e049050565b60ff831660011415611d985781816001016000828254611d6d91906127ee565b60ff831660021415611db85781816002016000828254611d6d91906127ee565b60405162461bcd60e51b815260206004820152603560248201527f476f7665726e6f72566f74696e6753696d706c653a20696e76616c69642076616044820152746c756520666f7220656e756d20566f74655479706560581b606482015260840161078c565b600060208284031215611e3057600080fd5b81356001600160e01b031981168114610f7257600080fd5b60005b83811015611e63578181015183820152602001611e4b565b83811115611e72576000848401525b50505050565b60008151808452611e90816020860160208601611e48565b601f01601f19169290920160200192915050565b602081526000610f726020830184611e78565b634e487b7160e01b600052604160045260246000fd5b604051601f8201601f191681016001600160401b0381118282101715611ef557611ef5611eb7565b604052919050565b60006001600160401b03821115611f1657611f16611eb7565b5060051b60200190565b80356001600160a01b0381168114611f3757600080fd5b919050565b600082601f830112611f4d57600080fd5b81356020611f62611f5d83611efd565b611ecd565b82815260059290921b84018101918181019086841115611f8157600080fd5b8286015b84811015611fa357611f9681611f20565b8352918301918301611f85565b509695505050505050565b600082601f830112611fbf57600080fd5b81356020611fcf611f5d83611efd565b82815260059290921b84018101918181019086841115611fee57600080fd5b8286015b84811015611fa35780358352918301918301611ff2565b60006001600160401b0383111561202257612022611eb7565b612035601f8401601f1916602001611ecd565b905082815283838301111561204957600080fd5b828260208301376000602084830101529392505050565b600082601f83011261207157600080fd5b81356020612081611f5d83611efd565b82815260059290921b840181019181810190868411156120a057600080fd5b8286015b84811015611fa35780356001600160401b038111156120c35760008081fd5b8701603f810189136120d55760008081fd5b6120e6898683013560408401612009565b8452509183019183016120a4565b6000806000806080858703121561210a57600080fd5b84356001600160401b038082111561212157600080fd5b61212d88838901611f3c565b9550602087013591508082111561214357600080fd5b61214f88838901611fae565b9450604087013591508082111561216557600080fd5b5061217287828801612060565b949793965093946060013593505050565b60006020828403121561219557600080fd5b5035919050565b803560ff81168114611f3757600080fd5b600080600080600060a086880312156121c557600080fd5b853594506121d56020870161219c565b93506121e36040870161219c565b94979396509394606081013594506080013592915050565b634e487b7160e01b600052602160045260246000fd5b602081016008831061223357634e487b7160e01b600052602160045260246000fd5b91905290565b6000806040838503121561224c57600080fd5b8235915061225c60208401611f20565b90509250929050565b6000806040838503121561227857600080fd5b8235915061225c6020840161219c565b60008083601f84011261229a57600080fd5b5081356001600160401b038111156122b157600080fd5b6020830191508360208285010111156122c957600080fd5b9250929050565b600080600080606085870312156122e657600080fd5b843593506122f66020860161219c565b925060408501356001600160401b0381111561231157600080fd5b61231d87828801612288565b95989497509550505050565b6000806000806080858703121561233f57600080fd5b84356001600160401b038082111561235657600080fd5b61236288838901611f3c565b9550602087013591508082111561237857600080fd5b61238488838901611fae565b9450604087013591508082111561239a57600080fd5b6123a688838901612060565b935060608701359150808211156123bc57600080fd5b508501601f810187136123ce57600080fd5b6123dd87823560208401612009565b91505092959194509250565b600080600080606085870312156123ff57600080fd5b61240885611f20565b93506020850135925060408501356001600160401b0381111561231157600080fd5b60006020828403121561243c57600080fd5b81356001600160401b0381168114610f7257600080fd5b6000806040838503121561246657600080fd5b61246f83611f20565b946020939093013593505050565b600181811c9082168061249157607f821691505b602082108114156124b257634e487b7160e01b600052602260045260246000fd5b50919050565b60208082526018908201527f476f7665726e6f723a206f6e6c79476f7665726e616e63650000000000000000604082015260600190565b634e487b7160e01b600052601160045260246000fd5b600082821015612517576125176124ef565b500390565b60208082526021908201527f476f7665726e6f723a20696e76616c69642070726f706f73616c206c656e67746040820152600d60fb1b606082015260800190565b60006001600160401b0380831681851680830382111561257f5761257f6124ef565b01949350505050565b600081518084526020808501945080840160005b838110156125c15781516001600160a01b03168752958201959082019060010161259c565b509495945050505050565b600081518084526020808501945080840160005b838110156125c1578151875295820195908201906001016125e0565b6000815180845260208085019450848260051b860182860160005b8581101561264157838303895261262f838351611e78565b98850198925090840190600101612617565b5090979650505050505050565b60006101208b8352602060018060a01b038c16818501528160408501526126778285018c612588565b9150838203606085015261268b828b6125cc565b915083820360808501528189518084528284019150828160051b850101838c0160005b838110156126dc57601f198784030185526126ca838351611e78565b948601949250908501906001016126ae565b505086810360a08801526126f0818c6125fc565b94505050505061270b60c08401876001600160401b03169052565b6001600160401b03851660e084015282810361010084015261272d8185611e78565b9c9b505050505050505050505050565b6080815260006127506080830187612588565b828103602084015261276281876125cc565b9050828103604084015261277681866125fc565b91505082606083015295945050505050565b60006020828403121561279a57600080fd5b5051919050565b634e487b7160e01b600052603260045260246000fd5b60006000198214156127cb576127cb6124ef565b5060010190565b600082516127e4818460208701611e48565b9190910192915050565b60008219821115612801576128016124ef565b500190565b84815260ff84166020820152826040820152608060608201526000610aa66080830184611e7856fe476f7665726e6f723a2063616c6c20726576657274656420776974686f7574206d657373616765416464726573733a206c6f772d6c6576656c2063616c6c20776974682076616c7565206661696c6564a2646970667358221220c102d7e4a9edb9f241344498c665485c89326a605584d0b43f44a820cc52151364736f6c63430008090033",
  "linkReferences": {},
  "deployedLinkReferences": {}
}