{
  "_format": "hh-sol-artifact-1",
  "contractName": "Base64Mock",
  "sourceName": "contracts/mocks/Base64Mock.sol",
  "abi": [
    {
      "inputs": [
        {
          "internalType": "bytes",
          "name": "value",
          "type": "bytes"
        }
      ],
      "name": "encode",
      "outputs": [
        {
          "internalType": "string",
          "name": "",
          "type": "string"
        }
      ],
      "stateMutability": "pure",
      "type": "function"
    }
  ],
  "bytecode": "0x608060405234801561001057600080fd5b506103bf806100206000396000f3fe608060405234801561001057600080fd5b506004361061002b5760003560e01c806312496a1b14610030575b600080fd5b61004361003e3660046101d4565b610059565b6040516100509190610285565b60405180910390f35b60606100648261006a565b92915050565b606081516000141561008a57505060408051602081019091526000815290565b600060405180606001604052806040815260200161034a60409139905060006003845160026100b991906102f0565b6100c39190610308565b6100ce90600461032a565b67ffffffffffffffff8111156100e6576100e66101be565b6040519080825280601f01601f191660200182016040528015610110576020820181803683370190505b509050600182016020820185865187015b8082101561017c576003820191508151603f8160121c168501518453600184019350603f81600c1c168501518453600184019350603f8160061c168501518453600184019350603f8116850151845350600183019250610121565b505060038651066001811461019857600281146101ab576101b3565b603d6001830353603d60028303536101b3565b603d60018303535b509195945050505050565b634e487b7160e01b600052604160045260246000fd5b6000602082840312156101e657600080fd5b813567ffffffffffffffff808211156101fe57600080fd5b818401915084601f83011261021257600080fd5b813581811115610224576102246101be565b604051601f8201601f19908116603f0116810190838211818310171561024c5761024c6101be565b8160405282815287602084870101111561026557600080fd5b826020860160208301376000928101602001929092525095945050505050565b600060208083528351808285015260005b818110156102b257858101830151858201604001528201610296565b818111156102c4576000604083870101525b50601f01601f1916929092016040019392505050565b634e487b7160e01b600052601160045260246000fd5b60008219821115610303576103036102da565b500190565b60008261032557634e487b7160e01b600052601260045260246000fd5b500490565b6000816000190483118215151615610344576103446102da565b50029056fe4142434445464748494a4b4c4d4e4f505152535455565758595a6162636465666768696a6b6c6d6e6f707172737475767778797a303132333435363738392b2fa264697066735822122080240abf47e5aa1bc0b052f27c7d3cbf3cda0f47d1c533eba3349588c1c5a01064736f6c63430008090033",
  "linkReferences": {},
  "deployedLinkReferences": {}
}