{
  "_format": "hh-sol-artifact-1",
  "contractName": "AccessControlMock",
  "sourceName": "contracts/mocks/AccessControlMock.sol",
  "abi": [
    {
      "inputs": [],
      "stateMutability": "nonpayable",
      "type": "constructor"
    },
    {
      "anonymous": false,
      "inputs": [
        {
          "indexed": true,
          "internalType": "bytes32",
          "name": "role",
          "type": "bytes32"
        },
        {
          "indexed": true,
          "internalType": "bytes32",
          "name": "previousAdminRole",
          "type": "bytes32"
        },
        {
          "indexed": true,
          "internalType": "bytes32",
          "name": "newAdminRole",
          "type": "bytes32"
        }
      ],
      "name": "RoleAdminChanged",
      "type": "event"
    },
    {
      "anonymous": false,
      "inputs": [
        {
          "indexed": true,
          "internalType": "bytes32",
          "name": "role",
          "type": "bytes32"
        },
        {
          "indexed": true,
          "internalType": "address",
          "name": "account",
          "type": "address"
        },
        {
          "indexed": true,
          "internalType": "address",
          "name": "sender",
          "type": "address"
        }
      ],
      "name": "RoleGranted",
      "type": "event"
    },
    {
      "anonymous": false,
      "inputs": [
        {
          "indexed": true,
          "internalType": "bytes32",
          "name": "role",
          "type": "bytes32"
        },
        {
          "indexed": true,
          "internalType": "address",
          "name": "account",
          "type": "address"
        },
        {
          "indexed": true,
          "internalType": "address",
          "name": "sender",
          "type": "address"
        }
      ],
      "name": "RoleRevoked",
      "type": "event"
    },
    {
      "inputs": [],
      "name": "DEFAULT_ADMIN_ROLE",
      "outputs": [
        {
          "internalType": "bytes32",
          "name": "",
          "type": "bytes32"
        }
      ],
      "stateMutability": "view",
      "type": "function"
    },
    {
      "inputs": [
        {
          "internalType": "bytes32",
          "name": "role",
          "type": "bytes32"
        }
      ],
      "name": "getRoleAdmin",
      "outputs": [
        {
          "internalType": "bytes32",
          "name": "",
          "type": "bytes32"
        }
      ],
      "stateMutability": "view",
      "type": "function"
    },
    {
      "inputs": [
        {
          "internalType": "bytes32",
          "name": "role",
          "type": "bytes32"
        },
        {
          "internalType": "address",
          "name": "account",
          "type": "address"
        }
      ],
      "name": "grantRole",
      "outputs": [],
      "stateMutability": "nonpayable",
      "type": "function"
    },
    {
      "inputs": [
        {
          "internalType": "bytes32",
          "name": "role",
          "type": "bytes32"
        },
        {
          "internalType": "address",
          "name": "account",
          "type": "address"
        }
      ],
      "name": "hasRole",
      "outputs": [
        {
          "internalType": "bool",
          "name": "",
          "type": "bool"
        }
      ],
      "stateMutability": "view",
      "type": "function"
    },
    {
      "inputs": [
        {
          "internalType": "bytes32",
          "name": "role",
          "type": "bytes32"
        },
        {
          "internalType": "address",
          "name": "account",
          "type": "address"
        }
      ],
      "name": "renounceRole",
      "outputs": [],
      "stateMutability": "nonpayable",
      "type": "function"
    },
    {
      "inputs": [
        {
          "internalType": "bytes32",
          "name": "role",
          "type": "bytes32"
        },
        {
          "internalType": "address",
          "name": "account",
          "type": "address"
        }
      ],
      "name": "revokeRole",
      "outputs": [],
      "stateMutability": "nonpayable",
      "type": "function"
    },
    {
      "inputs": [
        {
          "internalType": "bytes32",
          "name": "roleId",
          "type": "bytes32"
        }
      ],
      "name": "senderProtected",
      "outputs": [],
      "stateMutability": "nonpayable",
      "type": "function"
    },
    {
      "inputs": [
        {
          "internalType": "bytes32",
          "name": "roleId",
          "type": "bytes32"
        },
        {
          "internalType": "bytes32",
          "name": "adminRoleId",
          "type": "bytes32"
        }
      ],
      "name": "setRoleAdmin",
      "outputs": [],
      "stateMutability": "nonpayable",
      "type": "function"
    },
    {
      "inputs": [
        {
          "internalType": "bytes4",
          "name": "interfaceId",
          "type": "bytes4"
        }
      ],
      "name": "supportsInterface",
      "outputs": [
        {
          "internalType": "bool",
          "name": "",
          "type": "bool"
        }
      ],
      "stateMutability": "view",
      "type": "function"
    }
  ],
  "bytecode": "0x608060405234801561001057600080fd5b5061001c600033610021565b6100cd565b61002b828261002f565b5050565b6000828152602081815260408083206001600160a01b038516845290915290205460ff1661002b576000828152602081815260408083206001600160a01b03851684529091529020805460ff191660011790556100893390565b6001600160a01b0316816001600160a01b0316837f2f8788117e7eff1d82e926ec794901d17c78024a50270940304540a733656f0d60405160405180910390a45050565b61083a806100dc6000396000f3fe608060405234801561001057600080fd5b50600436106100935760003560e01c806336568abe1161006657806336568abe146101195780634b9304a41461012c57806391d148541461013f578063a217fddf14610152578063d547741f1461015a57600080fd5b806301ffc9a7146100985780631e4e0091146100c0578063248a9ca3146100d55780632f2ff15d14610106575b600080fd5b6100ab6100a63660046105fb565b61016d565b60405190151581526020015b60405180910390f35b6100d36100ce366004610625565b6101a4565b005b6100f86100e3366004610647565b60009081526020819052604090206001015490565b6040519081526020016100b7565b6100d3610114366004610660565b6101b2565b6100d3610127366004610660565b6101dc565b6100d361013a366004610647565b61025b565b6100ab61014d366004610660565b610265565b6100f8600081565b6100d3610168366004610660565b61028e565b60006001600160e01b03198216637965db0b60e01b148061019e57506301ffc9a760e01b6001600160e01b03198316145b92915050565b6101ae82826102b3565b5050565b6000828152602081905260409020600101546101cd816102fe565b6101d7838361030b565b505050565b6001600160a01b03811633146102515760405162461bcd60e51b815260206004820152602f60248201527f416363657373436f6e74726f6c3a2063616e206f6e6c792072656e6f756e636560448201526e103937b632b9903337b91039b2b63360891b60648201526084015b60405180910390fd5b6101ae828261038f565b806101ae816102fe565b6000918252602082815260408084206001600160a01b0393909316845291905290205460ff1690565b6000828152602081905260409020600101546102a9816102fe565b6101d7838361038f565b600082815260208190526040808220600101805490849055905190918391839186917fbd79b86ffe0ab8e8776151514217cd7cacd52c909f66475c3af44e129f0b00ff9190a4505050565b61030881336103f4565b50565b6103158282610265565b6101ae576000828152602081815260408083206001600160a01b03851684529091529020805460ff1916600117905561034b3390565b6001600160a01b0316816001600160a01b0316837f2f8788117e7eff1d82e926ec794901d17c78024a50270940304540a733656f0d60405160405180910390a45050565b6103998282610265565b156101ae576000828152602081815260408083206001600160a01b0385168085529252808320805460ff1916905551339285917ff6391f5c32d9c69d2a47ea670b442974b53935d1edc7fd64eb21e047a839171b9190a45050565b6103fe8282610265565b6101ae57610416816001600160a01b03166014610458565b610421836020610458565b6040516020016104329291906106cc565b60408051601f198184030181529082905262461bcd60e51b825261024891600401610741565b6060600061046783600261078a565b6104729060026107a9565b67ffffffffffffffff81111561048a5761048a6107c1565b6040519080825280601f01601f1916602001820160405280156104b4576020820181803683370190505b509050600360fc1b816000815181106104cf576104cf6107d7565b60200101906001600160f81b031916908160001a905350600f60fb1b816001815181106104fe576104fe6107d7565b60200101906001600160f81b031916908160001a905350600061052284600261078a565b61052d9060016107a9565b90505b60018111156105a5576f181899199a1a9b1b9c1cb0b131b232b360811b85600f1660108110610561576105616107d7565b1a60f81b828281518110610577576105776107d7565b60200101906001600160f81b031916908160001a90535060049490941c9361059e816107ed565b9050610530565b5083156105f45760405162461bcd60e51b815260206004820181905260248201527f537472696e67733a20686578206c656e67746820696e73756666696369656e746044820152606401610248565b9392505050565b60006020828403121561060d57600080fd5b81356001600160e01b0319811681146105f457600080fd5b6000806040838503121561063857600080fd5b50508035926020909101359150565b60006020828403121561065957600080fd5b5035919050565b6000806040838503121561067357600080fd5b8235915060208301356001600160a01b038116811461069157600080fd5b809150509250929050565b60005b838110156106b757818101518382015260200161069f565b838111156106c6576000848401525b50505050565b7f416363657373436f6e74726f6c3a206163636f756e742000000000000000000081526000835161070481601785016020880161069c565b7001034b99036b4b9b9b4b733903937b6329607d1b601791840191820152835161073581602884016020880161069c565b01602801949350505050565b602081526000825180602084015261076081604085016020870161069c565b601f01601f19169190910160400192915050565b634e487b7160e01b600052601160045260246000fd5b60008160001904831182151516156107a4576107a4610774565b500290565b600082198211156107bc576107bc610774565b500190565b634e487b7160e01b600052604160045260246000fd5b634e487b7160e01b600052603260045260246000fd5b6000816107fc576107fc610774565b50600019019056fea2646970667358221220d45fe172540decdd041df15d3b977dcd3909c3e595d33f08912152b8adb9fd6564736f6c63430008090033",
  "linkReferences": {},
  "deployedLinkReferences": {}
}