{
  "_format": "hh-sol-artifact-1",
  "contractName": "CallReceiverMock",
  "sourceName": "contracts/mocks/CallReceiverMock.sol",
  "abi": [
    {
      "anonymous": false,
      "inputs": [],
      "name": "MockFunctionCalled",
      "type": "event"
    },
    {
      "anonymous": false,
      "inputs": [
        {
          "indexed": false,
          "internalType": "uint256",
          "name": "a",
          "type": "uint256"
        },
        {
          "indexed": false,
          "internalType": "uint256",
          "name": "b",
          "type": "uint256"
        }
      ],
      "name": "MockFunctionCalledWithArgs",
      "type": "event"
    },
    {
      "inputs": [],
      "name": "mockFunction",
      "outputs": [
        {
          "internalType": "string",
          "name": "",
          "type": "string"
        }
      ],
      "stateMutability": "payable",
      "type": "function"
    },
    {
      "inputs": [],
      "name": "mockFunctionNonPayable",
      "outputs": [
        {
          "internalType": "string",
          "name": "",
          "type": "string"
        }
      ],
      "stateMutability": "nonpayable",
      "type": "function"
    },
    {
      "inputs": [],
      "name": "mockFunctionOutOfGas",
      "outputs": [],
      "stateMutability": "payable",
      "type": "function"
    },
    {
      "inputs": [],
      "name": "mockFunctionRevertsNoReason",
      "outputs": [],
      "stateMutability": "payable",
      "type": "function"
    },
    {
      "inputs": [],
      "name": "mockFunctionRevertsReason",
      "outputs": [],
      "stateMutability": "payable",
      "type": "function"
    },
    {
      "inputs": [],
      "name": "mockFunctionThrows",
      "outputs": [],
      "stateMutability": "payable",
      "type": "function"
    },
    {
      "inputs": [
        {
          "internalType": "uint256",
          "name": "a",
          "type": "uint256"
        },
        {
          "internalType": "uint256",
          "name": "b",
          "type": "uint256"
        }
      ],
      "name": "mockFunctionWithArgs",
      "outputs": [
        {
          "internalType": "string",
          "name": "",
          "type": "string"
        }
      ],
      "stateMutability": "payable",
      "type": "function"
    },
    {
      "inputs": [],
      "name": "mockFunctionWritesStorage",
      "outputs": [
        {
          "internalType": "string",
          "name": "",
          "type": "string"
        }
      ],
      "stateMutability": "nonpayable",
      "type": "function"
    },
    {
      "inputs": [],
      "name": "mockStaticFunction",
      "outputs": [
        {
          "internalType": "string",
          "name": "",
          "type": "string"
        }
      ],
      "stateMutability": "pure",
      "type": "function"
    },
    {
      "inputs": [],
      "name": "sharedAnswer",
      "outputs": [
        {
          "internalType": "string",
          "name": "",
          "type": "string"
        }
      ],
      "stateMutability": "view",
      "type": "function"
    }
  ],
  "bytecode": "0x608060405234801561001057600080fd5b5061053e806100206000396000f3fe6080604052600436106100915760003560e01c8063a793ab4711610059578063a793ab47146100e3578063aa04f77e146100eb578063c8fc769614610100578063fc40cf731461012f578063fdb273251461014457600080fd5b80630c034968146100965780630f63e42c146100a05780632c81d638146100cb5780633bcfaa14146100d35780633e6fec04146100db575b600080fd5b61009e610157565b005b3480156100ac57600080fd5b506100b56101a3565b6040516100c29190610417565b60405180910390f35b61009e600080fd5b61009e6101f0565b6100b56101a3565b61009e6101fa565b3480156100f757600080fd5b506100b5610241565b34801561010c57600080fd5b506040805180820190915260068152650c1e0c4c8ccd60d21b60208201526100b5565b34801561013b57600080fd5b506100b5610290565b6100b561015236600461046c565b61031e565b60405162461bcd60e51b815260206004820152601b60248201527f43616c6c52656365697665724d6f636b3a20726576657274696e670000000000604482015260640160405180910390fd5b6040516060907f52c66ed6ec9ca819cba26fe2b2650059270d8981b295af300187a964f54a8c2390600090a1506040805180820190915260068152650c1e0c4c8ccd60d21b602082015290565b6101f861048e565b565b60005b6001805480820182556000919091527fb10e2d527612073b26eecdfd717e6a320cf44b4afac2b0732d9fcbe2b7fa0cf60181905561023a816104a4565b90506101fd565b604080518082019091526002808252611a1960f11b602090920191825260609161026e916000919061037e565b50506040805180820190915260068152650c1e0c4c8ccd60d21b602082015290565b6000805461029d906104cd565b80601f01602080910402602001604051908101604052809291908181526020018280546102c9906104cd565b80156103165780601f106102eb57610100808354040283529160200191610316565b820191906000526020600020905b8154815290600101906020018083116102f957829003601f168201915b505050505081565b60408051838152602081018390526060917f2b42b3c9af4187c86225f201736204c7597312c830cb5c2537dff6ef24b946ae910160405180910390a1506040805180820190915260068152650c1e0c4c8ccd60d21b602082015292915050565b82805461038a906104cd565b90600052602060002090601f0160209004810192826103ac57600085556103f2565b82601f106103c557805160ff19168380011785556103f2565b828001600101855582156103f2579182015b828111156103f25782518255916020019190600101906103d7565b506103fe929150610402565b5090565b5b808211156103fe5760008155600101610403565b600060208083528351808285015260005b8181101561044457858101830151858201604001528201610428565b81811115610456576000604083870101525b50601f01601f1916929092016040019392505050565b6000806040838503121561047f57600080fd5b50508035926020909101359150565b634e487b7160e01b600052600160045260246000fd5b60006000198214156104c657634e487b7160e01b600052601160045260246000fd5b5060010190565b600181811c908216806104e157607f821691505b6020821081141561050257634e487b7160e01b600052602260045260246000fd5b5091905056fea2646970667358221220d44633abd1b16d9b1179450885f6e63267aa558dfbcc38e8e376a6335f697ba264736f6c63430008090033",
  "linkReferences": {},
  "deployedLinkReferences": {}
}