{
  "_format": "hh-sol-artifact-1",
  "contractName": "SampleGramps",
  "sourceName": "contracts/mocks/MultipleInheritanceInitializableMocks.sol",
  "abi": [
    {
      "inputs": [],
      "name": "gramps",
      "outputs": [
        {
          "internalType": "string",
          "name": "",
          "type": "string"
        }
      ],
      "stateMutability": "view",
      "type": "function"
    },
    {
      "inputs": [],
      "name": "initialize",
      "outputs": [],
      "stateMutability": "nonpayable",
      "type": "function"
    },
    {
      "inputs": [
        {
          "internalType": "string",
          "name": "value",
          "type": "string"
        }
      ],
      "name": "initialize",
      "outputs": [],
      "stateMutability": "nonpayable",
      "type": "function"
    },
    {
      "inputs": [],
      "name": "isHuman",
      "outputs": [
        {
          "internalType": "bool",
          "name": "",
          "type": "bool"
        }
      ],
      "stateMutability": "view",
      "type": "function"
    }
  ],
  "bytecode": "0x608060405234801561001057600080fd5b506105cf806100206000396000f3fe608060405234801561001057600080fd5b506004361061004c5760003560e01c80634a6c9db6146100515780638129fc1c14610079578063f62d188814610083578063fa39851f14610096575b600080fd5b6000546100649062010000900460ff1681565b60405190151581526020015b60405180910390f35b6100816100ab565b005b6100816100913660046103bf565b61012e565b61009e6101aa565b6040516100709190610470565b600054610100900460ff166100c65760005460ff16156100ca565b303b155b6100ef5760405162461bcd60e51b81526004016100e6906104c5565b60405180910390fd5b600054610100900460ff16158015610111576000805461ffff19166101011790555b610119610238565b801561012b576000805461ff00191690555b50565b600054610100900460ff166101495760005460ff161561014d565b303b155b6101695760405162461bcd60e51b81526004016100e6906104c5565b600054610100900460ff1615801561018b576000805461ffff19166101011790555b61019482610269565b80156101a6576000805461ff00191690555b5050565b600180546101b790610513565b80601f01602080910402602001604051908101604052809291908181526020018280546101e390610513565b80156102305780601f1061020557610100808354040283529160200191610230565b820191906000526020600020905b81548152906001019060200180831161021357829003601f168201915b505050505081565b600054610100900460ff1661025f5760405162461bcd60e51b81526004016100e69061054e565b6102676102a1565b565b600054610100900460ff166102905760405162461bcd60e51b81526004016100e69061054e565b610298610238565b61012b816102db565b600054610100900460ff166102c85760405162461bcd60e51b81526004016100e69061054e565b6000805462ff0000191662010000179055565b600054610100900460ff166103025760405162461bcd60e51b81526004016100e69061054e565b80516101a690600190602084019082805461031c90610513565b90600052602060002090601f01602090048101928261033e5760008555610384565b82601f1061035757805160ff1916838001178555610384565b82800160010185558215610384579182015b82811115610384578251825591602001919060010190610369565b50610390929150610394565b5090565b5b808211156103905760008155600101610395565b634e487b7160e01b600052604160045260246000fd5b6000602082840312156103d157600080fd5b813567ffffffffffffffff808211156103e957600080fd5b818401915084601f8301126103fd57600080fd5b81358181111561040f5761040f6103a9565b604051601f8201601f19908116603f01168101908382118183101715610437576104376103a9565b8160405282815287602084870101111561045057600080fd5b826020860160208301376000928101602001929092525095945050505050565b600060208083528351808285015260005b8181101561049d57858101830151858201604001528201610481565b818111156104af576000604083870101525b50601f01601f1916929092016040019392505050565b6020808252602e908201527f496e697469616c697a61626c653a20636f6e747261637420697320616c72656160408201526d191e481a5b9a5d1a585b1a5e995960921b606082015260800190565b600181811c9082168061052757607f821691505b6020821081141561054857634e487b7160e01b600052602260045260246000fd5b50919050565b6020808252602b908201527f496e697469616c697a61626c653a20636f6e7472616374206973206e6f74206960408201526a6e697469616c697a696e6760a81b60608201526080019056fea2646970667358221220c4c62b83823a71111d78ef7016bba11cf3de0223de74f9cf468f1897e9025bb264736f6c63430008090033",
  "linkReferences": {},
  "deployedLinkReferences": {}
}