{
  "_format": "hh-sol-artifact-1",
  "contractName": "SampleFather",
  "sourceName": "contracts/mocks/MultipleInheritanceInitializableMocks.sol",
  "abi": [
    {
      "inputs": [],
      "name": "father",
      "outputs": [
        {
          "internalType": "uint256",
          "name": "",
          "type": "uint256"
        }
      ],
      "stateMutability": "view",
      "type": "function"
    },
    {
      "inputs": [],
      "name": "gramps",
      "outputs": [
        {
          "internalType": "string",
          "name": "",
          "type": "string"
        }
      ],
      "stateMutability": "view",
      "type": "function"
    },
    {
      "inputs": [],
      "name": "initialize",
      "outputs": [],
      "stateMutability": "nonpayable",
      "type": "function"
    },
    {
      "inputs": [
        {
          "internalType": "string",
          "name": "_gramps",
          "type": "string"
        },
        {
          "internalType": "uint256",
          "name": "_father",
          "type": "uint256"
        }
      ],
      "name": "initialize",
      "outputs": [],
      "stateMutability": "nonpayable",
      "type": "function"
    },
    {
      "inputs": [
        {
          "internalType": "string",
          "name": "value",
          "type": "string"
        }
      ],
      "name": "initialize",
      "outputs": [],
      "stateMutability": "nonpayable",
      "type": "function"
    },
    {
      "inputs": [],
      "name": "isHuman",
      "outputs": [
        {
          "internalType": "bool",
          "name": "",
          "type": "bool"
        }
      ],
      "stateMutability": "view",
      "type": "function"
    }
  ],
  "bytecode": "0x608060405234801561001057600080fd5b50610750806100206000396000f3fe608060405234801561001057600080fd5b50600436106100625760003560e01c80631c8aca3b146100675780634a6c9db6146100835780638129fc1c146100a65780638beaf7d7146100b0578063f62d1888146100c3578063fa39851f146100d6575b600080fd5b61007060025481565b6040519081526020015b60405180910390f35b6000546100969062010000900460ff1681565b604051901515815260200161007a565b6100ae6100eb565b005b6100ae6100be36600461056f565b61016e565b6100ae6100d13660046105b4565b6101ec565b6100de610268565b60405161007a91906105f1565b600054610100900460ff166101065760005460ff161561010a565b303b155b61012f5760405162461bcd60e51b815260040161012690610646565b60405180910390fd5b600054610100900460ff16158015610151576000805461ffff19166101011790555b6101596102f6565b801561016b576000805461ff00191690555b50565b600054610100900460ff166101895760005460ff161561018d565b303b155b6101a95760405162461bcd60e51b815260040161012690610646565b600054610100900460ff161580156101cb576000805461ffff19166101011790555b6101d58383610327565b80156101e7576000805461ff00191690555b505050565b600054610100900460ff166102075760005460ff161561020b565b303b155b6102275760405162461bcd60e51b815260040161012690610646565b600054610100900460ff16158015610249576000805461ffff19166101011790555b61025282610360565b8015610264576000805461ff00191690555b5050565b6001805461027590610694565b80601f01602080910402602001604051908101604052809291908181526020018280546102a190610694565b80156102ee5780601f106102c3576101008083540402835291602001916102ee565b820191906000526020600020905b8154815290600101906020018083116102d157829003601f168201915b505050505081565b600054610100900460ff1661031d5760405162461bcd60e51b8152600401610126906106cf565b610325610398565b565b600054610100900460ff1661034e5760405162461bcd60e51b8152600401610126906106cf565b61035782610360565b610264816103d2565b600054610100900460ff166103875760405162461bcd60e51b8152600401610126906106cf565b61038f6102f6565b61016b816103fe565b600054610100900460ff166103bf5760405162461bcd60e51b8152600401610126906106cf565b6000805462ff0000191662010000179055565b600054610100900460ff166103f95760405162461bcd60e51b8152600401610126906106cf565b600255565b600054610100900460ff166104255760405162461bcd60e51b8152600401610126906106cf565b805161026490600190602084019082805461043f90610694565b90600052602060002090601f01602090048101928261046157600085556104a7565b82601f1061047a57805160ff19168380011785556104a7565b828001600101855582156104a7579182015b828111156104a757825182559160200191906001019061048c565b506104b39291506104b7565b5090565b5b808211156104b357600081556001016104b8565b634e487b7160e01b600052604160045260246000fd5b600082601f8301126104f357600080fd5b813567ffffffffffffffff8082111561050e5761050e6104cc565b604051601f8301601f19908116603f01168101908282118183101715610536576105366104cc565b8160405283815286602085880101111561054f57600080fd5b836020870160208301376000602085830101528094505050505092915050565b6000806040838503121561058257600080fd5b823567ffffffffffffffff81111561059957600080fd5b6105a5858286016104e2565b95602094909401359450505050565b6000602082840312156105c657600080fd5b813567ffffffffffffffff8111156105dd57600080fd5b6105e9848285016104e2565b949350505050565b600060208083528351808285015260005b8181101561061e57858101830151858201604001528201610602565b81811115610630576000604083870101525b50601f01601f1916929092016040019392505050565b6020808252602e908201527f496e697469616c697a61626c653a20636f6e747261637420697320616c72656160408201526d191e481a5b9a5d1a585b1a5e995960921b606082015260800190565b600181811c908216806106a857607f821691505b602082108114156106c957634e487b7160e01b600052602260045260246000fd5b50919050565b6020808252602b908201527f496e697469616c697a61626c653a20636f6e7472616374206973206e6f74206960408201526a6e697469616c697a696e6760a81b60608201526080019056fea2646970667358221220186c50399c9c146fbd82dd2550bc0adf0e4b27683c5e44653dbbb16481eca01764736f6c63430008090033",
  "linkReferences": {},
  "deployedLinkReferences": {}
}