{
  "_format": "hh-sol-artifact-1",
  "contractName": "SignedMathMock",
  "sourceName": "contracts/mocks/SignedMathMock.sol",
  "abi": [
    {
      "inputs": [
        {
          "internalType": "int256",
          "name": "n",
          "type": "int256"
        }
      ],
      "name": "abs",
      "outputs": [
        {
          "internalType": "uint256",
          "name": "",
          "type": "uint256"
        }
      ],
      "stateMutability": "pure",
      "type": "function"
    },
    {
      "inputs": [
        {
          "internalType": "int256",
          "name": "a",
          "type": "int256"
        },
        {
          "internalType": "int256",
          "name": "b",
          "type": "int256"
        }
      ],
      "name": "average",
      "outputs": [
        {
          "internalType": "int256",
          "name": "",
          "type": "int256"
        }
      ],
      "stateMutability": "pure",
      "type": "function"
    },
    {
      "inputs": [
        {
          "internalType": "int256",
          "name": "a",
          "type": "int256"
        },
        {
          "internalType": "int256",
          "name": "b",
          "type": "int256"
        }
      ],
      "name": "max",
      "outputs": [
        {
          "internalType": "int256",
          "name": "",
          "type": "int256"
        }
      ],
      "stateMutability": "pure",
      "type": "function"
    },
    {
      "inputs": [
        {
          "internalType": "int256",
          "name": "a",
          "type": "int256"
        },
        {
          "internalType": "int256",
          "name": "b",
          "type": "int256"
        }
      ],
      "name": "min",
      "outputs": [
        {
          "internalType": "int256",
          "name": "",
          "type": "int256"
        }
      ],
      "stateMutability": "pure",
      "type": "function"
    }
  ],
  "bytecode": "0x608060405234801561001057600080fd5b50610220806100206000396000f3fe608060405234801561001057600080fd5b506004361061004c5760003560e01c80631b5ac4b51461005157806329aa9cbe146100765780637f0bb2921461008957806381fe57861461009c575b600080fd5b61006461005f366004610158565b6100af565b60405190815260200160405180910390f35b610064610084366004610171565b6100c0565b610064610097366004610171565b6100d3565b6100646100aa366004610171565b6100df565b60006100ba826100eb565b92915050565b60006100cc8383610102565b9392505050565b60006100cc8383610118565b60006100cc8383610148565b6000808212156100fe57816000036100ba565b5090565b600081831261011157816100cc565b5090919050565b60008061012c84841860011d8585166101a9565b905061014060ff82901c85851816826101a9565b949350505050565b60008183121561011157816100cc565b60006020828403121561016a57600080fd5b5035919050565b6000806040838503121561018457600080fd5b50508035926020909101359150565b634e487b7160e01b600052601160045260246000fd5b600080821280156001600160ff1b03849003851316156101cb576101cb610193565b600160ff1b83900384128116156101e4576101e4610193565b5050019056fea264697066735822122048b42b9bcc4ebc8811545e2f567ecac14a82383e7bff2e84c766f01e6df7184864736f6c63430008090033",
  "linkReferences": {},
  "deployedLinkReferences": {}
}