{
  "_format": "hh-sol-artifact-1",
  "contractName": "GovernorMock",
  "sourceName": "contracts/mocks/GovernorMock.sol",
  "abi": [
    {
      "inputs": [
        {
          "internalType": "string",
          "name": "name_",
          "type": "string"
        },
        {
          "internalType": "contract IVotes",
          "name": "token_",
          "type": "address"
        },
        {
          "internalType": "uint256",
          "name": "votingDelay_",
          "type": "uint256"
        },
        {
          "internalType": "uint256",
          "name": "votingPeriod_",
          "type": "uint256"
        },
        {
          "internalType": "uint256",
          "name": "quorumNumerator_",
          "type": "uint256"
        }
      ],
      "stateMutability": "nonpayable",
      "type": "constructor"
    },
    {
      "inputs": [],
      "name": "Empty",
      "type": "error"
    },
    {
      "anonymous": false,
      "inputs": [
        {
          "indexed": false,
          "internalType": "uint256",
          "name": "proposalId",
          "type": "uint256"
        }
      ],
      "name": "ProposalCanceled",
      "type": "event"
    },
    {
      "anonymous": false,
      "inputs": [
        {
          "indexed": false,
          "internalType": "uint256",
          "name": "proposalId",
          "type": "uint256"
        },
        {
          "indexed": false,
          "internalType": "address",
          "name": "proposer",
          "type": "address"
        },
        {
          "indexed": false,
          "internalType": "address[]",
          "name": "targets",
          "type": "address[]"
        },
        {
          "indexed": false,
          "internalType": "uint256[]",
          "name": "values",
          "type": "uint256[]"
        },
        {
          "indexed": false,
          "internalType": "string[]",
          "name": "signatures",
          "type": "string[]"
        },
        {
          "indexed": false,
          "internalType": "bytes[]",
          "name": "calldatas",
          "type": "bytes[]"
        },
        {
          "indexed": false,
          "internalType": "uint256",
          "name": "startBlock",
          "type": "uint256"
        },
        {
          "indexed": false,
          "internalType": "uint256",
          "name": "endBlock",
          "type": "uint256"
        },
        {
          "indexed": false,
          "internalType": "string",
          "name": "description",
          "type": "string"
        }
      ],
      "name": "ProposalCreated",
      "type": "event"
    },
    {
      "anonymous": false,
      "inputs": [
        {
          "indexed": false,
          "internalType": "uint256",
          "name": "proposalId",
          "type": "uint256"
        }
      ],
      "name": "ProposalExecuted",
      "type": "event"
    },
    {
      "anonymous": false,
      "inputs": [
        {
          "indexed": false,
          "internalType": "uint256",
          "name": "oldProposalThreshold",
          "type": "uint256"
        },
        {
          "indexed": false,
          "internalType": "uint256",
          "name": "newProposalThreshold",
          "type": "uint256"
        }
      ],
      "name": "ProposalThresholdSet",
      "type": "event"
    },
    {
      "anonymous": false,
      "inputs": [
        {
          "indexed": false,
          "internalType": "uint256",
          "name": "oldQuorumNumerator",
          "type": "uint256"
        },
        {
          "indexed": false,
          "internalType": "uint256",
          "name": "newQuorumNumerator",
          "type": "uint256"
        }
      ],
      "name": "QuorumNumeratorUpdated",
      "type": "event"
    },
    {
      "anonymous": false,
      "inputs": [
        {
          "indexed": true,
          "internalType": "address",
          "name": "voter",
          "type": "address"
        },
        {
          "indexed": false,
          "internalType": "uint256",
          "name": "proposalId",
          "type": "uint256"
        },
        {
          "indexed": false,
          "internalType": "uint8",
          "name": "support",
          "type": "uint8"
        },
        {
          "indexed": false,
          "internalType": "uint256",
          "name": "weight",
          "type": "uint256"
        },
        {
          "indexed": false,
          "internalType": "string",
          "name": "reason",
          "type": "string"
        }
      ],
      "name": "VoteCast",
      "type": "event"
    },
    {
      "anonymous": false,
      "inputs": [
        {
          "indexed": false,
          "internalType": "uint256",
          "name": "oldVotingDelay",
          "type": "uint256"
        },
        {
          "indexed": false,
          "internalType": "uint256",
          "name": "newVotingDelay",
          "type": "uint256"
        }
      ],
      "name": "VotingDelaySet",
      "type": "event"
    },
    {
      "anonymous": false,
      "inputs": [
        {
          "indexed": false,
          "internalType": "uint256",
          "name": "oldVotingPeriod",
          "type": "uint256"
        },
        {
          "indexed": false,
          "internalType": "uint256",
          "name": "newVotingPeriod",
          "type": "uint256"
        }
      ],
      "name": "VotingPeriodSet",
      "type": "event"
    },
    {
      "inputs": [],
      "name": "BALLOT_TYPEHASH",
      "outputs": [
        {
          "internalType": "bytes32",
          "name": "",
          "type": "bytes32"
        }
      ],
      "stateMutability": "view",
      "type": "function"
    },
    {
      "inputs": [],
      "name": "COUNTING_MODE",
      "outputs": [
        {
          "internalType": "string",
          "name": "",
          "type": "string"
        }
      ],
      "stateMutability": "pure",
      "type": "function"
    },
    {
      "inputs": [
        {
          "internalType": "address[]",
          "name": "targets",
          "type": "address[]"
        },
        {
          "internalType": "uint256[]",
          "name": "values",
          "type": "uint256[]"
        },
        {
          "internalType": "bytes[]",
          "name": "calldatas",
          "type": "bytes[]"
        },
        {
          "internalType": "bytes32",
          "name": "salt",
          "type": "bytes32"
        }
      ],
      "name": "cancel",
      "outputs": [
        {
          "internalType": "uint256",
          "name": "proposalId",
          "type": "uint256"
        }
      ],
      "stateMutability": "nonpayable",
      "type": "function"
    },
    {
      "inputs": [
        {
          "internalType": "uint256",
          "name": "proposalId",
          "type": "uint256"
        },
        {
          "internalType": "uint8",
          "name": "support",
          "type": "uint8"
        }
      ],
      "name": "castVote",
      "outputs": [
        {
          "internalType": "uint256",
          "name": "",
          "type": "uint256"
        }
      ],
      "stateMutability": "nonpayable",
      "type": "function"
    },
    {
      "inputs": [
        {
          "internalType": "uint256",
          "name": "proposalId",
          "type": "uint256"
        },
        {
          "internalType": "uint8",
          "name": "support",
          "type": "uint8"
        },
        {
          "internalType": "uint8",
          "name": "v",
          "type": "uint8"
        },
        {
          "internalType": "bytes32",
          "name": "r",
          "type": "bytes32"
        },
        {
          "internalType": "bytes32",
          "name": "s",
          "type": "bytes32"
        }
      ],
      "name": "castVoteBySig",
      "outputs": [
        {
          "internalType": "uint256",
          "name": "",
          "type": "uint256"
        }
      ],
      "stateMutability": "nonpayable",
      "type": "function"
    },
    {
      "inputs": [
        {
          "internalType": "uint256",
          "name": "proposalId",
          "type": "uint256"
        },
        {
          "internalType": "uint8",
          "name": "support",
          "type": "uint8"
        },
        {
          "internalType": "string",
          "name": "reason",
          "type": "string"
        }
      ],
      "name": "castVoteWithReason",
      "outputs": [
        {
          "internalType": "uint256",
          "name": "",
          "type": "uint256"
        }
      ],
      "stateMutability": "nonpayable",
      "type": "function"
    },
    {
      "inputs": [
        {
          "internalType": "address[]",
          "name": "targets",
          "type": "address[]"
        },
        {
          "internalType": "uint256[]",
          "name": "values",
          "type": "uint256[]"
        },
        {
          "internalType": "bytes[]",
          "name": "calldatas",
          "type": "bytes[]"
        },
        {
          "internalType": "bytes32",
          "name": "descriptionHash",
          "type": "bytes32"
        }
      ],
      "name": "execute",
      "outputs": [
        {
          "internalType": "uint256",
          "name": "",
          "type": "uint256"
        }
      ],
      "stateMutability": "payable",
      "type": "function"
    },
    {
      "inputs": [
        {
          "internalType": "address",
          "name": "account",
          "type": "address"
        },
        {
          "internalType": "uint256",
          "name": "blockNumber",
          "type": "uint256"
        }
      ],
      "name": "getVotes",
      "outputs": [
        {
          "internalType": "uint256",
          "name": "",
          "type": "uint256"
        }
      ],
      "stateMutability": "view",
      "type": "function"
    },
    {
      "inputs": [
        {
          "internalType": "uint256",
          "name": "proposalId",
          "type": "uint256"
        },
        {
          "internalType": "address",
          "name": "account",
          "type": "address"
        }
      ],
      "name": "hasVoted",
      "outputs": [
        {
          "internalType": "bool",
          "name": "",
          "type": "bool"
        }
      ],
      "stateMutability": "view",
      "type": "function"
    },
    {
      "inputs": [
        {
          "internalType": "address[]",
          "name": "targets",
          "type": "address[]"
        },
        {
          "internalType": "uint256[]",
          "name": "values",
          "type": "uint256[]"
        },
        {
          "internalType": "bytes[]",
          "name": "calldatas",
          "type": "bytes[]"
        },
        {
          "internalType": "bytes32",
          "name": "descriptionHash",
          "type": "bytes32"
        }
      ],
      "name": "hashProposal",
      "outputs": [
        {
          "internalType": "uint256",
          "name": "",
          "type": "uint256"
        }
      ],
      "stateMutability": "pure",
      "type": "function"
    },
    {
      "inputs": [],
      "name": "name",
      "outputs": [
        {
          "internalType": "string",
          "name": "",
          "type": "string"
        }
      ],
      "stateMutability": "view",
      "type": "function"
    },
    {
      "inputs": [
        {
          "internalType": "uint256",
          "name": "proposalId",
          "type": "uint256"
        }
      ],
      "name": "proposalDeadline",
      "outputs": [
        {
          "internalType": "uint256",
          "name": "",
          "type": "uint256"
        }
      ],
      "stateMutability": "view",
      "type": "function"
    },
    {
      "inputs": [
        {
          "internalType": "uint256",
          "name": "proposalId",
          "type": "uint256"
        }
      ],
      "name": "proposalSnapshot",
      "outputs": [
        {
          "internalType": "uint256",
          "name": "",
          "type": "uint256"
        }
      ],
      "stateMutability": "view",
      "type": "function"
    },
    {
      "inputs": [],
      "name": "proposalThreshold",
      "outputs": [
        {
          "internalType": "uint256",
          "name": "",
          "type": "uint256"
        }
      ],
      "stateMutability": "view",
      "type": "function"
    },
    {
      "inputs": [
        {
          "internalType": "uint256",
          "name": "proposalId",
          "type": "uint256"
        }
      ],
      "name": "proposalVotes",
      "outputs": [
        {
          "internalType": "uint256",
          "name": "againstVotes",
          "type": "uint256"
        },
        {
          "internalType": "uint256",
          "name": "forVotes",
          "type": "uint256"
        },
        {
          "internalType": "uint256",
          "name": "abstainVotes",
          "type": "uint256"
        }
      ],
      "stateMutability": "view",
      "type": "function"
    },
    {
      "inputs": [
        {
          "internalType": "address[]",
          "name": "targets",
          "type": "address[]"
        },
        {
          "internalType": "uint256[]",
          "name": "values",
          "type": "uint256[]"
        },
        {
          "internalType": "bytes[]",
          "name": "calldatas",
          "type": "bytes[]"
        },
        {
          "internalType": "string",
          "name": "description",
          "type": "string"
        }
      ],
      "name": "propose",
      "outputs": [
        {
          "internalType": "uint256",
          "name": "",
          "type": "uint256"
        }
      ],
      "stateMutability": "nonpayable",
      "type": "function"
    },
    {
      "inputs": [
        {
          "internalType": "uint256",
          "name": "blockNumber",
          "type": "uint256"
        }
      ],
      "name": "quorum",
      "outputs": [
        {
          "internalType": "uint256",
          "name": "",
          "type": "uint256"
        }
      ],
      "stateMutability": "view",
      "type": "function"
    },
    {
      "inputs": [],
      "name": "quorumDenominator",
      "outputs": [
        {
          "internalType": "uint256",
          "name": "",
          "type": "uint256"
        }
      ],
      "stateMutability": "view",
      "type": "function"
    },
    {
      "inputs": [],
      "name": "quorumNumerator",
      "outputs": [
        {
          "internalType": "uint256",
          "name": "",
          "type": "uint256"
        }
      ],
      "stateMutability": "view",
      "type": "function"
    },
    {
      "inputs": [
        {
          "internalType": "address",
          "name": "target",
          "type": "address"
        },
        {
          "internalType": "uint256",
          "name": "value",
          "type": "uint256"
        },
        {
          "internalType": "bytes",
          "name": "data",
          "type": "bytes"
        }
      ],
      "name": "relay",
      "outputs": [],
      "stateMutability": "nonpayable",
      "type": "function"
    },
    {
      "inputs": [
        {
          "internalType": "uint256",
          "name": "newProposalThreshold",
          "type": "uint256"
        }
      ],
      "name": "setProposalThreshold",
      "outputs": [],
      "stateMutability": "nonpayable",
      "type": "function"
    },
    {
      "inputs": [
        {
          "internalType": "uint256",
          "name": "newVotingDelay",
          "type": "uint256"
        }
      ],
      "name": "setVotingDelay",
      "outputs": [],
      "stateMutability": "nonpayable",
      "type": "function"
    },
    {
      "inputs": [
        {
          "internalType": "uint256",
          "name": "newVotingPeriod",
          "type": "uint256"
        }
      ],
      "name": "setVotingPeriod",
      "outputs": [],
      "stateMutability": "nonpayable",
      "type": "function"
    },
    {
      "inputs": [
        {
          "internalType": "uint256",
          "name": "proposalId",
          "type": "uint256"
        }
      ],
      "name": "state",
      "outputs": [
        {
          "internalType": "enum IGovernor.ProposalState",
          "name": "",
          "type": "uint8"
        }
      ],
      "stateMutability": "view",
      "type": "function"
    },
    {
      "inputs": [
        {
          "internalType": "bytes4",
          "name": "interfaceId",
          "type": "bytes4"
        }
      ],
      "name": "supportsInterface",
      "outputs": [
        {
          "internalType": "bool",
          "name": "",
          "type": "bool"
        }
      ],
      "stateMutability": "view",
      "type": "function"
    },
    {
      "inputs": [],
      "name": "token",
      "outputs": [
        {
          "internalType": "contract IVotes",
          "name": "",
          "type": "address"
        }
      ],
      "stateMutability": "view",
      "type": "function"
    },
    {
      "inputs": [
        {
          "internalType": "uint256",
          "name": "newQuorumNumerator",
          "type": "uint256"
        }
      ],
      "name": "updateQuorumNumerator",
      "outputs": [],
      "stateMutability": "nonpayable",
      "type": "function"
    },
    {
      "inputs": [],
      "name": "version",
      "outputs": [
        {
          "internalType": "string",
          "name": "",
          "type": "string"
        }
      ],
      "stateMutability": "view",
      "type": "function"
    },
    {
      "inputs": [],
      "name": "votingDelay",
      "outputs": [
        {
          "internalType": "uint256",
          "name": "",
          "type": "uint256"
        }
      ],
      "stateMutability": "view",
      "type": "function"
    },
    {
      "inputs": [],
      "name": "votingPeriod",
      "outputs": [
        {
          "internalType": "uint256",
          "name": "",
          "type": "uint256"
        }
      ],
      "stateMutability": "view",
      "type": "function"
    },
    {
      "stateMutability": "payable",
      "type": "receive"
    }
  ],
  "bytecode": "0x6101606040523480156200001257600080fd5b5060405162002fe638038062002fe6833981016040819052620000359162000419565b80848484600089806200005c6040805180820190915260018152603160f81b602082015290565b815160208084019190912082518383012060e08290526101008190524660a0818152604080517f8b73c3c69bb8fe3d512ecc4cf759cc79239f7b179b0ffacaa9a75d522b39400f81880181905281830187905260608201869052608082019490945230818401528151808203909301835260c00190528051940193909320919290916080523060c052610120525050825162000102925060009150602084019062000340565b50620001109050836200014d565b6200011b826200018e565b620001268162000235565b5050506001600160a01b031661014052620001418162000276565b50505050505062000562565b60045460408051918252602082018390527fc565b045403dc03c2eea82b81a0465edad9e2e7fc4d97e11421c209da93d7a93910160405180910390a1600455565b60008111620001f45760405162461bcd60e51b815260206004820152602760248201527f476f7665726e6f7253657474696e67733a20766f74696e6720706572696f6420604482015266746f6f206c6f7760c81b60648201526084015b60405180910390fd5b60055460408051918252602082018390527f7e3f7f0708a84de9203036abaa450dccc85ad5ff52f78c170f3edb55cf5e8828910160405180910390a1600555565b60065460408051918252602082018390527fccb45da8d5717e6c4544694297c4ba5cf151d455c9bb0ed4fc7a38411bc05461910160405180910390a1600655565b6064811115620002fb5760405162461bcd60e51b815260206004820152604360248201527f476f7665726e6f72566f74657351756f72756d4672616374696f6e3a2071756f60448201527f72756d4e756d657261746f72206f7665722071756f72756d44656e6f6d696e616064820152623a37b960e91b608482015260a401620001eb565b600780549082905560408051828152602081018490527f0553476bf02ef2726e8ce5ced78d63e26e602e4a2257b1f559418e24b4633997910160405180910390a15050565b8280546200034e9062000525565b90600052602060002090601f016020900481019282620003725760008555620003bd565b82601f106200038d57805160ff1916838001178555620003bd565b82800160010185558215620003bd579182015b82811115620003bd578251825591602001919060010190620003a0565b50620003cb929150620003cf565b5090565b5b80821115620003cb5760008155600101620003d0565b634e487b7160e01b600052604160045260246000fd5b80516001600160a01b03811681146200041457600080fd5b919050565b600080600080600060a086880312156200043257600080fd5b85516001600160401b03808211156200044a57600080fd5b818801915088601f8301126200045f57600080fd5b815181811115620004745762000474620003e6565b604051601f8201601f19908116603f011681019083821181831017156200049f576200049f620003e6565b81604052828152602093508b84848701011115620004bc57600080fd5b600091505b82821015620004e05784820184015181830185015290830190620004c1565b82821115620004f25760008484830101525b985062000504915050888201620003fc565b604089015160608a01516080909a0151989b919a5098979650945050505050565b600181811c908216806200053a57607f821691505b602082108114156200055c57634e487b7160e01b600052602260045260246000fd5b50919050565b60805160a05160c05160e051610100516101205161014051612a1b620005cb6000396000818161061d01528181610d07015261147b015260006116370152600061168601526000611661015260006115ba015260006115e40152600061160e0152612a1b6000f3fe6080604052600436106101d15760003560e01c80637b3c71d3116100f7578063c59057e411610095578063eb9019d411610064578063eb9019d4146105ab578063ece40cc1146105cb578063f8ce560a146105eb578063fc0c546a1461060b57600080fd5b8063c59057e4146104f1578063dd4e2ba514610511578063deaaa7cc14610557578063ea0217cf1461058b57600080fd5b8063a7713a70116100d1578063a7713a7014610487578063b58131b01461049c578063c01f9e37146104b1578063c28bc2fa146104d157600080fd5b80637b3c71d3146104335780637d5e81e21461045357806397c3d3341461047357600080fd5b80633bccf4fd1161016f578063544ffc9c1161013e578063544ffc9c1461037457806354fd4d50146103c957806356781388146103f357806370b0f6601461041357600080fd5b80633bccf4fd146102bd5780633e4f49e6146102dd578063438596321461030a578063452115d61461035457600080fd5b806306fdde03116101ab57806306fdde03146102535780632656227d146102755780632d63f693146102885780633932abb1146102a857600080fd5b806301ffc9a7146101df57806302a251a31461021457806306f3f9e61461023357600080fd5b366101da57005b005b600080fd5b3480156101eb57600080fd5b506101ff6101fa366004611f6a565b610657565b60405190151581526020015b60405180910390f35b34801561022057600080fd5b506005545b60405190815260200161020b565b34801561023f57600080fd5b506101d861024e366004611f94565b61068e565b34801561025f57600080fd5b506102686106de565b60405161020b9190612009565b610225610283366004612259565b610770565b34801561029457600080fd5b506102256102a3366004611f94565b610897565b3480156102b457600080fd5b50600454610225565b3480156102c957600080fd5b506102256102d83660046122f9565b6108ce565b3480156102e957600080fd5b506102fd6102f8366004611f94565b610962565b60405161020b919061235d565b34801561031657600080fd5b506101ff610325366004612385565b60008281526008602090815260408083206001600160a01b038516845260030190915290205460ff1692915050565b34801561036057600080fd5b5061022561036f366004612259565b610a6e565b34801561038057600080fd5b506103ae61038f366004611f94565b6000908152600860205260409020805460018201546002909201549092565b6040805193845260208401929092529082015260600161020b565b3480156103d557600080fd5b506040805180820190915260018152603160f81b6020820152610268565b3480156103ff57600080fd5b5061022561040e3660046123b1565b610a85565b34801561041f57600080fd5b506101d861042e366004611f94565b610aae565b34801561043f57600080fd5b5061022561044e36600461241c565b610af2565b34801561045f57600080fd5b5061022561046e366004612475565b610b44565b34801561047f57600080fd5b506064610225565b34801561049357600080fd5b50600754610225565b3480156104a857600080fd5b50610225610b52565b3480156104bd57600080fd5b506102256104cc366004611f94565b610b62565b3480156104dd57600080fd5b506101d86104ec366004612535565b610b91565b3480156104fd57600080fd5b5061022561050c366004612259565b610c15565b34801561051d57600080fd5b506040805180820190915260208082527f737570706f72743d627261766f2671756f72756d3d666f722c6162737461696e90820152610268565b34801561056357600080fd5b506102257f150214d74d59b7d1e90c73fc22ef3d991dd0a76b046543d4d80ab92d2a50328f81565b34801561059757600080fd5b506101d86105a6366004611f94565b610c4f565b3480156105b757600080fd5b506102256105c6366004612576565b610c93565b3480156105d757600080fd5b506101d86105e6366004611f94565b610ca6565b3480156105f757600080fd5b50610225610606366004611f94565b610cea565b34801561061757600080fd5b5061063f7f000000000000000000000000000000000000000000000000000000000000000081565b6040516001600160a01b03909116815260200161020b565b60006001600160e01b0319821663bf26d89760e01b148061068857506301ffc9a760e01b6001600160e01b03198316145b92915050565b3330146106b65760405162461bcd60e51b81526004016106ad906125a0565b60405180910390fd5b6106d2565b806106c66002610d9d565b146106d0576106bb565b505b6106db81610e1c565b50565b6060600080546106ed906125d7565b80601f0160208091040260200160405190810160405280929190818152602001828054610719906125d7565b80156107665780601f1061073b57610100808354040283529160200191610766565b820191906000526020600020905b81548152906001019060200180831161074957829003601f168201915b5050505050905090565b60008061077f86868686610c15565b9050600061078c82610962565b905060048160078111156107a2576107a2612347565b14806107bf575060058160078111156107bd576107bd612347565b145b6108155760405162461bcd60e51b815260206004820152602160248201527f476f7665726e6f723a2070726f706f73616c206e6f74207375636365737366756044820152601b60fa1b60648201526084016106ad565b600082815260016020818152604092839020600201805460ff191690921790915590518381527f712ae1383f79ac853f8d882153778e0260ef8f03b504e2866e0593e04d2b291f910160405180910390a16108738288888888610ee4565b6108808288888888610f71565b61088d8288888888610ee4565b5095945050505050565b60008181526001602090815260408083208151928301909152546001600160401b0316908190525b6001600160401b031692915050565b604080517f150214d74d59b7d1e90c73fc22ef3d991dd0a76b046543d4d80ab92d2a50328f602082015290810186905260ff85166060820152600090819061093a906109329060800160405160208183030381529060405280519060200120611070565b8686866110be565b9050610957878288604051806020016040528060008152506110dc565b979650505050505050565b6000818152600160205260408120600281015460ff16156109865750600792915050565b6002810154610100900460ff16156109a15750600292915050565b60006109ac84610897565b9050806109fb5760405162461bcd60e51b815260206004820152601d60248201527f476f7665726e6f723a20756e6b6e6f776e2070726f706f73616c20696400000060448201526064016106ad565b438110610a0c575060009392505050565b6000610a1785610b62565b9050438110610a2b57506001949350505050565b610a34856111e7565b8015610a53575060008581526008602052604090208054600190910154115b15610a6357506004949350505050565b506003949350505050565b6000610a7c8585858561121e565b95945050505050565b600080339050610aa6848285604051806020016040528060008152506110dc565b949350505050565b333014610acd5760405162461bcd60e51b81526004016106ad906125a0565b610ae9565b80610add6002610d9d565b14610ae757610ad2565b505b6106db8161133c565b600080339050610b3a86828787878080601f0160208091040260200160405190810160405280939291908181526020018383808284376000920191909152506110dc92505050565b9695505050505050565b6000610a7c8585858561137d565b6000610b5d60065490565b905090565b60008181526001602081815260408084208151928301909152909101546001600160401b0316908190526108bf565b333014610bb05760405162461bcd60e51b81526004016106ad906125a0565b610bcc565b80610bc06002610d9d565b14610bca57610bb5565b505b610c0e8483838080601f01602080910402602001604051908101604052809392919081815260200183838082843760009201919091525088925061138b915050565b5050505050565b600084848484604051602001610c2e94939291906126db565b60408051601f19818403018152919052805160209091012095945050505050565b333014610c6e5760405162461bcd60e51b81526004016106ad906125a0565b610c8a565b80610c7e6002610d9d565b14610c8857610c73565b505b6106db816113b1565b6000610c9f8383611452565b9392505050565b333014610cc55760405162461bcd60e51b81526004016106ad906125a0565b610ce1565b80610cd56002610d9d565b14610cdf57610cca565b505b6106db816114f7565b60006064600754604051632394e7a360e21b8152600481018590527f00000000000000000000000000000000000000000000000000000000000000006001600160a01b031690638e539e8c9060240160206040518083038186803b158015610d5157600080fd5b505afa158015610d65573d6000803e3d6000fd5b505050506040513d601f19601f82011682018060405250810190610d899190612726565b610d939190612755565b6106889190612774565b6000610db88254600f81810b600160801b909204900b131590565b15610dd657604051631ed9509560e11b815260040160405180910390fd5b508054600f0b6000818152600180840160205260408220805492905583546fffffffffffffffffffffffffffffffff191692016001600160801b03169190911790915590565b6064811115610e9f5760405162461bcd60e51b815260206004820152604360248201527f476f7665726e6f72566f74657351756f72756d4672616374696f6e3a2071756f60448201527f72756d4e756d657261746f72206f7665722071756f72756d44656e6f6d696e616064820152623a37b960e91b608482015260a4016106ad565b600780549082905560408051828152602081018490527f0553476bf02ef2726e8ce5ced78d63e26e602e4a2257b1f559418e24b4633997910160405180910390a15050565b610c0e565b8451811015610f6957306001600160a01b0316858281518110610f0e57610f0e612796565b60200260200101516001600160a01b03161415610f5957610f59838281518110610f3a57610f3a612796565b602002602001015180519060200120600261153890919063ffffffff16565b610f62816127ac565b9050610ee9565b505050505050565b600060405180606001604052806027815260200161299660279139905060005b855181101561106757600080878381518110610faf57610faf612796565b60200260200101516001600160a01b0316878481518110610fd257610fd2612796565b6020026020010151878581518110610fec57610fec612796565b602002602001015160405161100191906127c7565b60006040518083038185875af1925050503d806000811461103e576040519150601f19603f3d011682016040523d82523d6000602084013e611043565b606091505b5091509150611053828286611574565b50505080611060906127ac565b9050610f91565b50505050505050565b600061068861107d6115ad565b8360405161190160f01b6020820152602281018390526042810182905260009060620160405160208183030381529060405280519060200120905092915050565b60008060006110cf878787876116d4565b9150915061088d816117c1565b60008481526001602081905260408220906110f687610962565b600781111561110757611107612347565b146111605760405162461bcd60e51b815260206004820152602360248201527f476f7665726e6f723a20766f7465206e6f742063757272656e746c792061637460448201526269766560e81b60648201526084016106ad565b604080516020810190915281546001600160401b031690819052600090611188908790610c93565b90506111968787878461197c565b856001600160a01b03167fb8e138887d0aa13bab447e82de9d5c1777041ecd21ca36ba824ff1e6c07ddda4888784886040516111d594939291906127e3565b60405180910390a29695505050505050565b600081815260086020526040812060028101546001820154611209919061280b565b61121561060685610897565b11159392505050565b60008061122d86868686610c15565b9050600061123a82610962565b9050600281600781111561125057611250612347565b141580156112705750600681600781111561126d5761126d612347565b14155b801561128e5750600781600781111561128b5761128b612347565b14155b6112da5760405162461bcd60e51b815260206004820152601d60248201527f476f7665726e6f723a2070726f706f73616c206e6f742061637469766500000060448201526064016106ad565b60008281526001602052604090819020600201805461ff001916610100179055517f789cf55be980739dad1d0699b93b58e806b51c9d96619bfa8fe0a28abaa7b30c9061132a9084815260200190565b60405180910390a15095945050505050565b60045460408051918252602082018390527fc565b045403dc03c2eea82b81a0465edad9e2e7fc4d97e11421c209da93d7a93910160405180910390a1600455565b6000610a7c85858585611afb565b6060610aa68484846040518060600160405280602981526020016129bd60299139611dd8565b600081116114115760405162461bcd60e51b815260206004820152602760248201527f476f7665726e6f7253657474696e67733a20766f74696e6720706572696f6420604482015266746f6f206c6f7760c81b60648201526084016106ad565b60055460408051918252602082018390527f7e3f7f0708a84de9203036abaa450dccc85ad5ff52f78c170f3edb55cf5e8828910160405180910390a1600555565b604051630748d63560e31b81526001600160a01b038381166004830152602482018390526000917f000000000000000000000000000000000000000000000000000000000000000090911690633a46b1a89060440160206040518083038186803b1580156114bf57600080fd5b505afa1580156114d3573d6000803e3d6000fd5b505050506040513d601f19601f82011682018060405250810190610c9f9190612726565b60065460408051918252602082018390527fccb45da8d5717e6c4544694297c4ba5cf151d455c9bb0ed4fc7a38411bc05461910160405180910390a1600655565b8154600160801b90819004600f0b6000818152600180860160205260409091209390935583546001600160801b03908116939091011602179055565b60608315611583575081610c9f565b8251156115935782518084602001fd5b8160405162461bcd60e51b81526004016106ad9190612009565b6000306001600160a01b037f00000000000000000000000000000000000000000000000000000000000000001614801561160657507f000000000000000000000000000000000000000000000000000000000000000046145b1561163057507f000000000000000000000000000000000000000000000000000000000000000090565b50604080517f00000000000000000000000000000000000000000000000000000000000000006020808301919091527f0000000000000000000000000000000000000000000000000000000000000000828401527f000000000000000000000000000000000000000000000000000000000000000060608301524660808301523060a0808401919091528351808403909101815260c0909201909252805191012090565b6000807f7fffffffffffffffffffffffffffffff5d576e7357a4501ddfe92f46681b20a083111561170b57506000905060036117b8565b8460ff16601b1415801561172357508460ff16601c14155b1561173457506000905060046117b8565b6040805160008082526020820180845289905260ff881692820192909252606081018690526080810185905260019060a0016020604051602081039080840390855afa158015611788573d6000803e3d6000fd5b5050604051601f1901519150506001600160a01b0381166117b1576000600192509250506117b8565b9150600090505b94509492505050565b60008160048111156117d5576117d5612347565b14156117de5750565b60018160048111156117f2576117f2612347565b14156118405760405162461bcd60e51b815260206004820152601860248201527f45434453413a20696e76616c6964207369676e6174757265000000000000000060448201526064016106ad565b600281600481111561185457611854612347565b14156118a25760405162461bcd60e51b815260206004820152601f60248201527f45434453413a20696e76616c6964207369676e6174757265206c656e6774680060448201526064016106ad565b60038160048111156118b6576118b6612347565b141561190f5760405162461bcd60e51b815260206004820152602260248201527f45434453413a20696e76616c6964207369676e6174757265202773272076616c604482015261756560f01b60648201526084016106ad565b600481600481111561192357611923612347565b14156106db5760405162461bcd60e51b815260206004820152602260248201527f45434453413a20696e76616c6964207369676e6174757265202776272076616c604482015261756560f01b60648201526084016106ad565b60008481526008602090815260408083206001600160a01b0387168452600381019092529091205460ff1615611a045760405162461bcd60e51b815260206004820152602760248201527f476f7665726e6f72566f74696e6753696d706c653a20766f746520616c726561604482015266191e4818d85cdd60ca1b60648201526084016106ad565b6001600160a01b03841660009081526003820160205260408120805460ff1916600117905560ff168360ff161415611a555781816000016000828254611a4a919061280b565b90915550610c0e9050565b60ff831660011415611a755781816001016000828254611a4a919061280b565b60ff831660021415611a955781816002016000828254611a4a919061280b565b60405162461bcd60e51b815260206004820152603560248201527f476f7665726e6f72566f74696e6753696d706c653a20696e76616c69642076616044820152746c756520666f7220656e756d20566f74655479706560581b60648201526084016106ad565b6000611b05610b52565b611b14336105c6600143612823565b1015611b945760405162461bcd60e51b815260206004820152604360248201527f476f7665726e6f72436f6d7061746962696c697479427261766f3a2070726f7060448201527f6f73657220766f7465732062656c6f772070726f706f73616c207468726573686064820152621bdb1960ea1b608482015260a4016106ad565b6000611ba98686868680519060200120610c15565b90508451865114611bcc5760405162461bcd60e51b81526004016106ad9061283a565b8351865114611bed5760405162461bcd60e51b81526004016106ad9061283a565b6000865111611c3e5760405162461bcd60e51b815260206004820152601860248201527f476f7665726e6f723a20656d7074792070726f706f73616c000000000000000060448201526064016106ad565b600081815260016020908152604091829020825191820190925281546001600160401b03169081905215611cbe5760405162461bcd60e51b815260206004820152602160248201527f476f7665726e6f723a2070726f706f73616c20616c72656164792065786973746044820152607360f81b60648201526084016106ad565b6000611cd1611ccc60045490565b611efe565b611cda43611efe565b611ce4919061287b565b90506000611cf4611ccc60055490565b611cfe908361287b565b835467ffffffffffffffff19166001600160401b038416178455905060018301805467ffffffffffffffff19166001600160401b0383161790557f7d84a6263ae0d98d3329bd7b46bb4e8d6f98cd35a7adb45c274c8b7fd5ebd5e084338b8b8d516001600160401b03811115611d7657611d7661201c565b604051908082528060200260200182016040528015611da957816020015b6060815260200190600190039081611d945790505b508c88888e604051611dc3999897969594939291906128a6565b60405180910390a15091979650505050505050565b606082471015611e395760405162461bcd60e51b815260206004820152602660248201527f416464726573733a20696e73756666696369656e742062616c616e636520666f6044820152651c8818d85b1b60d21b60648201526084016106ad565b6001600160a01b0385163b611e905760405162461bcd60e51b815260206004820152601d60248201527f416464726573733a2063616c6c20746f206e6f6e2d636f6e747261637400000060448201526064016106ad565b600080866001600160a01b03168587604051611eac91906127c7565b60006040518083038185875af1925050503d8060008114611ee9576040519150601f19603f3d011682016040523d82523d6000602084013e611eee565b606091505b5091509150610957828286611574565b60006001600160401b03821115611f665760405162461bcd60e51b815260206004820152602660248201527f53616665436173743a2076616c756520646f65736e27742066697420696e203660448201526534206269747360d01b60648201526084016106ad565b5090565b600060208284031215611f7c57600080fd5b81356001600160e01b031981168114610c9f57600080fd5b600060208284031215611fa657600080fd5b5035919050565b60005b83811015611fc8578181015183820152602001611fb0565b83811115611fd7576000848401525b50505050565b60008151808452611ff5816020860160208601611fad565b601f01601f19169290920160200192915050565b602081526000610c9f6020830184611fdd565b634e487b7160e01b600052604160045260246000fd5b604051601f8201601f191681016001600160401b038111828210171561205a5761205a61201c565b604052919050565b60006001600160401b0382111561207b5761207b61201c565b5060051b60200190565b80356001600160a01b038116811461209c57600080fd5b919050565b600082601f8301126120b257600080fd5b813560206120c76120c283612062565b612032565b82815260059290921b840181019181810190868411156120e657600080fd5b8286015b84811015612108576120fb81612085565b83529183019183016120ea565b509695505050505050565b600082601f83011261212457600080fd5b813560206121346120c283612062565b82815260059290921b8401810191818101908684111561215357600080fd5b8286015b848110156121085780358352918301918301612157565b60006001600160401b038311156121875761218761201c565b61219a601f8401601f1916602001612032565b90508281528383830111156121ae57600080fd5b828260208301376000602084830101529392505050565b600082601f8301126121d657600080fd5b813560206121e66120c283612062565b82815260059290921b8401810191818101908684111561220557600080fd5b8286015b848110156121085780356001600160401b038111156122285760008081fd5b8701603f8101891361223a5760008081fd5b61224b89868301356040840161216e565b845250918301918301612209565b6000806000806080858703121561226f57600080fd5b84356001600160401b038082111561228657600080fd5b612292888389016120a1565b955060208701359150808211156122a857600080fd5b6122b488838901612113565b945060408701359150808211156122ca57600080fd5b506122d7878288016121c5565b949793965093946060013593505050565b803560ff8116811461209c57600080fd5b600080600080600060a0868803121561231157600080fd5b85359450612321602087016122e8565b935061232f604087016122e8565b94979396509394606081013594506080013592915050565b634e487b7160e01b600052602160045260246000fd5b602081016008831061237f57634e487b7160e01b600052602160045260246000fd5b91905290565b6000806040838503121561239857600080fd5b823591506123a860208401612085565b90509250929050565b600080604083850312156123c457600080fd5b823591506123a8602084016122e8565b60008083601f8401126123e657600080fd5b5081356001600160401b038111156123fd57600080fd5b60208301915083602082850101111561241557600080fd5b9250929050565b6000806000806060858703121561243257600080fd5b84359350612442602086016122e8565b925060408501356001600160401b0381111561245d57600080fd5b612469878288016123d4565b95989497509550505050565b6000806000806080858703121561248b57600080fd5b84356001600160401b03808211156124a257600080fd5b6124ae888389016120a1565b955060208701359150808211156124c457600080fd5b6124d088838901612113565b945060408701359150808211156124e657600080fd5b6124f2888389016121c5565b9350606087013591508082111561250857600080fd5b508501601f8101871361251a57600080fd5b6125298782356020840161216e565b91505092959194509250565b6000806000806060858703121561254b57600080fd5b61255485612085565b93506020850135925060408501356001600160401b0381111561245d57600080fd5b6000806040838503121561258957600080fd5b61259283612085565b946020939093013593505050565b60208082526018908201527f476f7665726e6f723a206f6e6c79476f7665726e616e63650000000000000000604082015260600190565b600181811c908216806125eb57607f821691505b6020821081141561260c57634e487b7160e01b600052602260045260246000fd5b50919050565b600081518084526020808501945080840160005b8381101561264b5781516001600160a01b031687529582019590820190600101612626565b509495945050505050565b600081518084526020808501945080840160005b8381101561264b5781518752958201959082019060010161266a565b600081518084526020808501808196508360051b8101915082860160005b858110156126ce5782840389526126bc848351611fdd565b988501989350908401906001016126a4565b5091979650505050505050565b6080815260006126ee6080830187612612565b82810360208401526127008187612656565b905082810360408401526127148186612686565b91505082606083015295945050505050565b60006020828403121561273857600080fd5b5051919050565b634e487b7160e01b600052601160045260246000fd5b600081600019048311821515161561276f5761276f61273f565b500290565b60008261279157634e487b7160e01b600052601260045260246000fd5b500490565b634e487b7160e01b600052603260045260246000fd5b60006000198214156127c0576127c061273f565b5060010190565b600082516127d9818460208701611fad565b9190910192915050565b84815260ff84166020820152826040820152608060608201526000610b3a6080830184611fdd565b6000821982111561281e5761281e61273f565b500190565b6000828210156128355761283561273f565b500390565b60208082526021908201527f476f7665726e6f723a20696e76616c69642070726f706f73616c206c656e67746040820152600d60fb1b606082015260800190565b60006001600160401b0380831681851680830382111561289d5761289d61273f565b01949350505050565b60006101208b8352602060018060a01b038c16818501528160408501526128cf8285018c612612565b915083820360608501526128e3828b612656565b915083820360808501528189518084528284019150828160051b850101838c0160005b8381101561293457601f19878403018552612922838351611fdd565b94860194925090850190600101612906565b505086810360a0880152612948818c612686565b94505050505061296360c08401876001600160401b03169052565b6001600160401b03851660e08401528281036101008401526129858185611fdd565b9c9b50505050505050505050505056fe476f7665726e6f723a2063616c6c20726576657274656420776974686f7574206d657373616765416464726573733a206c6f772d6c6576656c2063616c6c20776974682076616c7565206661696c6564a2646970667358221220c89c79ca8b2c1b46cdcd1a60dbae811bff8c1bf3f15a805dd28019a5ac2a330564736f6c63430008090033",
  "linkReferences": {},
  "deployedLinkReferences": {}
}