{
  "_format": "hh-sol-artifact-1",
  "contractName": "ERC1155PausableMock",
  "sourceName": "contracts/mocks/ERC1155PausableMock.sol",
  "abi": [
    {
      "inputs": [
        {
          "internalType": "string",
          "name": "uri",
          "type": "string"
        }
      ],
      "stateMutability": "nonpayable",
      "type": "constructor"
    },
    {
      "anonymous": false,
      "inputs": [
        {
          "indexed": true,
          "internalType": "address",
          "name": "account",
          "type": "address"
        },
        {
          "indexed": true,
          "internalType": "address",
          "name": "operator",
          "type": "address"
        },
        {
          "indexed": false,
          "internalType": "bool",
          "name": "approved",
          "type": "bool"
        }
      ],
      "name": "ApprovalForAll",
      "type": "event"
    },
    {
      "anonymous": false,
      "inputs": [
        {
          "indexed": false,
          "internalType": "address",
          "name": "account",
          "type": "address"
        }
      ],
      "name": "Paused",
      "type": "event"
    },
    {
      "anonymous": false,
      "inputs": [
        {
          "indexed": true,
          "internalType": "address",
          "name": "operator",
          "type": "address"
        },
        {
          "indexed": true,
          "internalType": "address",
          "name": "from",
          "type": "address"
        },
        {
          "indexed": true,
          "internalType": "address",
          "name": "to",
          "type": "address"
        },
        {
          "indexed": false,
          "internalType": "uint256[]",
          "name": "ids",
          "type": "uint256[]"
        },
        {
          "indexed": false,
          "internalType": "uint256[]",
          "name": "values",
          "type": "uint256[]"
        }
      ],
      "name": "TransferBatch",
      "type": "event"
    },
    {
      "anonymous": false,
      "inputs": [
        {
          "indexed": true,
          "internalType": "address",
          "name": "operator",
          "type": "address"
        },
        {
          "indexed": true,
          "internalType": "address",
          "name": "from",
          "type": "address"
        },
        {
          "indexed": true,
          "internalType": "address",
          "name": "to",
          "type": "address"
        },
        {
          "indexed": false,
          "internalType": "uint256",
          "name": "id",
          "type": "uint256"
        },
        {
          "indexed": false,
          "internalType": "uint256",
          "name": "value",
          "type": "uint256"
        }
      ],
      "name": "TransferSingle",
      "type": "event"
    },
    {
      "anonymous": false,
      "inputs": [
        {
          "indexed": false,
          "internalType": "string",
          "name": "value",
          "type": "string"
        },
        {
          "indexed": true,
          "internalType": "uint256",
          "name": "id",
          "type": "uint256"
        }
      ],
      "name": "URI",
      "type": "event"
    },
    {
      "anonymous": false,
      "inputs": [
        {
          "indexed": false,
          "internalType": "address",
          "name": "account",
          "type": "address"
        }
      ],
      "name": "Unpaused",
      "type": "event"
    },
    {
      "inputs": [
        {
          "internalType": "address",
          "name": "account",
          "type": "address"
        },
        {
          "internalType": "uint256",
          "name": "id",
          "type": "uint256"
        }
      ],
      "name": "balanceOf",
      "outputs": [
        {
          "internalType": "uint256",
          "name": "",
          "type": "uint256"
        }
      ],
      "stateMutability": "view",
      "type": "function"
    },
    {
      "inputs": [
        {
          "internalType": "address[]",
          "name": "accounts",
          "type": "address[]"
        },
        {
          "internalType": "uint256[]",
          "name": "ids",
          "type": "uint256[]"
        }
      ],
      "name": "balanceOfBatch",
      "outputs": [
        {
          "internalType": "uint256[]",
          "name": "",
          "type": "uint256[]"
        }
      ],
      "stateMutability": "view",
      "type": "function"
    },
    {
      "inputs": [
        {
          "internalType": "address",
          "name": "owner",
          "type": "address"
        },
        {
          "internalType": "uint256",
          "name": "id",
          "type": "uint256"
        },
        {
          "internalType": "uint256",
          "name": "value",
          "type": "uint256"
        }
      ],
      "name": "burn",
      "outputs": [],
      "stateMutability": "nonpayable",
      "type": "function"
    },
    {
      "inputs": [
        {
          "internalType": "address",
          "name": "owner",
          "type": "address"
        },
        {
          "internalType": "uint256[]",
          "name": "ids",
          "type": "uint256[]"
        },
        {
          "internalType": "uint256[]",
          "name": "values",
          "type": "uint256[]"
        }
      ],
      "name": "burnBatch",
      "outputs": [],
      "stateMutability": "nonpayable",
      "type": "function"
    },
    {
      "inputs": [
        {
          "internalType": "address",
          "name": "account",
          "type": "address"
        },
        {
          "internalType": "address",
          "name": "operator",
          "type": "address"
        }
      ],
      "name": "isApprovedForAll",
      "outputs": [
        {
          "internalType": "bool",
          "name": "",
          "type": "bool"
        }
      ],
      "stateMutability": "view",
      "type": "function"
    },
    {
      "inputs": [
        {
          "internalType": "address",
          "name": "to",
          "type": "address"
        },
        {
          "internalType": "uint256",
          "name": "id",
          "type": "uint256"
        },
        {
          "internalType": "uint256",
          "name": "value",
          "type": "uint256"
        },
        {
          "internalType": "bytes",
          "name": "data",
          "type": "bytes"
        }
      ],
      "name": "mint",
      "outputs": [],
      "stateMutability": "nonpayable",
      "type": "function"
    },
    {
      "inputs": [
        {
          "internalType": "address",
          "name": "to",
          "type": "address"
        },
        {
          "internalType": "uint256[]",
          "name": "ids",
          "type": "uint256[]"
        },
        {
          "internalType": "uint256[]",
          "name": "values",
          "type": "uint256[]"
        },
        {
          "internalType": "bytes",
          "name": "data",
          "type": "bytes"
        }
      ],
      "name": "mintBatch",
      "outputs": [],
      "stateMutability": "nonpayable",
      "type": "function"
    },
    {
      "inputs": [],
      "name": "pause",
      "outputs": [],
      "stateMutability": "nonpayable",
      "type": "function"
    },
    {
      "inputs": [],
      "name": "paused",
      "outputs": [
        {
          "internalType": "bool",
          "name": "",
          "type": "bool"
        }
      ],
      "stateMutability": "view",
      "type": "function"
    },
    {
      "inputs": [
        {
          "internalType": "address",
          "name": "from",
          "type": "address"
        },
        {
          "internalType": "address",
          "name": "to",
          "type": "address"
        },
        {
          "internalType": "uint256[]",
          "name": "ids",
          "type": "uint256[]"
        },
        {
          "internalType": "uint256[]",
          "name": "amounts",
          "type": "uint256[]"
        },
        {
          "internalType": "bytes",
          "name": "data",
          "type": "bytes"
        }
      ],
      "name": "safeBatchTransferFrom",
      "outputs": [],
      "stateMutability": "nonpayable",
      "type": "function"
    },
    {
      "inputs": [
        {
          "internalType": "address",
          "name": "from",
          "type": "address"
        },
        {
          "internalType": "address",
          "name": "to",
          "type": "address"
        },
        {
          "internalType": "uint256",
          "name": "id",
          "type": "uint256"
        },
        {
          "internalType": "uint256",
          "name": "amount",
          "type": "uint256"
        },
        {
          "internalType": "bytes",
          "name": "data",
          "type": "bytes"
        }
      ],
      "name": "safeTransferFrom",
      "outputs": [],
      "stateMutability": "nonpayable",
      "type": "function"
    },
    {
      "inputs": [
        {
          "internalType": "address",
          "name": "operator",
          "type": "address"
        },
        {
          "internalType": "bool",
          "name": "approved",
          "type": "bool"
        }
      ],
      "name": "setApprovalForAll",
      "outputs": [],
      "stateMutability": "nonpayable",
      "type": "function"
    },
    {
      "inputs": [
        {
          "internalType": "string",
          "name": "newuri",
          "type": "string"
        }
      ],
      "name": "setURI",
      "outputs": [],
      "stateMutability": "nonpayable",
      "type": "function"
    },
    {
      "inputs": [
        {
          "internalType": "bytes4",
          "name": "interfaceId",
          "type": "bytes4"
        }
      ],
      "name": "supportsInterface",
      "outputs": [
        {
          "internalType": "bool",
          "name": "",
          "type": "bool"
        }
      ],
      "stateMutability": "view",
      "type": "function"
    },
    {
      "inputs": [],
      "name": "unpause",
      "outputs": [],
      "stateMutability": "nonpayable",
      "type": "function"
    },
    {
      "inputs": [
        {
          "internalType": "uint256",
          "name": "",
          "type": "uint256"
        }
      ],
      "name": "uri",
      "outputs": [
        {
          "internalType": "string",
          "name": "",
          "type": "string"
        }
      ],
      "stateMutability": "view",
      "type": "function"
    }
  ],
  "bytecode": "0x60806040523480156200001157600080fd5b506040516200218138038062002181833981016040819052620000349162000129565b8080620000418162000054565b50506003805460ff191690555062000242565b8051620000699060029060208401906200006d565b5050565b8280546200007b9062000205565b90600052602060002090601f0160209004810192826200009f5760008555620000ea565b82601f10620000ba57805160ff1916838001178555620000ea565b82800160010185558215620000ea579182015b82811115620000ea578251825591602001919060010190620000cd565b50620000f8929150620000fc565b5090565b5b80821115620000f85760008155600101620000fd565b634e487b7160e01b600052604160045260246000fd5b600060208083850312156200013d57600080fd5b82516001600160401b03808211156200015557600080fd5b818501915085601f8301126200016a57600080fd5b8151818111156200017f576200017f62000113565b604051601f8201601f19908116603f01168101908382118183101715620001aa57620001aa62000113565b816040528281528886848701011115620001c357600080fd5b600093505b82841015620001e75784840186015181850187015292850192620001c8565b82841115620001f95760008684830101525b98975050505050505050565b600181811c908216806200021a57607f821691505b602082108114156200023c57634e487b7160e01b600052602260045260246000fd5b50919050565b611f2f80620002526000396000f3fe608060405234801561001057600080fd5b50600436106100ff5760003560e01c80635c975abb11610097578063a22cb46511610066578063a22cb46514610209578063e985e9c51461021c578063f242432a14610258578063f5298aca1461026b57600080fd5b80635c975abb146101d05780636b20c454146101db578063731133e9146101ee5780638456cb591461020157600080fd5b80631f7fdffa116100d35780631f7fdffa146101825780632eb2c2d6146101955780633f4ba83a146101a85780634e1273f4146101b057600080fd5b8062fdd58e1461010457806301ffc9a71461012a57806302fe53051461014d5780630e89341c14610162575b600080fd5b610117610112366004611434565b61027e565b6040519081526020015b60405180910390f35b61013d610138366004611474565b610315565b6040519015158152602001610121565b61016061015b366004611539565b610367565b005b61017561017036600461158a565b610373565b60405161012191906115f0565b6101606101903660046116b8565b610407565b6101606101a3366004611751565b610419565b6101606104b0565b6101c36101be3660046117fb565b6104ba565b6040516101219190611901565b60035460ff1661013d565b6101606101e9366004611914565b6105e4565b6101606101fc366004611988565b6105f4565b610160610600565b6101606102173660046119dd565b610608565b61013d61022a366004611a19565b6001600160a01b03918216600090815260016020908152604080832093909416825291909152205460ff1690565b610160610266366004611a4c565b610617565b610160610279366004611ab1565b61069e565b60006001600160a01b0383166102ef5760405162461bcd60e51b815260206004820152602b60248201527f455243313135353a2062616c616e636520717565727920666f7220746865207a60448201526a65726f206164647265737360a81b60648201526084015b60405180910390fd5b506000908152602081815260408083206001600160a01b03949094168352929052205490565b60006001600160e01b03198216636cdb3d1360e11b148061034657506001600160e01b031982166303a24d0760e21b145b8061036157506301ffc9a760e01b6001600160e01b03198316145b92915050565b610370816106a9565b50565b60606002805461038290611ae4565b80601f01602080910402602001604051908101604052809291908181526020018280546103ae90611ae4565b80156103fb5780601f106103d0576101008083540402835291602001916103fb565b820191906000526020600020905b8154815290600101906020018083116103de57829003601f168201915b50505050509050919050565b610413848484846106bc565b50505050565b6001600160a01b0385163314806104355750610435853361022a565b61049c5760405162461bcd60e51b815260206004820152603260248201527f455243313135353a207472616e736665722063616c6c6572206973206e6f74206044820152711bdddb995c881b9bdc88185c1c1c9bdd995960721b60648201526084016102e6565b6104a9858585858561081b565b5050505050565b6104b86109c5565b565b6060815183511461051f5760405162461bcd60e51b815260206004820152602960248201527f455243313135353a206163636f756e747320616e6420696473206c656e677468604482015268040dad2e6dac2e8c6d60bb1b60648201526084016102e6565b6000835167ffffffffffffffff81111561053b5761053b611498565b604051908082528060200260200182016040528015610564578160200160208202803683370190505b50905060005b84518110156105dc576105af85828151811061058857610588611b1f565b60200260200101518583815181106105a2576105a2611b1f565b602002602001015161027e565b8282815181106105c1576105c1611b1f565b60209081029190910101526105d581611b4b565b905061056a565b509392505050565b6105ef838383610a58565b505050565b61041384848484610bf4565b6104b8610cdd565b610613338383610d58565b5050565b6001600160a01b0385163314806106335750610633853361022a565b6106915760405162461bcd60e51b815260206004820152602960248201527f455243313135353a2063616c6c6572206973206e6f74206f776e6572206e6f7260448201526808185c1c1c9bdd995960ba1b60648201526084016102e6565b6104a98585858585610e39565b6105ef838383610f71565b805161061390600290602084019061137f565b6001600160a01b0384166106e25760405162461bcd60e51b81526004016102e690611b66565b81518351146107035760405162461bcd60e51b81526004016102e690611ba7565b3361071381600087878787611089565b60005b84518110156107ae5783818151811061073157610731611b1f565b602002602001015160008087848151811061074e5761074e611b1f565b602002602001015181526020019081526020016000206000886001600160a01b03166001600160a01b0316815260200190815260200160002060008282546107969190611bef565b909155508190506107a681611b4b565b915050610716565b50846001600160a01b031660006001600160a01b0316826001600160a01b03167f4a39dc06d4c0dbc64b70af90fd698a233a518aa5d07e595d983b8c0526c8f7fb87876040516107ff929190611c07565b60405180910390a461081681600087878787611097565b6104a9565b815183511461083c5760405162461bcd60e51b81526004016102e690611ba7565b6001600160a01b0384166108625760405162461bcd60e51b81526004016102e690611c35565b33610871818787878787611089565b60005b845181101561095757600085828151811061089157610891611b1f565b6020026020010151905060008583815181106108af576108af611b1f565b602090810291909101810151600084815280835260408082206001600160a01b038e1683529093529190912054909150818110156108ff5760405162461bcd60e51b81526004016102e690611c7a565b6000838152602081815260408083206001600160a01b038e8116855292528083208585039055908b1682528120805484929061093c908490611bef565b925050819055505050508061095090611b4b565b9050610874565b50846001600160a01b0316866001600160a01b0316826001600160a01b03167f4a39dc06d4c0dbc64b70af90fd698a233a518aa5d07e595d983b8c0526c8f7fb87876040516109a7929190611c07565b60405180910390a46109bd818787878787611097565b505050505050565b60035460ff16610a0e5760405162461bcd60e51b815260206004820152601460248201527314185d5cd8589b194e881b9bdd081c185d5cd95960621b60448201526064016102e6565b6003805460ff191690557f5db9ee0a495bf2e6ff9c91a7834c1ba4fdd244a5e8aa4e537bd38aeae4b073aa335b6040516001600160a01b03909116815260200160405180910390a1565b6001600160a01b038316610a7e5760405162461bcd60e51b81526004016102e690611cc4565b8051825114610a9f5760405162461bcd60e51b81526004016102e690611ba7565b6000339050610ac281856000868660405180602001604052806000815250611089565b60005b8351811015610b87576000848281518110610ae257610ae2611b1f565b602002602001015190506000848381518110610b0057610b00611b1f565b602090810291909101810151600084815280835260408082206001600160a01b038c168352909352919091205490915081811015610b505760405162461bcd60e51b81526004016102e690611d07565b6000928352602083815260408085206001600160a01b038b1686529091529092209103905580610b7f81611b4b565b915050610ac5565b5060006001600160a01b0316846001600160a01b0316826001600160a01b03167f4a39dc06d4c0dbc64b70af90fd698a233a518aa5d07e595d983b8c0526c8f7fb8686604051610bd8929190611c07565b60405180910390a4604080516020810190915260009052610413565b6001600160a01b038416610c1a5760405162461bcd60e51b81526004016102e690611b66565b336000610c2685611202565b90506000610c3385611202565b9050610c4483600089858589611089565b6000868152602081815260408083206001600160a01b038b16845290915281208054879290610c74908490611bef565b909155505060408051878152602081018790526001600160a01b03808a1692600092918716917fc3d58168c5ae7397731d063d5bbf3d657854427343f4c083240f7aacaa2d0f62910160405180910390a4610cd48360008989898961124d565b50505050505050565b60035460ff1615610d235760405162461bcd60e51b815260206004820152601060248201526f14185d5cd8589b194e881c185d5cd95960821b60448201526064016102e6565b6003805460ff191660011790557f62e78cea01bee320cd4e420270b5ea74000d11b0c9f74754ebdbfc544b05a258610a3b3390565b816001600160a01b0316836001600160a01b03161415610dcc5760405162461bcd60e51b815260206004820152602960248201527f455243313135353a2073657474696e6720617070726f76616c20737461747573604482015268103337b91039b2b63360b91b60648201526084016102e6565b6001600160a01b03838116600081815260016020908152604080832094871680845294825291829020805460ff191686151590811790915591519182527f17307eab39ab6107e8899845ad3d59bd9653f200f220920489ca2b5937696c31910160405180910390a3505050565b6001600160a01b038416610e5f5760405162461bcd60e51b81526004016102e690611c35565b336000610e6b85611202565b90506000610e7885611202565b9050610e88838989858589611089565b6000868152602081815260408083206001600160a01b038c16845290915290205485811015610ec95760405162461bcd60e51b81526004016102e690611c7a565b6000878152602081815260408083206001600160a01b038d8116855292528083208985039055908a16825281208054889290610f06908490611bef565b909155505060408051888152602081018890526001600160a01b03808b16928c821692918816917fc3d58168c5ae7397731d063d5bbf3d657854427343f4c083240f7aacaa2d0f62910160405180910390a4610f66848a8a8a8a8a61124d565b505050505050505050565b6001600160a01b038316610f975760405162461bcd60e51b81526004016102e690611cc4565b336000610fa384611202565b90506000610fb084611202565b9050610fd083876000858560405180602001604052806000815250611089565b6000858152602081815260408083206001600160a01b038a168452909152902054848110156110115760405162461bcd60e51b81526004016102e690611d07565b6000868152602081815260408083206001600160a01b038b81168086529184528285208a8703905582518b81529384018a90529092908816917fc3d58168c5ae7397731d063d5bbf3d657854427343f4c083240f7aacaa2d0f62910160405180910390a4604080516020810190915260009052610cd4565b6109bd868686868686611317565b6001600160a01b0384163b156109bd5760405163bc197c8160e01b81526001600160a01b0385169063bc197c81906110db9089908990889088908890600401611d4b565b602060405180830381600087803b1580156110f557600080fd5b505af1925050508015611125575060408051601f3d908101601f1916820190925261112291810190611da9565b60015b6111d257611131611dc6565b806308c379a0141561116b5750611146611de2565b80611151575061116d565b8060405162461bcd60e51b81526004016102e691906115f0565b505b60405162461bcd60e51b815260206004820152603460248201527f455243313135353a207472616e7366657220746f206e6f6e20455243313135356044820152732932b1b2b4bb32b91034b6b83632b6b2b73a32b960611b60648201526084016102e6565b6001600160e01b0319811663bc197c8160e01b14610cd45760405162461bcd60e51b81526004016102e690611e6c565b6040805160018082528183019092526060916000919060208083019080368337019050509050828160008151811061123c5761123c611b1f565b602090810291909101015292915050565b6001600160a01b0384163b156109bd5760405163f23a6e6160e01b81526001600160a01b0385169063f23a6e61906112919089908990889088908890600401611eb4565b602060405180830381600087803b1580156112ab57600080fd5b505af19250505080156112db575060408051601f3d908101601f191682019092526112d891810190611da9565b60015b6112e757611131611dc6565b6001600160e01b0319811663f23a6e6160e01b14610cd45760405162461bcd60e51b81526004016102e690611e6c565b60035460ff16156109bd5760405162461bcd60e51b815260206004820152602c60248201527f455243313135355061757361626c653a20746f6b656e207472616e736665722060448201526b1dda1a5b19481c185d5cd95960a21b60648201526084016102e6565b82805461138b90611ae4565b90600052602060002090601f0160209004810192826113ad57600085556113f3565b82601f106113c657805160ff19168380011785556113f3565b828001600101855582156113f3579182015b828111156113f35782518255916020019190600101906113d8565b506113ff929150611403565b5090565b5b808211156113ff5760008155600101611404565b80356001600160a01b038116811461142f57600080fd5b919050565b6000806040838503121561144757600080fd5b61145083611418565b946020939093013593505050565b6001600160e01b03198116811461037057600080fd5b60006020828403121561148657600080fd5b81356114918161145e565b9392505050565b634e487b7160e01b600052604160045260246000fd5b601f8201601f1916810167ffffffffffffffff811182821017156114d4576114d4611498565b6040525050565b600067ffffffffffffffff8311156114f5576114f5611498565b60405161150c601f8501601f1916602001826114ae565b80915083815284848401111561152157600080fd5b83836020830137600060208583010152509392505050565b60006020828403121561154b57600080fd5b813567ffffffffffffffff81111561156257600080fd5b8201601f8101841361157357600080fd5b611582848235602084016114db565b949350505050565b60006020828403121561159c57600080fd5b5035919050565b6000815180845260005b818110156115c9576020818501810151868301820152016115ad565b818111156115db576000602083870101525b50601f01601f19169290920160200192915050565b60208152600061149160208301846115a3565b600067ffffffffffffffff82111561161d5761161d611498565b5060051b60200190565b600082601f83011261163857600080fd5b8135602061164582611603565b60405161165282826114ae565b83815260059390931b850182019282810191508684111561167257600080fd5b8286015b8481101561168d5780358352918301918301611676565b509695505050505050565b600082601f8301126116a957600080fd5b611491838335602085016114db565b600080600080608085870312156116ce57600080fd5b6116d785611418565b9350602085013567ffffffffffffffff808211156116f457600080fd5b61170088838901611627565b9450604087013591508082111561171657600080fd5b61172288838901611627565b9350606087013591508082111561173857600080fd5b5061174587828801611698565b91505092959194509250565b600080600080600060a0868803121561176957600080fd5b61177286611418565b945061178060208701611418565b9350604086013567ffffffffffffffff8082111561179d57600080fd5b6117a989838a01611627565b945060608801359150808211156117bf57600080fd5b6117cb89838a01611627565b935060808801359150808211156117e157600080fd5b506117ee88828901611698565b9150509295509295909350565b6000806040838503121561180e57600080fd5b823567ffffffffffffffff8082111561182657600080fd5b818501915085601f83011261183a57600080fd5b8135602061184782611603565b60405161185482826114ae565b83815260059390931b850182019282810191508984111561187457600080fd5b948201945b838610156118995761188a86611418565b82529482019490820190611879565b965050860135925050808211156118af57600080fd5b506118bc85828601611627565b9150509250929050565b600081518084526020808501945080840160005b838110156118f6578151875295820195908201906001016118da565b509495945050505050565b60208152600061149160208301846118c6565b60008060006060848603121561192957600080fd5b61193284611418565b9250602084013567ffffffffffffffff8082111561194f57600080fd5b61195b87838801611627565b9350604086013591508082111561197157600080fd5b5061197e86828701611627565b9150509250925092565b6000806000806080858703121561199e57600080fd5b6119a785611418565b93506020850135925060408501359150606085013567ffffffffffffffff8111156119d157600080fd5b61174587828801611698565b600080604083850312156119f057600080fd5b6119f983611418565b915060208301358015158114611a0e57600080fd5b809150509250929050565b60008060408385031215611a2c57600080fd5b611a3583611418565b9150611a4360208401611418565b90509250929050565b600080600080600060a08688031215611a6457600080fd5b611a6d86611418565b9450611a7b60208701611418565b93506040860135925060608601359150608086013567ffffffffffffffff811115611aa557600080fd5b6117ee88828901611698565b600080600060608486031215611ac657600080fd5b611acf84611418565b95602085013595506040909401359392505050565b600181811c90821680611af857607f821691505b60208210811415611b1957634e487b7160e01b600052602260045260246000fd5b50919050565b634e487b7160e01b600052603260045260246000fd5b634e487b7160e01b600052601160045260246000fd5b6000600019821415611b5f57611b5f611b35565b5060010190565b60208082526021908201527f455243313135353a206d696e7420746f20746865207a65726f206164647265736040820152607360f81b606082015260800190565b60208082526028908201527f455243313135353a2069647320616e6420616d6f756e7473206c656e677468206040820152670dad2e6dac2e8c6d60c31b606082015260800190565b60008219821115611c0257611c02611b35565b500190565b604081526000611c1a60408301856118c6565b8281036020840152611c2c81856118c6565b95945050505050565b60208082526025908201527f455243313135353a207472616e7366657220746f20746865207a65726f206164604082015264647265737360d81b606082015260800190565b6020808252602a908201527f455243313135353a20696e73756666696369656e742062616c616e636520666f60408201526939103a3930b739b332b960b11b606082015260800190565b60208082526023908201527f455243313135353a206275726e2066726f6d20746865207a65726f206164647260408201526265737360e81b606082015260800190565b60208082526024908201527f455243313135353a206275726e20616d6f756e7420657863656564732062616c604082015263616e636560e01b606082015260800190565b6001600160a01b0386811682528516602082015260a060408201819052600090611d77908301866118c6565b8281036060840152611d8981866118c6565b90508281036080840152611d9d81856115a3565b98975050505050505050565b600060208284031215611dbb57600080fd5b81516114918161145e565b600060033d1115611ddf5760046000803e5060005160e01c5b90565b600060443d1015611df05790565b6040516003193d81016004833e81513d67ffffffffffffffff8160248401118184111715611e2057505050505090565b8285019150815181811115611e385750505050505090565b843d8701016020828501011115611e525750505050505090565b611e61602082860101876114ae565b509095945050505050565b60208082526028908201527f455243313135353a204552433131353552656365697665722072656a656374656040820152676420746f6b656e7360c01b606082015260800190565b6001600160a01b03868116825285166020820152604081018490526060810183905260a060808201819052600090611eee908301846115a3565b97965050505050505056fea264697066735822122071fa6cf9f9f004566b602ed6fffe3d06b0847cd84a5e57874f50039bea97d67664736f6c63430008090033",
  "linkReferences": {},
  "deployedLinkReferences": {}
}